{
  "abi": [
    {
      "inputs": [
        {
          "internalType": "address",
          "name": "owner_",
          "type": "address"
        },
        {
          "internalType": "address",
          "name": "protocol_",
          "type": "address"
        },
        {
          "internalType": "address",
          "name": "permit2_",
          "type": "address"
        }
      ],
      "stateMutability": "nonpayable",
      "type": "constructor"
    },
    {
      "inputs": [],
      "name": "AmountLessThanMinimum",
      "type": "error"
    },
    {
      "inputs": [],
      "name": "FailedCallback",
      "type": "error"
    },
    {
      "inputs": [],
      "name": "InsufficientFunding",
      "type": "error"
    },
    {
      "inputs": [],
      "name": "InvalidCallback",
      "type": "error"
    },
    {
      "inputs": [],
      "name": "InvalidCallbackResponse",
      "type": "error"
    },
    {
      "inputs": [],
      "name": "InvalidFee",
      "type": "error"
    },
    {
      "inputs": [
        {
          "internalType": "uint96",
          "name": "id_",
          "type": "uint96"
        }
      ],
      "name": "InvalidLotId",
      "type": "error"
    },
    {
      "inputs": [
        {
          "internalType": "Keycode",
          "name": "keycode_",
          "type": "bytes5"
        },
        {
          "internalType": "uint8",
          "name": "version_",
          "type": "uint8"
        }
      ],
      "name": "InvalidModuleInstall",
      "type": "error"
    },
    {
      "inputs": [],
      "name": "InvalidParams",
      "type": "error"
    },
    {
      "inputs": [],
      "name": "InvalidState",
      "type": "error"
    },
    {
      "inputs": [
        {
          "internalType": "Veecode",
          "name": "veecode_",
          "type": "bytes7"
        }
      ],
      "name": "InvalidVeecode",
      "type": "error"
    },
    {
      "inputs": [
        {
          "internalType": "Keycode",
          "name": "keycode_",
          "type": "bytes5"
        }
      ],
      "name": "ModuleAlreadySunset",
      "type": "error"
    },
    {
      "inputs": [
        {
          "internalType": "bytes",
          "name": "error_",
          "type": "bytes"
        }
      ],
      "name": "ModuleExecutionReverted",
      "type": "error"
    },
    {
      "inputs": [
        {
          "internalType": "Keycode",
          "name": "keycode_",
          "type": "bytes5"
        }
      ],
      "name": "ModuleIsSunset",
      "type": "error"
    },
    {
      "inputs": [
        {
          "internalType": "Keycode",
          "name": "keycode_",
          "type": "bytes5"
        },
        {
          "internalType": "uint8",
          "name": "version_",
          "type": "uint8"
        }
      ],
      "name": "ModuleNotInstalled",
      "type": "error"
    },
    {
      "inputs": [
        {
          "internalType": "address",
          "name": "caller_",
          "type": "address"
        }
      ],
      "name": "NotPermitted",
      "type": "error"
    },
    {
      "inputs": [
        {
          "internalType": "address",
          "name": "target_",
          "type": "address"
        }
      ],
      "name": "TargetNotAContract",
      "type": "error"
    },
    {
      "anonymous": false,
      "inputs": [
        {
          "indexed": true,
          "internalType": "uint96",
          "name": "lotId",
          "type": "uint96"
        },
        {
          "indexed": true,
          "internalType": "Veecode",
          "name": "auctionRef",
          "type": "bytes7"
        }
      ],
      "name": "AuctionCancelled",
      "type": "event"
    },
    {
      "anonymous": false,
      "inputs": [
        {
          "indexed": true,
          "internalType": "uint96",
          "name": "lotId",
          "type": "uint96"
        },
        {
          "indexed": true,
          "internalType": "Veecode",
          "name": "auctionRef",
          "type": "bytes7"
        },
        {
          "indexed": false,
          "internalType": "string",
          "name": "infoHash",
          "type": "string"
        }
      ],
      "name": "AuctionCreated",
      "type": "event"
    },
    {
      "anonymous": false,
      "inputs": [
        {
          "indexed": true,
          "internalType": "uint96",
          "name": "lotId",
          "type": "uint96"
        },
        {
          "indexed": true,
          "internalType": "uint96",
          "name": "bidId",
          "type": "uint96"
        },
        {
          "indexed": true,
          "internalType": "address",
          "name": "bidder",
          "type": "address"
        },
        {
          "indexed": false,
          "internalType": "uint256",
          "name": "amount",
          "type": "uint256"
        }
      ],
      "name": "Bid",
      "type": "event"
    },
    {
      "anonymous": false,
      "inputs": [
        {
          "indexed": true,
          "internalType": "uint96",
          "name": "lotId",
          "type": "uint96"
        },
        {
          "indexed": true,
          "internalType": "address",
          "name": "curator",
          "type": "address"
        }
      ],
      "name": "Curated",
      "type": "event"
    },
    {
      "anonymous": false,
      "inputs": [
        {
          "indexed": true,
          "internalType": "Keycode",
          "name": "keycode",
          "type": "bytes5"
        },
        {
          "indexed": true,
          "internalType": "uint8",
          "name": "version",
          "type": "uint8"
        },
        {
          "indexed": true,
          "internalType": "address",
          "name": "location",
          "type": "address"
        }
      ],
      "name": "ModuleInstalled",
      "type": "event"
    },
    {
      "anonymous": false,
      "inputs": [
        {
          "indexed": true,
          "internalType": "Keycode",
          "name": "keycode",
          "type": "bytes5"
        }
      ],
      "name": "ModuleSunset",
      "type": "event"
    },
    {
      "anonymous": false,
      "inputs": [
        {
          "indexed": true,
          "internalType": "address",
          "name": "user",
          "type": "address"
        },
        {
          "indexed": true,
          "internalType": "address",
          "name": "newOwner",
          "type": "address"
        }
      ],
      "name": "OwnershipTransferred",
      "type": "event"
    },
    {
      "anonymous": false,
      "inputs": [
        {
          "indexed": true,
          "internalType": "uint96",
          "name": "lotId",
          "type": "uint96"
        },
        {
          "indexed": true,
          "internalType": "address",
          "name": "buyer",
          "type": "address"
        },
        {
          "indexed": false,
          "internalType": "address",
          "name": "referrer",
          "type": "address"
        },
        {
          "indexed": false,
          "internalType": "uint256",
          "name": "amount",
          "type": "uint256"
        },
        {
          "indexed": false,
          "internalType": "uint256",
          "name": "payout",
          "type": "uint256"
        }
      ],
      "name": "Purchase",
      "type": "event"
    },
    {
      "anonymous": false,
      "inputs": [
        {
          "indexed": true,
          "internalType": "uint96",
          "name": "lotId",
          "type": "uint96"
        },
        {
          "indexed": true,
          "internalType": "uint96",
          "name": "bidId",
          "type": "uint96"
        },
        {
          "indexed": true,
          "internalType": "address",
          "name": "bidder",
          "type": "address"
        }
      ],
      "name": "RefundBid",
      "type": "event"
    },
    {
      "anonymous": false,
      "inputs": [
        {
          "indexed": true,
          "internalType": "uint96",
          "name": "lotId",
          "type": "uint96"
        }
      ],
      "name": "Settle",
      "type": "event"
    },
    {
      "inputs": [
        {
          "components": [
            {
              "internalType": "Keycode",
              "name": "auctionType",
              "type": "bytes5"
            },
            {
              "internalType": "contract ERC20",
              "name": "baseToken",
              "type": "address"
            },
            {
              "internalType": "contract ERC20",
              "name": "quoteToken",
              "type": "address"
            },
            {
              "internalType": "address",
              "name": "curator",
              "type": "address"
            },
            {
              "internalType": "contract ICallback",
              "name": "callbacks",
              "type": "address"
            },
            {
              "internalType": "bytes",
              "name": "callbackData",
              "type": "bytes"
            },
            {
              "internalType": "Keycode",
              "name": "derivativeType",
              "type": "bytes5"
            },
            {
              "internalType": "bytes",
              "name": "derivativeParams",
              "type": "bytes"
            },
            {
              "internalType": "bool",
              "name": "wrapDerivative",
              "type": "bool"
            },
            {
              "internalType": "bool",
              "name": "prefunded",
              "type": "bool"
            }
          ],
          "internalType": "struct Auctioneer.RoutingParams",
          "name": "routing_",
          "type": "tuple"
        },
        {
          "components": [
            {
              "internalType": "uint48",
              "name": "start",
              "type": "uint48"
            },
            {
              "internalType": "uint48",
              "name": "duration",
              "type": "uint48"
            },
            {
              "internalType": "bool",
              "name": "capacityInQuote",
              "type": "bool"
            },
            {
              "internalType": "uint96",
              "name": "capacity",
              "type": "uint96"
            },
            {
              "internalType": "bytes",
              "name": "implParams",
              "type": "bytes"
            }
          ],
          "internalType": "struct Auction.AuctionParams",
          "name": "params_",
          "type": "tuple"
        },
        {
          "internalType": "string",
          "name": "infoHash_",
          "type": "string"
        }
      ],
      "name": "auction",
      "outputs": [
        {
          "internalType": "uint96",
          "name": "lotId",
          "type": "uint96"
        }
      ],
      "stateMutability": "nonpayable",
      "type": "function"
    },
    {
      "inputs": [
        {
          "components": [
            {
              "internalType": "uint96",
              "name": "lotId",
              "type": "uint96"
            },
            {
              "internalType": "address",
              "name": "referrer",
              "type": "address"
            },
            {
              "internalType": "uint96",
              "name": "amount",
              "type": "uint96"
            },
            {
              "internalType": "bytes",
              "name": "auctionData",
              "type": "bytes"
            },
            {
              "internalType": "bytes",
              "name": "permit2Data",
              "type": "bytes"
            }
          ],
          "internalType": "struct Router.BidParams",
          "name": "params_",
          "type": "tuple"
        },
        {
          "internalType": "bytes",
          "name": "callbackData_",
          "type": "bytes"
        }
      ],
      "name": "bid",
      "outputs": [
        {
          "internalType": "uint64",
          "name": "bidId",
          "type": "uint64"
        }
      ],
      "stateMutability": "nonpayable",
      "type": "function"
    },
    {
      "inputs": [
        {
          "internalType": "uint96",
          "name": "protocolFee_",
          "type": "uint96"
        },
        {
          "internalType": "uint96",
          "name": "referrerFee_",
          "type": "uint96"
        },
        {
          "internalType": "bool",
          "name": "hasReferrer_",
          "type": "bool"
        },
        {
          "internalType": "uint96",
          "name": "amount_",
          "type": "uint96"
        }
      ],
      "name": "calculateQuoteFees",
      "outputs": [
        {
          "internalType": "uint96",
          "name": "toReferrer",
          "type": "uint96"
        },
        {
          "internalType": "uint96",
          "name": "toProtocol",
          "type": "uint96"
        }
      ],
      "stateMutability": "pure",
      "type": "function"
    },
    {
      "inputs": [
        {
          "internalType": "uint96",
          "name": "lotId_",
          "type": "uint96"
        },
        {
          "internalType": "bytes",
          "name": "callbackData_",
          "type": "bytes"
        }
      ],
      "name": "cancel",
      "outputs": [],
      "stateMutability": "nonpayable",
      "type": "function"
    },
    {
      "inputs": [
        {
          "internalType": "uint96",
          "name": "lotId_",
          "type": "uint96"
        },
        {
          "internalType": "uint64[]",
          "name": "bidIds_",
          "type": "uint64[]"
        }
      ],
      "name": "claimBids",
      "outputs": [],
      "stateMutability": "nonpayable",
      "type": "function"
    },
    {
      "inputs": [
        {
          "internalType": "uint96",
          "name": "lotId_",
          "type": "uint96"
        },
        {
          "internalType": "bytes",
          "name": "callbackData_",
          "type": "bytes"
        }
      ],
      "name": "claimProceeds",
      "outputs": [],
      "stateMutability": "nonpayable",
      "type": "function"
    },
    {
      "inputs": [
        {
          "internalType": "address",
          "name": "token_",
          "type": "address"
        }
      ],
      "name": "claimRewards",
      "outputs": [],
      "stateMutability": "nonpayable",
      "type": "function"
    },
    {
      "inputs": [
        {
          "internalType": "uint96",
          "name": "lotId_",
          "type": "uint96"
        },
        {
          "internalType": "bytes",
          "name": "callbackData_",
          "type": "bytes"
        }
      ],
      "name": "curate",
      "outputs": [],
      "stateMutability": "nonpayable",
      "type": "function"
    },
    {
      "inputs": [
        {
          "internalType": "Veecode",
          "name": "veecode_",
          "type": "bytes7"
        },
        {
          "internalType": "bytes",
          "name": "callData_",
          "type": "bytes"
        }
      ],
      "name": "execOnModule",
      "outputs": [
        {
          "internalType": "bytes",
          "name": "",
          "type": "bytes"
        }
      ],
      "stateMutability": "nonpayable",
      "type": "function"
    },
    {
      "inputs": [
        {
          "internalType": "Keycode",
          "name": "",
          "type": "bytes5"
        }
      ],
      "name": "fees",
      "outputs": [
        {
          "internalType": "uint48",
          "name": "protocol",
          "type": "uint48"
        },
        {
          "internalType": "uint48",
          "name": "referrer",
          "type": "uint48"
        },
        {
          "internalType": "uint48",
          "name": "maxCuratorFee",
          "type": "uint48"
        }
      ],
      "stateMutability": "view",
      "type": "function"
    },
    {
      "inputs": [
        {
          "internalType": "uint96",
          "name": "lotId_",
          "type": "uint96"
        }
      ],
      "name": "getModuleForId",
      "outputs": [
        {
          "internalType": "contract AuctionModule",
          "name": "",
          "type": "address"
        }
      ],
      "stateMutability": "view",
      "type": "function"
    },
    {
      "inputs": [
        {
          "internalType": "Veecode",
          "name": "",
          "type": "bytes7"
        }
      ],
      "name": "getModuleForVeecode",
      "outputs": [
        {
          "internalType": "contract Module",
          "name": "",
          "type": "address"
        }
      ],
      "stateMutability": "view",
      "type": "function"
    },
    {
      "inputs": [
        {
          "internalType": "Keycode",
          "name": "",
          "type": "bytes5"
        }
      ],
      "name": "getModuleStatus",
      "outputs": [
        {
          "internalType": "uint8",
          "name": "latestVersion",
          "type": "uint8"
        },
        {
          "internalType": "bool",
          "name": "sunset",
          "type": "bool"
        }
      ],
      "stateMutability": "view",
      "type": "function"
    },
    {
      "inputs": [
        {
          "internalType": "contract Module",
          "name": "newModule_",
          "type": "address"
        }
      ],
      "name": "installModule",
      "outputs": [],
      "stateMutability": "nonpayable",
      "type": "function"
    },
    {
      "inputs": [],
      "name": "isExecOnModule",
      "outputs": [
        {
          "internalType": "bool",
          "name": "",
          "type": "bool"
        }
      ],
      "stateMutability": "view",
      "type": "function"
    },
    {
      "inputs": [],
      "name": "lotCounter",
      "outputs": [
        {
          "internalType": "uint96",
          "name": "",
          "type": "uint96"
        }
      ],
      "stateMutability": "view",
      "type": "function"
    },
    {
      "inputs": [
        {
          "internalType": "uint96",
          "name": "lotId",
          "type": "uint96"
        }
      ],
      "name": "lotFees",
      "outputs": [
        {
          "internalType": "address",
          "name": "curator",
          "type": "address"
        },
        {
          "internalType": "bool",
          "name": "curated",
          "type": "bool"
        },
        {
          "internalType": "uint48",
          "name": "curatorFee",
          "type": "uint48"
        },
        {
          "internalType": "uint48",
          "name": "protocolFee",
          "type": "uint48"
        },
        {
          "internalType": "uint48",
          "name": "referrerFee",
          "type": "uint48"
        }
      ],
      "stateMutability": "view",
      "type": "function"
    },
    {
      "inputs": [
        {
          "internalType": "uint96",
          "name": "lotId",
          "type": "uint96"
        }
      ],
      "name": "lotRouting",
      "outputs": [
        {
          "internalType": "address",
          "name": "seller",
          "type": "address"
        },
        {
          "internalType": "uint96",
          "name": "funding",
          "type": "uint96"
        },
        {
          "internalType": "contract ERC20",
          "name": "baseToken",
          "type": "address"
        },
        {
          "internalType": "Veecode",
          "name": "auctionReference",
          "type": "bytes7"
        },
        {
          "internalType": "contract ERC20",
          "name": "quoteToken",
          "type": "address"
        },
        {
          "internalType": "contract ICallback",
          "name": "callbacks",
          "type": "address"
        },
        {
          "internalType": "Veecode",
          "name": "derivativeReference",
          "type": "bytes7"
        },
        {
          "internalType": "bool",
          "name": "wrapDerivative",
          "type": "bool"
        },
        {
          "internalType": "bytes",
          "name": "derivativeParams",
          "type": "bytes"
        }
      ],
      "stateMutability": "view",
      "type": "function"
    },
    {
      "inputs": [
        {
          "internalType": "uint256",
          "name": "",
          "type": "uint256"
        }
      ],
      "name": "modules",
      "outputs": [
        {
          "internalType": "Keycode",
          "name": "",
          "type": "bytes5"
        }
      ],
      "stateMutability": "view",
      "type": "function"
    },
    {
      "inputs": [],
      "name": "modulesCount",
      "outputs": [
        {
          "internalType": "uint256",
          "name": "",
          "type": "uint256"
        }
      ],
      "stateMutability": "view",
      "type": "function"
    },
    {
      "inputs": [],
      "name": "owner",
      "outputs": [
        {
          "internalType": "address",
          "name": "",
          "type": "address"
        }
      ],
      "stateMutability": "view",
      "type": "function"
    },
    {
      "inputs": [
        {
          "components": [
            {
              "internalType": "address",
              "name": "recipient",
              "type": "address"
            },
            {
              "internalType": "address",
              "name": "referrer",
              "type": "address"
            },
            {
              "internalType": "uint96",
              "name": "lotId",
              "type": "uint96"
            },
            {
              "internalType": "uint96",
              "name": "amount",
              "type": "uint96"
            },
            {
              "internalType": "uint96",
              "name": "minAmountOut",
              "type": "uint96"
            },
            {
              "internalType": "bytes",
              "name": "auctionData",
              "type": "bytes"
            },
            {
              "internalType": "bytes",
              "name": "permit2Data",
              "type": "bytes"
            }
          ],
          "internalType": "struct Router.PurchaseParams",
          "name": "params_",
          "type": "tuple"
        },
        {
          "internalType": "bytes",
          "name": "callbackData_",
          "type": "bytes"
        }
      ],
      "name": "purchase",
      "outputs": [
        {
          "internalType": "uint96",
          "name": "payoutAmount",
          "type": "uint96"
        }
      ],
      "stateMutability": "nonpayable",
      "type": "function"
    },
    {
      "inputs": [
        {
          "internalType": "uint96",
          "name": "lotId_",
          "type": "uint96"
        },
        {
          "internalType": "uint64",
          "name": "bidId_",
          "type": "uint64"
        }
      ],
      "name": "refundBid",
      "outputs": [],
      "stateMutability": "nonpayable",
      "type": "function"
    },
    {
      "inputs": [
        {
          "internalType": "address",
          "name": "",
          "type": "address"
        },
        {
          "internalType": "contract ERC20",
          "name": "",
          "type": "address"
        }
      ],
      "name": "rewards",
      "outputs": [
        {
          "internalType": "uint256",
          "name": "",
          "type": "uint256"
        }
      ],
      "stateMutability": "view",
      "type": "function"
    },
    {
      "inputs": [
        {
          "internalType": "Keycode",
          "name": "auctionType_",
          "type": "bytes5"
        },
        {
          "internalType": "uint48",
          "name": "fee_",
          "type": "uint48"
        }
      ],
      "name": "setCuratorFee",
      "outputs": [],
      "stateMutability": "nonpayable",
      "type": "function"
    },
    {
      "inputs": [
        {
          "internalType": "Keycode",
          "name": "auctionType_",
          "type": "bytes5"
        },
        {
          "internalType": "enum FeeManager.FeeType",
          "name": "type_",
          "type": "uint8"
        },
        {
          "internalType": "uint48",
          "name": "fee_",
          "type": "uint48"
        }
      ],
      "name": "setFee",
      "outputs": [],
      "stateMutability": "nonpayable",
      "type": "function"
    },
    {
      "inputs": [
        {
          "internalType": "address",
          "name": "protocol_",
          "type": "address"
        }
      ],
      "name": "setProtocol",
      "outputs": [],
      "stateMutability": "nonpayable",
      "type": "function"
    },
    {
      "inputs": [
        {
          "internalType": "uint96",
          "name": "lotId_",
          "type": "uint96"
        }
      ],
      "name": "settle",
      "outputs": [],
      "stateMutability": "nonpayable",
      "type": "function"
    },
    {
      "inputs": [
        {
          "internalType": "Keycode",
          "name": "keycode_",
          "type": "bytes5"
        }
      ],
      "name": "sunsetModule",
      "outputs": [],
      "stateMutability": "nonpayable",
      "type": "function"
    },
    {
      "inputs": [
        {
          "internalType": "address",
          "name": "newOwner",
          "type": "address"
        }
      ],
      "name": "transferOwnership",
      "outputs": [],
      "stateMutability": "nonpayable",
      "type": "function"
    }
  ],
  "bytecode": {
    "object": "0x60a060405260016006553480156200001657600080fd5b5060405162005db638038062005db68339810160408190526200003991620000cf565b600080546001600160a01b0319166001600160a01b03851690811782556040518492869283929091907f8be0079c531659141344cd1fd0a4f28419497f9722a3daafe3b4186f6b6457e0908290a35050600a80546001600160a01b0319166001600160a01b039283161790551660805250620001199050565b80516001600160a01b0381168114620000ca57600080fd5b919050565b600080600060608486031215620000e557600080fd5b620000f084620000b2565b92506200010060208501620000b2565b91506200011060408501620000b2565b90509250925092565b608051615c81620001356000396000613e830152615c816000f3fe608060405234801561001057600080fd5b50600436106101da5760003560e01c80639e55cba311610104578063e1d38d17116100a2578063f2fde38b11610071578063f2fde38b146105ca578063f315aafe146105dd578063fb9d3cb6146105e6578063fd2ade30146105f957600080fd5b8063e1d38d17146104d1578063e70b9e27146104e4578063ea072e701461051d578063ef5cfb8c146105b757600080fd5b8063c4ce88fd116100de578063c4ce88fd1461046d578063c74c149b14610498578063c75519ba146104ab578063cf042fb0146104be57600080fd5b80639e55cba3146103fe578063a3b7673014610427578063a50076f71461045a57600080fd5b80635bb27aab1161017c5780637eb1e7611161014b5780637eb1e7611461036c57806381b2248a1461037f5780638da5cb5b146103ab5780639e2e003a146103d657600080fd5b80635bb27aab146102e45780635c774ed7146103295780637249c0d5146103465780637c86106f1461035957600080fd5b806331d72d6b116101b857806331d72d6b1461021a578063505f901a1461028657806350ab04891461029957806359a8bf64146102b957600080fd5b80630a35511b146101df5780630a9d793d146101f45780630e9132eb14610207575b600080fd5b6101f26101ed366004614643565b61060c565b005b6101f26102023660046146ea565b610993565b6101f261021536600461474f565b6109df565b6102586102283660046147bb565b600b6020526000908152604090205465ffffffffffff80821691600160301b8104821691600160601b9091041683565b6040805165ffffffffffff948516815292841660208401529216918101919091526060015b60405180910390f35b6101f261029436600461474f565b610c2c565b6102ac6102a73660046147ec565b611104565b60405161027d919061485c565b6102cc6102c736600461499e565b6111df565b6040516001600160401b03909116815260200161027d565b6103106102f23660046147bb565b60046020526000908152604090205460ff8082169161010090041682565b6040805160ff909316835290151560208301520161027d565b6005546103369060ff1681565b604051901515815260200161027d565b6101f2610354366004614a96565b611403565b6101f2610367366004614ae2565b611496565b6101f261037a3660046146ea565b611636565b61039261038d366004614b10565b6118b3565b6040516001600160d81b0319909116815260200161027d565b6000546103be906001600160a01b031681565b6040516001600160a01b03909116815260200161027d565b6103e96103e4366004614b29565b6118ea565b60405161027d99989796959493929190614b46565b6103be61040c366004614bc4565b6003602052600090815260409020546001600160a01b031681565b61043a610435366004614bef565b6119e0565b604080516001600160601b0393841681529290911660208301520161027d565b6103be610468366004614b29565b611a92565b600754610480906001600160601b031681565b6040516001600160601b03909116815260200161027d565b6101f26104a6366004614c4b565b611aac565b6101f26104b93660046147bb565b611c02565b6101f26104cc36600461474f565b611cfe565b6104806104df366004614c98565b611f47565b61050f6104f2366004614d8d565b600c60209081526000928352604080842090915290825290205481565b60405190815260200161027d565b61057861052b366004614b29565b600960205260009081526040902080546001909101546001600160a01b0382169160ff600160a01b8204169165ffffffffffff600160a81b90920482169181811691600160301b90041685565b604080516001600160a01b039096168652931515602086015265ffffffffffff928316938501939093528116606084015216608082015260a00161027d565b6101f26105c53660046146ea565b612748565b6101f26105d83660046146ea565b612811565b61050f60025481565b6101f26105f4366004614b29565b612886565b610480610607366004614dbb565b612e9b565b6006546001146106375760405162461bcd60e51b815260040161062e90614e56565b60405180910390fd5b600260065561064583613959565b60008061065185613996565b6001600160a01b0316630a35511b8686866040518463ffffffff1660e01b815260040161068093929190614e7a565b6000604051808303816000875af115801561069f573d6000803e3d6000fd5b505050506040513d6000823e601f3d908101601f191682016040526106c79190810190614f36565b6001600160601b0387166000908152600860209081526040808320600990925282206001015484519496509294509265ffffffffffff80841693600160301b900416915b8181101561098257600087828151811061072757610727615061565b60200260200101519050600081606001516001600160601b031611156108eb5760208101518654600288015460408401516107829365ffffffffffff808b1694908a169391926001600160a01b0391821692909116906139c5565b5060608082015187546001600160601b03600160a01b8083048216849003821681026001600160a01b03938416818117808e55885160408051610120810182529488169093178452908490048516602084015260018e0154808716928401929092526001600160c81b03199184900460c890811b83169884019890985260028e01548616608084015260038e015495861660a084015292850490961b90951660c086015260ff600160d81b90930492909216151560e085015260048a0180546108e69593949290921692918b9161010084019161085e90615077565b80601f016020809104026020016040519081016040528092919081815260200182805461088a90615077565b80156108d75780601f106108ac576101008083540402835291602001916108d7565b820191906000526020600020905b8154815290600101906020018083116108ba57829003601f168201915b5050505050815250508a613ac7565b61096f565b60028601548151604080840151905163636c380360e01b815273__$edb40677ae687b89a8312a1af66086cd07$__9363636c38039361093e936001600160a01b03909216929091906000906004016150b1565b60006040518083038186803b15801561095657600080fd5b505af415801561096a573d6000803e3d6000fd5b505050505b508061097a816150f9565b91505061070b565b505060016006555050505050505050565b6000546001600160a01b031633146109bd5760405162461bcd60e51b815260040161062e90615112565b600a80546001600160a01b0319166001600160a01b0392909216919091179055565b600654600114610a015760405162461bcd60e51b815260040161062e90614e56565b6002600655610a0f83613959565b6000806000610a1d86613996565b6040516324546b2d60e01b81526001600160601b03881660048201526001600160a01b0391909116906324546b2d906024016060604051808303816000875af1158015610a6e573d6000803e3d6000fd5b505050506040513d601f19601f82011682018060405250810190610a929190615138565b6001600160601b0389166000908152600860209081526040808320600990925282206001015494975092955090935090918190610ae39065ffffffffffff80821691600160301b90041683896119e0565b845460028601546003870154928a039550610b1b94506001600160a01b0391821693506001600160601b038616929082169116613c67565b81546000908590610b3d908690600160a01b90046001600160601b031661517a565b610b4791906151a1565b83546001600160601b03600160a01b8083048216849003909116026001600160a01b0391821681811787556001870154600388015494955073__$edb40677ae687b89a8312a1af66086cd07$__9463636c38039491821693610bae93918316921617613cf4565b8460006040518563ffffffff1660e01b8152600401610bd094939291906150b1565b60006040518083038186803b158015610be857600080fd5b505af4158015610bfc573d6000803e3d6000fd5b5050506003840154610c1c91506001600160a01b03168a84848c8c613d0e565b5050600160065550505050505050565b600654600114610c4e5760405162461bcd60e51b815260040161062e90614e56565b6002600655610c5c83613959565b6001600160601b038316600090815260096020526040902080546001600160a01b03163314610ca0576040516319b1d90760e31b815233600482015260240161062e565b6000610cab85613996565b8254909150600160a01b900460ff1680610d375750604051630385592160e01b81526001600160601b03861660048201526001600160a01b03821690630385592190602401602060405180830381865afa158015610d0d573d6000803e3d6000fd5b505050506040513d601f19601f82011682018060405250810190610d3191906151c1565b15156001145b15610d555760405163baf3f0f760e01b815260040160405180910390fd5b6001600160601b0385166000908152600860205260408120835460ff60a01b1916600160a01b908117855560018201549192600b929091610d99910460c81b613d80565b6001600160d81b03191681526020808201929092526040908101600090812033825260010190925280822054855465ffffffffffff60a81b191665ffffffffffff918216600160a81b90810291909117808855925163ace54da560e01b81526001600160601b038b166004820152610e7793600160a01b810460ff1693929004909116906001600160a01b0387169063ace54da590602401602060405180830381865afa158015610e4e573d6000803e3d6000fd5b505050506040513d601f19601f82011682018060405250810190610e7291906151de565b613d94565b8254909150600160a01b90046001600160601b0316156110a35781546001600160601b03600160a01b80830482168401909116026001600160a01b039091161782556003820154600160981b1615610ffe5760018201546040516370a0823160e01b81523060048201526000916001600160a01b0316906370a0823190602401602060405180830381865afa158015610f14573d6000803e3d6000fd5b505050506040513d601f19601f82011682018060405250810190610f3891906151fb565b6003840154909150610f58906001600160a01b0316898460018b8b613dce565b610f6b6001600160601b03831682615214565b60018401546040516370a0823160e01b81523060048201526001600160a01b03909116906370a0823190602401602060405180830381865afa158015610fb5573d6000803e3d6000fd5b505050506040513d601f19601f82011682018060405250810190610fd991906151fb565b1015610ff85760405163f7a632f560e01b815260040160405180910390fd5b506110c0565b6001820154825460405163bc0dbc9960e01b815273__$edb40677ae687b89a8312a1af66086cd07$__9263bc0dbc9992611051926001600160a01b03928316929091169030908790600090600401615227565b60006040518083038186803b15801561106957600080fd5b505af415801561107d573d6000803e3d6000fd5b505050600383015461109e91506001600160a01b0316888360008a8a613dce565b6110c0565b60038201546110c0906001600160a01b0316888360008a8a613dce565b60405133906001600160601b038916907f0cbe7341c5c56a21e107668323c3c414bcd506f3615ea1115f86dd4df173691490600090a3505060016006555050505050565b6000546060906001600160a01b031633146111315760405162461bcd60e51b815260040161062e90615112565b6005805460ff1916600117905560008061114a86613dfe565b6001600160a01b03168585604051611163929190615263565b6000604051808303816000865af19150503d80600081146111a0576040519150601f19603f3d011682016040523d82523d6000602084013e6111a5565b606091505b5091509150816111ca5780604051635d94b9cd60e01b815260040161062e919061485c565b6005805460ff191690559150505b9392505050565b60006006546001146112035760405162461bcd60e51b815260040161062e90614e56565b6002600655835161121390613959565b835161121e90613996565b6001600160a01b03166323464a608560000151338760200151886040015189606001516040518663ffffffff1660e01b8152600401611261959493929190615273565b6020604051808303816000875af1158015611280573d6000803e3d6000fd5b505050506040513d601f19601f820116820180604052508101906112a491906152c1565b60408086015186516001600160601b03908116600090815260086020528390206002015460808901519351635c2fc75360e01b81529495506113639491909216926001600160a01b039092169173__$edb40677ae687b89a8312a1af66086cd07$__91635c2fc753916113199160040161485c565b600060405180830381865af4158015611336573d6000803e3d6000fd5b505050506040513d6000823e601f3d908101601f1916820160405261135e91908101906152de565b613e53565b83516001600160601b031660009081526008602052604090819020600301548551918601516113a4926001600160a01b039092169190849033908888613eeb565b835160408086015190516001600160601b03918216815233926001600160401b0385169216907fa2e7ed6065b3a19c5ea6dce1c2f7a8933195d54aa91cee19103be6655cc3bcf89060200160405180910390a460016006559392505050565b6001600160d81b031982166000908152600b602052604090205465ffffffffffff600160601b90910481169082161115611450576040516358d620b360e01b815260040160405180910390fd5b6001600160d81b0319919091166000908152600b602090815260408083203384526001019091529020805465ffffffffffff191665ffffffffffff909216919091179055565b6006546001146114b85760405162461bcd60e51b815260040161062e90614e56565b60026006556114c682613959565b6001600160601b03821660009081526008602052604090206002015473__$edb40677ae687b89a8312a1af66086cd07$__9063636c3803906001600160a01b03163361151186613996565b6040516329b843cb60e11b81526001600160601b03881660048201526001600160401b03871660248201523360448201526001600160a01b0391909116906353708796906064016020604051808303816000875af1158015611577573d6000803e3d6000fd5b505050506040513d601f19601f8201168201806040525081019061159b91906151de565b60006040518563ffffffff1660e01b81526004016115bc94939291906150b1565b60006040518083038186803b1580156115d457600080fd5b505af41580156115e8573d6000803e3d6000fd5b50506040513392506001600160401b03841691506001600160601b038516907fc5e25a727c1d2fa8b8cf2bd4f7a3ba0b6740aaee33d84a3132d47301844f361890600090a450506001600655565b6000546001600160a01b031633146116605760405162461bcd60e51b815260040161062e90615112565b61166981613f5f565b6000816001600160a01b031663d61735ca6040518163ffffffff1660e01b8152600401602060405180830381865afa1580156116a9573d6000803e3d6000fd5b505050506040513d601f19601f820116820180604052508101906116cd919061537d565b90506116d881613f95565b6000806116e4836140fb565b6001600160d81b0319821660009081526004602052604090208054929450909250906117149060ff16600161539a565b60ff168260ff161461173d578282604051635820a91160e01b815260040161062e9291906153b3565b805460ff191660ff838116919091178083556101009004161561176457805461ff00191681555b6001600160c81b03198416600090815260036020526040902080546001600160a01b0319166001600160a01b03871617905560ff8216600019016118145760018054808201825560009182527fb10e2d527612073b26eecdfd717e6a320cf44b4afac2b0732d9fcbe2b7fa0cf6600680830491909101805464ffffffffff929093066005026101000a9182021990921660d887901c91909102179055600280549161180e836150f9565b91905055505b846001600160a01b031663ea6439146040518163ffffffff1660e01b8152600401600060405180830381600087803b15801561184f57600080fd5b505af1158015611863573d6000803e3d6000fd5b50506040516001600160a01b038816925060ff851691506001600160d81b03198616907f9d59a7f92873a37532afecac87d9ae2e0571c04f7cfe13ace6f38209dd1acd1c90600090a45050505050565b600181815481106118c357600080fd5b9060005260206000209060069182820401919006600502915054906101000a900460d81b81565b600860205260009081526040902080546001820154600283015460038401546004850180546001600160a01b0380871697600160a01b978890046001600160601b0316978288169781900460c890811b9784169693841695918404901b93600160d81b90930460ff169261195d90615077565b80601f016020809104026020016040519081016040528092919081815260200182805461198990615077565b80156119d65780601f106119ab576101008083540402835291602001916119d6565b820191906000526020600020905b8154815290600101906020018083116119b957829003601f168201915b5050505050905089565b600080620186a08415611a5657611a13846001600160601b0316876001600160601b0316836001600160601b03166141de565b925082611a456001600160601b038616611a2d898b61517a565b6001600160601b0316846001600160601b03166141de565b611a4f91906151a1565b9150611a88565b611a856001600160601b038516611a6d888a61517a565b6001600160601b0316836001600160601b03166141de565b91505b5094509492505050565b6000611a9d82613959565b611aa682613996565b92915050565b6000546001600160a01b03163314611ad65760405162461bcd60e51b815260040161062e90615112565b620186a065ffffffffffff82161115611b02576040516358d620b360e01b815260040160405180910390fd5b6000826002811115611b1657611b166153d0565b03611b50576001600160d81b031983166000908152600b60205260409020805465ffffffffffff191665ffffffffffff8316179055505050565b6001826002811115611b6457611b646153d0565b03611baa576001600160d81b031983166000908152600b6020526040902080546bffffffffffff0000000000001916600160301b65ffffffffffff841602179055505050565b6002826002811115611bbe57611bbe6153d0565b03611bfd576001600160d81b031983166000908152600b60205260409020805465ffffffffffff60601b1916600160601b65ffffffffffff8416021790555b505050565b6000546001600160a01b03163314611c2c5760405162461bcd60e51b815260040161062e90615112565b6001600160d81b0319811660009081526004602052604090205460ff16611c6b5780600060405163def1560160e01b815260040161062e9291906153b3565b6001600160d81b0319811660009081526004602052604090208054610100900460ff1615611cb85760405163271614df60e21b81526001600160d81b03198316600482015260240161062e565b805461ff0019166101001781556040516001600160d81b03198316907fa967d5160f4efeca6ce587658357cfe54cbe547c6945ddf21a06ac712216942a90600090a25050565b600654600114611d205760405162461bcd60e51b815260040161062e90614e56565b6002600655611d2e83613959565b6001600160601b038316600090815260086020526040902080546001600160a01b03163314611d72576040516319b1d90760e31b815233600482015260240161062e565b611d7b84613996565b60405163b04046df60e01b81526001600160601b03861660048201526001600160a01b03919091169063b04046df90602401600060405180830381600087803b158015611dc757600080fd5b505af1158015611ddb573d6000803e3d6000fd5b50508254600160a01b90046001600160601b0316159150611ed090505780546001600160a01b0380821680845560018401546003850154600160a01b9094046001600160601b03169373__$edb40677ae687b89a8312a1af66086cd07$__9363636c38039392811692611e519290911690613cf4565b8460006040518563ffffffff1660e01b8152600401611e7394939291906150b1565b60006040518083038186803b158015611e8b57600080fd5b505af4158015611e9f573d6000803e3d6000fd5b505050506003820154611eca906001600160a01b0381169087908490600160981b16151588886141fc565b50611eed565b6003810154611eed906001600160a01b03168560008087876141fc565b6001810154604051600160a01b90910460c81b6001600160c81b031916906001600160601b038616907f2c784826e62ed5cac07a5ebe66734ece0cdc7ee0559b21b59d1434a64e07ec8290600090a3505060016006555050565b6000600654600114611f6b5760405162461bcd60e51b815260040161062e90614e56565b60026006556040840151611f7e90613959565b6040808501516001600160601b03166000908152600860205290812060018101549091908190611fb790600160a01b900460c81b613d80565b6001600160d81b031981166000908152600b60209081526040822054908a01518654600288015460608d015195965093946120159465ffffffffffff80861695600160301b90041693926001600160a01b03908116929116906139c5565b9050808860600151039250505060606120318760400151613996565b6001600160a01b031663a8ee70be8860400151848a60a001516040518463ffffffff1660e01b8152600401612068939291906153e6565b6000604051808303816000875af1158015612087573d6000803e3d6000fd5b505050506040513d6000823e601f3d908101601f191682016040526120af9190810190615412565b608089015191955091506001600160601b0390811690851610156120e65760405163758342a760e01b815260040160405180910390fd5b6060870151600284015460c0890151604051635c2fc75360e01b8152612142936001600160601b0316926001600160a01b03169173__$edb40677ae687b89a8312a1af66086cd07$__91635c2fc753916113199160040161485c565b825460028401546003850154612173926001600160a01b03908116926001600160601b038716929082169116613c67565b604087810180516001600160601b03908116600090815260096020528381205492519091168152918220546121c291600160a01b900460ff1690600160a81b900465ffffffffffff1687613d94565b8454909150600160a01b90046001600160601b031660000361240a576003840154600160981b161561234b5760018401546040516370a0823160e01b81523060048201526000916001600160a01b0316906370a0823190602401602060405180830381865afa158015612239573d6000803e3d6000fd5b505050506040513d601f19601f8201168201806040525081019061225d91906151fb565b600386015460408b015191925061228f916001600160a01b03909116903387612286878c61517a565b60008e8e61422c565b816001600160601b0316866001600160601b0316826122ae9190615214565b6122b89190615214565b60018601546040516370a0823160e01b81523060048201526001600160a01b03909116906370a0823190602401602060405180830381865afa158015612302573d6000803e3d6000fd5b505050506040513d601f19601f8201168201806040525081019061232691906151fb565b10156123455760405163f7a632f560e01b815260040160405180910390fd5b5061249b565b6001840154845473__$edb40677ae687b89a8312a1af66086cd07$__9163bc0dbc99916001600160a01b03918216911630612386868b61517a565b60016040518663ffffffff1660e01b81526004016123a8959493929190615227565b60006040518083038186803b1580156123c057600080fd5b505af41580156123d4573d6000803e3d6000fd5b5050505060038401546040890151612405916001600160a01b03169033866123fc868b61517a565b60018d8d61422c565b61249b565b6003840154604089015161242e916001600160a01b03169033866123fc868b61517a565b612438818661517a565b84546001600160601b03918216600160a01b909104909116101561246f576040516357e000b160e01b815260040160405180910390fd5b83548582016001600160601b03600160a01b80840482169290920316026001600160a01b039091161784555b8751604080516101208101825286546001600160a01b0380821683526001600160601b03600160a01b928390048116602085015260018a0154808316958501959095529382900460c890811b6001600160c81b0319908116606086015260028b01548316608086015260038b015492831660a0860152928204901b90911660c0830152600160d81b900460ff16151560e08201526004870180546125d894938a16929189916101008401919061255090615077565b80601f016020809104026020016040519081016040528092919081815260200182805461257c90615077565b80156125c95780601f1061259e576101008083540402835291602001916125c9565b820191906000526020600020905b8154815290600101906020018083116125ac57829003601f168201915b50505050508152505085613ac7565b6001600160601b038116156126b7576040888101516001600160601b03908116600090815260096020908152908390205483516101208101855288546001600160a01b038082168352600160a01b9182900486169483019490945260018a0154808516968301969096529485900460c890811b6001600160c81b0319908116606084015260028b01548516608084015260038b015480861660a085015296870490911b1660c0820152600160d81b90940460ff16151560e08501526004880180546126b795939092169386169291899161010084019161255090615077565b336001600160a01b031688604001516001600160601b03167f5c53cd94df0c7e2bcd10a80f475d04aef0e489425aff9687e49f92454b4040148a602001518b606001518960405161272f939291906001600160a01b039390931683526001600160601b03918216602084015216604082015260600190565b60405180910390a3505060016006555090949350505050565b60065460011461276a5760405162461bcd60e51b815260040161062e90614e56565b6002600655336000818152600c602090815260408083206001600160a01b0386168452909152808220805490839055905163636c380360e01b81528493919273__$edb40677ae687b89a8312a1af66086cd07$__9263636c3803926127d792879291879190600401615458565b60006040518083038186803b1580156127ef57600080fd5b505af4158015612803573d6000803e3d6000fd5b505060016006555050505050565b6000546001600160a01b0316331461283b5760405162461bcd60e51b815260040161062e90615112565b600080546001600160a01b0319166001600160a01b0383169081178255604051909133917f8be0079c531659141344cd1fd0a4f28419497f9722a3daafe3b4186f6b6457e09190a350565b6006546001146128a85760405162461bcd60e51b815260040161062e90614e56565b60026006556128b681613959565b60006128c182613996565b60405163ace54da560e01b81526001600160601b03841660048201529091506000906001600160a01b0383169063ace54da590602401602060405180830381865afa158015612914573d6000803e3d6000fd5b505050506040513d601f19601f8201168201806040525081019061293891906151de565b604051637dce9e5b60e11b81526001600160601b038516600482015290915060009081906001600160a01b0385169063fb9d3cb6906024016000604051808303816000875af115801561298f573d6000803e3d6000fd5b505050506040513d6000823e601f3d908101601f191682016040526129b79190810190615481565b815191935091506001600160601b0316158015906129e25750600082602001516001600160601b0316115b15612e5b576001600160601b038516600090815260096020908152604080832060089092528220600181015491929091612a2590600160a01b900460c81b613d80565b6001600160d81b0319166000908152600b60205260408120805460018601805465ffffffffffff19811665ffffffffffff93841690811783559354600160301b908190048416026bffffffffffffffffffffffff19909116909317929092179091558454919250612aaa9160ff600160a01b82041691600160a81b9091041688613d94565b60408601519091506001600160a01b031615612d1957600183015460608601518354600285015460a0890151895160208b0151612b269665ffffffffffff80821697600160301b909204169590946001600160a01b0391821694911692612b21926001600160601b039283169291821691166141de565b6139c5565b5060a085015182546001600160601b03600160a01b808304821693909303169091026001600160a01b0391821617835560028301546040808801516080890151915163636c380360e01b815273__$edb40677ae687b89a8312a1af66086cd07$__9463636c380394612ba194911692916000906004016150b1565b60006040518083038186803b158015612bb957600080fd5b505af4158015612bcd573d6000803e3d6000fd5b5050505060408581015160a08088015183516101208101855286546001600160a01b0380821683526001600160601b03600160a01b928390048116602085015260018a0154808316988501989098529682900460c890811b6001600160c81b0319908116606086015260028b01548316608086015260038b01549283169685019690965291810490911b90931660c0820152600160d81b90920460ff16151560e0830152600486018054612d199590921692918791610100840191612c9190615077565b80601f0160208091040260200160405190810160405280929190818152602001828054612cbd90615077565b8015612d0a5780601f10612cdf57610100808354040283529160200191612d0a565b820191906000526020600020905b815481529060010190602001808311612ced57829003601f168201915b50505050508152505087613ac7565b856001600160601b031685602001516001600160601b0316108015612d4757506000816001600160601b0316115b15612d7657602085015186036000612d6f6001600160601b0380851690808516908b166141de565b9092039150505b6001600160601b03811615612e575781546001600160601b03600160a01b8083048216849003821681026001600160a01b0393841681811780885588546040805161012081018252948816909317845290849004851660208401526001880154808716928401929092526001600160c81b03199184900460c890811b83166060850152600289015487166080850152600389015480881660a0860152948504901b90911660c083015260ff600160d81b90930492909216151560e0820152600486018054612e579593909316938616928791610100840191612c9190615077565b5050505b6040516001600160601b038616907f5d4a6ac2287eaf5f22deb24e842c4668fd11d8f478a18cf2a37faa0bcebd31c690600090a250506001600655505050565b6000600654600114612ebf5760405162461bcd60e51b815260040161062e90614e56565b60026006556000612ed660408701602088016146ea565b6001600160a01b03161480612f0357506000612ef860608701604088016146ea565b6001600160a01b0316145b15612f2157604051635435b28960e11b815260040160405180910390fd5b6001600160601b03811660009081526008602090815260408220919081908190612f5690612f51908b018b6147bb565b6142ac565b90506000612f6a60408b0160208c016146ea565b6001600160a01b031663313ce5676040518163ffffffff1660e01b8152600401602060405180830381865afa158015612fa7573d6000803e3d6000fd5b505050506040513d601f19601f82011682018060405250810190612fcb919061556f565b90506000612fdf60608c0160408d016146ea565b6001600160a01b031663313ce5676040518163ffffffff1660e01b8152600401602060405180830381865afa15801561301c573d6000803e3d6000fd5b505050506040513d601f19601f82011682018060405250810190613040919061556f565b90506000836001600160a01b031663bb24fe8a6040518163ffffffff1660e01b8152600401602060405180830381865afa158015613082573d6000803e3d6000fd5b505050506040513d601f19601f820116820180604052508101906130a69190615592565b60038111156130b7576130b76153d0565b1415806130c7575060068260ff16105b806130d5575060128260ff16115b806130e3575060068160ff16105b806130f1575060128160ff16115b1561310f57604051635435b28960e11b815260040160405180910390fd5b600780546001600160601b0316906000613128836155b3565b91906101000a8154816001600160601b0302191690836001600160601b031602179055509650826001600160a01b031663803c90fd888c84866040518563ffffffff1660e01b81526004016131809493929190615647565b6020604051808303816000875af115801561319f573d6000803e3d6000fd5b505050506040513d601f19601f820116820180604052508101906131c391906151de565b9350826001600160a01b031663d61735ca6040518163ffffffff1660e01b8152600401602060405180830381865afa158015613203573d6000803e3d6000fd5b505050506040513d601f19601f82011682018060405250810190613227919061537d565b6001808801805460c89390931c600160a01b0266ffffffffffffff60a01b1990931692909217909155836001600160a01b031663994595e16040518163ffffffff1660e01b8152600401602060405180830381865afa15801561328e573d6000803e3d6000fd5b505050506040513d601f19601f820116820180604052508101906132b291906156fa565b60018111156132c3576132c36153d0565b1480156132df57506132dd6101408c016101208d0161571b565b155b156132fd57604051635435b28960e11b815260040160405180910390fd5b61330f6101408c016101208d0161571b565b86546001600160a01b03191633178755945061333692505060408a01905060208a016146ea565b6001840180546001600160a01b0319166001600160a01b03929092169190911790556133686060890160408a016146ea565b6002840180546001600160a01b0319166001600160a01b03929092169190911790556001600160601b03841660009081526009602052604090206133b260808a0160608b016146ea565b81546001600160a81b0319166001600160a01b039190911617905560006133e56133e260e08b0160c08c016147bb565b90565b6001600160d81b03191614613605576000613409612f5160e08b0160c08c016147bb565b90506001816001600160a01b031663bb24fe8a6040518163ffffffff1660e01b8152600401602060405180830381865afa15801561344b573d6000803e3d6000fd5b505050506040513d601f19601f8201168201806040525081019061346f9190615592565b6003811115613480576134806153d0565b14158061350e575060018401546001600160a01b038083169163caf9278591166134ad60e08d018d615738565b6040518463ffffffff1660e01b81526004016134cb9392919061577e565b602060405180830381865afa1580156134e8573d6000803e3d6000fd5b505050506040513d601f19601f8201168201806040525081019061350c91906151c1565b155b1561352c57604051635435b28960e11b815260040160405180910390fd5b806001600160a01b031663d61735ca6040518163ffffffff1660e01b8152600401602060405180830381865afa15801561356a573d6000803e3d6000fd5b505050506040513d601f19601f8201168201806040525081019061358e919061537d565b60038501805460c89290921c600160a01b0266ffffffffffffff60a01b199092169190911790556135c260e08a018a615738565b60048601916135d29190836157e9565b506135e56101208a016101008b0161571b565b600385018054911515600160d81b0260ff60d81b19909216919091179055505b61361d61361860a08a0160808b016146ea565b614375565b61363a57604051635435b28960e11b815260040160405180910390fd5b600061364c60a08a0160808b016146ea565b6001600160a01b03161461368d5761366a60a0890160808a016146ea565b6003840180546001600160a01b0319166001600160a01b03929092169190911790555b8115156001036138dd576136a7606088016040890161571b565b156136c557604051635435b28960e11b815260040160405180910390fd5b82546001600160a01b0316600160a01b6001600160601b0383160217835561370a600160981b6136fb60a08b0160808c016146ea565b166001600160a01b0316151590565b1561384c57600061372160408a0160208b016146ea565b6040516370a0823160e01b81523060048201526001600160a01b0391909116906370a0823190602401602060405180830381865afa158015613767573d6000803e3d6000fd5b505050506040513d601f19601f8201168201806040525081019061378b91906151fb565b905061379a89868460016143e2565b6137ad6001600160601b03831682615214565b6137bd60408b0160208c016146ea565b6040516370a0823160e01b81523060048201526001600160a01b0391909116906370a0823190602401602060405180830381865afa158015613803573d6000803e3d6000fd5b505050506040513d601f19601f8201168201806040525081019061382791906151fb565b10156138465760405163f7a632f560e01b815260040160405180910390fd5b506138ea565b73__$edb40677ae687b89a8312a1af66086cd07$__63bc0dbc9961387660408b0160208c016146ea565b33308560016040518663ffffffff1660e01b815260040161389b959493929190615227565b60006040518083038186803b1580156138b357600080fd5b505af41580156138c7573d6000803e3d6000fd5b505050506138d888858360006143e2565b6138ea565b6138ea88858360006143e2565b8260010160149054906101000a900460c81b6001600160c81b031916846001600160601b03167f7cbd7aa1f47e4f995e92547da29ca023e5fad4db6922fcaa352efa004066491f88886040516139419291906158a9565b60405180910390a35050600160065550949350505050565b6007546001600160601b039081169082161061399357604051630d55bc2360e41b81526001600160601b038216600482015260240161062e565b50565b6001600160601b038116600090815260086020526040812060010154611aa690600160a01b900460c81b613dfe565b600080806139fe89896001600160a01b038a16158015906139f85750886001600160a01b03168a6001600160a01b031614155b876119e0565b90925090506001600160601b03821615613a58576001600160a01b038088166000908152600c60209081526040808320938916835292905290812080546001600160601b0385169290613a52908490615214565b90915550505b6001600160601b03811615613ab057600a546001600160a01b039081166000908152600c60209081526040808320938916835292905290812080546001600160601b0384169290613aaa908490615214565b90915550505b613aba818361517a565b9998505050505050505050565b60c082015160408301516001600160c81b03198216613b535760405163636c380360e01b815273__$edb40677ae687b89a8312a1af66086cd07$__9063636c380390613b1e9084908a908a90600190600401615458565b60006040518083038186803b158015613b3657600080fd5b505af4158015613b4a573d6000803e3d6000fd5b50505050613c5f565b6000613b5e83613dfe565b60405163bd35547360e01b81526001600160a01b038085166004830152821660248201526044810188905290915073__$edb40677ae687b89a8312a1af66086cd07$__9063bd3554739060640160006040518083038186803b158015613bc357600080fd5b505af4158015613bd7573d6000803e3d6000fd5b50505061010086015160e0870151604051631c81b11f60e31b81526001600160a01b038516935063e40d88f892613c17928c928892918d916004016158bd565b6060604051808303816000875af1158015613c36573d6000803e3d6000fd5b505050506040513d601f19601f82011682018060405250810190613c5a9190615902565b505050505b505050505050565b6000600160991b8216613c7a5784613c7c565b815b60405163636c380360e01b815290915073__$edb40677ae687b89a8312a1af66086cd07$__9063636c380390613cbd90869085908990600090600401615458565b60006040518083038186803b158015613cd557600080fd5b505af4158015613ce9573d6000803e3d6000fd5b505050505050505050565b6000600160981b8316613d0757816111d8565b5090919050565b6001609a1b861615613c5f57613c5f63ab4b55ba60e01b8686868686604051602401613d3e95949392919061593b565b60408051601f198184030181529190526020810180516001600160e01b03166001600160e01b0319909316929092179091526001600160a01b03881690614431565b600080613d8c836140fb565b509392505050565b60008315158103613da7575060006111d8565b613dc66001600160601b03831665ffffffffffff8516620186a06141de565b949350505050565b6001609d1b861615613c5f57613c5f635122d47a60e01b8686868686604051602401613d3e959493929190615970565b6001600160c81b031981166000908152600360205260408120546001600160a01b031680611aa657600080613e32856140fb565b91509150818160405163def1560160e01b815260040161062e9291906153b3565b604051628f1c9d60e61b815273__$edb40677ae687b89a8312a1af66086cd07$__906323c7274090613eb69085907f000000000000000000000000000000000000000000000000000000000000000090339030908a9089906001906004016159a5565b60006040518083038186803b158015613ece57600080fd5b505af4158015613ee2573d6000803e3d6000fd5b50505050505050565b6001609b1b871615613ee257613ee2637a9eae6a60e01b878787878787604051602401613f1d96959493929190615a25565b60408051601f198184030181529190526020810180516001600160e01b03166001600160e01b0319909316929092179091526001600160a01b03891690614431565b806001600160a01b03163b60000361399357604051631bd1ba9d60e21b81526001600160a01b038216600482015260240161062e565b8060005b60078110156140c7576000828260078110613fb657613fb6615061565b1a60f81b9050600282101561401257600360fc1b6001600160f81b031982161080613fee5750603960f81b6001600160f81b03198216115b1561400d5783604051628b684360e31b815260040161062e9190615a7c565b6140be565b600582101561406257604160f81b6001600160f81b031982161080613fee5750602d60f91b6001600160f81b03198216111561400d5783604051628b684360e31b815260040161062e9190615a7c565b6001600160f81b031981161580159061409f5750604160f81b6001600160f81b03198216108061409f5750602d60f91b6001600160f81b03198216115b156140be5783604051628b684360e31b815260040161062e9190615a7c565b50600101613f99565b5060006140d3836140fb565b9150508060ff16600003611bfd5782604051628b684360e31b815260040161062e9190615a7c565b60008082600360fc1b6001600160f81b031982841a60f81b1610806141335750603960f81b8160001a60f81b6001600160f81b031916115b806141515750600360fc1b8160011a60f81b6001600160f81b031916105b8061416f5750603960f81b8160011a60f81b6001600160f81b031916115b1561418e5783604051628b684360e31b815260040161062e9190615a7c565b600061419d603083831a615a91565b6141a890600a615aaa565b90506141b96030600184901a615a91565b6141c3908261539a565b60109290921b6001600160d81b031916959194509092505050565b60008260001904841183021582026141f557600080fd5b5091020490565b6001609e1b861615613c5f57613c5f63952dc17d60e01b8686868686604051602401613d3e959493929190615970565b6001609c1b8816156142a2576142a2637c7abd3560e01b888888888888886040516024016142609796959493929190615ac6565b60408051601f198184030181529190526020810180516001600160e01b03166001600160e01b0319909316929092179091526001600160a01b038a1690614431565b5050505050505050565b6001600160d81b03198116600090815260046020908152604080832081518083019092525460ff808216808452610100909204161515928201929092529061430c5782600060405163def1560160e01b815260040161062e9291906153b3565b80602001511561433b5760405163ae05d58960e01b81526001600160d81b03198416600482015260240161062e565b600061434b8483600001516144ef565b6001600160c81b0319166000908152600360205260409020546001600160a01b0316949350505050565b6000600160981b82161515801561439e57506001609f1b8216158061439e57506001609d1b8216155b80156143ae57506001609c1b8216155b156143bb57506000919050565b6001600160a01b0382161580611aa6575050600160991b6001600160a01b03909116101590565b61442b6143f560a08601608087016146ea565b84336144076040890160208a016146ea565b61441760608a0160408b016146ea565b878761442660a08d018d615738565b61457e565b50505050565b600060208201519050600080846001600160a01b0316846040516144559190615b12565b6000604051808303816000865af19150503d8060008114614492576040519150601f19603f3d011682016040523d82523d6000602084013e614497565b606091505b5091509150816144aa576144aa816145f6565b6000818060200190518101906144c09190615b2e565b90506001600160e01b031980821690851614613c5f5760405163d1c96d5f60e01b815260040160405180910390fd5b6000806144fd600a84615b6e565b61450890603061539a565b60f81b9050600061451a600a85615b90565b61452590603061539a565b6040516001600160f81b0319808516602083015260f89290921b91821660218201526001600160d81b03198716602282015290915060270160405160208183030381529060405261457590615bb2565b95945050505050565b6001609f1b891615613ce957613ce963805131f660e01b89898989898989896040516024016145b4989796959493929190615be9565b60408051601f198184030181529190526020810180516001600160e01b03166001600160e01b0319909316929092179091526001600160a01b038b1690614431565b80511561460557805181602001fd5b60405163472850e360e11b815260040160405180910390fd5b6001600160601b038116811461399357600080fd5b803561463e8161461e565b919050565b60008060006040848603121561465857600080fd5b83356146638161461e565b925060208401356001600160401b038082111561467f57600080fd5b818601915086601f83011261469357600080fd5b8135818111156146a257600080fd5b8760208260051b85010111156146b757600080fd5b6020830194508093505050509250925092565b6001600160a01b038116811461399357600080fd5b803561463e816146ca565b6000602082840312156146fc57600080fd5b81356111d8816146ca565b60008083601f84011261471957600080fd5b5081356001600160401b0381111561473057600080fd5b60208301915083602082850101111561474857600080fd5b9250929050565b60008060006040848603121561476457600080fd5b833561476f8161461e565b925060208401356001600160401b0381111561478a57600080fd5b61479686828701614707565b9497909650939450505050565b80356001600160d81b03198116811461463e57600080fd5b6000602082840312156147cd57600080fd5b6111d8826147a3565b6001600160c81b03198116811461399357600080fd5b60008060006040848603121561480157600080fd5b833561476f816147d6565b60005b8381101561482757818101518382015260200161480f565b50506000910152565b6000815180845261484881602086016020860161480c565b601f01601f19169290920160200192915050565b6020815260006111d86020830184614830565b634e487b7160e01b600052604160045260246000fd5b60405160a081016001600160401b03811182821017156148a7576148a761486f565b60405290565b60405160e081016001600160401b03811182821017156148a7576148a761486f565b604051608081016001600160401b03811182821017156148a7576148a761486f565b604051601f8201601f191681016001600160401b03811182821017156149195761491961486f565b604052919050565b60006001600160401b0382111561493a5761493a61486f565b50601f01601f191660200190565b600082601f83011261495957600080fd5b813561496c61496782614921565b6148f1565b81815284602083860101111561498157600080fd5b816020850160208301376000918101602001919091529392505050565b6000806000604084860312156149b357600080fd5b83356001600160401b03808211156149ca57600080fd5b9085019060a082880312156149de57600080fd5b6149e6614885565b82356149f18161461e565b81526020830135614a01816146ca565b6020820152614a1260408401614633565b6040820152606083013582811115614a2957600080fd5b614a3589828601614948565b606083015250608083013582811115614a4d57600080fd5b614a5989828601614948565b60808301525094506020860135915080821115614a7557600080fd5b5061479686828701614707565b65ffffffffffff8116811461399357600080fd5b60008060408385031215614aa957600080fd5b614ab2836147a3565b91506020830135614ac281614a82565b809150509250929050565b6001600160401b038116811461399357600080fd5b60008060408385031215614af557600080fd5b8235614b008161461e565b91506020830135614ac281614acd565b600060208284031215614b2257600080fd5b5035919050565b600060208284031215614b3b57600080fd5b81356111d88161461e565b6001600160a01b038a811682526001600160601b038a16602083015288811660408301526001600160c81b03198881166060840152878216608084015290861660a0830152841660c082015282151560e08201526101206101008201819052600090614bb483820185614830565b9c9b505050505050505050505050565b600060208284031215614bd657600080fd5b81356111d8816147d6565b801515811461399357600080fd5b60008060008060808587031215614c0557600080fd5b8435614c108161461e565b93506020850135614c208161461e565b92506040850135614c3081614be1565b91506060850135614c408161461e565b939692955090935050565b600080600060608486031215614c6057600080fd5b614c69846147a3565b9250602084013560038110614c7d57600080fd5b91506040840135614c8d81614a82565b809150509250925092565b600080600060408486031215614cad57600080fd5b83356001600160401b0380821115614cc457600080fd5b9085019060e08288031215614cd857600080fd5b614ce06148ad565b614ce9836146df565b8152614cf7602084016146df565b6020820152614d0860408401614633565b6040820152614d1960608401614633565b6060820152614d2a60808401614633565b608082015260a083013582811115614d4157600080fd5b614d4d89828601614948565b60a08301525060c083013582811115614d6557600080fd5b614d7189828601614948565b60c08301525094506020860135915080821115614a7557600080fd5b60008060408385031215614da057600080fd5b8235614dab816146ca565b91506020830135614ac2816146ca565b60008060008060608587031215614dd157600080fd5b84356001600160401b0380821115614de857600080fd5b908601906101408289031215614dfd57600080fd5b90945060208601359080821115614e1357600080fd5b9086019060a08289031215614e2757600080fd5b90935060408601359080821115614e3d57600080fd5b50614e4a87828801614707565b95989497509550505050565b6020808252600a90820152695245454e5452414e435960b01b604082015260600190565b6001600160601b038416815260406020808301829052908201839052600090849060608401835b86811015614ecf578335614eb481614acd565b6001600160401b031682529282019290820190600101614ea1565b50979650505050505050565b805161463e816146ca565b805161463e8161461e565b600082601f830112614f0257600080fd5b8151614f1061496782614921565b818152846020838601011115614f2557600080fd5b613dc682602083016020870161480c565b6000806040808486031215614f4a57600080fd5b83516001600160401b0380821115614f6157600080fd5b818601915086601f830112614f7557600080fd5b8151602082821115614f8957614f8961486f565b614f97818360051b016148f1565b82815260079290921b8401810191818101908a841115614fb657600080fd5b948201945b83861015615030576080868c031215614fd45760008081fd5b614fdc6148cf565b8651614fe7816146ca565b815286840151614ff6816146ca565b81850152868801516150078161461e565b8189015260608781015161501a8161461e565b9082015282526080959095019490820190614fbb565b9189015191975090945050508083111561504957600080fd5b505061505785828601614ef1565b9150509250929050565b634e487b7160e01b600052603260045260246000fd5b600181811c9082168061508b57607f821691505b6020821081036150ab57634e487b7160e01b600052602260045260246000fd5b50919050565b6001600160a01b0394851681529290931660208301526001600160601b03166040820152901515606082015260800190565b634e487b7160e01b600052601160045260246000fd5b60006001820161510b5761510b6150e3565b5060010190565b6020808252600c908201526b15539055551213d49256915160a21b604082015260600190565b60008060006060848603121561514d57600080fd5b83516151588161461e565b60208501519093506151698161461e565b6040850151909250614c8d8161461e565b6001600160601b0381811683821601908082111561519a5761519a6150e3565b5092915050565b6001600160601b0382811682821603908082111561519a5761519a6150e3565b6000602082840312156151d357600080fd5b81516111d881614be1565b6000602082840312156151f057600080fd5b81516111d88161461e565b60006020828403121561520d57600080fd5b5051919050565b80820180821115611aa657611aa66150e3565b6001600160a01b03958616815293851660208501529190931660408301526001600160601b039092166060820152901515608082015260a00190565b8183823760009101908152919050565b6001600160601b0386811682526001600160a01b038681166020840152851660408301528316606082015260a0608082018190526000906152b690830184614830565b979650505050505050565b6000602082840312156152d357600080fd5b81516111d881614acd565b6000602082840312156152f057600080fd5b81516001600160401b038082111561530757600080fd5b908301906060828603121561531b57600080fd5b6040516060810181811083821117156153365761533661486f565b604052825161534481614a82565b81526020838101519082015260408301518281111561536257600080fd5b61536e87828601614ef1565b60408301525095945050505050565b60006020828403121561538f57600080fd5b81516111d8816147d6565b60ff8181168382160190811115611aa657611aa66150e3565b6001600160d81b031992909216825260ff16602082015260400190565b634e487b7160e01b600052602160045260246000fd5b60006001600160601b038086168352808516602084015250606060408301526145756060830184614830565b6000806040838503121561542557600080fd5b82516154308161461e565b60208401519092506001600160401b0381111561544c57600080fd5b61505785828601614ef1565b6001600160a01b0394851681529290931660208301526040820152901515606082015260800190565b6000806040838503121561549457600080fd5b82516001600160401b03808211156154ab57600080fd5b9084019060e082870312156154bf57600080fd5b6154c76148ad565b6154d083614ee6565b81526154de60208401614ee6565b60208201526154ef60408401614edb565b604082015261550060608401614edb565b606082015261551160808401614ee6565b608082015261552260a08401614ee6565b60a082015260c08301518281111561553957600080fd5b61554588828601614ef1565b60c083015250602086015190945091508082111561556257600080fd5b5061505785828601614ef1565b60006020828403121561558157600080fd5b815160ff811681146111d857600080fd5b6000602082840312156155a457600080fd5b8151600481106111d857600080fd5b60006001600160601b038083168181036155cf576155cf6150e3565b6001019392505050565b6000808335601e198436030181126155f057600080fd5b83016020810192503590506001600160401b0381111561560f57600080fd5b80360382131561474857600080fd5b81835281816020850137506000828201602090810191909152601f909101601f19169091010190565b60006001600160601b03808716835260806020840152853561566881614a82565b65ffffffffffff908116608085015260208701359061568682614a82565b1660a0840152604086013561569a81614be1565b151560c084015260608601356156af8161461e565b1660e08301526156c260808601866155d9565b60a06101008501526156d96101208501828461561e565b925050506156ec604083018560ff169052565b60ff83166060830152614575565b60006020828403121561570c57600080fd5b8151600281106111d857600080fd5b60006020828403121561572d57600080fd5b81356111d881614be1565b6000808335601e1984360301811261574f57600080fd5b8301803591506001600160401b0382111561576957600080fd5b60200191503681900382131561474857600080fd5b6001600160a01b0384168152604060208201819052600090614575908301848661561e565b601f821115611bfd57600081815260208120601f850160051c810160208610156157ca5750805b601f850160051c820191505b81811015613c5f578281556001016157d6565b6001600160401b038311156158005761580061486f565b6158148361580e8354615077565b836157a3565b6000601f84116001811461584857600085156158305750838201355b600019600387901b1c1916600186901b1783556158a2565b600083815260209020601f19861690835b828110156158795786850135825560209485019460019092019101615859565b50868210156158965760001960f88860031b161c19848701351681555b505060018560011b0183555b5050505050565b602081526000613dc660208301848661561e565b6001600160a01b0386811682528516602082015260a0604082018190526000906158e990830186614830565b6060830194909452509015156080909101529392505050565b60008060006060848603121561591757600080fd5b835192506020840151615929816146ca565b80925050604084015190509250925092565b60006001600160601b0380881683528087166020840152808616604084015250608060608301526152b660808301848661561e565b60006001600160601b0380881683528087166020840152508415156040830152608060608301526152b660808301848661561e565b600060018060a01b03808a1683528089166020840152808816604084015280871660608401525084608083015260e060a083015265ffffffffffff84511660e0830152602084015161010083015260408401516060610120840152615a0e610140840182614830565b91505082151560c083015298975050505050505050565b6001600160601b0387811682526001600160401b03871660208301526001600160a01b03861660408301528416606082015260a060808201819052600090615a70908301848661561e565b98975050505050505050565b6001600160c81b031991909116815260200190565b60ff8281168282160390811115611aa657611aa66150e3565b60ff818116838216029081169081811461519a5761519a6150e3565b6001600160601b0388811682526001600160a01b0388166020830152868116604083015285166060820152831515608082015260c060a08201819052600090613aba908301848661561e565b60008251615b2481846020870161480c565b9190910192915050565b600060208284031215615b4057600080fd5b81516001600160e01b0319811681146111d857600080fd5b634e487b7160e01b600052601260045260246000fd5b600060ff831680615b8157615b81615b58565b8060ff84160491505092915050565b600060ff831680615ba357615ba3615b58565b8060ff84160691505092915050565b805160208201516001600160c81b03198082169291906007831015615be15780818460070360031b1b83161693505b505050919050565b6001600160601b0389811682526001600160a01b0389811660208401528881166040840152871660608301528516608082015283151560a082015260e060c08201819052600090615c3d908301848661561e565b9a995050505050505050505056fea264697066735822122090860e11146224987b347260a66715bff6bc9c3ad1fb782315da935809c2c7be64736f6c63430008130033",
    "linkReferences": {
      "src/lib/Transfer.sol": {
        "Transfer": [
          {
            "start": 2619,
            "length": 20
          },
          {
            "start": 3254,
            "length": 20
          },
          {
            "start": 4425,
            "length": 20
          },
          {
            "start": 5160,
            "length": 20
          },
          {
            "start": 5657,
            "length": 20
          },
          {
            "start": 8027,
            "length": 20
          },
          {
            "start": 8785,
            "length": 20
          },
          {
            "start": 9353,
            "length": 20
          },
          {
            "start": 10464,
            "length": 20
          },
          {
            "start": 11433,
            "length": 20
          },
          {
            "start": 14723,
            "length": 20
          },
          {
            "start": 15396,
            "length": 20
          },
          {
            "start": 15555,
            "length": 20
          },
          {
            "start": 15811,
            "length": 20
          },
          {
            "start": 16278,
            "length": 20
          }
        ]
      }
    }
  },
  "methodIdentifiers": {
    "auction((bytes5,address,address,address,address,bytes,bytes5,bytes,bool,bool),(uint48,uint48,bool,uint96,bytes),string)": "fd2ade30",
    "bid((uint96,address,uint96,bytes,bytes),bytes)": "59a8bf64",
    "calculateQuoteFees(uint96,uint96,bool,uint96)": "a3b76730",
    "cancel(uint96,bytes)": "cf042fb0",
    "claimBids(uint96,uint64[])": "0a35511b",
    "claimProceeds(uint96,bytes)": "0e9132eb",
    "claimRewards(address)": "ef5cfb8c",
    "curate(uint96,bytes)": "505f901a",
    "execOnModule(bytes7,bytes)": "50ab0489",
    "fees(bytes5)": "31d72d6b",
    "getModuleForId(uint96)": "a50076f7",
    "getModuleForVeecode(bytes7)": "9e55cba3",
    "getModuleStatus(bytes5)": "5bb27aab",
    "installModule(address)": "7eb1e761",
    "isExecOnModule()": "5c774ed7",
    "lotCounter()": "c4ce88fd",
    "lotFees(uint96)": "ea072e70",
    "lotRouting(uint96)": "9e2e003a",
    "modules(uint256)": "81b2248a",
    "modulesCount()": "f315aafe",
    "owner()": "8da5cb5b",
    "purchase((address,address,uint96,uint96,uint96,bytes,bytes),bytes)": "e1d38d17",
    "refundBid(uint96,uint64)": "7c86106f",
    "rewards(address,address)": "e70b9e27",
    "setCuratorFee(bytes5,uint48)": "7249c0d5",
    "setFee(bytes5,uint8,uint48)": "c74c149b",
    "setProtocol(address)": "0a9d793d",
    "settle(uint96)": "fb9d3cb6",
    "sunsetModule(bytes5)": "c75519ba",
    "transferOwnership(address)": "f2fde38b"
  },
  "id": 33
}