{
  "abi": [
    {
      "type": "constructor",
      "inputs": [
        {
          "name": "owner_",
          "type": "address",
          "internalType": "address"
        },
        {
          "name": "protocol_",
          "type": "address",
          "internalType": "address"
        },
        {
          "name": "permit2_",
          "type": "address",
          "internalType": "address"
        }
      ],
      "stateMutability": "nonpayable"
    },
    {
      "type": "function",
      "name": "auction",
      "inputs": [
        {
          "name": "routing_",
          "type": "tuple",
          "internalType": "struct Auctioneer.RoutingParams",
          "components": [
            {
              "name": "auctionType",
              "type": "bytes5",
              "internalType": "Keycode"
            },
            {
              "name": "baseToken",
              "type": "address",
              "internalType": "contract ERC20"
            },
            {
              "name": "quoteToken",
              "type": "address",
              "internalType": "contract ERC20"
            },
            {
              "name": "curator",
              "type": "address",
              "internalType": "address"
            },
            {
              "name": "hooks",
              "type": "address",
              "internalType": "contract IHooks"
            },
            {
              "name": "allowlist",
              "type": "address",
              "internalType": "contract IAllowlist"
            },
            {
              "name": "allowlistParams",
              "type": "bytes",
              "internalType": "bytes"
            },
            {
              "name": "derivativeType",
              "type": "bytes5",
              "internalType": "Keycode"
            },
            {
              "name": "derivativeParams",
              "type": "bytes",
              "internalType": "bytes"
            }
          ]
        },
        {
          "name": "params_",
          "type": "tuple",
          "internalType": "struct Auction.AuctionParams",
          "components": [
            {
              "name": "start",
              "type": "uint48",
              "internalType": "uint48"
            },
            {
              "name": "duration",
              "type": "uint48",
              "internalType": "uint48"
            },
            {
              "name": "capacityInQuote",
              "type": "bool",
              "internalType": "bool"
            },
            {
              "name": "capacity",
              "type": "uint256",
              "internalType": "uint256"
            },
            {
              "name": "implParams",
              "type": "bytes",
              "internalType": "bytes"
            }
          ]
        },
        {
          "name": "infoHash_",
          "type": "string",
          "internalType": "string"
        }
      ],
      "outputs": [
        {
          "name": "lotId",
          "type": "uint96",
          "internalType": "uint96"
        }
      ],
      "stateMutability": "nonpayable"
    },
    {
      "type": "function",
      "name": "bid",
      "inputs": [
        {
          "name": "params_",
          "type": "tuple",
          "internalType": "struct Router.BidParams",
          "components": [
            {
              "name": "lotId",
              "type": "uint96",
              "internalType": "uint96"
            },
            {
              "name": "recipient",
              "type": "address",
              "internalType": "address"
            },
            {
              "name": "referrer",
              "type": "address",
              "internalType": "address"
            },
            {
              "name": "amount",
              "type": "uint256",
              "internalType": "uint256"
            },
            {
              "name": "auctionData",
              "type": "bytes",
              "internalType": "bytes"
            },
            {
              "name": "allowlistProof",
              "type": "bytes",
              "internalType": "bytes"
            },
            {
              "name": "permit2Data",
              "type": "bytes",
              "internalType": "bytes"
            }
          ]
        }
      ],
      "outputs": [
        {
          "name": "",
          "type": "uint96",
          "internalType": "uint96"
        }
      ],
      "stateMutability": "nonpayable"
    },
    {
      "type": "function",
      "name": "calculateQuoteFees",
      "inputs": [
        {
          "name": "auctionType_",
          "type": "bytes5",
          "internalType": "Keycode"
        },
        {
          "name": "hasReferrer_",
          "type": "bool",
          "internalType": "bool"
        },
        {
          "name": "amount_",
          "type": "uint256",
          "internalType": "uint256"
        }
      ],
      "outputs": [
        {
          "name": "toReferrer",
          "type": "uint256",
          "internalType": "uint256"
        },
        {
          "name": "toProtocol",
          "type": "uint256",
          "internalType": "uint256"
        }
      ],
      "stateMutability": "view"
    },
    {
      "type": "function",
      "name": "cancel",
      "inputs": [
        {
          "name": "lotId_",
          "type": "uint96",
          "internalType": "uint96"
        }
      ],
      "outputs": [],
      "stateMutability": "nonpayable"
    },
    {
      "type": "function",
      "name": "claimRewards",
      "inputs": [
        {
          "name": "token_",
          "type": "address",
          "internalType": "address"
        }
      ],
      "outputs": [],
      "stateMutability": "nonpayable"
    },
    {
      "type": "function",
      "name": "condensers",
      "inputs": [
        {
          "name": "auctionRef",
          "type": "bytes7",
          "internalType": "Veecode"
        },
        {
          "name": "derivativeRef",
          "type": "bytes7",
          "internalType": "Veecode"
        }
      ],
      "outputs": [
        {
          "name": "condenserRef",
          "type": "bytes7",
          "internalType": "Veecode"
        }
      ],
      "stateMutability": "view"
    },
    {
      "type": "function",
      "name": "curate",
      "inputs": [
        {
          "name": "lotId_",
          "type": "uint96",
          "internalType": "uint96"
        }
      ],
      "outputs": [],
      "stateMutability": "nonpayable"
    },
    {
      "type": "function",
      "name": "execOnModule",
      "inputs": [
        {
          "name": "veecode_",
          "type": "bytes7",
          "internalType": "Veecode"
        },
        {
          "name": "callData_",
          "type": "bytes",
          "internalType": "bytes"
        }
      ],
      "outputs": [
        {
          "name": "",
          "type": "bytes",
          "internalType": "bytes"
        }
      ],
      "stateMutability": "nonpayable"
    },
    {
      "type": "function",
      "name": "fees",
      "inputs": [
        {
          "name": "",
          "type": "bytes5",
          "internalType": "Keycode"
        }
      ],
      "outputs": [
        {
          "name": "protocol",
          "type": "uint48",
          "internalType": "uint48"
        },
        {
          "name": "referrer",
          "type": "uint48",
          "internalType": "uint48"
        },
        {
          "name": "maxCuratorFee",
          "type": "uint48",
          "internalType": "uint48"
        }
      ],
      "stateMutability": "view"
    },
    {
      "type": "function",
      "name": "getModuleForId",
      "inputs": [
        {
          "name": "lotId_",
          "type": "uint96",
          "internalType": "uint96"
        }
      ],
      "outputs": [
        {
          "name": "",
          "type": "address",
          "internalType": "contract AuctionModule"
        }
      ],
      "stateMutability": "view"
    },
    {
      "type": "function",
      "name": "getModuleForVeecode",
      "inputs": [
        {
          "name": "",
          "type": "bytes7",
          "internalType": "Veecode"
        }
      ],
      "outputs": [
        {
          "name": "",
          "type": "address",
          "internalType": "contract Module"
        }
      ],
      "stateMutability": "view"
    },
    {
      "type": "function",
      "name": "getModuleStatus",
      "inputs": [
        {
          "name": "",
          "type": "bytes5",
          "internalType": "Keycode"
        }
      ],
      "outputs": [
        {
          "name": "latestVersion",
          "type": "uint8",
          "internalType": "uint8"
        },
        {
          "name": "sunset",
          "type": "bool",
          "internalType": "bool"
        }
      ],
      "stateMutability": "view"
    },
    {
      "type": "function",
      "name": "installModule",
      "inputs": [
        {
          "name": "newModule_",
          "type": "address",
          "internalType": "contract Module"
        }
      ],
      "outputs": [],
      "stateMutability": "nonpayable"
    },
    {
      "type": "function",
      "name": "isExecOnModule",
      "inputs": [],
      "outputs": [
        {
          "name": "",
          "type": "bool",
          "internalType": "bool"
        }
      ],
      "stateMutability": "view"
    },
    {
      "type": "function",
      "name": "lotCounter",
      "inputs": [],
      "outputs": [
        {
          "name": "",
          "type": "uint96",
          "internalType": "uint96"
        }
      ],
      "stateMutability": "view"
    },
    {
      "type": "function",
      "name": "lotCuration",
      "inputs": [
        {
          "name": "lotId",
          "type": "uint96",
          "internalType": "uint96"
        }
      ],
      "outputs": [
        {
          "name": "curator",
          "type": "address",
          "internalType": "address"
        },
        {
          "name": "curated",
          "type": "bool",
          "internalType": "bool"
        }
      ],
      "stateMutability": "view"
    },
    {
      "type": "function",
      "name": "lotRouting",
      "inputs": [
        {
          "name": "lotId",
          "type": "uint96",
          "internalType": "uint96"
        }
      ],
      "outputs": [
        {
          "name": "auctionReference",
          "type": "bytes7",
          "internalType": "Veecode"
        },
        {
          "name": "owner",
          "type": "address",
          "internalType": "address"
        },
        {
          "name": "baseToken",
          "type": "address",
          "internalType": "contract ERC20"
        },
        {
          "name": "quoteToken",
          "type": "address",
          "internalType": "contract ERC20"
        },
        {
          "name": "hooks",
          "type": "address",
          "internalType": "contract IHooks"
        },
        {
          "name": "allowlist",
          "type": "address",
          "internalType": "contract IAllowlist"
        },
        {
          "name": "derivativeReference",
          "type": "bytes7",
          "internalType": "Veecode"
        },
        {
          "name": "derivativeParams",
          "type": "bytes",
          "internalType": "bytes"
        },
        {
          "name": "wrapDerivative",
          "type": "bool",
          "internalType": "bool"
        },
        {
          "name": "prefunding",
          "type": "uint256",
          "internalType": "uint256"
        }
      ],
      "stateMutability": "view"
    },
    {
      "type": "function",
      "name": "modules",
      "inputs": [
        {
          "name": "",
          "type": "uint256",
          "internalType": "uint256"
        }
      ],
      "outputs": [
        {
          "name": "",
          "type": "bytes5",
          "internalType": "Keycode"
        }
      ],
      "stateMutability": "view"
    },
    {
      "type": "function",
      "name": "modulesCount",
      "inputs": [],
      "outputs": [
        {
          "name": "",
          "type": "uint256",
          "internalType": "uint256"
        }
      ],
      "stateMutability": "view"
    },
    {
      "type": "function",
      "name": "owner",
      "inputs": [],
      "outputs": [
        {
          "name": "",
          "type": "address",
          "internalType": "address"
        }
      ],
      "stateMutability": "view"
    },
    {
      "type": "function",
      "name": "purchase",
      "inputs": [
        {
          "name": "params_",
          "type": "tuple",
          "internalType": "struct Router.PurchaseParams",
          "components": [
            {
              "name": "recipient",
              "type": "address",
              "internalType": "address"
            },
            {
              "name": "referrer",
              "type": "address",
              "internalType": "address"
            },
            {
              "name": "lotId",
              "type": "uint96",
              "internalType": "uint96"
            },
            {
              "name": "amount",
              "type": "uint256",
              "internalType": "uint256"
            },
            {
              "name": "minAmountOut",
              "type": "uint256",
              "internalType": "uint256"
            },
            {
              "name": "auctionData",
              "type": "bytes",
              "internalType": "bytes"
            },
            {
              "name": "allowlistProof",
              "type": "bytes",
              "internalType": "bytes"
            },
            {
              "name": "permit2Data",
              "type": "bytes",
              "internalType": "bytes"
            }
          ]
        }
      ],
      "outputs": [
        {
          "name": "payoutAmount",
          "type": "uint256",
          "internalType": "uint256"
        }
      ],
      "stateMutability": "nonpayable"
    },
    {
      "type": "function",
      "name": "refundBid",
      "inputs": [
        {
          "name": "lotId_",
          "type": "uint96",
          "internalType": "uint96"
        },
        {
          "name": "bidId_",
          "type": "uint96",
          "internalType": "uint96"
        }
      ],
      "outputs": [],
      "stateMutability": "nonpayable"
    },
    {
      "type": "function",
      "name": "rewards",
      "inputs": [
        {
          "name": "",
          "type": "address",
          "internalType": "address"
        },
        {
          "name": "",
          "type": "address",
          "internalType": "contract ERC20"
        }
      ],
      "outputs": [
        {
          "name": "",
          "type": "uint256",
          "internalType": "uint256"
        }
      ],
      "stateMutability": "view"
    },
    {
      "type": "function",
      "name": "setCondenser",
      "inputs": [
        {
          "name": "auctionRef_",
          "type": "bytes7",
          "internalType": "Veecode"
        },
        {
          "name": "derivativeRef_",
          "type": "bytes7",
          "internalType": "Veecode"
        },
        {
          "name": "condenserRef_",
          "type": "bytes7",
          "internalType": "Veecode"
        }
      ],
      "outputs": [],
      "stateMutability": "nonpayable"
    },
    {
      "type": "function",
      "name": "setCuratorFee",
      "inputs": [
        {
          "name": "auctionType_",
          "type": "bytes5",
          "internalType": "Keycode"
        },
        {
          "name": "fee_",
          "type": "uint48",
          "internalType": "uint48"
        }
      ],
      "outputs": [],
      "stateMutability": "nonpayable"
    },
    {
      "type": "function",
      "name": "setFee",
      "inputs": [
        {
          "name": "auctionType_",
          "type": "bytes5",
          "internalType": "Keycode"
        },
        {
          "name": "type_",
          "type": "uint8",
          "internalType": "enum FeeManager.FeeType"
        },
        {
          "name": "fee_",
          "type": "uint48",
          "internalType": "uint48"
        }
      ],
      "outputs": [],
      "stateMutability": "nonpayable"
    },
    {
      "type": "function",
      "name": "setProtocol",
      "inputs": [
        {
          "name": "protocol_",
          "type": "address",
          "internalType": "address"
        }
      ],
      "outputs": [],
      "stateMutability": "nonpayable"
    },
    {
      "type": "function",
      "name": "settle",
      "inputs": [
        {
          "name": "lotId_",
          "type": "uint96",
          "internalType": "uint96"
        }
      ],
      "outputs": [],
      "stateMutability": "nonpayable"
    },
    {
      "type": "function",
      "name": "sunsetModule",
      "inputs": [
        {
          "name": "keycode_",
          "type": "bytes5",
          "internalType": "Keycode"
        }
      ],
      "outputs": [],
      "stateMutability": "nonpayable"
    },
    {
      "type": "function",
      "name": "transferOwnership",
      "inputs": [
        {
          "name": "newOwner",
          "type": "address",
          "internalType": "address"
        }
      ],
      "outputs": [],
      "stateMutability": "nonpayable"
    },
    {
      "type": "event",
      "name": "AuctionCancelled",
      "inputs": [
        {
          "name": "lotId",
          "type": "uint96",
          "indexed": true,
          "internalType": "uint96"
        },
        {
          "name": "auctionRef",
          "type": "bytes7",
          "indexed": true,
          "internalType": "Veecode"
        }
      ],
      "anonymous": false
    },
    {
      "type": "event",
      "name": "AuctionCreated",
      "inputs": [
        {
          "name": "lotId",
          "type": "uint96",
          "indexed": true,
          "internalType": "uint96"
        },
        {
          "name": "auctionRef",
          "type": "bytes7",
          "indexed": true,
          "internalType": "Veecode"
        },
        {
          "name": "infoHash",
          "type": "string",
          "indexed": false,
          "internalType": "string"
        }
      ],
      "anonymous": false
    },
    {
      "type": "event",
      "name": "Bid",
      "inputs": [
        {
          "name": "lotId",
          "type": "uint96",
          "indexed": true,
          "internalType": "uint96"
        },
        {
          "name": "bidId",
          "type": "uint96",
          "indexed": true,
          "internalType": "uint96"
        },
        {
          "name": "bidder",
          "type": "address",
          "indexed": true,
          "internalType": "address"
        },
        {
          "name": "amount",
          "type": "uint256",
          "indexed": false,
          "internalType": "uint256"
        }
      ],
      "anonymous": false
    },
    {
      "type": "event",
      "name": "Curated",
      "inputs": [
        {
          "name": "lotId",
          "type": "uint96",
          "indexed": true,
          "internalType": "uint96"
        },
        {
          "name": "curator",
          "type": "address",
          "indexed": true,
          "internalType": "address"
        }
      ],
      "anonymous": false
    },
    {
      "type": "event",
      "name": "ModuleInstalled",
      "inputs": [
        {
          "name": "keycode",
          "type": "bytes5",
          "indexed": true,
          "internalType": "Keycode"
        },
        {
          "name": "version",
          "type": "uint8",
          "indexed": true,
          "internalType": "uint8"
        },
        {
          "name": "location",
          "type": "address",
          "indexed": true,
          "internalType": "address"
        }
      ],
      "anonymous": false
    },
    {
      "type": "event",
      "name": "ModuleSunset",
      "inputs": [
        {
          "name": "keycode",
          "type": "bytes5",
          "indexed": true,
          "internalType": "Keycode"
        }
      ],
      "anonymous": false
    },
    {
      "type": "event",
      "name": "OwnershipTransferred",
      "inputs": [
        {
          "name": "user",
          "type": "address",
          "indexed": true,
          "internalType": "address"
        },
        {
          "name": "newOwner",
          "type": "address",
          "indexed": true,
          "internalType": "address"
        }
      ],
      "anonymous": false
    },
    {
      "type": "event",
      "name": "Purchase",
      "inputs": [
        {
          "name": "lotId",
          "type": "uint96",
          "indexed": true,
          "internalType": "uint96"
        },
        {
          "name": "buyer",
          "type": "address",
          "indexed": true,
          "internalType": "address"
        },
        {
          "name": "referrer",
          "type": "address",
          "indexed": false,
          "internalType": "address"
        },
        {
          "name": "amount",
          "type": "uint256",
          "indexed": false,
          "internalType": "uint256"
        },
        {
          "name": "payout",
          "type": "uint256",
          "indexed": false,
          "internalType": "uint256"
        }
      ],
      "anonymous": false
    },
    {
      "type": "event",
      "name": "RefundBid",
      "inputs": [
        {
          "name": "lotId",
          "type": "uint96",
          "indexed": true,
          "internalType": "uint96"
        },
        {
          "name": "bidId",
          "type": "uint96",
          "indexed": true,
          "internalType": "uint96"
        },
        {
          "name": "bidder",
          "type": "address",
          "indexed": true,
          "internalType": "address"
        }
      ],
      "anonymous": false
    },
    {
      "type": "event",
      "name": "Settle",
      "inputs": [
        {
          "name": "lotId",
          "type": "uint96",
          "indexed": true,
          "internalType": "uint96"
        }
      ],
      "anonymous": false
    },
    {
      "type": "error",
      "name": "AmountLessThanMinimum",
      "inputs": []
    },
    {
      "type": "error",
      "name": "Broken_Invariant",
      "inputs": []
    },
    {
      "type": "error",
      "name": "InvalidBidder",
      "inputs": [
        {
          "name": "bidder_",
          "type": "address",
          "internalType": "address"
        }
      ]
    },
    {
      "type": "error",
      "name": "InvalidFee",
      "inputs": []
    },
    {
      "type": "error",
      "name": "InvalidHook",
      "inputs": []
    },
    {
      "type": "error",
      "name": "InvalidLotId",
      "inputs": [
        {
          "name": "id_",
          "type": "uint96",
          "internalType": "uint96"
        }
      ]
    },
    {
      "type": "error",
      "name": "InvalidModuleInstall",
      "inputs": [
        {
          "name": "keycode_",
          "type": "bytes5",
          "internalType": "Keycode"
        },
        {
          "name": "version_",
          "type": "uint8",
          "internalType": "uint8"
        }
      ]
    },
    {
      "type": "error",
      "name": "InvalidParams",
      "inputs": []
    },
    {
      "type": "error",
      "name": "InvalidState",
      "inputs": []
    },
    {
      "type": "error",
      "name": "InvalidVeecode",
      "inputs": [
        {
          "name": "veecode_",
          "type": "bytes7",
          "internalType": "Veecode"
        }
      ]
    },
    {
      "type": "error",
      "name": "ModuleAlreadySunset",
      "inputs": [
        {
          "name": "keycode_",
          "type": "bytes5",
          "internalType": "Keycode"
        }
      ]
    },
    {
      "type": "error",
      "name": "ModuleExecutionReverted",
      "inputs": [
        {
          "name": "error_",
          "type": "bytes",
          "internalType": "bytes"
        }
      ]
    },
    {
      "type": "error",
      "name": "ModuleFunctionInvalid",
      "inputs": [
        {
          "name": "function_",
          "type": "bytes4",
          "internalType": "bytes4"
        }
      ]
    },
    {
      "type": "error",
      "name": "ModuleIsSunset",
      "inputs": [
        {
          "name": "keycode_",
          "type": "bytes5",
          "internalType": "Keycode"
        }
      ]
    },
    {
      "type": "error",
      "name": "ModuleNotInstalled",
      "inputs": [
        {
          "name": "keycode_",
          "type": "bytes5",
          "internalType": "Keycode"
        },
        {
          "name": "version_",
          "type": "uint8",
          "internalType": "uint8"
        }
      ]
    },
    {
      "type": "error",
      "name": "NotPermitted",
      "inputs": [
        {
          "name": "caller_",
          "type": "address",
          "internalType": "address"
        }
      ]
    },
    {
      "type": "error",
      "name": "TargetNotAContract",
      "inputs": [
        {
          "name": "target_",
          "type": "address",
          "internalType": "address"
        }
      ]
    }
  ],
  "bytecode": {
    "object": "0x60a060405260016006553480156200001657600080fd5b5060405162005ca438038062005ca48339810160408190526200003991620000cf565b600080546001600160a01b0319166001600160a01b03851690811782556040518492869283929091907f8be0079c531659141344cd1fd0a4f28419497f9722a3daafe3b4186f6b6457e0908290a35050600b80546001600160a01b0319166001600160a01b039283161790551660805250620001199050565b80516001600160a01b0381168114620000ca57600080fd5b919050565b600080600060608486031215620000e557600080fd5b620000f084620000b2565b92506200010060208501620000b2565b91506200011060408501620000b2565b90509250925092565b608051615b6f620001356000396000613c900152615b6f6000f3fe608060405234801561001057600080fd5b50600436106101da5760003560e01c80639e55cba311610104578063c75519ba116100a2578063f2fde38b11610071578063f2fde38b14610562578063f315aafe14610575578063f4b261811461057e578063fb9d3cb6146105b957600080fd5b8063c75519ba146104fe578063d8d9570114610511578063e70b9e2714610524578063ef5cfb8c1461054f57600080fd5b8063a782e524116100de578063a782e524146104a4578063c1cf8c7f146104b7578063c4ce88fd146104d8578063c74c149b146104eb57600080fd5b80639e55cba314610414578063a249a5091461043d578063a50076f71461049157600080fd5b80635bb27aab1161017c57806381b2248a1161014b57806381b2248a146103815780638da5cb5b146103ad5780638eae8235146103d85780639e2e003a146103eb57600080fd5b80635bb27aab146102f95780635c774ed71461033e5780637249c0d51461035b5780637eb1e7611461036e57600080fd5b806331d72d6b116101b857806331d72d6b146102375780634bcbd88b1461029e57806350ab0489146102c6578063528c410d146102e657600080fd5b8063076af8b7146101df5780630a9d793d1461020f57806320b15fe414610224575b600080fd5b6101f26101ed366004614857565b6105cc565b6040516001600160601b0390911681526020015b60405180910390f35b61022261021d366004614917565b611232565b005b610222610232366004614951565b61127e565b6102756102453660046149b4565b600c6020526000908152604090205465ffffffffffff80821691600160301b8104821691600160601b9091041683565b6040805165ffffffffffff94851681529284166020840152921691810191909152606001610206565b6102b16102ac3660046149dd565b6114a9565b60408051928352602083019190915201610206565b6102d96102d4366004614a1c565b61157f565b6040516102069190614ac0565b6101f26102f4366004614c23565b61165e565b6103256103073660046149b4565b60046020526000908152604090205460ff8082169161010090041682565b6040805160ff9093168352901515602083015201610206565b60055461034b9060ff1681565b6040519015158152602001610206565b610222610369366004614d28565b6119b9565b61022261037c366004614917565b611a4c565b61039461038f366004614d5f565b611cc9565b6040516001600160d81b03199091168152602001610206565b6000546103c0906001600160a01b031681565b6040516001600160a01b039091168152602001610206565b6102226103e6366004614d78565b611d00565b6103fe6103f9366004614d78565b611eee565b6040516102069a99989796959493929190614d95565b6103c0610422366004614e0e565b6003602052600090815260409020546001600160a01b031681565b61047261044b366004614d78565b6009602052600090815260409020546001600160a01b03811690600160a01b900460ff1682565b604080516001600160a01b039093168352901515602083015201610206565b6103c061049f366004614d78565b611fe9565b6102226104b2366004614d78565b61201f565b6104ca6104c5366004614e2b565b612352565b604051908152602001610206565b6007546101f2906001600160601b031681565b6102226104f9366004614f27565b612a0b565b61022261050c3660046149b4565b612b61565b61022261051f366004614f69565b612c5d565b6104ca610532366004614f97565b600d60209081526000928352604080842090915290825290205481565b61022261055d366004614917565b612df1565b610222610570366004614917565b612eba565b6104ca60025481565b6105ac61058c366004614fc5565b600a60209081526000928352604080842090915290825290205460c81b81565b6040516102069190614ff3565b6102226105c7366004614d78565b612f2f565b60006006546001146105f95760405162461bcd60e51b81526004016105f090615008565b60405180910390fd5b6002600655600061061561061060208801886149b4565b613993565b90506000816001600160a01b031663bb24fe8a6040518163ffffffff1660e01b8152600401602060405180830381865afa158015610657573d6000803e3d6000fd5b505050506040513d601f19601f8201168201806040525081019061067b9190615042565b600381111561068c5761068c61502c565b146106aa57604051635435b28960e11b815260040160405180910390fd5b60006106bc6040880160208901614917565b6001600160a01b031614806106e9575060006106de6060880160408901614917565b6001600160a01b0316145b1561070757604051635435b28960e11b815260040160405180910390fd5b6000808061071b60408a0160208b01614917565b6001600160a01b031663313ce5676040518163ffffffff1660e01b8152600401602060405180830381865afa158015610758573d6000803e3d6000fd5b505050506040513d601f19601f8201168201806040525081019061077c9190615063565b9050600061079060608b0160408c01614917565b6001600160a01b031663313ce5676040518163ffffffff1660e01b8152600401602060405180830381865afa1580156107cd573d6000803e3d6000fd5b505050506040513d601f19601f820116820180604052508101906107f19190615063565b905060068260ff161080610808575060128260ff16115b80610816575060068160ff16105b80610824575060128160ff16115b1561084257604051635435b28960e11b815260040160405180910390fd5b600780546001600160601b031690600061085b8361509c565b91906101000a8154816001600160601b0302191690836001600160601b031602179055509550846001600160a01b031663bae96bdd878b84866040518563ffffffff1660e01b81526004016108b394939291906150eb565b60408051808303816000875af11580156108d1573d6000803e3d6000fd5b505050506040513d601f19601f820116820180604052508101906108f591906151c9565b6001600160601b0388166000908152600860209081526040918290208251636b0b9ae560e11b815292519498509296509194506001600160a01b038816935063d61735ca92600480830193928290030181865afa15801561095a573d6000803e3d6000fd5b505050506040513d601f19601f8201168201806040525081019061097e91906151f7565b815460c89190911c6001600160d81b03199091161733600160381b021781556109ad60408a0160208b01614917565b6001820180546001600160a01b0319166001600160a01b03929092169190911790556109df60608a0160408b01614917565b6002820180546001600160a01b0319166001600160a01b03929092169190911790556001600160601b0385166000908152600960205260409020610a2960808b0160608c01614917565b81546001600160a81b0319166001600160a01b03919091161790556000610a5d610a5a6101008c0160e08d016149b4565b90565b6001600160d81b03191614610c62576000610a826106106101008c0160e08d016149b4565b90506000816001600160a01b031663d61735ca6040518163ffffffff1660e01b8152600401602060405180830381865afa158015610ac4573d6000803e3d6000fd5b505050506040513d601f19601f82011682018060405250810190610ae891906151f7565b90506001826001600160a01b031663bb24fe8a6040518163ffffffff1660e01b8152600401602060405180830381865afa158015610b2a573d6000803e3d6000fd5b505050506040513d601f19601f82011682018060405250810190610b4e9190615042565b6003811115610b5f57610b5f61502c565b14610b7d57604051635435b28960e11b815260040160405180910390fd5b60018301546001600160a01b038084169163caf927859116610ba36101008f018f615214565b6040518463ffffffff1660e01b8152600401610bc19392919061525a565b602060405180830381865afa158015610bde573d6000803e3d6000fd5b505050506040513d601f19601f82011682018060405250810190610c02919061527f565b610c1f57604051635435b28960e11b815260040160405180910390fd5b60048301805466ffffffffffffff60a01b1916600160a01b60c884901c02179055610c4e6101008c018c615214565b6005850191610c5e919083615324565b5050505b80546001600160c81b031960c891821b81166000908152600a602090815260408083206004870154600160a01b9004861b90941683529290529081205490911b90610caa8290565b6001600160c81b03191614610db4576002610cc482613a5c565b6001600160a01b031663bb24fe8a6040518163ffffffff1660e01b8152600401602060405180830381865afa158015610d01573d6000803e3d6000fd5b505050506040513d601f19601f82011682018060405250810190610d259190615042565b6003811115610d3657610d3661502c565b14610d5457604051635435b28960e11b815260040160405180910390fd5b6000610d5f82613ab1565b6001600160d81b03198116600090815260046020526040902054909150610100900460ff161515600103610db25760405163ae05d58960e01b81526001600160d81b0319821660048201526024016105f0565b505b506000610dc760c08b0160a08c01614917565b6001600160a01b031614610ebf57610de560c08a0160a08b01614917565b6001600160a01b03163b600003610e0f57604051635435b28960e11b815260040160405180910390fd5b610e1f60c08a0160a08b01614917565b6001600160a01b03166344d799f386610e3b60c08d018d615214565b6040518463ffffffff1660e01b8152600401610e59939291906153e3565b600060405180830381600087803b158015610e7357600080fd5b505af1158015610e87573d6000803e3d6000fd5b50610e9c9250505060c08a0160a08b01614917565b6004820180546001600160a01b0319166001600160a01b03929092169190911790555b6000610ed160a08b0160808c01614917565b6001600160a01b031614610f4c57610eef60a08a0160808b01614917565b6001600160a01b03163b600003610f1957604051635435b28960e11b815260040160405180910390fd5b610f2960a08a0160808b01614917565b6003820180546001600160a01b0319166001600160a01b03929092169190911790555b8215156001036111c857610f666060890160408a01615406565b15610f8457604051635435b28960e11b815260040160405180910390fd5b600781018290556000610f9d60a08b0160808c01614917565b6001600160a01b031614611148576000610fbd60408b0160208c01614917565b6040516370a0823160e01b81523060048201526001600160a01b0391909116906370a0823190602401602060405180830381865afa158015611003573d6000803e3d6000fd5b505050506040513d601f19601f820116820180604052508101906110279190615423565b905061103960a08b0160808c01614917565b60405163e5e3f46560e01b81526001600160601b03881660048201526001600160a01b03919091169063e5e3f46590602401600060405180830381600087803b15801561108557600080fd5b505af1158015611099573d6000803e3d6000fd5b5050505082816110a9919061543c565b6110b960408c0160208d01614917565b6040516370a0823160e01b81523060048201526001600160a01b0391909116906370a0823190602401602060405180830381865afa1580156110ff573d6000803e3d6000fd5b505050506040513d601f19601f820116820180604052508101906111239190615423565b101561114257604051639c9d882360e01b815260040160405180910390fd5b506111c8565b73__$edb40677ae687b89a8312a1af66086cd07$__63bc0dbc9961117260408c0160208d01614917565b33308660016040518663ffffffff1660e01b815260040161119795949392919061544f565b60006040518083038186803b1580156111af57600080fd5b505af41580156111c3573d6000803e3d6000fd5b505050505b805460405160c89190911b6001600160c81b031916906001600160601b038716907f7cbd7aa1f47e4f995e92547da29ca023e5fad4db6922fcaa352efa004066491f90611218908b908b90615483565b60405180910390a350506001600655509095945050505050565b6000546001600160a01b0316331461125c5760405162461bcd60e51b81526004016105f090615497565b600b80546001600160a01b0319166001600160a01b0392909216919091179055565b6000546001600160a01b031633146112a85760405162461bcd60e51b81526004016105f090615497565b60006112b384613a5c565b6001600160a01b031663bb24fe8a6040518163ffffffff1660e01b8152600401602060405180830381865afa1580156112f0573d6000803e3d6000fd5b505050506040513d601f19601f820116820180604052508101906113149190615042565b60038111156113255761132561502c565b1415806113ad5750600161133883613a5c565b6001600160a01b031663bb24fe8a6040518163ffffffff1660e01b8152600401602060405180830381865afa158015611375573d6000803e3d6000fd5b505050506040513d601f19601f820116820180604052508101906113999190615042565b60038111156113aa576113aa61502c565b14155b8061144757506001600160c81b0319811615801590611447575060026113d282613a5c565b6001600160a01b031663bb24fe8a6040518163ffffffff1660e01b8152600401602060405180830381865afa15801561140f573d6000803e3d6000fd5b505050506040513d601f19601f820116820180604052508101906114339190615042565b60038111156114445761144461502c565b14155b1561146557604051635435b28960e11b815260040160405180910390fd5b6001600160c81b03199283166000908152600a6020908152604080832094909516825292909252919020805466ffffffffffffff191660c89290921c919091179055565b6001600160d81b031983166000908152600c6020526040812054819065ffffffffffff168415611553576001600160d81b031986166000908152600c6020526040902054600160301b900465ffffffffffff16620186a061150a82876154bd565b61151491906154ea565b935083620186a061152583856154fe565b6115379065ffffffffffff16886154bd565b61154191906154ea565b61154b9190615524565b925050611576565b620186a061156965ffffffffffff8316866154bd565b61157391906154ea565b91505b50935093915050565b6000546060906001600160a01b031633146115ac5760405162461bcd60e51b81526004016105f090615497565b6005805460ff1916600117905560006115c485613a5c565b9050600080826001600160a01b031686866040516115e3929190615537565b6000604051808303816000865af19150503d8060008114611620576040519150601f19603f3d011682016040523d82523d6000602084013e611625565b606091505b50915091508161164a5780604051635d94b9cd60e01b81526004016105f09190614ac0565b6005805460ff191690559695505050505050565b60006006546001146116825760405162461bcd60e51b81526004016105f090615008565b6002600655815161169290613ac5565b81516001600160601b0316600090815260086020908152604080832081516101408101835281546001600160c81b031960c882811b821684526001600160a01b03600160381b9093048316968401969096526001840154821694830194909452600283015481166060830152600383015481166080830152600483015490811660a0830152600160a01b900490931b90911660c083015260058101805460e08401919061173e9061529c565b80601f016020809104026020016040519081016040528092919081815260200182805461176a9061529c565b80156117b75780601f1061178c576101008083540402835291602001916117b7565b820191906000526020600020905b81548152906001019060200180831161179a57829003601f168201915b5050509183525050600682015460ff161515602082015260079091015460409091015260a0808201518551918601519293506117f7929091903390613b53565b61181657604051632aaf132360e11b81523360048201526024016105f0565b60006118258460000151611fe9565b6001600160a01b03166356ab110b8560000151338760200151886040015189606001518a608001516040518763ffffffff1660e01b815260040161186e96959493929190615547565b6020604051808303816000875af115801561188d573d6000803e3d6000fd5b505050506040513d601f19601f820116820180604052508101906118b1919061559d565b845160608087015190850151608086015160c0890151604051635c2fc75360e01b815295965061194e9573__$edb40677ae687b89a8312a1af66086cd07$__91635c2fc753916119049190600401614ac0565b600060405180830381865af4158015611921573d6000803e3d6000fd5b505050506040513d6000823e601f3d908101601f1916820160405261194991908101906155ff565b613be7565b336001600160a01b0316816001600160601b031685600001516001600160601b03167fa2e7ed6065b3a19c5ea6dce1c2f7a8933195d54aa91cee19103be6655cc3bcf887606001516040516119a591815260200190565b60405180910390a460016006559392505050565b6001600160d81b031982166000908152600c602052604090205465ffffffffffff600160601b90910481169082161115611a06576040516358d620b360e01b815260040160405180910390fd5b6001600160d81b0319919091166000908152600c602090815260408083203384526001019091529020805465ffffffffffff191665ffffffffffff909216919091179055565b6000546001600160a01b03163314611a765760405162461bcd60e51b81526004016105f090615497565b611a7f81613cfa565b6000816001600160a01b031663d61735ca6040518163ffffffff1660e01b8152600401602060405180830381865afa158015611abf573d6000803e3d6000fd5b505050506040513d601f19601f82011682018060405250810190611ae391906151f7565b9050611aee81613d30565b600080611afa83613e96565b6001600160d81b031982166000908152600460205260409020805492945090925090611b2a9060ff16600161569e565b60ff168260ff1614611b53578282604051635820a91160e01b81526004016105f09291906156b7565b805460ff191660ff8381169190911780835561010090041615611b7a57805461ff00191681555b6001600160c81b03198416600090815260036020526040902080546001600160a01b0319166001600160a01b03871617905560ff821660001901611c2a5760018054808201825560009182527fb10e2d527612073b26eecdfd717e6a320cf44b4afac2b0732d9fcbe2b7fa0cf6600680830491909101805464ffffffffff929093066005026101000a9182021990921660d887901c919091021790556002805491611c24836156d4565b91905055505b846001600160a01b031663ea6439146040518163ffffffff1660e01b8152600401600060405180830381600087803b158015611c6557600080fd5b505af1158015611c79573d6000803e3d6000fd5b50506040516001600160a01b038816925060ff851691506001600160d81b03198616907f9d59a7f92873a37532afecac87d9ae2e0571c04f7cfe13ace6f38209dd1acd1c90600090a45050505050565b60018181548110611cd957600080fd5b9060005260206000209060069182820401919006600502915054906101000a900460d81b81565b600654600114611d225760405162461bcd60e51b81526004016105f090615008565b6002600655611d3081613ac5565b6001600160601b03811660009081526008602052604090208054600160381b90046001600160a01b03163314611d7b576040516319b1d90760e31b81523360048201526024016105f0565b611d8482611fe9565b60405163b04046df60e01b81526001600160601b03841660048201526001600160a01b03919091169063b04046df90602401600060405180830381600087803b158015611dd057600080fd5b505af1158015611de4573d6000803e3d6000fd5b50505050600781015415611e9e576007808201546001600160601b03841660009081526008602052604080822090930181905560018401548454935163636c380360e01b8152929373__$edb40677ae687b89a8312a1af66086cd07$__9363636c380393611e6c936001600160a01b0390811693600160381b900416918791906004016156ed565b60006040518083038186803b158015611e8457600080fd5b505af4158015611e98573d6000803e3d6000fd5b50505050505b805460405160c89190911b6001600160c81b031916906001600160601b038416907f2c784826e62ed5cac07a5ebe66734ece0cdc7ee0559b21b59d1434a64e07ec8290600090a350506001600655565b60086020526000908152604090208054600182015460028301546003840154600485015460058601805460c887811b986001600160a01b03600160381b909904891698978816979687169695861695851694600160a01b900490911b929091611f569061529c565b80601f0160208091040260200160405190810160405280929190818152602001828054611f829061529c565b8015611fcf5780601f10611fa457610100808354040283529160200191611fcf565b820191906000526020600020905b815481529060010190602001808311611fb257829003601f168201915b505050506006830154600790930154919260ff169190508a565b6000611ff482613ac5565b6001600160601b0382166000908152600860205260409020546120199060c81b613a5c565b92915050565b6006546001146120415760405162461bcd60e51b81526004016105f090615008565b600260065561204f81613ac5565b6001600160601b0381166000908152600860209081526040808320600990925282208154919290916120839060c81b613ab1565b82549091506001600160a01b031633146120b2576040516319b1d90760e31b81523360048201526024016105f0565b8154600160a01b900460ff16156120dc5760405163baf3f0f760e01b815260040160405180910390fd5b60006120e785611fe9565b604051630385592160e01b81526001600160601b03871660048201529091506001600160a01b03821690630385592190602401602060405180830381865afa158015612137573d6000803e3d6000fd5b505050506040513d601f19601f8201168201806040525081019061215b919061527f565b151560010361217d5760405163baf3f0f760e01b815260040160405180910390fd5b6001600160d81b031982166000908152600c6020908152604080832033845260010190915281205465ffffffffffff1690036121cc576040516358d620b360e01b815260040160405180910390fd5b825460ff60a01b1916600160a01b1783556007840154156123105760405163ace54da560e01b81526001600160601b038616600482015260009061226890849033906001600160a01b0386169063ace54da590602401602060405180830381865afa15801561223f573d6000803e3d6000fd5b505050506040513d601f19601f820116820180604052508101906122639190615423565b613f79565b90508085600701600082825461227e919061543c565b90915550506001850154855460405163bc0dbc9960e01b815273__$edb40677ae687b89a8312a1af66086cd07$__9263bc0dbc99926122de926001600160a01b0392831692600160381b909204909116903090879060009060040161544f565b60006040518083038186803b1580156122f657600080fd5b505af415801561230a573d6000803e3d6000fd5b50505050505b60405133906001600160601b038716907f0cbe7341c5c56a21e107668323c3c414bcd506f3615ea1115f86dd4df173691490600090a350506001600655505050565b60006006546001146123765760405162461bcd60e51b81526004016105f090615008565b6002600655604082015161238990613ac5565b604080830180516001600160601b031660009081526008602052919091206004810154915160c085015191926123cd926001600160a01b0390911691903390613b53565b6123ec57604051632aaf132360e11b81523360048201526024016105f0565b805460009061242e906124019060c81b613ab1565b6020860151845460028601546060890151600160381b9092046001600160a01b0390811692911690613fcb565b846060015161243d9190615524565b9050606061244e8560400151611fe9565b6001600160a01b03166376103c8f8660400151848860a001516040518463ffffffff1660e01b815260040161248593929190615716565b6000604051808303816000875af11580156124a4573d6000803e3d6000fd5b505050506040513d6000823e601f3d908101601f191682016040526124cc919081019061573e565b608087015191955091508410156124f65760405163758342a760e01b815260040160405180910390fd5b60408581015160608701516002860154600387015460e08a01519451635c2fc75360e01b8152612558956001600160a01b03938416939092169173__$edb40677ae687b89a8312a1af66086cd07$__91635c2fc7539161190491600401614ac0565b825460028401546003850154612587926001600160a01b03600160381b909104811692869290821691166140a9565b6040858101516001600160601b0316600090815260096020529081208054909190600160a01b900460ff16156125dd5784546125da906125c99060c81b613ab1565b83546001600160a01b031688613f79565b90505b604087015161272490856125f1848a61543c565b60408051610140810182528a546001600160c81b031960c882811b821684526001600160a01b03600160381b9093048316602085015260018e015483169484019490945260028d01548216606084015260038d01548216608084015260048d015491821660a0840152600160a01b90910490921b90911660c082015260058a0180548b9160e08401916126839061529c565b80601f01602080910402602001604051908101604052809291908181526020018280546126af9061529c565b80156126fc5780601f106126d1576101008083540402835291602001916126fc565b820191906000526020600020905b8154815290600101906020018083116126df57829003601f168201915b5050509183525050600682015460ff1615156020820152600790910154604090910152614133565b60078501541561275f57858560070154101561275357604051633a196e0960e21b815260040160405180910390fd5b60078501805487900390555b604080880151885182516101408101845288546001600160c81b031960c882811b821684526001600160a01b03600160381b9093048316602085015260018c015483169684019690965260028b01548216606084015260038b01548216608084015260048b015491821660a0840152600160a01b90910490941b90931660c08401526005880180546128a1948b9290918b9160e08401916127ff9061529c565b80601f016020809104026020016040519081016040528092919081815260200182805461282b9061529c565b80156128785780601f1061284d57610100808354040283529160200191612878565b820191906000526020600020905b81548152906001019060200180831161285b57829003601f168201915b5050509183525050600682015460ff16151560208201526007909101546040909101528761431e565b8015612984576007850154156128e25780856007015410156128d657604051633a196e0960e21b815260040160405180910390fd5b60078501805482900390555b604080880151835482516101408101845288546001600160c81b031960c882811b82168452600160381b9092046001600160a01b03908116602085015260018c015481169684019690965260028b01548616606084015260038b01548616608084015260048b015480871660a0850152600160a01b900490911b1660c082015260058901805461298495909316928692918b9160e0840191906127ff9061529c565b336001600160a01b031687604001516001600160601b03167f5c53cd94df0c7e2bcd10a80f475d04aef0e489425aff9687e49f92454b40401489602001518a606001518a6040516129f3939291906001600160a01b039390931683526020830191909152604082015260600190565b60405180910390a35050600160065550919392505050565b6000546001600160a01b03163314612a355760405162461bcd60e51b81526004016105f090615497565b620186a065ffffffffffff82161115612a61576040516358d620b360e01b815260040160405180910390fd5b6000826002811115612a7557612a7561502c565b03612aaf576001600160d81b031983166000908152600c60205260409020805465ffffffffffff191665ffffffffffff8316179055505050565b6001826002811115612ac357612ac361502c565b03612b09576001600160d81b031983166000908152600c6020526040902080546bffffffffffff0000000000001916600160301b65ffffffffffff841602179055505050565b6002826002811115612b1d57612b1d61502c565b03612b5c576001600160d81b031983166000908152600c60205260409020805465ffffffffffff60601b1916600160601b65ffffffffffff8416021790555b505050565b6000546001600160a01b03163314612b8b5760405162461bcd60e51b81526004016105f090615497565b6001600160d81b0319811660009081526004602052604090205460ff16612bca5780600060405163def1560160e01b81526004016105f09291906156b7565b6001600160d81b0319811660009081526004602052604090208054610100900460ff1615612c175760405163271614df60e21b81526001600160d81b0319831660048201526024016105f0565b805461ff0019166101001781556040516001600160d81b03198316907fa967d5160f4efeca6ce587658357cfe54cbe547c6945ddf21a06ac712216942a90600090a25050565b600654600114612c7f5760405162461bcd60e51b81526004016105f090615008565b6002600655612c8d82613ac5565b6000612c9883611fe9565b60405163177ee7e360e11b81526001600160601b038086166004830152841660248201523360448201526001600160a01b039190911690632efdcfc6906064016020604051808303816000875af1158015612cf7573d6000803e3d6000fd5b505050506040513d601f19601f82011682018060405250810190612d1b9190615423565b6001600160601b03841660009081526008602052604080822060020154905163636c380360e01b815292935073__$edb40677ae687b89a8312a1af66086cd07$__9263636c380392612d7d926001600160a01b031691339187916004016156ed565b60006040518083038186803b158015612d9557600080fd5b505af4158015612da9573d6000803e3d6000fd5b50506040513392506001600160601b0380861692508616907fc5e25a727c1d2fa8b8cf2bd4f7a3ba0b6740aaee33d84a3132d47301844f361890600090a45050600160065550565b600654600114612e135760405162461bcd60e51b81526004016105f090615008565b6002600655336000818152600d602090815260408083206001600160a01b0386168452909152808220805490839055905163636c380360e01b81528493919273__$edb40677ae687b89a8312a1af66086cd07$__9263636c380392612e80928792918791906004016156ed565b60006040518083038186803b158015612e9857600080fd5b505af4158015612eac573d6000803e3d6000fd5b505060016006555050505050565b6000546001600160a01b03163314612ee45760405162461bcd60e51b81526004016105f090615497565b600080546001600160a01b0319166001600160a01b0383169081178255604051909133917f8be0079c531659141344cd1fd0a4f28419497f9722a3daafe3b4186f6b6457e09190a350565b600654600114612f515760405162461bcd60e51b81526004016105f090615008565b6002600655612f5f81613ac5565b6000612f6a82611fe9565b60405163ace54da560e01b81526001600160601b03841660048201529091506000906001600160a01b0383169063ace54da590602401602060405180830381865afa158015612fbd573d6000803e3d6000fd5b505050506040513d601f19601f82011682018060405250810190612fe19190615423565b604051637dce9e5b60e11b81526001600160601b038516600482015290915060009081906001600160a01b0385169063fb9d3cb6906024016000604051808303816000875af1158015613038573d6000803e3d6000fd5b505050506040513d6000823e601f3d908101601f191682016040526130609190810190615784565b815191935091506000908190859081835b8281101561321c57600088828151811061308d5761308d6158e9565b60200260200101516080015190506001846130a89190615524565b821480156130b557508281115b156131e557828983815181106130cd576130cd6158e9565b6020908102919091010151608001526000816130f185670de0b6b3a76400006154bd565b6130fb91906154ea565b61310d90670de0b6b3a7640000615524565b90506000670de0b6b3a7640000828c868151811061312d5761312d6158e9565b60200260200101516060015161314391906154bd565b61314d91906154ea565b90508098508a8481518110613164576131646158e9565b60200260200101516000015197508a8481518110613184576131846158e9565b6020026020010151606001518111156131b057604051633a196e0960e21b815260040160405180910390fd5b808b85815181106131c3576131c36158e9565b602002602001015160600181815103915081815250506000945050505061321c565b8281111561320657604051633a196e0960e21b815260040160405180910390fd5b9091039080613214816156d4565b915050613071565b5080156132305761322d8184615524565b92505b50506001600160601b038816600090815260086020526040812080549091906132819061325f9060c81b613ab1565b835460028501548a916001600160a01b03600160381b90910481169116614601565b6001600160601b038d166000908152600960205260408120805492955093509150600160a01b900460ff16156132d75783546132d4906132c39060c81b613ab1565b83546001600160a01b031687613f79565b90505b6133788c846132e6848961543c565b604080516101408101825289546001600160c81b031960c882811b821684526001600160a01b03600160381b9093048316602085015260018d015483169484019490945260028c01548216606084015260038c01548216608084015260048c015491821660a0840152600160a01b90910490921b90911660c08201526005890180548a9160e08401916126839061529c565b80156135d6576007840154156133b95780846007015410156133ad57604051633a196e0960e21b815260040160405180910390fd5b60078401805482900390555b6135d68c8360000160009054906101000a90046001600160a01b03168387604051806101400160405290816000820160009054906101000a900460c81b6001600160c81b0319166001600160c81b03191681526020016000820160079054906101000a90046001600160a01b03166001600160a01b03166001600160a01b031681526020016001820160009054906101000a90046001600160a01b03166001600160a01b03166001600160a01b031681526020016002820160009054906101000a90046001600160a01b03166001600160a01b03166001600160a01b031681526020016003820160009054906101000a90046001600160a01b03166001600160a01b03166001600160a01b031681526020016004820160009054906101000a90046001600160a01b03166001600160a01b03166001600160a01b031681526020016004820160149054906101000a900460c81b6001600160c81b0319166001600160c81b03191681526020016005820180546135349061529c565b80601f01602080910402602001604051908101604052809291908181526020018280546135609061529c565b80156135ad5780601f10613582576101008083540402835291602001916135ad565b820191906000526020600020905b81548152906001019060200180831161359057829003601f168201915b5050509183525050600682015460ff16151560208201526007909101546040909101528c61431e565b505060078201548751899060005b818110156137d75760008b8281518110613600576136006158e9565b602002602001015160800151905061376d8f8d8481518110613624576136246158e9565b60209081029190910181015181015160408051610140810182528c546001600160c81b031960c882811b821684526001600160a01b03600160381b90930483169684019690965260018f015482169383019390935260028e01548116606083015260038e01548116608083015260048e015490811660a0830152600160a01b900490931b1660c083015260058b0180549192869290918d9160e0840191906136cb9061529c565b80601f01602080910402602001604051908101604052809291908181526020018280546136f79061529c565b80156137445780601f1061371957610100808354040283529160200191613744565b820191906000526020600020905b81548152906001019060200180831161372757829003601f168201915b5050509183525050600682015460ff16151560208201526007909101546040909101528f61431e565b8084101561378e57604051633a196e0960e21b815260040160405180910390fd5b60078701549381900393156137c457808510156137be57604051633a196e0960e21b815260040160405180910390fd5b80850394505b50806137cf816156d4565b9150506135e4565b508215613872576000600786018190556001860154865460405163636c380360e01b815273__$edb40677ae687b89a8312a1af66086cd07$__9363636c38039361383d936001600160a01b0391821693600160381b9091049091169189916004016156ed565b60006040518083038186803b15801561385557600080fd5b505af4158015613869573d6000803e3d6000fd5b50505050613884565b60078501541561388457600060078601555b50508254600284015460038501546138b593506001600160a01b03600160381b9093048316928592811691166140a9565b6000851180156138cd57506001600160a01b03841615155b1561394e57600282015460405163636c380360e01b815273__$edb40677ae687b89a8312a1af66086cd07$__9163636c38039161391d916001600160a01b03169088908a906000906004016156ed565b60006040518083038186803b15801561393557600080fd5b505af4158015613949573d6000803e3d6000fd5b505050505b6040516001600160601b038b16907f5d4a6ac2287eaf5f22deb24e842c4668fd11d8f478a18cf2a37faa0bcebd31c690600090a2505060016006555050505050505050565b6001600160d81b03198116600090815260046020908152604080832081518083019092525460ff80821680845261010090920416151592820192909252906139f35782600060405163def1560160e01b81526004016105f09291906156b7565b806020015115613a225760405163ae05d58960e01b81526001600160d81b0319841660048201526024016105f0565b6000613a32848360000151614789565b6001600160c81b0319166000908152600360205260409020546001600160a01b0316949350505050565b6001600160c81b031981166000908152600360205260408120546001600160a01b03168061201957600080613a9085613e96565b91509150818160405163def1560160e01b81526004016105f09291906156b7565b600080613abd83613e96565b509392505050565b6007546001600160601b0390811690821610613aff57604051630d55bc2360e41b81526001600160601b03821660048201526024016105f0565b6001600160601b038116600090815260086020526040902054600160381b90046001600160a01b0316613b5057604051630d55bc2360e41b81526001600160601b03821660048201526024016105f0565b50565b60006001600160a01b038516613b6b57506001613bdf565b6040516324aad2b360e21b81526001600160a01b038616906392ab4acc90613b9b908790879087906004016158ff565b602060405180830381865afa158015613bb8573d6000803e3d6000fd5b505050506040513d601f19601f82011682018060405250810190613bdc919061527f565b90505b949350505050565b6001600160a01b03821615613c60576040516315750d0560e31b81526001600160601b0386166004820152602481018590526001600160a01b0383169063aba8682890604401600060405180830381600087803b158015613c4757600080fd5b505af1158015613c5b573d6000803e3d6000fd5b505050505b604051628f1c9d60e61b815273__$edb40677ae687b89a8312a1af66086cd07$__906323c7274090613cc39086907f000000000000000000000000000000000000000000000000000000000000000090339030908b908990600190600401615932565b60006040518083038186803b158015613cdb57600080fd5b505af4158015613cef573d6000803e3d6000fd5b505050505050505050565b806001600160a01b03163b600003613b5057604051631bd1ba9d60e21b81526001600160a01b03821660048201526024016105f0565b8060005b6007811015613e62576000828260078110613d5157613d516158e9565b1a60f81b90506002821015613dad57600360fc1b6001600160f81b031982161080613d895750603960f81b6001600160f81b03198216115b15613da85783604051628b684360e31b81526004016105f09190614ff3565b613e59565b6005821015613dfd57604160f81b6001600160f81b031982161080613d895750602d60f91b6001600160f81b031982161115613da85783604051628b684360e31b81526004016105f09190614ff3565b6001600160f81b0319811615801590613e3a5750604160f81b6001600160f81b031982161080613e3a5750602d60f91b6001600160f81b03198216115b15613e595783604051628b684360e31b81526004016105f09190614ff3565b50600101613d34565b506000613e6e83613e96565b9150508060ff16600003612b5c5782604051628b684360e31b81526004016105f09190614ff3565b60008082600360fc1b6001600160f81b031982841a60f81b161080613ece5750603960f81b8160001a60f81b6001600160f81b031916115b80613eec5750600360fc1b8160011a60f81b6001600160f81b031916105b80613f0a5750603960f81b8160011a60f81b6001600160f81b031916115b15613f295783604051628b684360e31b81526004016105f09190614ff3565b6000613f38603083831a6159b2565b613f4390600a6159cb565b9050613f546030600184901a6159b2565b613f5e908261569e565b60109290921b6001600160d81b031916959194509092505050565b6001600160d81b031983166000908152600c602090815260408083206001600160a01b0386168452600101909152812054620186a090613fc19065ffffffffffff16846154bd565b613bdf91906154ea565b60008080614003886001600160a01b03891615801590613ffd5750876001600160a01b0316896001600160a01b031614155b866114a9565b9092509050811561404b576001600160a01b038088166000908152600d602090815260408083209389168352929052908120805484929061404590849061543c565b90915550505b801561409157600b546001600160a01b039081166000908152600d602090815260408083209389168352929052908120805483929061408b90849061543c565b90915550505b61409b818361543c565b925050505b95945050505050565b73__$edb40677ae687b89a8312a1af66086cd07$__63636c3803836001600160a01b038416156140d957836140db565b865b8660006040518563ffffffff1660e01b81526004016140fd94939291906156ed565b60006040518083038186803b15801561411557600080fd5b505af4158015614129573d6000803e3d6000fd5b5050505050505050565b60008161012001511161431857604081015160808201516001600160a01b0316156142d3576040516370a0823160e01b81523060048201526000906001600160a01b038316906370a0823190602401602060405180830381865afa15801561419f573d6000803e3d6000fd5b505050506040513d601f19601f820116820180604052508101906141c39190615423565b6080840151604051637c41fdaf60e11b81526001600160601b038916600482015260248101889052604481018790529192506001600160a01b03169063f883fb5e90606401600060405180830381600087803b15801561422257600080fd5b505af1158015614236573d6000803e3d6000fd5b505050508381614246919061543c565b6040516370a0823160e01b81523060048201526001600160a01b038416906370a0823190602401602060405180830381865afa15801561428a573d6000803e3d6000fd5b505050506040513d601f19601f820116820180604052508101906142ae9190615423565b10156142cd57604051639c9d882360e01b815260040160405180910390fd5b50614316565b602082015160405163bc0dbc9960e01b815273__$edb40677ae687b89a8312a1af66086cd07$__9163bc0dbc9991613cc39185913090899060019060040161544f565b505b50505050565b60c082015160408301516001600160c81b031982166143aa5760405163636c380360e01b815273__$edb40677ae687b89a8312a1af66086cd07$__9063636c3803906143759084908a908a906001906004016156ed565b60006040518083038186803b15801561438d57600080fd5b505af41580156143a1573d6000803e3d6000fd5b50505050614575565b60006143b583613a5c565b60e086015186516001600160c81b03199081166000908152600a602090815260408083208985168452909152902054929350909160c81b908116156144795760006143ff82613a5c565b6040516333f1a81560e11b81529091506001600160a01b038216906367e3502a90614430908a9087906004016159e7565b600060405180830381865afa15801561444d573d6000803e3d6000fd5b505050506040513d6000823e601f3d908101601f191682016040526144759190810190615a0c565b9250505b60405163bd35547360e01b81526001600160a01b038086166004830152841660248201526044810189905273__$edb40677ae687b89a8312a1af66086cd07$__9063bd3554739060640160006040518083038186803b1580156144db57600080fd5b505af41580156144ef573d6000803e3d6000fd5b505050610100880151604051631c81b11f60e31b81526001600160a01b038616925063e40d88f89161452b918d91899188918f91600401615a40565b6060604051808303816000875af115801561454a573d6000803e3d6000fd5b505050506040513d601f19601f8201168201806040525081019061456e9190615a85565b5050505050505b60808401516001600160a01b0316156145f8576080840151604051634d420d8560e01b81526001600160601b0389166004820152602481018790526001600160a01b0390911690634d420d8590604401600060405180830381600087803b1580156145df57600080fd5b505af11580156145f3573d6000803e3d6000fd5b505050505b50505050505050565b600080600080865190506000805b8281101561472a57600089828151811061462b5761462b6158e9565b602002602001015160400151905060008a838151811061464d5761464d6158e9565b602002602001015160600151905060008061469d8e60006001600160a01b0316866001600160a01b03161415801561469757508d6001600160a01b0316866001600160a01b031614155b856114a9565b909250905081156146e5576001600160a01b038085166000908152600d60209081526040808320938f16835292905290812080548492906146df90849061543c565b90915550505b6146ef818761543c565b95506146fb818361543c565b614705908a61543c565b9850614711838b61543c565b9950505050508080614722906156d4565b91505061460f565b50801561477157600b546001600160a01b039081166000908152600d60209081526040808320938a168352929052908120805483929061476b90849061543c565b90915550505b61477b8486615524565b925050509450945094915050565b600080614797600a84615abe565b6147a290603061569e565b60f81b905060006147b4600a85615ae0565b6147bf90603061569e565b6040516001600160f81b0319808516602083015260f89290921b91821660218201526001600160d81b0319871660228201529091506027016040516020818303038152906040526140a090615b02565b60008083601f84011261482157600080fd5b5081356001600160401b0381111561483857600080fd5b60208301915083602082850101111561485057600080fd5b9250929050565b6000806000806060858703121561486d57600080fd5b84356001600160401b038082111561488457600080fd5b90860190610120828903121561489957600080fd5b909450602086013590808211156148af57600080fd5b9086019060a082890312156148c357600080fd5b909350604086013590808211156148d957600080fd5b506148e68782880161480f565b95989497509550505050565b6001600160a01b0381168114613b5057600080fd5b8035614912816148f2565b919050565b60006020828403121561492957600080fd5b8135614934816148f2565b9392505050565b6001600160c81b031981168114613b5057600080fd5b60008060006060848603121561496657600080fd5b83356149718161493b565b925060208401356149818161493b565b915060408401356149918161493b565b809150509250925092565b80356001600160d81b03198116811461491257600080fd5b6000602082840312156149c657600080fd5b6149348261499c565b8015158114613b5057600080fd5b6000806000606084860312156149f257600080fd5b6149fb8461499c565b92506020840135614a0b816149cf565b929592945050506040919091013590565b600080600060408486031215614a3157600080fd5b8335614a3c8161493b565b925060208401356001600160401b03811115614a5757600080fd5b614a638682870161480f565b9497909650939450505050565b60005b83811015614a8b578181015183820152602001614a73565b50506000910152565b60008151808452614aac816020860160208601614a70565b601f01601f19169290920160200192915050565b6020815260006149346020830184614a94565b634e487b7160e01b600052604160045260246000fd5b60405160e081016001600160401b0381118282101715614b0b57614b0b614ad3565b60405290565b60405161010081016001600160401b0381118282101715614b0b57614b0b614ad3565b60405160c081016001600160401b0381118282101715614b0b57614b0b614ad3565b604051601f8201601f191681016001600160401b0381118282101715614b7e57614b7e614ad3565b604052919050565b6001600160601b0381168114613b5057600080fd5b803561491281614b86565b60006001600160401b03821115614bbf57614bbf614ad3565b50601f01601f191660200190565b600082601f830112614bde57600080fd5b8135614bf1614bec82614ba6565b614b56565b818152846020838601011115614c0657600080fd5b816020850160208301376000918101602001919091529392505050565b600060208284031215614c3557600080fd5b81356001600160401b0380821115614c4c57600080fd5b9083019060e08286031215614c6057600080fd5b614c68614ae9565b614c7183614b9b565b8152614c7f60208401614907565b6020820152614c9060408401614907565b604082015260608301356060820152608083013582811115614cb157600080fd5b614cbd87828601614bcd565b60808301525060a083013582811115614cd557600080fd5b614ce187828601614bcd565b60a08301525060c083013582811115614cf957600080fd5b614d0587828601614bcd565b60c08301525095945050505050565b65ffffffffffff81168114613b5057600080fd5b60008060408385031215614d3b57600080fd5b614d448361499c565b91506020830135614d5481614d14565b809150509250929050565b600060208284031215614d7157600080fd5b5035919050565b600060208284031215614d8a57600080fd5b813561493481614b86565b6001600160c81b03198b811682526001600160a01b038b811660208401528a8116604084015289811660608401528881166080840152871660a0830152851660c082015261014060e08201819052600090614df283820187614a94565b9415156101008401525050610120015298975050505050505050565b600060208284031215614e2057600080fd5b81356149348161493b565b600060208284031215614e3d57600080fd5b81356001600160401b0380821115614e5457600080fd5b908301906101008286031215614e6957600080fd5b614e71614b11565b614e7a83614907565b8152614e8860208401614907565b6020820152614e9960408401614b9b565b6040820152606083013560608201526080830135608082015260a083013582811115614ec457600080fd5b614ed087828601614bcd565b60a08301525060c083013582811115614ee857600080fd5b614ef487828601614bcd565b60c08301525060e083013582811115614f0c57600080fd5b614f1887828601614bcd565b60e08301525095945050505050565b600080600060608486031215614f3c57600080fd5b614f458461499c565b9250602084013560038110614f5957600080fd5b9150604084013561499181614d14565b60008060408385031215614f7c57600080fd5b8235614f8781614b86565b91506020830135614d5481614b86565b60008060408385031215614faa57600080fd5b8235614fb5816148f2565b91506020830135614d54816148f2565b60008060408385031215614fd857600080fd5b8235614fe38161493b565b91506020830135614d548161493b565b6001600160c81b031991909116815260200190565b6020808252600a90820152695245454e5452414e435960b01b604082015260600190565b634e487b7160e01b600052602160045260246000fd5b60006020828403121561505457600080fd5b81516004811061493457600080fd5b60006020828403121561507557600080fd5b815160ff8116811461493457600080fd5b634e487b7160e01b600052601160045260246000fd5b60006001600160601b038083168181036150b8576150b8615086565b6001019392505050565b81835281816020850137506000828201602090810191909152601f909101601f19169091010190565b6001600160601b0385168152608060208201526000843561510b81614d14565b65ffffffffffff908116608084015260208601359061512982614d14565b1660a0830152604085013561513d816149cf565b151560c0830152606085013560e0830152608085013536869003601e1901811261516657600080fd5b85016020810190356001600160401b0381111561518257600080fd5b80360382131561519157600080fd5b60a06101008501526151a8610120850182846150c2565b925050506151bb604083018560ff169052565b60ff831660608301526140a0565b600080604083850312156151dc57600080fd5b82516151e7816149cf565b6020939093015192949293505050565b60006020828403121561520957600080fd5b81516149348161493b565b6000808335601e1984360301811261522b57600080fd5b8301803591506001600160401b0382111561524557600080fd5b60200191503681900382131561485057600080fd5b6001600160a01b03841681526040602082018190526000906140a090830184866150c2565b60006020828403121561529157600080fd5b8151614934816149cf565b600181811c908216806152b057607f821691505b6020821081036152d057634e487b7160e01b600052602260045260246000fd5b50919050565b601f821115612b5c57600081815260208120601f850160051c810160208610156152fd5750805b601f850160051c820191505b8181101561531c57828155600101615309565b505050505050565b6001600160401b0383111561533b5761533b614ad3565b61534f83615349835461529c565b836152d6565b6000601f841160018114615383576000851561536b5750838201355b600019600387901b1c1916600186901b178355614316565b600083815260209020601f19861690835b828110156153b45786850135825560209485019460019092019101615394565b50868210156153d15760001960f88860031b161c19848701351681555b505060018560011b0183555050505050565b6001600160601b03841681526040602082015260006140a06040830184866150c2565b60006020828403121561541857600080fd5b8135614934816149cf565b60006020828403121561543557600080fd5b5051919050565b8082018082111561201957612019615086565b6001600160a01b03958616815293851660208501529190931660408301526060820192909252901515608082015260a00190565b602081526000613bdf6020830184866150c2565b6020808252600c908201526b15539055551213d49256915160a21b604082015260600190565b808202811582820484141761201957612019615086565b634e487b7160e01b600052601260045260246000fd5b6000826154f9576154f96154d4565b500490565b65ffffffffffff81811683821601908082111561551d5761551d615086565b5092915050565b8181038181111561201957612019615086565b8183823760009101908152919050565b6001600160601b03871681526001600160a01b0386811660208301528581166040830152841660608201526080810183905260c060a0820181905260009061559190830184614a94565b98975050505050505050565b6000602082840312156155af57600080fd5b815161493481614b86565b600082601f8301126155cb57600080fd5b81516155d9614bec82614ba6565b8181528460208386010111156155ee57600080fd5b613bdf826020830160208701614a70565b60006020828403121561561157600080fd5b81516001600160401b038082111561562857600080fd5b908301906060828603121561563c57600080fd5b60405160608101818110838211171561565757615657614ad3565b604052825161566581614d14565b81526020838101519082015260408301518281111561568357600080fd5b61568f878286016155ba565b60408301525095945050505050565b60ff818116838216019081111561201957612019615086565b6001600160d81b031992909216825260ff16602082015260400190565b6000600182016156e6576156e6615086565b5060010190565b6001600160a01b0394851681529290931660208301526040820152901515606082015260800190565b6001600160601b03841681528260208201526060604082015260006140a06060830184614a94565b6000806040838503121561575157600080fd5b8251915060208301516001600160401b0381111561576e57600080fd5b61577a858286016155ba565b9150509250929050565b6000806040838503121561579757600080fd5b82516001600160401b03808211156157ae57600080fd5b818501915085601f8301126157c257600080fd5b81516020828211156157d6576157d6614ad3565b8160051b6157e5828201614b56565b928352848101820192828101908a8511156157ff57600080fd5b83870192505b848310156158c25782518681111561581d5760008081fd5b870160c0818d03601f19018113156158355760008081fd5b61583d614b34565b8683015161584a816148f2565b8152604083015161585a816148f2565b8188015260608381015161586d816148f2565b806040840152506080808501518284015260a091508185015181840152508284015192508983111561589f5760008081fd5b6158ad8f89858701016155ba565b90820152845250509183019190830190615805565b92890151929750919450505050808211156158dc57600080fd5b5061577a858286016155ba565b634e487b7160e01b600052603260045260246000fd5b6001600160601b03841681526001600160a01b03831660208201526060604082018190526000906140a090830184614a94565b600060018060a01b03808a1683528089166020840152808816604084015280871660608401525084608083015260e060a083015265ffffffffffff84511660e083015260208401516101008301526040840151606061012084015261599b610140840182614a94565b91505082151560c083015298975050505050505050565b60ff828116828216039081111561201957612019615086565b60ff818116838216029081169081811461551d5761551d615086565b6040815260006159fa6040830185614a94565b82810360208401526140a08185614a94565b600060208284031215615a1e57600080fd5b81516001600160401b03811115615a3457600080fd5b613bdf848285016155ba565b6001600160a01b0386811682528516602082015260a060408201819052600090615a6c90830186614a94565b6060830194909452509015156080909101529392505050565b600080600060608486031215615a9a57600080fd5b835192506020840151615aac816148f2565b80925050604084015190509250925092565b600060ff831680615ad157615ad16154d4565b8060ff84160491505092915050565b600060ff831680615af357615af36154d4565b8060ff84160691505092915050565b805160208201516001600160c81b03198082169291906007831015615b315780818460070360031b1b83161693505b50505091905056fea26469706673582212208a7d3cf9d953154ea02fab7523f926c2cd73bd3c0297907acabcaf3a06fff37c64736f6c63430008130033",
    "linkReferences": {
      "src/lib/Transfer.sol": {
        "Transfer": [
          {
            "start": 4735,
            "length": 20
          },
          {
            "start": 6674,
            "length": 20
          },
          {
            "start": 8035,
            "length": 20
          },
          {
            "start": 9166,
            "length": 20
          },
          {
            "start": 9831,
            "length": 20
          },
          {
            "start": 11902,
            "length": 20
          },
          {
            "start": 12169,
            "length": 20
          },
          {
            "start": 14642,
            "length": 20
          },
          {
            "start": 14875,
            "length": 20
          },
          {
            "start": 15779,
            "length": 20
          },
          {
            "start": 16864,
            "length": 20
          },
          {
            "start": 17436,
            "length": 20
          },
          {
            "start": 17531,
            "length": 20
          },
          {
            "start": 17883,
            "length": 20
          }
        ]
      }
    }
  },
  "methodIdentifiers": {
    "auction((bytes5,address,address,address,address,address,bytes,bytes5,bytes),(uint48,uint48,bool,uint256,bytes),string)": "076af8b7",
    "bid((uint96,address,address,uint256,bytes,bytes,bytes))": "528c410d",
    "calculateQuoteFees(bytes5,bool,uint256)": "4bcbd88b",
    "cancel(uint96)": "8eae8235",
    "claimRewards(address)": "ef5cfb8c",
    "condensers(bytes7,bytes7)": "f4b26181",
    "curate(uint96)": "a782e524",
    "execOnModule(bytes7,bytes)": "50ab0489",
    "fees(bytes5)": "31d72d6b",
    "getModuleForId(uint96)": "a50076f7",
    "getModuleForVeecode(bytes7)": "9e55cba3",
    "getModuleStatus(bytes5)": "5bb27aab",
    "installModule(address)": "7eb1e761",
    "isExecOnModule()": "5c774ed7",
    "lotCounter()": "c4ce88fd",
    "lotCuration(uint96)": "a249a509",
    "lotRouting(uint96)": "9e2e003a",
    "modules(uint256)": "81b2248a",
    "modulesCount()": "f315aafe",
    "owner()": "8da5cb5b",
    "purchase((address,address,uint96,uint256,uint256,bytes,bytes,bytes))": "c1cf8c7f",
    "refundBid(uint96,uint96)": "d8d95701",
    "rewards(address,address)": "e70b9e27",
    "setCondenser(bytes7,bytes7,bytes7)": "20b15fe4",
    "setCuratorFee(bytes5,uint48)": "7249c0d5",
    "setFee(bytes5,uint8,uint48)": "c74c149b",
    "setProtocol(address)": "0a9d793d",
    "settle(uint96)": "fb9d3cb6",
    "sunsetModule(bytes5)": "c75519ba",
    "transferOwnership(address)": "f2fde38b"
  },
  "id": 29
}