{
  "abi": [
    {
      "type": "constructor",
      "inputs": [
        {
          "name": "owner_",
          "type": "address",
          "internalType": "address"
        },
        {
          "name": "protocol_",
          "type": "address",
          "internalType": "address"
        },
        {
          "name": "permit2_",
          "type": "address",
          "internalType": "address"
        }
      ],
      "stateMutability": "nonpayable"
    },
    {
      "type": "function",
      "name": "auction",
      "inputs": [
        {
          "name": "routing_",
          "type": "tuple",
          "internalType": "struct Auctioneer.RoutingParams",
          "components": [
            {
              "name": "auctionType",
              "type": "bytes5",
              "internalType": "Keycode"
            },
            {
              "name": "baseToken",
              "type": "address",
              "internalType": "contract ERC20"
            },
            {
              "name": "quoteToken",
              "type": "address",
              "internalType": "contract ERC20"
            },
            {
              "name": "curator",
              "type": "address",
              "internalType": "address"
            },
            {
              "name": "hooks",
              "type": "address",
              "internalType": "contract IHooks"
            },
            {
              "name": "allowlist",
              "type": "address",
              "internalType": "contract IAllowlist"
            },
            {
              "name": "allowlistParams",
              "type": "bytes",
              "internalType": "bytes"
            },
            {
              "name": "derivativeType",
              "type": "bytes5",
              "internalType": "Keycode"
            },
            {
              "name": "derivativeParams",
              "type": "bytes",
              "internalType": "bytes"
            }
          ]
        },
        {
          "name": "params_",
          "type": "tuple",
          "internalType": "struct Auction.AuctionParams",
          "components": [
            {
              "name": "start",
              "type": "uint48",
              "internalType": "uint48"
            },
            {
              "name": "duration",
              "type": "uint48",
              "internalType": "uint48"
            },
            {
              "name": "capacityInQuote",
              "type": "bool",
              "internalType": "bool"
            },
            {
              "name": "capacity",
              "type": "uint256",
              "internalType": "uint256"
            },
            {
              "name": "implParams",
              "type": "bytes",
              "internalType": "bytes"
            }
          ]
        }
      ],
      "outputs": [
        {
          "name": "lotId",
          "type": "uint96",
          "internalType": "uint96"
        }
      ],
      "stateMutability": "nonpayable"
    },
    {
      "type": "function",
      "name": "bid",
      "inputs": [
        {
          "name": "params_",
          "type": "tuple",
          "internalType": "struct Router.BidParams",
          "components": [
            {
              "name": "lotId",
              "type": "uint96",
              "internalType": "uint96"
            },
            {
              "name": "recipient",
              "type": "address",
              "internalType": "address"
            },
            {
              "name": "referrer",
              "type": "address",
              "internalType": "address"
            },
            {
              "name": "amount",
              "type": "uint256",
              "internalType": "uint256"
            },
            {
              "name": "auctionData",
              "type": "bytes",
              "internalType": "bytes"
            },
            {
              "name": "allowlistProof",
              "type": "bytes",
              "internalType": "bytes"
            },
            {
              "name": "permit2Data",
              "type": "bytes",
              "internalType": "bytes"
            }
          ]
        }
      ],
      "outputs": [
        {
          "name": "",
          "type": "uint96",
          "internalType": "uint96"
        }
      ],
      "stateMutability": "nonpayable"
    },
    {
      "type": "function",
      "name": "calculateQuoteFees",
      "inputs": [
        {
          "name": "auctionType_",
          "type": "bytes5",
          "internalType": "Keycode"
        },
        {
          "name": "hasReferrer_",
          "type": "bool",
          "internalType": "bool"
        },
        {
          "name": "amount_",
          "type": "uint256",
          "internalType": "uint256"
        }
      ],
      "outputs": [
        {
          "name": "toReferrer",
          "type": "uint256",
          "internalType": "uint256"
        },
        {
          "name": "toProtocol",
          "type": "uint256",
          "internalType": "uint256"
        }
      ],
      "stateMutability": "view"
    },
    {
      "type": "function",
      "name": "cancel",
      "inputs": [
        {
          "name": "lotId_",
          "type": "uint96",
          "internalType": "uint96"
        }
      ],
      "outputs": [],
      "stateMutability": "nonpayable"
    },
    {
      "type": "function",
      "name": "claimRewards",
      "inputs": [
        {
          "name": "token_",
          "type": "address",
          "internalType": "address"
        }
      ],
      "outputs": [],
      "stateMutability": "nonpayable"
    },
    {
      "type": "function",
      "name": "condensers",
      "inputs": [
        {
          "name": "auctionRef",
          "type": "bytes7",
          "internalType": "Veecode"
        },
        {
          "name": "derivativeRef",
          "type": "bytes7",
          "internalType": "Veecode"
        }
      ],
      "outputs": [
        {
          "name": "condenserRef",
          "type": "bytes7",
          "internalType": "Veecode"
        }
      ],
      "stateMutability": "view"
    },
    {
      "type": "function",
      "name": "curate",
      "inputs": [
        {
          "name": "lotId_",
          "type": "uint96",
          "internalType": "uint96"
        }
      ],
      "outputs": [],
      "stateMutability": "nonpayable"
    },
    {
      "type": "function",
      "name": "execOnModule",
      "inputs": [
        {
          "name": "veecode_",
          "type": "bytes7",
          "internalType": "Veecode"
        },
        {
          "name": "callData_",
          "type": "bytes",
          "internalType": "bytes"
        }
      ],
      "outputs": [
        {
          "name": "",
          "type": "bytes",
          "internalType": "bytes"
        }
      ],
      "stateMutability": "nonpayable"
    },
    {
      "type": "function",
      "name": "fees",
      "inputs": [
        {
          "name": "",
          "type": "bytes5",
          "internalType": "Keycode"
        }
      ],
      "outputs": [
        {
          "name": "protocol",
          "type": "uint48",
          "internalType": "uint48"
        },
        {
          "name": "referrer",
          "type": "uint48",
          "internalType": "uint48"
        },
        {
          "name": "maxCuratorFee",
          "type": "uint48",
          "internalType": "uint48"
        }
      ],
      "stateMutability": "view"
    },
    {
      "type": "function",
      "name": "getModuleForId",
      "inputs": [
        {
          "name": "lotId_",
          "type": "uint96",
          "internalType": "uint96"
        }
      ],
      "outputs": [
        {
          "name": "",
          "type": "address",
          "internalType": "contract AuctionModule"
        }
      ],
      "stateMutability": "view"
    },
    {
      "type": "function",
      "name": "getModuleForVeecode",
      "inputs": [
        {
          "name": "",
          "type": "bytes7",
          "internalType": "Veecode"
        }
      ],
      "outputs": [
        {
          "name": "",
          "type": "address",
          "internalType": "contract Module"
        }
      ],
      "stateMutability": "view"
    },
    {
      "type": "function",
      "name": "getModuleStatus",
      "inputs": [
        {
          "name": "",
          "type": "bytes5",
          "internalType": "Keycode"
        }
      ],
      "outputs": [
        {
          "name": "latestVersion",
          "type": "uint8",
          "internalType": "uint8"
        },
        {
          "name": "sunset",
          "type": "bool",
          "internalType": "bool"
        }
      ],
      "stateMutability": "view"
    },
    {
      "type": "function",
      "name": "installModule",
      "inputs": [
        {
          "name": "newModule_",
          "type": "address",
          "internalType": "contract Module"
        }
      ],
      "outputs": [],
      "stateMutability": "nonpayable"
    },
    {
      "type": "function",
      "name": "isExecOnModule",
      "inputs": [],
      "outputs": [
        {
          "name": "",
          "type": "bool",
          "internalType": "bool"
        }
      ],
      "stateMutability": "view"
    },
    {
      "type": "function",
      "name": "lotCounter",
      "inputs": [],
      "outputs": [
        {
          "name": "",
          "type": "uint96",
          "internalType": "uint96"
        }
      ],
      "stateMutability": "view"
    },
    {
      "type": "function",
      "name": "lotCuration",
      "inputs": [
        {
          "name": "lotId",
          "type": "uint96",
          "internalType": "uint96"
        }
      ],
      "outputs": [
        {
          "name": "curator",
          "type": "address",
          "internalType": "address"
        },
        {
          "name": "curated",
          "type": "bool",
          "internalType": "bool"
        }
      ],
      "stateMutability": "view"
    },
    {
      "type": "function",
      "name": "lotRouting",
      "inputs": [
        {
          "name": "lotId",
          "type": "uint96",
          "internalType": "uint96"
        }
      ],
      "outputs": [
        {
          "name": "auctionReference",
          "type": "bytes7",
          "internalType": "Veecode"
        },
        {
          "name": "owner",
          "type": "address",
          "internalType": "address"
        },
        {
          "name": "baseToken",
          "type": "address",
          "internalType": "contract ERC20"
        },
        {
          "name": "quoteToken",
          "type": "address",
          "internalType": "contract ERC20"
        },
        {
          "name": "hooks",
          "type": "address",
          "internalType": "contract IHooks"
        },
        {
          "name": "allowlist",
          "type": "address",
          "internalType": "contract IAllowlist"
        },
        {
          "name": "derivativeReference",
          "type": "bytes7",
          "internalType": "Veecode"
        },
        {
          "name": "derivativeParams",
          "type": "bytes",
          "internalType": "bytes"
        },
        {
          "name": "wrapDerivative",
          "type": "bool",
          "internalType": "bool"
        },
        {
          "name": "prefunding",
          "type": "uint256",
          "internalType": "uint256"
        }
      ],
      "stateMutability": "view"
    },
    {
      "type": "function",
      "name": "modules",
      "inputs": [
        {
          "name": "",
          "type": "uint256",
          "internalType": "uint256"
        }
      ],
      "outputs": [
        {
          "name": "",
          "type": "bytes5",
          "internalType": "Keycode"
        }
      ],
      "stateMutability": "view"
    },
    {
      "type": "function",
      "name": "modulesCount",
      "inputs": [],
      "outputs": [
        {
          "name": "",
          "type": "uint256",
          "internalType": "uint256"
        }
      ],
      "stateMutability": "view"
    },
    {
      "type": "function",
      "name": "owner",
      "inputs": [],
      "outputs": [
        {
          "name": "",
          "type": "address",
          "internalType": "address"
        }
      ],
      "stateMutability": "view"
    },
    {
      "type": "function",
      "name": "purchase",
      "inputs": [
        {
          "name": "params_",
          "type": "tuple",
          "internalType": "struct Router.PurchaseParams",
          "components": [
            {
              "name": "recipient",
              "type": "address",
              "internalType": "address"
            },
            {
              "name": "referrer",
              "type": "address",
              "internalType": "address"
            },
            {
              "name": "lotId",
              "type": "uint96",
              "internalType": "uint96"
            },
            {
              "name": "amount",
              "type": "uint256",
              "internalType": "uint256"
            },
            {
              "name": "minAmountOut",
              "type": "uint256",
              "internalType": "uint256"
            },
            {
              "name": "auctionData",
              "type": "bytes",
              "internalType": "bytes"
            },
            {
              "name": "allowlistProof",
              "type": "bytes",
              "internalType": "bytes"
            },
            {
              "name": "permit2Data",
              "type": "bytes",
              "internalType": "bytes"
            }
          ]
        }
      ],
      "outputs": [
        {
          "name": "payoutAmount",
          "type": "uint256",
          "internalType": "uint256"
        }
      ],
      "stateMutability": "nonpayable"
    },
    {
      "type": "function",
      "name": "refundBid",
      "inputs": [
        {
          "name": "lotId_",
          "type": "uint96",
          "internalType": "uint96"
        },
        {
          "name": "bidId_",
          "type": "uint96",
          "internalType": "uint96"
        }
      ],
      "outputs": [],
      "stateMutability": "nonpayable"
    },
    {
      "type": "function",
      "name": "rewards",
      "inputs": [
        {
          "name": "",
          "type": "address",
          "internalType": "address"
        },
        {
          "name": "",
          "type": "address",
          "internalType": "contract ERC20"
        }
      ],
      "outputs": [
        {
          "name": "",
          "type": "uint256",
          "internalType": "uint256"
        }
      ],
      "stateMutability": "view"
    },
    {
      "type": "function",
      "name": "setCondenser",
      "inputs": [
        {
          "name": "auctionRef_",
          "type": "bytes7",
          "internalType": "Veecode"
        },
        {
          "name": "derivativeRef_",
          "type": "bytes7",
          "internalType": "Veecode"
        },
        {
          "name": "condenserRef_",
          "type": "bytes7",
          "internalType": "Veecode"
        }
      ],
      "outputs": [],
      "stateMutability": "nonpayable"
    },
    {
      "type": "function",
      "name": "setCuratorFee",
      "inputs": [
        {
          "name": "auctionType_",
          "type": "bytes5",
          "internalType": "Keycode"
        },
        {
          "name": "fee_",
          "type": "uint48",
          "internalType": "uint48"
        }
      ],
      "outputs": [],
      "stateMutability": "nonpayable"
    },
    {
      "type": "function",
      "name": "setFee",
      "inputs": [
        {
          "name": "auctionType_",
          "type": "bytes5",
          "internalType": "Keycode"
        },
        {
          "name": "type_",
          "type": "uint8",
          "internalType": "enum FeeManager.FeeType"
        },
        {
          "name": "fee_",
          "type": "uint48",
          "internalType": "uint48"
        }
      ],
      "outputs": [],
      "stateMutability": "nonpayable"
    },
    {
      "type": "function",
      "name": "setProtocol",
      "inputs": [
        {
          "name": "protocol_",
          "type": "address",
          "internalType": "address"
        }
      ],
      "outputs": [],
      "stateMutability": "nonpayable"
    },
    {
      "type": "function",
      "name": "settle",
      "inputs": [
        {
          "name": "lotId_",
          "type": "uint96",
          "internalType": "uint96"
        }
      ],
      "outputs": [],
      "stateMutability": "nonpayable"
    },
    {
      "type": "function",
      "name": "sunsetModule",
      "inputs": [
        {
          "name": "keycode_",
          "type": "bytes5",
          "internalType": "Keycode"
        }
      ],
      "outputs": [],
      "stateMutability": "nonpayable"
    },
    {
      "type": "function",
      "name": "transferOwnership",
      "inputs": [
        {
          "name": "newOwner",
          "type": "address",
          "internalType": "address"
        }
      ],
      "outputs": [],
      "stateMutability": "nonpayable"
    },
    {
      "type": "event",
      "name": "AuctionCancelled",
      "inputs": [
        {
          "name": "lotId",
          "type": "uint96",
          "indexed": true,
          "internalType": "uint96"
        },
        {
          "name": "auctionRef",
          "type": "bytes7",
          "indexed": true,
          "internalType": "Veecode"
        }
      ],
      "anonymous": false
    },
    {
      "type": "event",
      "name": "AuctionCreated",
      "inputs": [
        {
          "name": "lotId",
          "type": "uint96",
          "indexed": true,
          "internalType": "uint96"
        },
        {
          "name": "auctionRef",
          "type": "bytes7",
          "indexed": true,
          "internalType": "Veecode"
        },
        {
          "name": "baseToken",
          "type": "address",
          "indexed": false,
          "internalType": "address"
        },
        {
          "name": "quoteToken",
          "type": "address",
          "indexed": false,
          "internalType": "address"
        }
      ],
      "anonymous": false
    },
    {
      "type": "event",
      "name": "Bid",
      "inputs": [
        {
          "name": "lotId",
          "type": "uint96",
          "indexed": true,
          "internalType": "uint96"
        },
        {
          "name": "bidId",
          "type": "uint96",
          "indexed": true,
          "internalType": "uint96"
        },
        {
          "name": "bidder",
          "type": "address",
          "indexed": true,
          "internalType": "address"
        },
        {
          "name": "amount",
          "type": "uint256",
          "indexed": false,
          "internalType": "uint256"
        }
      ],
      "anonymous": false
    },
    {
      "type": "event",
      "name": "Curated",
      "inputs": [
        {
          "name": "lotId",
          "type": "uint96",
          "indexed": true,
          "internalType": "uint96"
        },
        {
          "name": "curator",
          "type": "address",
          "indexed": true,
          "internalType": "address"
        }
      ],
      "anonymous": false
    },
    {
      "type": "event",
      "name": "ModuleInstalled",
      "inputs": [
        {
          "name": "keycode",
          "type": "bytes5",
          "indexed": true,
          "internalType": "Keycode"
        },
        {
          "name": "version",
          "type": "uint8",
          "indexed": true,
          "internalType": "uint8"
        },
        {
          "name": "location",
          "type": "address",
          "indexed": true,
          "internalType": "address"
        }
      ],
      "anonymous": false
    },
    {
      "type": "event",
      "name": "ModuleSunset",
      "inputs": [
        {
          "name": "keycode",
          "type": "bytes5",
          "indexed": true,
          "internalType": "Keycode"
        }
      ],
      "anonymous": false
    },
    {
      "type": "event",
      "name": "OwnershipTransferred",
      "inputs": [
        {
          "name": "user",
          "type": "address",
          "indexed": true,
          "internalType": "address"
        },
        {
          "name": "newOwner",
          "type": "address",
          "indexed": true,
          "internalType": "address"
        }
      ],
      "anonymous": false
    },
    {
      "type": "event",
      "name": "Purchase",
      "inputs": [
        {
          "name": "lotId",
          "type": "uint96",
          "indexed": true,
          "internalType": "uint96"
        },
        {
          "name": "buyer",
          "type": "address",
          "indexed": true,
          "internalType": "address"
        },
        {
          "name": "referrer",
          "type": "address",
          "indexed": false,
          "internalType": "address"
        },
        {
          "name": "amount",
          "type": "uint256",
          "indexed": false,
          "internalType": "uint256"
        },
        {
          "name": "payout",
          "type": "uint256",
          "indexed": false,
          "internalType": "uint256"
        }
      ],
      "anonymous": false
    },
    {
      "type": "event",
      "name": "RefundBid",
      "inputs": [
        {
          "name": "lotId",
          "type": "uint96",
          "indexed": true,
          "internalType": "uint96"
        },
        {
          "name": "bidId",
          "type": "uint96",
          "indexed": true,
          "internalType": "uint96"
        },
        {
          "name": "bidder",
          "type": "address",
          "indexed": true,
          "internalType": "address"
        }
      ],
      "anonymous": false
    },
    {
      "type": "event",
      "name": "Settle",
      "inputs": [
        {
          "name": "lotId",
          "type": "uint96",
          "indexed": true,
          "internalType": "uint96"
        }
      ],
      "anonymous": false
    },
    {
      "type": "error",
      "name": "AmountLessThanMinimum",
      "inputs": []
    },
    {
      "type": "error",
      "name": "Broken_Invariant",
      "inputs": []
    },
    {
      "type": "error",
      "name": "InvalidBidder",
      "inputs": [
        {
          "name": "bidder_",
          "type": "address",
          "internalType": "address"
        }
      ]
    },
    {
      "type": "error",
      "name": "InvalidFee",
      "inputs": []
    },
    {
      "type": "error",
      "name": "InvalidHook",
      "inputs": []
    },
    {
      "type": "error",
      "name": "InvalidLotId",
      "inputs": [
        {
          "name": "id_",
          "type": "uint96",
          "internalType": "uint96"
        }
      ]
    },
    {
      "type": "error",
      "name": "InvalidModuleInstall",
      "inputs": [
        {
          "name": "keycode_",
          "type": "bytes5",
          "internalType": "Keycode"
        },
        {
          "name": "version_",
          "type": "uint8",
          "internalType": "uint8"
        }
      ]
    },
    {
      "type": "error",
      "name": "InvalidParams",
      "inputs": []
    },
    {
      "type": "error",
      "name": "InvalidState",
      "inputs": []
    },
    {
      "type": "error",
      "name": "InvalidVeecode",
      "inputs": [
        {
          "name": "veecode_",
          "type": "bytes7",
          "internalType": "Veecode"
        }
      ]
    },
    {
      "type": "error",
      "name": "ModuleAlreadySunset",
      "inputs": [
        {
          "name": "keycode_",
          "type": "bytes5",
          "internalType": "Keycode"
        }
      ]
    },
    {
      "type": "error",
      "name": "ModuleExecutionReverted",
      "inputs": [
        {
          "name": "error_",
          "type": "bytes",
          "internalType": "bytes"
        }
      ]
    },
    {
      "type": "error",
      "name": "ModuleFunctionInvalid",
      "inputs": [
        {
          "name": "function_",
          "type": "bytes4",
          "internalType": "bytes4"
        }
      ]
    },
    {
      "type": "error",
      "name": "ModuleIsSunset",
      "inputs": [
        {
          "name": "keycode_",
          "type": "bytes5",
          "internalType": "Keycode"
        }
      ]
    },
    {
      "type": "error",
      "name": "ModuleNotInstalled",
      "inputs": [
        {
          "name": "keycode_",
          "type": "bytes5",
          "internalType": "Keycode"
        },
        {
          "name": "version_",
          "type": "uint8",
          "internalType": "uint8"
        }
      ]
    },
    {
      "type": "error",
      "name": "NotPermitted",
      "inputs": [
        {
          "name": "caller_",
          "type": "address",
          "internalType": "address"
        }
      ]
    },
    {
      "type": "error",
      "name": "TargetNotAContract",
      "inputs": [
        {
          "name": "target_",
          "type": "address",
          "internalType": "address"
        }
      ]
    }
  ],
  "bytecode": {
    "object": "0x60a060405260016006553480156200001657600080fd5b5060405162005dfc38038062005dfc8339810160408190526200003991620000cf565b600080546001600160a01b0319166001600160a01b03851690811782556040518492869283929091907f8be0079c531659141344cd1fd0a4f28419497f9722a3daafe3b4186f6b6457e0908290a35050600b80546001600160a01b0319166001600160a01b039283161790551660805250620001199050565b80516001600160a01b0381168114620000ca57600080fd5b919050565b600080600060608486031215620000e557600080fd5b620000f084620000b2565b92506200010060208501620000b2565b91506200011060408501620000b2565b90509250925092565b608051615cc7620001356000396000613d630152615cc76000f3fe608060405234801561001057600080fd5b50600436106101da5760003560e01c8063a249a50911610104578063d8d95701116100a2578063f2fde38b11610071578063f2fde38b14610562578063f315aafe14610575578063f4b261811461057e578063fb9d3cb6146105b957600080fd5b8063d8d95701146104fe578063e70b9e2714610511578063ef5cfb8c1461053c578063f08240691461054f57600080fd5b8063c1cf8c7f116100de578063c1cf8c7f146104a4578063c4ce88fd146104c5578063c74c149b146104d8578063c75519ba146104eb57600080fd5b8063a249a5091461042a578063a50076f71461047e578063a782e5241461049157600080fd5b80635c774ed71161017c5780638da5cb5b1161014b5780638da5cb5b1461039a5780638eae8235146103c55780639e2e003a146103d85780639e55cba31461040157600080fd5b80635c774ed71461032b5780637249c0d5146103485780637eb1e7611461035b57806381b2248a1461036e57600080fd5b80634bcbd88b116101b85780634bcbd88b1461027357806350ab04891461029b578063528c410d146102bb5780635bb27aab146102e657600080fd5b80630a9d793d146101df57806320b15fe4146101f457806331d72d6b14610207575b600080fd5b6101f26101ed3660046149e4565b6105cc565b005b6101f2610202366004614a1e565b610621565b610245610215366004614a81565b600c6020526000908152604090205465ffffffffffff80821691600160301b8104821691600160601b9091041683565b6040805165ffffffffffff948516815292841660208401529216918101919091526060015b60405180910390f35b610286610281366004614aaa565b61084c565b6040805192835260208301919091520161026a565b6102ae6102a9366004614ae9565b610922565b60405161026a9190614bbd565b6102ce6102c9366004614d20565b610a01565b6040516001600160601b03909116815260200161026a565b6103126102f4366004614a81565b60046020526000908152604090205460ff8082169161010090041682565b6040805160ff909316835290151560208301520161026a565b6005546103389060ff1681565b604051901515815260200161026a565b6101f2610356366004614e25565b610d5c565b6101f26103693660046149e4565b610def565b61038161037c366004614e5c565b61106c565b6040516001600160d81b0319909116815260200161026a565b6000546103ad906001600160a01b031681565b6040516001600160a01b03909116815260200161026a565b6101f26103d3366004614e75565b6110a3565b6103eb6103e6366004614e75565b611291565b60405161026a9a99989796959493929190614e92565b6103ad61040f366004614f0b565b6003602052600090815260409020546001600160a01b031681565b61045f610438366004614e75565b6009602052600090815260409020546001600160a01b03811690600160a01b900460ff1682565b604080516001600160a01b03909316835290151560208301520161026a565b6103ad61048c366004614e75565b61138c565b6101f261049f366004614e75565b6113c2565b6104b76104b2366004614f28565b6116f5565b60405190815260200161026a565b6007546102ce906001600160601b031681565b6101f26104e6366004615024565b611dae565b6101f26104f9366004614a81565b611f04565b6101f261050c366004615066565b612000565b6104b761051f366004615094565b600d60209081526000928352604080842090915290825290205481565b6101f261054a3660046149e4565b612194565b6102ce61055d3660046150c2565b61225d565b6101f26105703660046149e4565b612eda565b6104b760025481565b6105ac61058c36600461512a565b600a60209081526000928352604080842090915290825290205460c81b81565b60405161026a9190615158565b6101f26105c7366004614e75565b612f4f565b6000546001600160a01b031633146105ff5760405162461bcd60e51b81526004016105f69061516d565b60405180910390fd5b600b80546001600160a01b0319166001600160a01b0392909216919091179055565b6000546001600160a01b0316331461064b5760405162461bcd60e51b81526004016105f69061516d565b600061065684613b43565b6001600160a01b031663bb24fe8a6040518163ffffffff1660e01b8152600401602060405180830381865afa158015610693573d6000803e3d6000fd5b505050506040513d601f19601f820116820180604052508101906106b791906151a9565b60038111156106c8576106c8615193565b141580610750575060016106db83613b43565b6001600160a01b031663bb24fe8a6040518163ffffffff1660e01b8152600401602060405180830381865afa158015610718573d6000803e3d6000fd5b505050506040513d601f19601f8201168201806040525081019061073c91906151a9565b600381111561074d5761074d615193565b14155b806107ea57506001600160c81b03198116158015906107ea5750600261077582613b43565b6001600160a01b031663bb24fe8a6040518163ffffffff1660e01b8152600401602060405180830381865afa1580156107b2573d6000803e3d6000fd5b505050506040513d601f19601f820116820180604052508101906107d691906151a9565b60038111156107e7576107e7615193565b14155b1561080857604051635435b28960e11b815260040160405180910390fd5b6001600160c81b03199283166000908152600a6020908152604080832094909516825292909252919020805466ffffffffffffff191660c89290921c919091179055565b6001600160d81b031983166000908152600c6020526040812054819065ffffffffffff1684156108f6576001600160d81b031986166000908152600c6020526040902054600160301b900465ffffffffffff16620186a06108ad82876151e0565b6108b7919061520d565b935083620186a06108c88385615221565b6108da9065ffffffffffff16886151e0565b6108e4919061520d565b6108ee9190615247565b925050610919565b620186a061090c65ffffffffffff8316866151e0565b610916919061520d565b91505b50935093915050565b6000546060906001600160a01b0316331461094f5760405162461bcd60e51b81526004016105f69061516d565b6005805460ff19166001179055600061096785613b43565b9050600080826001600160a01b0316868660405161098692919061525a565b6000604051808303816000865af19150503d80600081146109c3576040519150601f19603f3d011682016040523d82523d6000602084013e6109c8565b606091505b5091509150816109ed5780604051635d94b9cd60e01b81526004016105f69190614bbd565b6005805460ff191690559695505050505050565b6000600654600114610a255760405162461bcd60e51b81526004016105f69061526a565b60026006558151610a3590613b98565b81516001600160601b0316600090815260086020908152604080832081516101408101835281546001600160c81b031960c882811b821684526001600160a01b03600160381b9093048316968401969096526001840154821694830194909452600283015481166060830152600383015481166080830152600483015490811660a0830152600160a01b900490931b90911660c083015260058101805460e084019190610ae19061528e565b80601f0160208091040260200160405190810160405280929190818152602001828054610b0d9061528e565b8015610b5a5780601f10610b2f57610100808354040283529160200191610b5a565b820191906000526020600020905b815481529060010190602001808311610b3d57829003601f168201915b5050509183525050600682015460ff161515602082015260079091015460409091015260a080820151855191860151929350610b9a929091903390613c26565b610bb957604051632aaf132360e11b81523360048201526024016105f6565b6000610bc8846000015161138c565b6001600160a01b03166356ab110b8560000151338760200151886040015189606001518a608001516040518763ffffffff1660e01b8152600401610c11969594939291906152c8565b6020604051808303816000875af1158015610c30573d6000803e3d6000fd5b505050506040513d601f19601f82011682018060405250810190610c54919061531e565b845160608087015190850151608086015160c0890151604051635c2fc75360e01b8152959650610cf19573__$edb40677ae687b89a8312a1af66086cd07$__91635c2fc75391610ca79190600401614bbd565b600060405180830381865af4158015610cc4573d6000803e3d6000fd5b505050506040513d6000823e601f3d908101601f19168201604052610cec9190810190615380565b613cba565b336001600160a01b0316816001600160601b031685600001516001600160601b03167fa2e7ed6065b3a19c5ea6dce1c2f7a8933195d54aa91cee19103be6655cc3bcf88760600151604051610d4891815260200190565b60405180910390a460016006559392505050565b6001600160d81b031982166000908152600c602052604090205465ffffffffffff600160601b90910481169082161115610da9576040516358d620b360e01b815260040160405180910390fd5b6001600160d81b0319919091166000908152600c602090815260408083203384526001019091529020805465ffffffffffff191665ffffffffffff909216919091179055565b6000546001600160a01b03163314610e195760405162461bcd60e51b81526004016105f69061516d565b610e2281613dcd565b6000816001600160a01b031663d61735ca6040518163ffffffff1660e01b8152600401602060405180830381865afa158015610e62573d6000803e3d6000fd5b505050506040513d601f19601f82011682018060405250810190610e86919061541f565b9050610e9181613e03565b600080610e9d83613f69565b6001600160d81b031982166000908152600460205260409020805492945090925090610ecd9060ff16600161543c565b60ff168260ff1614610ef6578282604051635820a91160e01b81526004016105f6929190615455565b805460ff191660ff8381169190911780835561010090041615610f1d57805461ff00191681555b6001600160c81b03198416600090815260036020526040902080546001600160a01b0319166001600160a01b03871617905560ff821660001901610fcd5760018054808201825560009182527fb10e2d527612073b26eecdfd717e6a320cf44b4afac2b0732d9fcbe2b7fa0cf6600680830491909101805464ffffffffff929093066005026101000a9182021990921660d887901c919091021790556002805491610fc783615472565b91905055505b846001600160a01b031663ea6439146040518163ffffffff1660e01b8152600401600060405180830381600087803b15801561100857600080fd5b505af115801561101c573d6000803e3d6000fd5b50506040516001600160a01b038816925060ff851691506001600160d81b03198616907f9d59a7f92873a37532afecac87d9ae2e0571c04f7cfe13ace6f38209dd1acd1c90600090a45050505050565b6001818154811061107c57600080fd5b9060005260206000209060069182820401919006600502915054906101000a900460d81b81565b6006546001146110c55760405162461bcd60e51b81526004016105f69061526a565b60026006556110d381613b98565b6001600160601b03811660009081526008602052604090208054600160381b90046001600160a01b0316331461111e576040516319b1d90760e31b81523360048201526024016105f6565b6111278261138c565b60405163b04046df60e01b81526001600160601b03841660048201526001600160a01b03919091169063b04046df90602401600060405180830381600087803b15801561117357600080fd5b505af1158015611187573d6000803e3d6000fd5b50505050600781015415611241576007808201546001600160601b03841660009081526008602052604080822090930181905560018401548454935163636c380360e01b8152929373__$edb40677ae687b89a8312a1af66086cd07$__9363636c38039361120f936001600160a01b0390811693600160381b9004169187919060040161548b565b60006040518083038186803b15801561122757600080fd5b505af415801561123b573d6000803e3d6000fd5b50505050505b805460405160c89190911b6001600160c81b031916906001600160601b038416907f2c784826e62ed5cac07a5ebe66734ece0cdc7ee0559b21b59d1434a64e07ec8290600090a350506001600655565b60086020526000908152604090208054600182015460028301546003840154600485015460058601805460c887811b986001600160a01b03600160381b909904891698978816979687169695861695851694600160a01b900490911b9290916112f99061528e565b80601f01602080910402602001604051908101604052809291908181526020018280546113259061528e565b80156113725780601f1061134757610100808354040283529160200191611372565b820191906000526020600020905b81548152906001019060200180831161135557829003601f168201915b505050506006830154600790930154919260ff169190508a565b600061139782613b98565b6001600160601b0382166000908152600860205260409020546113bc9060c81b613b43565b92915050565b6006546001146113e45760405162461bcd60e51b81526004016105f69061526a565b60026006556113f281613b98565b6001600160601b0381166000908152600860209081526040808320600990925282208154919290916114269060c81b61404c565b82549091506001600160a01b03163314611455576040516319b1d90760e31b81523360048201526024016105f6565b8154600160a01b900460ff161561147f5760405163baf3f0f760e01b815260040160405180910390fd5b600061148a8561138c565b604051630385592160e01b81526001600160601b03871660048201529091506001600160a01b03821690630385592190602401602060405180830381865afa1580156114da573d6000803e3d6000fd5b505050506040513d601f19601f820116820180604052508101906114fe91906154b4565b15156001036115205760405163baf3f0f760e01b815260040160405180910390fd5b6001600160d81b031982166000908152600c6020908152604080832033845260010190915281205465ffffffffffff16900361156f576040516358d620b360e01b815260040160405180910390fd5b825460ff60a01b1916600160a01b1783556007840154156116b35760405163ace54da560e01b81526001600160601b038616600482015260009061160b90849033906001600160a01b0386169063ace54da590602401602060405180830381865afa1580156115e2573d6000803e3d6000fd5b505050506040513d601f19601f8201168201806040525081019061160691906154d1565b614060565b90508085600701600082825461162191906154ea565b90915550506001850154855460405163bc0dbc9960e01b815273__$edb40677ae687b89a8312a1af66086cd07$__9263bc0dbc9992611681926001600160a01b0392831692600160381b90920490911690309087906000906004016154fd565b60006040518083038186803b15801561169957600080fd5b505af41580156116ad573d6000803e3d6000fd5b50505050505b60405133906001600160601b038716907f0cbe7341c5c56a21e107668323c3c414bcd506f3615ea1115f86dd4df173691490600090a350506001600655505050565b60006006546001146117195760405162461bcd60e51b81526004016105f69061526a565b6002600655604082015161172c90613b98565b604080830180516001600160601b031660009081526008602052919091206004810154915160c08501519192611770926001600160a01b0390911691903390613c26565b61178f57604051632aaf132360e11b81523360048201526024016105f6565b80546000906117d1906117a49060c81b61404c565b6020860151845460028601546060890151600160381b9092046001600160a01b03908116929116906140b2565b84606001516117e09190615247565b905060606117f1856040015161138c565b6001600160a01b03166376103c8f8660400151848860a001516040518463ffffffff1660e01b815260040161182893929190615531565b6000604051808303816000875af1158015611847573d6000803e3d6000fd5b505050506040513d6000823e601f3d908101601f1916820160405261186f9190810190615559565b608087015191955091508410156118995760405163758342a760e01b815260040160405180910390fd5b60408581015160608701516002860154600387015460e08a01519451635c2fc75360e01b81526118fb956001600160a01b03938416939092169173__$edb40677ae687b89a8312a1af66086cd07$__91635c2fc75391610ca791600401614bbd565b82546002840154600385015461192a926001600160a01b03600160381b90910481169286929082169116614190565b6040858101516001600160601b0316600090815260096020529081208054909190600160a01b900460ff161561198057845461197d9061196c9060c81b61404c565b83546001600160a01b031688614060565b90505b6040870151611ac79085611994848a6154ea565b60408051610140810182528a546001600160c81b031960c882811b821684526001600160a01b03600160381b9093048316602085015260018e015483169484019490945260028d01548216606084015260038d01548216608084015260048d015491821660a0840152600160a01b90910490921b90911660c082015260058a0180548b9160e0840191611a269061528e565b80601f0160208091040260200160405190810160405280929190818152602001828054611a529061528e565b8015611a9f5780601f10611a7457610100808354040283529160200191611a9f565b820191906000526020600020905b815481529060010190602001808311611a8257829003601f168201915b5050509183525050600682015460ff161515602082015260079091015460409091015261421a565b600785015415611b02578585600701541015611af657604051633a196e0960e21b815260040160405180910390fd5b60078501805487900390555b604080880151885182516101408101845288546001600160c81b031960c882811b821684526001600160a01b03600160381b9093048316602085015260018c015483169684019690965260028b01548216606084015260038b01548216608084015260048b015491821660a0840152600160a01b90910490941b90931660c0840152600588018054611c44948b9290918b9160e0840191611ba29061528e565b80601f0160208091040260200160405190810160405280929190818152602001828054611bce9061528e565b8015611c1b5780601f10611bf057610100808354040283529160200191611c1b565b820191906000526020600020905b815481529060010190602001808311611bfe57829003601f168201915b5050509183525050600682015460ff161515602082015260079091015460409091015287614405565b8015611d2757600785015415611c85578085600701541015611c7957604051633a196e0960e21b815260040160405180910390fd5b60078501805482900390555b604080880151835482516101408101845288546001600160c81b031960c882811b82168452600160381b9092046001600160a01b03908116602085015260018c015481169684019690965260028b01548616606084015260038b01548616608084015260048b015480871660a0850152600160a01b900490911b1660c0820152600589018054611d2795909316928692918b9160e084019190611ba29061528e565b336001600160a01b031687604001516001600160601b03167f5c53cd94df0c7e2bcd10a80f475d04aef0e489425aff9687e49f92454b40401489602001518a606001518a604051611d96939291906001600160a01b039390931683526020830191909152604082015260600190565b60405180910390a35050600160065550919392505050565b6000546001600160a01b03163314611dd85760405162461bcd60e51b81526004016105f69061516d565b620186a065ffffffffffff82161115611e04576040516358d620b360e01b815260040160405180910390fd5b6000826002811115611e1857611e18615193565b03611e52576001600160d81b031983166000908152600c60205260409020805465ffffffffffff191665ffffffffffff8316179055505050565b6001826002811115611e6657611e66615193565b03611eac576001600160d81b031983166000908152600c6020526040902080546bffffffffffff0000000000001916600160301b65ffffffffffff841602179055505050565b6002826002811115611ec057611ec0615193565b03611eff576001600160d81b031983166000908152600c60205260409020805465ffffffffffff60601b1916600160601b65ffffffffffff8416021790555b505050565b6000546001600160a01b03163314611f2e5760405162461bcd60e51b81526004016105f69061516d565b6001600160d81b0319811660009081526004602052604090205460ff16611f6d5780600060405163def1560160e01b81526004016105f6929190615455565b6001600160d81b0319811660009081526004602052604090208054610100900460ff1615611fba5760405163271614df60e21b81526001600160d81b0319831660048201526024016105f6565b805461ff0019166101001781556040516001600160d81b03198316907fa967d5160f4efeca6ce587658357cfe54cbe547c6945ddf21a06ac712216942a90600090a25050565b6006546001146120225760405162461bcd60e51b81526004016105f69061526a565b600260065561203082613b98565b600061203b8361138c565b60405163177ee7e360e11b81526001600160601b038086166004830152841660248201523360448201526001600160a01b039190911690632efdcfc6906064016020604051808303816000875af115801561209a573d6000803e3d6000fd5b505050506040513d601f19601f820116820180604052508101906120be91906154d1565b6001600160601b03841660009081526008602052604080822060020154905163636c380360e01b815292935073__$edb40677ae687b89a8312a1af66086cd07$__9263636c380392612120926001600160a01b0316913391879160040161548b565b60006040518083038186803b15801561213857600080fd5b505af415801561214c573d6000803e3d6000fd5b50506040513392506001600160601b0380861692508616907fc5e25a727c1d2fa8b8cf2bd4f7a3ba0b6740aaee33d84a3132d47301844f361890600090a45050600160065550565b6006546001146121b65760405162461bcd60e51b81526004016105f69061526a565b6002600655336000818152600d602090815260408083206001600160a01b0386168452909152808220805490839055905163636c380360e01b81528493919273__$edb40677ae687b89a8312a1af66086cd07$__9263636c3803926122239287929187919060040161548b565b60006040518083038186803b15801561223b57600080fd5b505af415801561224f573d6000803e3d6000fd5b505060016006555050505050565b60006006546001146122815760405162461bcd60e51b81526004016105f69061526a565b6002600655600061229d6122986020860186614a81565b6146e8565b90506000816001600160a01b031663d61735ca6040518163ffffffff1660e01b8152600401602060405180830381865afa1580156122df573d6000803e3d6000fd5b505050506040513d601f19601f82011682018060405250810190612303919061541f565b90506000826001600160a01b031663bb24fe8a6040518163ffffffff1660e01b8152600401602060405180830381865afa158015612345573d6000803e3d6000fd5b505050506040513d601f19601f8201168201806040525081019061236991906151a9565b600381111561237a5761237a615193565b1461239857604051635435b28960e11b815260040160405180910390fd5b60006123aa60408701602088016149e4565b6001600160a01b031614806123d7575060006123cc60608701604088016149e4565b6001600160a01b0316145b156123f557604051635435b28960e11b815260040160405180910390fd5b600061240760408701602088016149e4565b6001600160a01b031663313ce5676040518163ffffffff1660e01b8152600401602060405180830381865afa158015612444573d6000803e3d6000fd5b505050506040513d601f19601f82011682018060405250810190612468919061559f565b9050600061247c60608801604089016149e4565b6001600160a01b031663313ce5676040518163ffffffff1660e01b8152600401602060405180830381865afa1580156124b9573d6000803e3d6000fd5b505050506040513d601f19601f820116820180604052508101906124dd919061559f565b905060068260ff1610806124f4575060128260ff16115b80612502575060068160ff16105b80612510575060128160ff16115b1561252e57604051635435b28960e11b815260040160405180910390fd5b600780546001600160601b0316906000612547836155c2565b91906101000a8154816001600160601b0302191690836001600160601b031602179055509450600080856001600160a01b031663bae96bdd888a86886040518563ffffffff1660e01b81526004016125a29493929190615611565b60408051808303816000875af11580156125c0573d6000803e3d6000fd5b505050506040513d601f19601f820116820180604052508101906125e491906156ef565b6001600160601b0389166000908152600860209081526040918290208054600160381b33026001600160d81b031990911660c88c901c1717815593955091935061263391908c01908c016149e4565b6001820180546001600160a01b0319166001600160a01b039290921691909117905561266560608b0160408c016149e4565b6002820180546001600160a01b0319166001600160a01b03929092169190911790556001600160601b03881660009081526009602052604090206126af60808c0160608d016149e4565b81546001600160a81b0319166001600160a01b039190911617905560006126e36126e06101008d0160e08e01614a81565b90565b6001600160d81b031916146128fa5760006127086122986101008d0160e08e01614a81565b90506000816001600160a01b031663d61735ca6040518163ffffffff1660e01b8152600401602060405180830381865afa15801561274a573d6000803e3d6000fd5b505050506040513d601f19601f8201168201806040525081019061276e919061541f565b90506001826001600160a01b031663bb24fe8a6040518163ffffffff1660e01b8152600401602060405180830381865afa1580156127b0573d6000803e3d6000fd5b505050506040513d601f19601f820116820180604052508101906127d491906151a9565b60038111156127e5576127e5615193565b1461280357604051635435b28960e11b815260040160405180910390fd5b816001600160a01b031663caf927858460010160009054906101000a90046001600160a01b03168e80610100019061283b919061571d565b6040518463ffffffff1660e01b81526004016128599392919061576a565b602060405180830381865afa158015612876573d6000803e3d6000fd5b505050506040513d601f19601f8201168201806040525081019061289a91906154b4565b6128b757604051635435b28960e11b815260040160405180910390fd5b60048301805466ffffffffffffff60a01b1916600160a01b60c884901c021790556128e66101008d018d61571d565b60058501916128f69190836157dd565b5050505b6001600160c81b03198681166000908152600a602090815260408083206004860154600160a01b900460c890811b86168552925290912054901b90811615612a3757600261294782613b43565b6001600160a01b031663bb24fe8a6040518163ffffffff1660e01b8152600401602060405180830381865afa158015612984573d6000803e3d6000fd5b505050506040513d601f19601f820116820180604052508101906129a891906151a9565b60038111156129b9576129b9615193565b146129d757604051635435b28960e11b815260040160405180910390fd5b60006129e28261404c565b6001600160d81b03198116600090815260046020526040902054909150610100900460ff161515600103612a355760405163ae05d58960e01b81526001600160d81b0319821660048201526024016105f6565b505b506000612a4a60c08c0160a08d016149e4565b6001600160a01b031614612b4257612a6860c08b0160a08c016149e4565b6001600160a01b03163b600003612a9257604051635435b28960e11b815260040160405180910390fd5b612aa260c08b0160a08c016149e4565b6001600160a01b03166344d799f389612abe60c08e018e61571d565b6040518463ffffffff1660e01b8152600401612adc9392919061589c565b600060405180830381600087803b158015612af657600080fd5b505af1158015612b0a573d6000803e3d6000fd5b50612b1f9250505060c08b0160a08c016149e4565b6004820180546001600160a01b0319166001600160a01b03929092169190911790555b6000612b5460a08c0160808d016149e4565b6001600160a01b031614612bcf57612b7260a08b0160808c016149e4565b6001600160a01b03163b600003612b9c57604051635435b28960e11b815260040160405180910390fd5b612bac60a08b0160808c016149e4565b6003820180546001600160a01b0319166001600160a01b03929092169190911790555b821515600103612e4b57612be960608a0160408b016158bf565b15612c0757604051635435b28960e11b815260040160405180910390fd5b600781018290556000612c2060a08c0160808d016149e4565b6001600160a01b031614612dcb576000612c4060408c0160208d016149e4565b6040516370a0823160e01b81523060048201526001600160a01b0391909116906370a0823190602401602060405180830381865afa158015612c86573d6000803e3d6000fd5b505050506040513d601f19601f82011682018060405250810190612caa91906154d1565b9050612cbc60a08c0160808d016149e4565b60405163e5e3f46560e01b81526001600160601b038b1660048201526001600160a01b03919091169063e5e3f46590602401600060405180830381600087803b158015612d0857600080fd5b505af1158015612d1c573d6000803e3d6000fd5b505050508281612d2c91906154ea565b612d3c60408d0160208e016149e4565b6040516370a0823160e01b81523060048201526001600160a01b0391909116906370a0823190602401602060405180830381865afa158015612d82573d6000803e3d6000fd5b505050506040513d601f19601f82011682018060405250810190612da691906154d1565b1015612dc557604051639c9d882360e01b815260040160405180910390fd5b50612e4b565b73__$edb40677ae687b89a8312a1af66086cd07$__63bc0dbc99612df560408d0160208e016149e4565b33308660016040518663ffffffff1660e01b8152600401612e1a9594939291906154fd565b60006040518083038186803b158015612e3257600080fd5b505af4158015612e46573d6000803e3d6000fd5b505050505b6001600160c81b031986166001600160601b0389167f84b880d9e409391876717d471eb2c3cc52c3b2272ce9171f3a1340f2eba7b979612e9160408e0160208f016149e4565b8d6040016020810190612ea491906149e4565b604080516001600160a01b0393841681529290911660208301520160405180910390a35050600160065550939695505050505050565b6000546001600160a01b03163314612f045760405162461bcd60e51b81526004016105f69061516d565b600080546001600160a01b0319166001600160a01b0383169081178255604051909133917f8be0079c531659141344cd1fd0a4f28419497f9722a3daafe3b4186f6b6457e09190a350565b600654600114612f715760405162461bcd60e51b81526004016105f69061526a565b6002600655612f7f81613b98565b6000612f8a8261138c565b60405163ace54da560e01b81526001600160601b03841660048201529091506000906001600160a01b0383169063ace54da590602401602060405180830381865afa158015612fdd573d6000803e3d6000fd5b505050506040513d601f19601f8201168201806040525081019061300191906154d1565b604051637dce9e5b60e11b81526001600160601b038516600482015290915060009081906001600160a01b0385169063fb9d3cb6906024016000604051808303816000875af1158015613058573d6000803e3d6000fd5b505050506040513d6000823e601f3d908101601f1916820160405261308091908101906158dc565b6001600160601b0387166000908152600860205260408120835193955091935090918190869081835b828110156132545760008982815181106130c5576130c5615a41565b60200260200101516080015190506001846130e09190615247565b821480156130ed57508281115b1561321d57828a838151811061310557613105615a41565b60209081029190910101516080015260008161312985670de0b6b3a76400006151e0565b613133919061520d565b61314590670de0b6b3a7640000615247565b90506000670de0b6b3a7640000828d868151811061316557613165615a41565b60200260200101516060015161317b91906151e0565b613185919061520d565b90508098508b848151811061319c5761319c615a41565b60200260200101516000015197508b84815181106131bc576131bc615a41565b6020026020010151606001518111156131e857604051633a196e0960e21b815260040160405180910390fd5b808c85815181106131fb576131fb615a41565b6020026020010151606001818151039150818152505060009450505050613254565b8281111561323e57604051633a196e0960e21b815260040160405180910390fd5b909103908061324c81615472565b9150506130a9565b508015613268576132658184615247565b92505b505083546000906132a19061327f9060c81b61404c565b865460028801548a916001600160a01b03600160381b909104811691166147b1565b6001600160601b038d166000908152600960205260408120805492955093509150600160a01b900460ff16156132f75786546132f4906132e39060c81b61404c565b83546001600160a01b031686614060565b90505b6134648c8461330684886154ea565b8a604051806101400160405290816000820160009054906101000a900460c81b6001600160c81b0319166001600160c81b03191681526020016000820160079054906101000a90046001600160a01b03166001600160a01b03166001600160a01b031681526020016001820160009054906101000a90046001600160a01b03166001600160a01b03166001600160a01b031681526020016002820160009054906101000a90046001600160a01b03166001600160a01b03166001600160a01b031681526020016003820160009054906101000a90046001600160a01b03166001600160a01b03166001600160a01b031681526020016004820160009054906101000a90046001600160a01b03166001600160a01b03166001600160a01b031681526020016004820160149054906101000a900460c81b6001600160c81b0319166001600160c81b0319168152602001600582018054611a269061528e565b80156136c2576007870154156134a557808760070154101561349957604051633a196e0960e21b815260040160405180910390fd5b60078701805482900390555b6136c28c8360000160009054906101000a90046001600160a01b0316838a604051806101400160405290816000820160009054906101000a900460c81b6001600160c81b0319166001600160c81b03191681526020016000820160079054906101000a90046001600160a01b03166001600160a01b03166001600160a01b031681526020016001820160009054906101000a90046001600160a01b03166001600160a01b03166001600160a01b031681526020016002820160009054906101000a90046001600160a01b03166001600160a01b03166001600160a01b031681526020016003820160009054906101000a90046001600160a01b03166001600160a01b03166001600160a01b031681526020016004820160009054906101000a90046001600160a01b03166001600160a01b03166001600160a01b031681526020016004820160149054906101000a900460c81b6001600160c81b0319166001600160c81b03191681526020016005820180546136209061528e565b80601f016020809104026020016040519081016040528092919081815260200182805461364c9061528e565b80156136995780601f1061366e57610100808354040283529160200191613699565b820191906000526020600020905b81548152906001019060200180831161367c57829003601f168201915b5050509183525050600682015460ff16151560208201526007909101546040909101528c614405565b505060078501548751899060005b818110156139875760008b82815181106136ec576136ec615a41565b602002602001015160800151905061391d8f8d848151811061371057613710615a41565b602002602001015160200151838d604051806101400160405290816000820160009054906101000a900460c81b6001600160c81b0319166001600160c81b03191681526020016000820160079054906101000a90046001600160a01b03166001600160a01b03166001600160a01b031681526020016001820160009054906101000a90046001600160a01b03166001600160a01b03166001600160a01b031681526020016002820160009054906101000a90046001600160a01b03166001600160a01b03166001600160a01b031681526020016003820160009054906101000a90046001600160a01b03166001600160a01b03166001600160a01b031681526020016004820160009054906101000a90046001600160a01b03166001600160a01b03166001600160a01b031681526020016004820160149054906101000a900460c81b6001600160c81b0319166001600160c81b031916815260200160058201805461387b9061528e565b80601f01602080910402602001604051908101604052809291908181526020018280546138a79061528e565b80156138f45780601f106138c9576101008083540402835291602001916138f4565b820191906000526020600020905b8154815290600101906020018083116138d757829003601f168201915b5050509183525050600682015460ff16151560208201526007909101546040909101528f614405565b8084101561393e57604051633a196e0960e21b815260040160405180910390fd5b60078a0154938190039315613974578085101561396e57604051633a196e0960e21b815260040160405180910390fd5b80850394505b508061397f81615472565b9150506136d0565b508215613a22576000600789018190556001890154895460405163636c380360e01b815273__$edb40677ae687b89a8312a1af66086cd07$__9363636c3803936139ed936001600160a01b0391821693600160381b90910490911691899160040161548b565b60006040518083038186803b158015613a0557600080fd5b505af4158015613a19573d6000803e3d6000fd5b50505050613a34565b600788015415613a3457600060078901555b5050855460028701546003880154613a6593506001600160a01b03600160381b909304831692859281169116614190565b600084118015613a7d57506001600160a01b03831615155b15613afe57600285015460405163636c380360e01b815273__$edb40677ae687b89a8312a1af66086cd07$__9163636c380391613acd916001600160a01b0316908790899060009060040161548b565b60006040518083038186803b158015613ae557600080fd5b505af4158015613af9573d6000803e3d6000fd5b505050505b6040516001600160601b038b16907f5d4a6ac2287eaf5f22deb24e842c4668fd11d8f478a18cf2a37faa0bcebd31c690600090a2505060016006555050505050505050565b6001600160c81b031981166000908152600360205260408120546001600160a01b0316806113bc57600080613b7785613f69565b91509150818160405163def1560160e01b81526004016105f6929190615455565b6007546001600160601b0390811690821610613bd257604051630d55bc2360e41b81526001600160601b03821660048201526024016105f6565b6001600160601b038116600090815260086020526040902054600160381b90046001600160a01b0316613c2357604051630d55bc2360e41b81526001600160601b03821660048201526024016105f6565b50565b60006001600160a01b038516613c3e57506001613cb2565b6040516324aad2b360e21b81526001600160a01b038616906392ab4acc90613c6e90879087908790600401615a57565b602060405180830381865afa158015613c8b573d6000803e3d6000fd5b505050506040513d601f19601f82011682018060405250810190613caf91906154b4565b90505b949350505050565b6001600160a01b03821615613d33576040516315750d0560e31b81526001600160601b0386166004820152602481018590526001600160a01b0383169063aba8682890604401600060405180830381600087803b158015613d1a57600080fd5b505af1158015613d2e573d6000803e3d6000fd5b505050505b604051628f1c9d60e61b815273__$edb40677ae687b89a8312a1af66086cd07$__906323c7274090613d969086907f000000000000000000000000000000000000000000000000000000000000000090339030908b908990600190600401615a8a565b60006040518083038186803b158015613dae57600080fd5b505af4158015613dc2573d6000803e3d6000fd5b505050505050505050565b806001600160a01b03163b600003613c2357604051631bd1ba9d60e21b81526001600160a01b03821660048201526024016105f6565b8060005b6007811015613f35576000828260078110613e2457613e24615a41565b1a60f81b90506002821015613e8057600360fc1b6001600160f81b031982161080613e5c5750603960f81b6001600160f81b03198216115b15613e7b5783604051628b684360e31b81526004016105f69190615158565b613f2c565b6005821015613ed057604160f81b6001600160f81b031982161080613e5c5750602d60f91b6001600160f81b031982161115613e7b5783604051628b684360e31b81526004016105f69190615158565b6001600160f81b0319811615801590613f0d5750604160f81b6001600160f81b031982161080613f0d5750602d60f91b6001600160f81b03198216115b15613f2c5783604051628b684360e31b81526004016105f69190615158565b50600101613e07565b506000613f4183613f69565b9150508060ff16600003611eff5782604051628b684360e31b81526004016105f69190615158565b60008082600360fc1b6001600160f81b031982841a60f81b161080613fa15750603960f81b8160001a60f81b6001600160f81b031916115b80613fbf5750600360fc1b8160011a60f81b6001600160f81b031916105b80613fdd5750603960f81b8160011a60f81b6001600160f81b031916115b15613ffc5783604051628b684360e31b81526004016105f69190615158565b600061400b603083831a615b0a565b61401690600a615b23565b90506140276030600184901a615b0a565b614031908261543c565b60109290921b6001600160d81b031916959194509092505050565b60008061405883613f69565b509392505050565b6001600160d81b031983166000908152600c602090815260408083206001600160a01b0386168452600101909152812054620186a0906140a89065ffffffffffff16846151e0565b613cb2919061520d565b600080806140ea886001600160a01b038916158015906140e45750876001600160a01b0316896001600160a01b031614155b8661084c565b90925090508115614132576001600160a01b038088166000908152600d602090815260408083209389168352929052908120805484929061412c9084906154ea565b90915550505b801561417857600b546001600160a01b039081166000908152600d60209081526040808320938916835292905290812080548392906141729084906154ea565b90915550505b61418281836154ea565b925050505b95945050505050565b73__$edb40677ae687b89a8312a1af66086cd07$__63636c3803836001600160a01b038416156141c057836141c2565b865b8660006040518563ffffffff1660e01b81526004016141e4949392919061548b565b60006040518083038186803b1580156141fc57600080fd5b505af4158015614210573d6000803e3d6000fd5b5050505050505050565b6000816101200151116143ff57604081015160808201516001600160a01b0316156143ba576040516370a0823160e01b81523060048201526000906001600160a01b038316906370a0823190602401602060405180830381865afa158015614286573d6000803e3d6000fd5b505050506040513d601f19601f820116820180604052508101906142aa91906154d1565b6080840151604051637c41fdaf60e11b81526001600160601b038916600482015260248101889052604481018790529192506001600160a01b03169063f883fb5e90606401600060405180830381600087803b15801561430957600080fd5b505af115801561431d573d6000803e3d6000fd5b50505050838161432d91906154ea565b6040516370a0823160e01b81523060048201526001600160a01b038416906370a0823190602401602060405180830381865afa158015614371573d6000803e3d6000fd5b505050506040513d601f19601f8201168201806040525081019061439591906154d1565b10156143b457604051639c9d882360e01b815260040160405180910390fd5b506143fd565b602082015160405163bc0dbc9960e01b815273__$edb40677ae687b89a8312a1af66086cd07$__9163bc0dbc9991613d96918591309089906001906004016154fd565b505b50505050565b60c082015160408301516001600160c81b031982166144915760405163636c380360e01b815273__$edb40677ae687b89a8312a1af66086cd07$__9063636c38039061445c9084908a908a9060019060040161548b565b60006040518083038186803b15801561447457600080fd5b505af4158015614488573d6000803e3d6000fd5b5050505061465c565b600061449c83613b43565b60e086015186516001600160c81b03199081166000908152600a602090815260408083208985168452909152902054929350909160c81b908116156145605760006144e682613b43565b6040516333f1a81560e11b81529091506001600160a01b038216906367e3502a90614517908a908790600401615b3f565b600060405180830381865afa158015614534573d6000803e3d6000fd5b505050506040513d6000823e601f3d908101601f1916820160405261455c9190810190615b64565b9250505b60405163bd35547360e01b81526001600160a01b038086166004830152841660248201526044810189905273__$edb40677ae687b89a8312a1af66086cd07$__9063bd3554739060640160006040518083038186803b1580156145c257600080fd5b505af41580156145d6573d6000803e3d6000fd5b505050610100880151604051631c81b11f60e31b81526001600160a01b038616925063e40d88f891614612918d91899188918f91600401615b98565b6060604051808303816000875af1158015614631573d6000803e3d6000fd5b505050506040513d601f19601f820116820180604052508101906146559190615bdd565b5050505050505b60808401516001600160a01b0316156146df576080840151604051634d420d8560e01b81526001600160601b0389166004820152602481018790526001600160a01b0390911690634d420d8590604401600060405180830381600087803b1580156146c657600080fd5b505af11580156146da573d6000803e3d6000fd5b505050505b50505050505050565b6001600160d81b03198116600090815260046020908152604080832081518083019092525460ff80821680845261010090920416151592820192909252906147485782600060405163def1560160e01b81526004016105f6929190615455565b8060200151156147775760405163ae05d58960e01b81526001600160d81b0319841660048201526024016105f6565b6000614787848360000151614939565b6001600160c81b0319166000908152600360205260409020546001600160a01b0316949350505050565b600080600080865190506000805b828110156148da5760008982815181106147db576147db615a41565b602002602001015160400151905060008a83815181106147fd576147fd615a41565b602002602001015160600151905060008061484d8e60006001600160a01b0316866001600160a01b03161415801561484757508d6001600160a01b0316866001600160a01b031614155b8561084c565b90925090508115614895576001600160a01b038085166000908152600d60209081526040808320938f168352929052908120805484929061488f9084906154ea565b90915550505b61489f81876154ea565b95506148ab81836154ea565b6148b5908a6154ea565b98506148c1838b6154ea565b99505050505080806148d290615472565b9150506147bf565b50801561492157600b546001600160a01b039081166000908152600d60209081526040808320938a168352929052908120805483929061491b9084906154ea565b90915550505b61492b8486615247565b925050509450945094915050565b600080614947600a84615c16565b61495290603061543c565b60f81b90506000614964600a85615c38565b61496f90603061543c565b6040516001600160f81b0319808516602083015260f89290921b91821660218201526001600160d81b03198716602282015290915060270160405160208183030381529060405261418790615c5a565b6001600160a01b0381168114613c2357600080fd5b80356149df816149bf565b919050565b6000602082840312156149f657600080fd5b8135614a01816149bf565b9392505050565b6001600160c81b031981168114613c2357600080fd5b600080600060608486031215614a3357600080fd5b8335614a3e81614a08565b92506020840135614a4e81614a08565b91506040840135614a5e81614a08565b809150509250925092565b80356001600160d81b0319811681146149df57600080fd5b600060208284031215614a9357600080fd5b614a0182614a69565b8015158114613c2357600080fd5b600080600060608486031215614abf57600080fd5b614ac884614a69565b92506020840135614ad881614a9c565b929592945050506040919091013590565b600080600060408486031215614afe57600080fd5b8335614b0981614a08565b925060208401356001600160401b0380821115614b2557600080fd5b818601915086601f830112614b3957600080fd5b813581811115614b4857600080fd5b876020828501011115614b5a57600080fd5b6020830194508093505050509250925092565b60005b83811015614b88578181015183820152602001614b70565b50506000910152565b60008151808452614ba9816020860160208601614b6d565b601f01601f19169290920160200192915050565b602081526000614a016020830184614b91565b634e487b7160e01b600052604160045260246000fd5b60405160e081016001600160401b0381118282101715614c0857614c08614bd0565b60405290565b60405161010081016001600160401b0381118282101715614c0857614c08614bd0565b60405160c081016001600160401b0381118282101715614c0857614c08614bd0565b604051601f8201601f191681016001600160401b0381118282101715614c7b57614c7b614bd0565b604052919050565b6001600160601b0381168114613c2357600080fd5b80356149df81614c83565b60006001600160401b03821115614cbc57614cbc614bd0565b50601f01601f191660200190565b600082601f830112614cdb57600080fd5b8135614cee614ce982614ca3565b614c53565b818152846020838601011115614d0357600080fd5b816020850160208301376000918101602001919091529392505050565b600060208284031215614d3257600080fd5b81356001600160401b0380821115614d4957600080fd5b9083019060e08286031215614d5d57600080fd5b614d65614be6565b614d6e83614c98565b8152614d7c602084016149d4565b6020820152614d8d604084016149d4565b604082015260608301356060820152608083013582811115614dae57600080fd5b614dba87828601614cca565b60808301525060a083013582811115614dd257600080fd5b614dde87828601614cca565b60a08301525060c083013582811115614df657600080fd5b614e0287828601614cca565b60c08301525095945050505050565b65ffffffffffff81168114613c2357600080fd5b60008060408385031215614e3857600080fd5b614e4183614a69565b91506020830135614e5181614e11565b809150509250929050565b600060208284031215614e6e57600080fd5b5035919050565b600060208284031215614e8757600080fd5b8135614a0181614c83565b6001600160c81b03198b811682526001600160a01b038b811660208401528a8116604084015289811660608401528881166080840152871660a0830152851660c082015261014060e08201819052600090614eef83820187614b91565b9415156101008401525050610120015298975050505050505050565b600060208284031215614f1d57600080fd5b8135614a0181614a08565b600060208284031215614f3a57600080fd5b81356001600160401b0380821115614f5157600080fd5b908301906101008286031215614f6657600080fd5b614f6e614c0e565b614f77836149d4565b8152614f85602084016149d4565b6020820152614f9660408401614c98565b6040820152606083013560608201526080830135608082015260a083013582811115614fc157600080fd5b614fcd87828601614cca565b60a08301525060c083013582811115614fe557600080fd5b614ff187828601614cca565b60c08301525060e08301358281111561500957600080fd5b61501587828601614cca565b60e08301525095945050505050565b60008060006060848603121561503957600080fd5b61504284614a69565b925060208401356003811061505657600080fd5b91506040840135614a5e81614e11565b6000806040838503121561507957600080fd5b823561508481614c83565b91506020830135614e5181614c83565b600080604083850312156150a757600080fd5b82356150b2816149bf565b91506020830135614e51816149bf565b600080604083850312156150d557600080fd5b82356001600160401b03808211156150ec57600080fd5b90840190610120828703121561510157600080fd5b9092506020840135908082111561511757600080fd5b50830160a08186031215614e5157600080fd5b6000806040838503121561513d57600080fd5b823561514881614a08565b91506020830135614e5181614a08565b6001600160c81b031991909116815260200190565b6020808252600c908201526b15539055551213d49256915160a21b604082015260600190565b634e487b7160e01b600052602160045260246000fd5b6000602082840312156151bb57600080fd5b815160048110614a0157600080fd5b634e487b7160e01b600052601160045260246000fd5b80820281158282048414176113bc576113bc6151ca565b634e487b7160e01b600052601260045260246000fd5b60008261521c5761521c6151f7565b500490565b65ffffffffffff818116838216019080821115615240576152406151ca565b5092915050565b818103818111156113bc576113bc6151ca565b8183823760009101908152919050565b6020808252600a90820152695245454e5452414e435960b01b604082015260600190565b600181811c908216806152a257607f821691505b6020821081036152c257634e487b7160e01b600052602260045260246000fd5b50919050565b6001600160601b03871681526001600160a01b0386811660208301528581166040830152841660608201526080810183905260c060a0820181905260009061531290830184614b91565b98975050505050505050565b60006020828403121561533057600080fd5b8151614a0181614c83565b600082601f83011261534c57600080fd5b815161535a614ce982614ca3565b81815284602083860101111561536f57600080fd5b613cb2826020830160208701614b6d565b60006020828403121561539257600080fd5b81516001600160401b03808211156153a957600080fd5b90830190606082860312156153bd57600080fd5b6040516060810181811083821117156153d8576153d8614bd0565b60405282516153e681614e11565b81526020838101519082015260408301518281111561540457600080fd5b6154108782860161533b565b60408301525095945050505050565b60006020828403121561543157600080fd5b8151614a0181614a08565b60ff81811683821601908111156113bc576113bc6151ca565b6001600160d81b031992909216825260ff16602082015260400190565b600060018201615484576154846151ca565b5060010190565b6001600160a01b0394851681529290931660208301526040820152901515606082015260800190565b6000602082840312156154c657600080fd5b8151614a0181614a9c565b6000602082840312156154e357600080fd5b5051919050565b808201808211156113bc576113bc6151ca565b6001600160a01b03958616815293851660208501529190931660408301526060820192909252901515608082015260a00190565b6001600160601b03841681528260208201526060604082015260006141876060830184614b91565b6000806040838503121561556c57600080fd5b8251915060208301516001600160401b0381111561558957600080fd5b6155958582860161533b565b9150509250929050565b6000602082840312156155b157600080fd5b815160ff81168114614a0157600080fd5b60006001600160601b038083168181036155de576155de6151ca565b6001019392505050565b81835281816020850137506000828201602090810191909152601f909101601f19169091010190565b6001600160601b0385168152608060208201526000843561563181614e11565b65ffffffffffff908116608084015260208601359061564f82614e11565b1660a0830152604085013561566381614a9c565b151560c0830152606085013560e0830152608085013536869003601e1901811261568c57600080fd5b85016020810190356001600160401b038111156156a857600080fd5b8036038213156156b757600080fd5b60a06101008501526156ce610120850182846155e8565b925050506156e1604083018560ff169052565b60ff83166060830152614187565b6000806040838503121561570257600080fd5b825161570d81614a9c565b6020939093015192949293505050565b6000808335601e1984360301811261573457600080fd5b8301803591506001600160401b0382111561574e57600080fd5b60200191503681900382131561576357600080fd5b9250929050565b6001600160a01b038416815260406020820181905260009061418790830184866155e8565b601f821115611eff57600081815260208120601f850160051c810160208610156157b65750805b601f850160051c820191505b818110156157d5578281556001016157c2565b505050505050565b6001600160401b038311156157f4576157f4614bd0565b61580883615802835461528e565b8361578f565b6000601f84116001811461583c57600085156158245750838201355b600019600387901b1c1916600186901b1783556143fd565b600083815260209020601f19861690835b8281101561586d578685013582556020948501946001909201910161584d565b508682101561588a5760001960f88860031b161c19848701351681555b505060018560011b0183555050505050565b6001600160601b03841681526040602082015260006141876040830184866155e8565b6000602082840312156158d157600080fd5b8135614a0181614a9c565b600080604083850312156158ef57600080fd5b82516001600160401b038082111561590657600080fd5b818501915085601f83011261591a57600080fd5b815160208282111561592e5761592e614bd0565b8160051b61593d828201614c53565b928352848101820192828101908a85111561595757600080fd5b83870192505b84831015615a1a578251868111156159755760008081fd5b870160c0818d03601f190181131561598d5760008081fd5b615995614c31565b868301516159a2816149bf565b815260408301516159b2816149bf565b818801526060838101516159c5816149bf565b806040840152506080808501518284015260a09150818501518184015250828401519250898311156159f75760008081fd5b615a058f898587010161533b565b9082015284525050918301919083019061595d565b9289015192975091945050505080821115615a3457600080fd5b506155958582860161533b565b634e487b7160e01b600052603260045260246000fd5b6001600160601b03841681526001600160a01b038316602082015260606040820181905260009061418790830184614b91565b600060018060a01b03808a1683528089166020840152808816604084015280871660608401525084608083015260e060a083015265ffffffffffff84511660e0830152602084015161010083015260408401516060610120840152615af3610140840182614b91565b91505082151560c083015298975050505050505050565b60ff82811682821603908111156113bc576113bc6151ca565b60ff8181168382160290811690818114615240576152406151ca565b604081526000615b526040830185614b91565b82810360208401526141878185614b91565b600060208284031215615b7657600080fd5b81516001600160401b03811115615b8c57600080fd5b613cb28482850161533b565b6001600160a01b0386811682528516602082015260a060408201819052600090615bc490830186614b91565b6060830194909452509015156080909101529392505050565b600080600060608486031215615bf257600080fd5b835192506020840151615c04816149bf565b80925050604084015190509250925092565b600060ff831680615c2957615c296151f7565b8060ff84160491505092915050565b600060ff831680615c4b57615c4b6151f7565b8060ff84160691505092915050565b805160208201516001600160c81b03198082169291906007831015615c895780818460070360031b1b83161693505b50505091905056fea2646970667358221220af88178defde9ffda15bd8cb0e45d1e60c8ea2e7c22070289fceb5004203121264736f6c63430008130033",
    "linkReferences": {
      "src/lib/Transfer.sol": {
        "Transfer": [
          {
            "start": 3509,
            "length": 20
          },
          {
            "start": 4870,
            "length": 20
          },
          {
            "start": 6001,
            "length": 20
          },
          {
            "start": 6666,
            "length": 20
          },
          {
            "start": 8737,
            "length": 20
          },
          {
            "start": 9004,
            "length": 20
          },
          {
            "start": 12034,
            "length": 20
          },
          {
            "start": 15074,
            "length": 20
          },
          {
            "start": 15307,
            "length": 20
          },
          {
            "start": 15990,
            "length": 20
          },
          {
            "start": 17095,
            "length": 20
          },
          {
            "start": 17667,
            "length": 20
          },
          {
            "start": 17762,
            "length": 20
          },
          {
            "start": 18114,
            "length": 20
          }
        ]
      }
    }
  },
  "methodIdentifiers": {
    "auction((bytes5,address,address,address,address,address,bytes,bytes5,bytes),(uint48,uint48,bool,uint256,bytes))": "f0824069",
    "bid((uint96,address,address,uint256,bytes,bytes,bytes))": "528c410d",
    "calculateQuoteFees(bytes5,bool,uint256)": "4bcbd88b",
    "cancel(uint96)": "8eae8235",
    "claimRewards(address)": "ef5cfb8c",
    "condensers(bytes7,bytes7)": "f4b26181",
    "curate(uint96)": "a782e524",
    "execOnModule(bytes7,bytes)": "50ab0489",
    "fees(bytes5)": "31d72d6b",
    "getModuleForId(uint96)": "a50076f7",
    "getModuleForVeecode(bytes7)": "9e55cba3",
    "getModuleStatus(bytes5)": "5bb27aab",
    "installModule(address)": "7eb1e761",
    "isExecOnModule()": "5c774ed7",
    "lotCounter()": "c4ce88fd",
    "lotCuration(uint96)": "a249a509",
    "lotRouting(uint96)": "9e2e003a",
    "modules(uint256)": "81b2248a",
    "modulesCount()": "f315aafe",
    "owner()": "8da5cb5b",
    "purchase((address,address,uint96,uint256,uint256,bytes,bytes,bytes))": "c1cf8c7f",
    "refundBid(uint96,uint96)": "d8d95701",
    "rewards(address,address)": "e70b9e27",
    "setCondenser(bytes7,bytes7,bytes7)": "20b15fe4",
    "setCuratorFee(bytes5,uint48)": "7249c0d5",
    "setFee(bytes5,uint8,uint48)": "c74c149b",
    "setProtocol(address)": "0a9d793d",
    "settle(uint96)": "fb9d3cb6",
    "sunsetModule(bytes5)": "c75519ba",
    "transferOwnership(address)": "f2fde38b"
  },
  "id": 30
}