{
    "abi": [
        {
            "type": "constructor",
            "inputs": [
                {
                    "name": "protocol_",
                    "type": "address",
                    "internalType": "address"
                },
                {
                    "name": "permit2_",
                    "type": "address",
                    "internalType": "address"
                }
            ],
            "stateMutability": "nonpayable"
        },
        {
            "type": "function",
            "name": "auction",
            "inputs": [
                {
                    "name": "routing_",
                    "type": "tuple",
                    "internalType": "struct Auctioneer.RoutingParams",
                    "components": [
                        {
                            "name": "auctionType",
                            "type": "bytes5",
                            "internalType": "Keycode"
                        },
                        {
                            "name": "baseToken",
                            "type": "address",
                            "internalType": "contract ERC20"
                        },
                        {
                            "name": "quoteToken",
                            "type": "address",
                            "internalType": "contract ERC20"
                        },
                        {
                            "name": "curator",
                            "type": "address",
                            "internalType": "address"
                        },
                        {
                            "name": "hooks",
                            "type": "address",
                            "internalType": "contract IHooks"
                        },
                        {
                            "name": "allowlist",
                            "type": "address",
                            "internalType": "contract IAllowlist"
                        },
                        {
                            "name": "allowlistParams",
                            "type": "bytes",
                            "internalType": "bytes"
                        },
                        {
                            "name": "payoutData",
                            "type": "bytes",
                            "internalType": "bytes"
                        },
                        {
                            "name": "derivativeType",
                            "type": "bytes5",
                            "internalType": "Keycode"
                        },
                        {
                            "name": "derivativeParams",
                            "type": "bytes",
                            "internalType": "bytes"
                        }
                    ]
                },
                {
                    "name": "params_",
                    "type": "tuple",
                    "internalType": "struct Auction.AuctionParams",
                    "components": [
                        {
                            "name": "start",
                            "type": "uint48",
                            "internalType": "uint48"
                        },
                        {
                            "name": "duration",
                            "type": "uint48",
                            "internalType": "uint48"
                        },
                        {
                            "name": "capacityInQuote",
                            "type": "bool",
                            "internalType": "bool"
                        },
                        {
                            "name": "capacity",
                            "type": "uint256",
                            "internalType": "uint256"
                        },
                        {
                            "name": "implParams",
                            "type": "bytes",
                            "internalType": "bytes"
                        }
                    ]
                }
            ],
            "outputs": [
                {
                    "name": "lotId",
                    "type": "uint96",
                    "internalType": "uint96"
                }
            ],
            "stateMutability": "nonpayable"
        },
        {
            "type": "function",
            "name": "bid",
            "inputs": [
                {
                    "name": "params_",
                    "type": "tuple",
                    "internalType": "struct Router.BidParams",
                    "components": [
                        {
                            "name": "lotId",
                            "type": "uint96",
                            "internalType": "uint96"
                        },
                        {
                            "name": "recipient",
                            "type": "address",
                            "internalType": "address"
                        },
                        {
                            "name": "referrer",
                            "type": "address",
                            "internalType": "address"
                        },
                        {
                            "name": "amount",
                            "type": "uint256",
                            "internalType": "uint256"
                        },
                        {
                            "name": "auctionData",
                            "type": "bytes",
                            "internalType": "bytes"
                        },
                        {
                            "name": "allowlistProof",
                            "type": "bytes",
                            "internalType": "bytes"
                        },
                        {
                            "name": "permit2Data",
                            "type": "bytes",
                            "internalType": "bytes"
                        }
                    ]
                }
            ],
            "outputs": [
                {
                    "name": "",
                    "type": "uint96",
                    "internalType": "uint96"
                }
            ],
            "stateMutability": "nonpayable"
        },
        {
            "type": "function",
            "name": "calculateQuoteFees",
            "inputs": [
                {
                    "name": "auctionType_",
                    "type": "bytes5",
                    "internalType": "Keycode"
                },
                {
                    "name": "hasReferrer_",
                    "type": "bool",
                    "internalType": "bool"
                },
                {
                    "name": "amount_",
                    "type": "uint256",
                    "internalType": "uint256"
                }
            ],
            "outputs": [
                {
                    "name": "toReferrer",
                    "type": "uint256",
                    "internalType": "uint256"
                },
                {
                    "name": "toProtocol",
                    "type": "uint256",
                    "internalType": "uint256"
                }
            ],
            "stateMutability": "view"
        },
        {
            "type": "function",
            "name": "cancel",
            "inputs": [
                {
                    "name": "lotId_",
                    "type": "uint96",
                    "internalType": "uint96"
                }
            ],
            "outputs": [],
            "stateMutability": "nonpayable"
        },
        {
            "type": "function",
            "name": "cancelBid",
            "inputs": [
                {
                    "name": "lotId_",
                    "type": "uint96",
                    "internalType": "uint96"
                },
                {
                    "name": "bidId_",
                    "type": "uint96",
                    "internalType": "uint96"
                }
            ],
            "outputs": [],
            "stateMutability": "nonpayable"
        },
        {
            "type": "function",
            "name": "claimRewards",
            "inputs": [
                {
                    "name": "token_",
                    "type": "address",
                    "internalType": "address"
                }
            ],
            "outputs": [],
            "stateMutability": "nonpayable"
        },
        {
            "type": "function",
            "name": "condensers",
            "inputs": [
                {
                    "name": "auctionRef",
                    "type": "bytes7",
                    "internalType": "Veecode"
                },
                {
                    "name": "derivativeRef",
                    "type": "bytes7",
                    "internalType": "Veecode"
                }
            ],
            "outputs": [
                {
                    "name": "condenserRef",
                    "type": "bytes7",
                    "internalType": "Veecode"
                }
            ],
            "stateMutability": "view"
        },
        {
            "type": "function",
            "name": "curate",
            "inputs": [
                {
                    "name": "lotId_",
                    "type": "uint96",
                    "internalType": "uint96"
                }
            ],
            "outputs": [],
            "stateMutability": "nonpayable"
        },
        {
            "type": "function",
            "name": "execOnModule",
            "inputs": [
                {
                    "name": "veecode_",
                    "type": "bytes7",
                    "internalType": "Veecode"
                },
                {
                    "name": "callData_",
                    "type": "bytes",
                    "internalType": "bytes"
                }
            ],
            "outputs": [
                {
                    "name": "",
                    "type": "bytes",
                    "internalType": "bytes"
                }
            ],
            "stateMutability": "nonpayable"
        },
        {
            "type": "function",
            "name": "fees",
            "inputs": [
                {
                    "name": "",
                    "type": "bytes5",
                    "internalType": "Keycode"
                }
            ],
            "outputs": [
                {
                    "name": "protocol",
                    "type": "uint48",
                    "internalType": "uint48"
                },
                {
                    "name": "referrer",
                    "type": "uint48",
                    "internalType": "uint48"
                },
                {
                    "name": "maxCuratorFee",
                    "type": "uint48",
                    "internalType": "uint48"
                }
            ],
            "stateMutability": "view"
        },
        {
            "type": "function",
            "name": "getModuleForId",
            "inputs": [
                {
                    "name": "lotId_",
                    "type": "uint96",
                    "internalType": "uint96"
                }
            ],
            "outputs": [
                {
                    "name": "",
                    "type": "address",
                    "internalType": "contract AuctionModule"
                }
            ],
            "stateMutability": "view"
        },
        {
            "type": "function",
            "name": "getModuleForVeecode",
            "inputs": [
                {
                    "name": "",
                    "type": "bytes7",
                    "internalType": "Veecode"
                }
            ],
            "outputs": [
                {
                    "name": "",
                    "type": "address",
                    "internalType": "contract Module"
                }
            ],
            "stateMutability": "view"
        },
        {
            "type": "function",
            "name": "getModuleStatus",
            "inputs": [
                {
                    "name": "",
                    "type": "bytes5",
                    "internalType": "Keycode"
                }
            ],
            "outputs": [
                {
                    "name": "latestVersion",
                    "type": "uint8",
                    "internalType": "uint8"
                },
                {
                    "name": "sunset",
                    "type": "bool",
                    "internalType": "bool"
                }
            ],
            "stateMutability": "view"
        },
        {
            "type": "function",
            "name": "installModule",
            "inputs": [
                {
                    "name": "newModule_",
                    "type": "address",
                    "internalType": "contract Module"
                }
            ],
            "outputs": [],
            "stateMutability": "nonpayable"
        },
        {
            "type": "function",
            "name": "isExecOnModule",
            "inputs": [],
            "outputs": [
                {
                    "name": "",
                    "type": "bool",
                    "internalType": "bool"
                }
            ],
            "stateMutability": "view"
        },
        {
            "type": "function",
            "name": "lotCounter",
            "inputs": [],
            "outputs": [
                {
                    "name": "",
                    "type": "uint96",
                    "internalType": "uint96"
                }
            ],
            "stateMutability": "view"
        },
        {
            "type": "function",
            "name": "lotCuration",
            "inputs": [
                {
                    "name": "lotId",
                    "type": "uint96",
                    "internalType": "uint96"
                }
            ],
            "outputs": [
                {
                    "name": "curator",
                    "type": "address",
                    "internalType": "address"
                },
                {
                    "name": "curated",
                    "type": "bool",
                    "internalType": "bool"
                }
            ],
            "stateMutability": "view"
        },
        {
            "type": "function",
            "name": "lotRouting",
            "inputs": [
                {
                    "name": "lotId",
                    "type": "uint96",
                    "internalType": "uint96"
                }
            ],
            "outputs": [
                {
                    "name": "auctionReference",
                    "type": "bytes7",
                    "internalType": "Veecode"
                },
                {
                    "name": "owner",
                    "type": "address",
                    "internalType": "address"
                },
                {
                    "name": "baseToken",
                    "type": "address",
                    "internalType": "contract ERC20"
                },
                {
                    "name": "quoteToken",
                    "type": "address",
                    "internalType": "contract ERC20"
                },
                {
                    "name": "hooks",
                    "type": "address",
                    "internalType": "contract IHooks"
                },
                {
                    "name": "allowlist",
                    "type": "address",
                    "internalType": "contract IAllowlist"
                },
                {
                    "name": "derivativeReference",
                    "type": "bytes7",
                    "internalType": "Veecode"
                },
                {
                    "name": "derivativeParams",
                    "type": "bytes",
                    "internalType": "bytes"
                },
                {
                    "name": "wrapDerivative",
                    "type": "bool",
                    "internalType": "bool"
                },
                {
                    "name": "prefunding",
                    "type": "uint256",
                    "internalType": "uint256"
                }
            ],
            "stateMutability": "view"
        },
        {
            "type": "function",
            "name": "modules",
            "inputs": [
                {
                    "name": "",
                    "type": "uint256",
                    "internalType": "uint256"
                }
            ],
            "outputs": [
                {
                    "name": "",
                    "type": "bytes5",
                    "internalType": "Keycode"
                }
            ],
            "stateMutability": "view"
        },
        {
            "type": "function",
            "name": "modulesCount",
            "inputs": [],
            "outputs": [
                {
                    "name": "",
                    "type": "uint256",
                    "internalType": "uint256"
                }
            ],
            "stateMutability": "view"
        },
        {
            "type": "function",
            "name": "owner",
            "inputs": [],
            "outputs": [
                {
                    "name": "",
                    "type": "address",
                    "internalType": "address"
                }
            ],
            "stateMutability": "view"
        },
        {
            "type": "function",
            "name": "purchase",
            "inputs": [
                {
                    "name": "params_",
                    "type": "tuple",
                    "internalType": "struct Router.PurchaseParams",
                    "components": [
                        {
                            "name": "recipient",
                            "type": "address",
                            "internalType": "address"
                        },
                        {
                            "name": "referrer",
                            "type": "address",
                            "internalType": "address"
                        },
                        {
                            "name": "lotId",
                            "type": "uint96",
                            "internalType": "uint96"
                        },
                        {
                            "name": "amount",
                            "type": "uint256",
                            "internalType": "uint256"
                        },
                        {
                            "name": "minAmountOut",
                            "type": "uint256",
                            "internalType": "uint256"
                        },
                        {
                            "name": "auctionData",
                            "type": "bytes",
                            "internalType": "bytes"
                        },
                        {
                            "name": "allowlistProof",
                            "type": "bytes",
                            "internalType": "bytes"
                        },
                        {
                            "name": "permit2Data",
                            "type": "bytes",
                            "internalType": "bytes"
                        }
                    ]
                }
            ],
            "outputs": [
                {
                    "name": "payoutAmount",
                    "type": "uint256",
                    "internalType": "uint256"
                }
            ],
            "stateMutability": "nonpayable"
        },
        {
            "type": "function",
            "name": "rewards",
            "inputs": [
                {
                    "name": "",
                    "type": "address",
                    "internalType": "address"
                },
                {
                    "name": "",
                    "type": "address",
                    "internalType": "contract ERC20"
                }
            ],
            "outputs": [
                {
                    "name": "",
                    "type": "uint256",
                    "internalType": "uint256"
                }
            ],
            "stateMutability": "view"
        },
        {
            "type": "function",
            "name": "setCondenser",
            "inputs": [
                {
                    "name": "auctionRef_",
                    "type": "bytes7",
                    "internalType": "Veecode"
                },
                {
                    "name": "derivativeRef_",
                    "type": "bytes7",
                    "internalType": "Veecode"
                },
                {
                    "name": "condenserRef_",
                    "type": "bytes7",
                    "internalType": "Veecode"
                }
            ],
            "outputs": [],
            "stateMutability": "nonpayable"
        },
        {
            "type": "function",
            "name": "setCuratorFee",
            "inputs": [
                {
                    "name": "auctionType_",
                    "type": "bytes5",
                    "internalType": "Keycode"
                },
                {
                    "name": "fee_",
                    "type": "uint48",
                    "internalType": "uint48"
                }
            ],
            "outputs": [],
            "stateMutability": "nonpayable"
        },
        {
            "type": "function",
            "name": "setFee",
            "inputs": [
                {
                    "name": "auctionType_",
                    "type": "bytes5",
                    "internalType": "Keycode"
                },
                {
                    "name": "type_",
                    "type": "uint8",
                    "internalType": "enum FeeManager.FeeType"
                },
                {
                    "name": "fee_",
                    "type": "uint48",
                    "internalType": "uint48"
                }
            ],
            "outputs": [],
            "stateMutability": "nonpayable"
        },
        {
            "type": "function",
            "name": "setProtocol",
            "inputs": [
                {
                    "name": "protocol_",
                    "type": "address",
                    "internalType": "address"
                }
            ],
            "outputs": [],
            "stateMutability": "nonpayable"
        },
        {
            "type": "function",
            "name": "settle",
            "inputs": [
                {
                    "name": "lotId_",
                    "type": "uint96",
                    "internalType": "uint96"
                }
            ],
            "outputs": [],
            "stateMutability": "nonpayable"
        },
        {
            "type": "function",
            "name": "sunsetModule",
            "inputs": [
                {
                    "name": "keycode_",
                    "type": "bytes5",
                    "internalType": "Keycode"
                }
            ],
            "outputs": [],
            "stateMutability": "nonpayable"
        },
        {
            "type": "function",
            "name": "transferOwnership",
            "inputs": [
                {
                    "name": "newOwner",
                    "type": "address",
                    "internalType": "address"
                }
            ],
            "outputs": [],
            "stateMutability": "nonpayable"
        },
        {
            "type": "event",
            "name": "AuctionCancelled",
            "inputs": [
                {
                    "name": "lotId",
                    "type": "uint96",
                    "indexed": true,
                    "internalType": "uint96"
                },
                {
                    "name": "auctionRef",
                    "type": "bytes7",
                    "indexed": true,
                    "internalType": "Veecode"
                }
            ],
            "anonymous": false
        },
        {
            "type": "event",
            "name": "AuctionCreated",
            "inputs": [
                {
                    "name": "lotId",
                    "type": "uint96",
                    "indexed": true,
                    "internalType": "uint96"
                },
                {
                    "name": "auctionRef",
                    "type": "bytes7",
                    "indexed": true,
                    "internalType": "Veecode"
                },
                {
                    "name": "baseToken",
                    "type": "address",
                    "indexed": false,
                    "internalType": "address"
                },
                {
                    "name": "quoteToken",
                    "type": "address",
                    "indexed": false,
                    "internalType": "address"
                }
            ],
            "anonymous": false
        },
        {
            "type": "event",
            "name": "Bid",
            "inputs": [
                {
                    "name": "lotId",
                    "type": "uint96",
                    "indexed": true,
                    "internalType": "uint96"
                },
                {
                    "name": "bidId",
                    "type": "uint96",
                    "indexed": true,
                    "internalType": "uint96"
                },
                {
                    "name": "bidder",
                    "type": "address",
                    "indexed": true,
                    "internalType": "address"
                },
                {
                    "name": "amount",
                    "type": "uint256",
                    "indexed": false,
                    "internalType": "uint256"
                }
            ],
            "anonymous": false
        },
        {
            "type": "event",
            "name": "CancelBid",
            "inputs": [
                {
                    "name": "lotId",
                    "type": "uint96",
                    "indexed": true,
                    "internalType": "uint96"
                },
                {
                    "name": "bidId",
                    "type": "uint96",
                    "indexed": true,
                    "internalType": "uint96"
                },
                {
                    "name": "bidder",
                    "type": "address",
                    "indexed": true,
                    "internalType": "address"
                }
            ],
            "anonymous": false
        },
        {
            "type": "event",
            "name": "Curated",
            "inputs": [
                {
                    "name": "lotId",
                    "type": "uint96",
                    "indexed": true,
                    "internalType": "uint96"
                },
                {
                    "name": "curator",
                    "type": "address",
                    "indexed": true,
                    "internalType": "address"
                }
            ],
            "anonymous": false
        },
        {
            "type": "event",
            "name": "ModuleInstalled",
            "inputs": [
                {
                    "name": "keycode",
                    "type": "bytes5",
                    "indexed": true,
                    "internalType": "Keycode"
                },
                {
                    "name": "version",
                    "type": "uint8",
                    "indexed": true,
                    "internalType": "uint8"
                },
                {
                    "name": "location",
                    "type": "address",
                    "indexed": true,
                    "internalType": "address"
                }
            ],
            "anonymous": false
        },
        {
            "type": "event",
            "name": "ModuleSunset",
            "inputs": [
                {
                    "name": "keycode",
                    "type": "bytes5",
                    "indexed": true,
                    "internalType": "Keycode"
                }
            ],
            "anonymous": false
        },
        {
            "type": "event",
            "name": "OwnershipTransferred",
            "inputs": [
                {
                    "name": "user",
                    "type": "address",
                    "indexed": true,
                    "internalType": "address"
                },
                {
                    "name": "newOwner",
                    "type": "address",
                    "indexed": true,
                    "internalType": "address"
                }
            ],
            "anonymous": false
        },
        {
            "type": "event",
            "name": "Purchase",
            "inputs": [
                {
                    "name": "lotId",
                    "type": "uint96",
                    "indexed": true,
                    "internalType": "uint96"
                },
                {
                    "name": "buyer",
                    "type": "address",
                    "indexed": true,
                    "internalType": "address"
                },
                {
                    "name": "referrer",
                    "type": "address",
                    "indexed": false,
                    "internalType": "address"
                },
                {
                    "name": "amount",
                    "type": "uint256",
                    "indexed": false,
                    "internalType": "uint256"
                },
                {
                    "name": "payout",
                    "type": "uint256",
                    "indexed": false,
                    "internalType": "uint256"
                }
            ],
            "anonymous": false
        },
        {
            "type": "event",
            "name": "Settle",
            "inputs": [
                {
                    "name": "lotId",
                    "type": "uint96",
                    "indexed": true,
                    "internalType": "uint96"
                }
            ],
            "anonymous": false
        },
        {
            "type": "error",
            "name": "AmountLessThanMinimum",
            "inputs": []
        },
        {
            "type": "error",
            "name": "Broken_Invariant",
            "inputs": []
        },
        {
            "type": "error",
            "name": "InvalidBidder",
            "inputs": [
                {
                    "name": "bidder_",
                    "type": "address",
                    "internalType": "address"
                }
            ]
        },
        {
            "type": "error",
            "name": "InvalidFee",
            "inputs": []
        },
        {
            "type": "error",
            "name": "InvalidHook",
            "inputs": []
        },
        {
            "type": "error",
            "name": "InvalidLotId",
            "inputs": [
                {
                    "name": "id_",
                    "type": "uint96",
                    "internalType": "uint96"
                }
            ]
        },
        {
            "type": "error",
            "name": "InvalidModuleInstall",
            "inputs": [
                {
                    "name": "keycode_",
                    "type": "bytes5",
                    "internalType": "Keycode"
                },
                {
                    "name": "version_",
                    "type": "uint8",
                    "internalType": "uint8"
                }
            ]
        },
        {
            "type": "error",
            "name": "InvalidParams",
            "inputs": []
        },
        {
            "type": "error",
            "name": "InvalidState",
            "inputs": []
        },
        {
            "type": "error",
            "name": "InvalidVeecode",
            "inputs": [
                {
                    "name": "veecode_",
                    "type": "bytes7",
                    "internalType": "Veecode"
                }
            ]
        },
        {
            "type": "error",
            "name": "ModuleAlreadySunset",
            "inputs": [
                {
                    "name": "keycode_",
                    "type": "bytes5",
                    "internalType": "Keycode"
                }
            ]
        },
        {
            "type": "error",
            "name": "ModuleExecutionReverted",
            "inputs": [
                {
                    "name": "error_",
                    "type": "bytes",
                    "internalType": "bytes"
                }
            ]
        },
        {
            "type": "error",
            "name": "ModuleFunctionInvalid",
            "inputs": [
                {
                    "name": "function_",
                    "type": "bytes4",
                    "internalType": "bytes4"
                }
            ]
        },
        {
            "type": "error",
            "name": "ModuleIsSunset",
            "inputs": [
                {
                    "name": "keycode_",
                    "type": "bytes5",
                    "internalType": "Keycode"
                }
            ]
        },
        {
            "type": "error",
            "name": "ModuleNotInstalled",
            "inputs": [
                {
                    "name": "keycode_",
                    "type": "bytes5",
                    "internalType": "Keycode"
                },
                {
                    "name": "version_",
                    "type": "uint8",
                    "internalType": "uint8"
                }
            ]
        },
        {
            "type": "error",
            "name": "NotPermitted",
            "inputs": [
                {
                    "name": "caller_",
                    "type": "address",
                    "internalType": "address"
                }
            ]
        },
        {
            "type": "error",
            "name": "TargetNotAContract",
            "inputs": [
                {
                    "name": "target_",
                    "type": "address",
                    "internalType": "address"
                }
            ]
        }
    ],
    "bytecode": {
        "object": "0x60a060405260016006553480156200001657600080fd5b5060405162005ddf38038062005ddf8339810160408190526200003991620000c2565b600080546001600160a01b031916339081178255604051849282918291907f8be0079c531659141344cd1fd0a4f28419497f9722a3daafe3b4186f6b6457e0908290a35050600b80546001600160a01b0319166001600160a01b039283161790551660805250620000fa565b80516001600160a01b0381168114620000bd57600080fd5b919050565b60008060408385031215620000d657600080fd5b620000e183620000a5565b9150620000f160208401620000a5565b90509250929050565b608051615cc9620001166000396000613e420152615cc96000f3fe608060405234801561001057600080fd5b50600436106101da5760003560e01c80639e2e003a11610104578063c74c149b116100a2578063f2fde38b11610071578063f2fde38b14610562578063f315aafe14610575578063f4b261811461057e578063fb9d3cb6146105b957600080fd5b8063c74c149b146104fe578063c75519ba14610511578063e70b9e2714610524578063ef5cfb8c1461054f57600080fd5b8063a50076f7116100de578063a50076f7146104a4578063a782e524146104b7578063c1cf8c7f146104ca578063c4ce88fd146104eb57600080fd5b80639e2e003a146103fe5780639e55cba314610427578063a249a5091461045057600080fd5b8063528c410d1161017c5780637eb1e7611161014b5780637eb1e7611461038157806381b2248a146103945780638da5cb5b146103c05780638eae8235146103eb57600080fd5b8063528c410d146102f95780635bb27aab1461030c5780635c774ed7146103515780637249c0d51461036e57600080fd5b806331d72d6b116101b857806331d72d6b1461021a5780633eee0963146102865780634bcbd88b146102b157806350ab0489146102d957600080fd5b80630a9d793d146101df57806320b15fe4146101f45780632e7cf75614610207575b600080fd5b6101f26101ed3660046149e6565b6105cc565b005b6101f2610202366004614a20565b610621565b6101f2610215366004614a8b565b61084c565b610258610228366004614adc565b600c6020526000908152604090205465ffffffffffff80821691600160301b8104821691600160601b9091041683565b6040805165ffffffffffff948516815292841660208401529216918101919091526060015b60405180910390f35b610299610294366004614af7565b6109e0565b6040516001600160601b03909116815260200161027d565b6102c46102bf366004614b6d565b61165f565b6040805192835260208301919091520161027d565b6102ec6102e7366004614bac565b611735565b60405161027d9190614c80565b610299610307366004614dc3565b611814565b61033861031a366004614adc565b60046020526000908152604090205460ff8082169161010090041682565b6040805160ff909316835290151560208301520161027d565b60055461035e9060ff1681565b604051901515815260200161027d565b6101f261037c366004614ec8565b611b6f565b6101f261038f3660046149e6565b611c02565b6103a76103a2366004614ef4565b611e7f565b6040516001600160d81b0319909116815260200161027d565b6000546103d3906001600160a01b031681565b6040516001600160a01b03909116815260200161027d565b6101f26103f9366004614f0d565b611eb6565b61041161040c366004614f0d565b6120a4565b60405161027d9a99989796959493929190614f2a565b6103d3610435366004614fa3565b6003602052600090815260409020546001600160a01b031681565b61048561045e366004614f0d565b6009602052600090815260409020546001600160a01b03811690600160a01b900460ff1682565b604080516001600160a01b03909316835290151560208301520161027d565b6103d36104b2366004614f0d565b61219f565b6101f26104c5366004614f0d565b6121d5565b6104dd6104d8366004614fc0565b612508565b60405190815260200161027d565b600754610299906001600160601b031681565b6101f261050c3660046150bc565b612bc1565b6101f261051f366004614adc565b612d17565b6104dd6105323660046150fe565b600d60209081526000928352604080842090915290825290205481565b6101f261055d3660046149e6565b612e13565b6101f26105703660046149e6565b612edc565b6104dd60025481565b6105ac61058c36600461512c565b600a60209081526000928352604080842090915290825290205460c81b81565b60405161027d919061515a565b6101f26105c7366004614f0d565b612f51565b6000546001600160a01b031633146105ff5760405162461bcd60e51b81526004016105f69061516f565b60405180910390fd5b600b80546001600160a01b0319166001600160a01b0392909216919091179055565b6000546001600160a01b0316331461064b5760405162461bcd60e51b81526004016105f69061516f565b600061065684613b45565b6001600160a01b031663bb24fe8a6040518163ffffffff1660e01b8152600401602060405180830381865afa158015610693573d6000803e3d6000fd5b505050506040513d601f19601f820116820180604052508101906106b791906151ab565b60038111156106c8576106c8615195565b141580610750575060016106db83613b45565b6001600160a01b031663bb24fe8a6040518163ffffffff1660e01b8152600401602060405180830381865afa158015610718573d6000803e3d6000fd5b505050506040513d601f19601f8201168201806040525081019061073c91906151ab565b600381111561074d5761074d615195565b14155b806107ea57506001600160c81b03198116158015906107ea5750600261077582613b45565b6001600160a01b031663bb24fe8a6040518163ffffffff1660e01b8152600401602060405180830381865afa1580156107b2573d6000803e3d6000fd5b505050506040513d601f19601f820116820180604052508101906107d691906151ab565b60038111156107e7576107e7615195565b14155b1561080857604051635435b28960e11b815260040160405180910390fd5b6001600160c81b03199283166000908152600a6020908152604080832094909516825292909252919020805466ffffffffffffff191660c89290921c919091179055565b60065460011461086e5760405162461bcd60e51b81526004016105f6906151cc565b600260065561087c82613b9a565b60006108878361219f565b604051631c444d1160e01b81526001600160601b038086166004830152841660248201523360448201526001600160a01b039190911690631c444d11906064016020604051808303816000875af11580156108e6573d6000803e3d6000fd5b505050506040513d601f19601f8201168201806040525081019061090a91906151f0565b6001600160601b03841660009081526008602052604080822060020154905163636c380360e01b815292935073__$edb40677ae687b89a8312a1af66086cd07$__9263636c38039261096c926001600160a01b03169133918791600401615209565b60006040518083038186803b15801561098457600080fd5b505af4158015610998573d6000803e3d6000fd5b50506040513392506001600160601b0380861692508616907fff02eebda35c8729d8a31e22ba8f3123968ce835b27f7ea8e9c42de48ec6f28e90600090a45050600160065550565b6000600654600114610a045760405162461bcd60e51b81526004016105f6906151cc565b60026006556000610a20610a1b6020860186614adc565b613c28565b90506000816001600160a01b031663d61735ca6040518163ffffffff1660e01b8152600401602060405180830381865afa158015610a62573d6000803e3d6000fd5b505050506040513d601f19601f82011682018060405250810190610a869190615232565b90506000826001600160a01b031663bb24fe8a6040518163ffffffff1660e01b8152600401602060405180830381865afa158015610ac8573d6000803e3d6000fd5b505050506040513d601f19601f82011682018060405250810190610aec91906151ab565b6003811115610afd57610afd615195565b14610b1b57604051635435b28960e11b815260040160405180910390fd5b6000610b2d60408701602088016149e6565b6001600160a01b03161480610b5a57506000610b4f60608701604088016149e6565b6001600160a01b0316145b15610b7857604051635435b28960e11b815260040160405180910390fd5b6000610b8a60408701602088016149e6565b6001600160a01b031663313ce5676040518163ffffffff1660e01b8152600401602060405180830381865afa158015610bc7573d6000803e3d6000fd5b505050506040513d601f19601f82011682018060405250810190610beb919061524f565b90506000610bff60608801604089016149e6565b6001600160a01b031663313ce5676040518163ffffffff1660e01b8152600401602060405180830381865afa158015610c3c573d6000803e3d6000fd5b505050506040513d601f19601f82011682018060405250810190610c60919061524f565b905060068260ff161080610c77575060128260ff16115b80610c85575060068160ff16105b80610c93575060128160ff16115b15610cb157604051635435b28960e11b815260040160405180910390fd5b600780546001600160601b0316906000610cca83615288565b91906101000a8154816001600160601b0302191690836001600160601b031602179055509450600080856001600160a01b031663bae96bdd888a86886040518563ffffffff1660e01b8152600401610d2594939291906152d7565b60408051808303816000875af1158015610d43573d6000803e3d6000fd5b505050506040513d601f19601f82011682018060405250810190610d6791906153b5565b6001600160601b0389166000908152600860209081526040918290208054600160381b33026001600160d81b031990911660c88c901c17178155939550919350610db691908c01908c016149e6565b6001820180546001600160a01b0319166001600160a01b0392909216919091179055610de860608b0160408c016149e6565b6002820180546001600160a01b0319166001600160a01b03929092169190911790556001600160601b0388166000908152600960205260409020610e3260808c0160608d016149e6565b81546001600160a81b0319166001600160a01b03919091161790556000610e67610e646101208d016101008e01614adc565b90565b6001600160d81b0319161461107f576000610e8d610a1b6101208d016101008e01614adc565b90506000816001600160a01b031663d61735ca6040518163ffffffff1660e01b8152600401602060405180830381865afa158015610ecf573d6000803e3d6000fd5b505050506040513d601f19601f82011682018060405250810190610ef39190615232565b90506001826001600160a01b031663bb24fe8a6040518163ffffffff1660e01b8152600401602060405180830381865afa158015610f35573d6000803e3d6000fd5b505050506040513d601f19601f82011682018060405250810190610f5991906151ab565b6003811115610f6a57610f6a615195565b14610f8857604051635435b28960e11b815260040160405180910390fd5b816001600160a01b031663caf927858460010160009054906101000a90046001600160a01b03168e806101200190610fc091906153e3565b6040518463ffffffff1660e01b8152600401610fde93929190615430565b602060405180830381865afa158015610ffb573d6000803e3d6000fd5b505050506040513d601f19601f8201168201806040525081019061101f9190615455565b61103c57604051635435b28960e11b815260040160405180910390fd5b60048301805466ffffffffffffff60a01b1916600160a01b60c884901c0217905561106b6101208d018d6153e3565b600585019161107b9190836154fa565b5050505b6001600160c81b03198681166000908152600a602090815260408083206004860154600160a01b900460c890811b86168552925290912054901b908116156111bc5760026110cc82613b45565b6001600160a01b031663bb24fe8a6040518163ffffffff1660e01b8152600401602060405180830381865afa158015611109573d6000803e3d6000fd5b505050506040513d601f19601f8201168201806040525081019061112d91906151ab565b600381111561113e5761113e615195565b1461115c57604051635435b28960e11b815260040160405180910390fd5b600061116782613cf1565b6001600160d81b03198116600090815260046020526040902054909150610100900460ff1615156001036111ba5760405163ae05d58960e01b81526001600160d81b0319821660048201526024016105f6565b505b5060006111cf60c08c0160a08d016149e6565b6001600160a01b0316146112c7576111ed60c08b0160a08c016149e6565b6001600160a01b03163b60000361121757604051635435b28960e11b815260040160405180910390fd5b61122760c08b0160a08c016149e6565b6001600160a01b03166344d799f38961124360c08e018e6153e3565b6040518463ffffffff1660e01b8152600401611261939291906155b9565b600060405180830381600087803b15801561127b57600080fd5b505af115801561128f573d6000803e3d6000fd5b506112a49250505060c08b0160a08c016149e6565b6004820180546001600160a01b0319166001600160a01b03929092169190911790555b60006112d960a08c0160808d016149e6565b6001600160a01b031614611354576112f760a08b0160808c016149e6565b6001600160a01b03163b60000361132157604051635435b28960e11b815260040160405180910390fd5b61133160a08b0160808c016149e6565b6003820180546001600160a01b0319166001600160a01b03929092169190911790555b8215156001036115d05761136e60608a0160408b016155dc565b1561138c57604051635435b28960e11b815260040160405180910390fd5b6007810182905560006113a560a08c0160808d016149e6565b6001600160a01b0316146115505760006113c560408c0160208d016149e6565b6040516370a0823160e01b81523060048201526001600160a01b0391909116906370a0823190602401602060405180830381865afa15801561140b573d6000803e3d6000fd5b505050506040513d601f19601f8201168201806040525081019061142f91906151f0565b905061144160a08c0160808d016149e6565b60405163e5e3f46560e01b81526001600160601b038b1660048201526001600160a01b03919091169063e5e3f46590602401600060405180830381600087803b15801561148d57600080fd5b505af11580156114a1573d6000803e3d6000fd5b5050505082816114b191906155f9565b6114c160408d0160208e016149e6565b6040516370a0823160e01b81523060048201526001600160a01b0391909116906370a0823190602401602060405180830381865afa158015611507573d6000803e3d6000fd5b505050506040513d601f19601f8201168201806040525081019061152b91906151f0565b101561154a57604051639c9d882360e01b815260040160405180910390fd5b506115d0565b73__$edb40677ae687b89a8312a1af66086cd07$__63bc0dbc9961157a60408d0160208e016149e6565b33308660016040518663ffffffff1660e01b815260040161159f95949392919061560c565b60006040518083038186803b1580156115b757600080fd5b505af41580156115cb573d6000803e3d6000fd5b505050505b6001600160c81b031986166001600160601b0389167f84b880d9e409391876717d471eb2c3cc52c3b2272ce9171f3a1340f2eba7b97961161660408e0160208f016149e6565b8d604001602081019061162991906149e6565b604080516001600160a01b0393841681529290911660208301520160405180910390a35050600160065550939695505050505050565b6001600160d81b031983166000908152600c6020526040812054819065ffffffffffff168415611709576001600160d81b031986166000908152600c6020526040902054600160301b900465ffffffffffff16620186a06116c08287615640565b6116ca919061566d565b935083620186a06116db8385615681565b6116ed9065ffffffffffff1688615640565b6116f7919061566d565b61170191906156a7565b92505061172c565b620186a061171f65ffffffffffff831686615640565b611729919061566d565b91505b50935093915050565b6000546060906001600160a01b031633146117625760405162461bcd60e51b81526004016105f69061516f565b6005805460ff19166001179055600061177a85613b45565b9050600080826001600160a01b031686866040516117999291906156ba565b6000604051808303816000865af19150503d80600081146117d6576040519150601f19603f3d011682016040523d82523d6000602084013e6117db565b606091505b5091509150816118005780604051635d94b9cd60e01b81526004016105f69190614c80565b6005805460ff191690559695505050505050565b60006006546001146118385760405162461bcd60e51b81526004016105f6906151cc565b6002600655815161184890613b9a565b81516001600160601b0316600090815260086020908152604080832081516101408101835281546001600160c81b031960c882811b821684526001600160a01b03600160381b9093048316968401969096526001840154821694830194909452600283015481166060830152600383015481166080830152600483015490811660a0830152600160a01b900490931b90911660c083015260058101805460e0840191906118f490615472565b80601f016020809104026020016040519081016040528092919081815260200182805461192090615472565b801561196d5780601f106119425761010080835404028352916020019161196d565b820191906000526020600020905b81548152906001019060200180831161195057829003601f168201915b5050509183525050600682015460ff161515602082015260079091015460409091015260a0808201518551918601519293506119ad929091903390613d05565b6119cc57604051632aaf132360e11b81523360048201526024016105f6565b60006119db846000015161219f565b6001600160a01b03166356ab110b8560000151338760200151886040015189606001518a608001516040518763ffffffff1660e01b8152600401611a24969594939291906156ca565b6020604051808303816000875af1158015611a43573d6000803e3d6000fd5b505050506040513d601f19601f82011682018060405250810190611a679190615720565b845160608087015190850151608086015160c0890151604051635c2fc75360e01b8152959650611b049573__$edb40677ae687b89a8312a1af66086cd07$__91635c2fc75391611aba9190600401614c80565b600060405180830381865af4158015611ad7573d6000803e3d6000fd5b505050506040513d6000823e601f3d908101601f19168201604052611aff9190810190615782565b613d99565b336001600160a01b0316816001600160601b031685600001516001600160601b03167fa2e7ed6065b3a19c5ea6dce1c2f7a8933195d54aa91cee19103be6655cc3bcf88760600151604051611b5b91815260200190565b60405180910390a460016006559392505050565b6001600160d81b031982166000908152600c602052604090205465ffffffffffff600160601b90910481169082161115611bbc576040516358d620b360e01b815260040160405180910390fd5b6001600160d81b0319919091166000908152600c602090815260408083203384526001019091529020805465ffffffffffff191665ffffffffffff909216919091179055565b6000546001600160a01b03163314611c2c5760405162461bcd60e51b81526004016105f69061516f565b611c3581613eac565b6000816001600160a01b031663d61735ca6040518163ffffffff1660e01b8152600401602060405180830381865afa158015611c75573d6000803e3d6000fd5b505050506040513d601f19601f82011682018060405250810190611c999190615232565b9050611ca481613ee2565b600080611cb083614048565b6001600160d81b031982166000908152600460205260409020805492945090925090611ce09060ff166001615821565b60ff168260ff1614611d09578282604051635820a91160e01b81526004016105f692919061583a565b805460ff191660ff8381169190911780835561010090041615611d3057805461ff00191681555b6001600160c81b03198416600090815260036020526040902080546001600160a01b0319166001600160a01b03871617905560ff821660001901611de05760018054808201825560009182527fb10e2d527612073b26eecdfd717e6a320cf44b4afac2b0732d9fcbe2b7fa0cf6600680830491909101805464ffffffffff929093066005026101000a9182021990921660d887901c919091021790556002805491611dda83615857565b91905055505b846001600160a01b031663ea6439146040518163ffffffff1660e01b8152600401600060405180830381600087803b158015611e1b57600080fd5b505af1158015611e2f573d6000803e3d6000fd5b50506040516001600160a01b038816925060ff851691506001600160d81b03198616907f9d59a7f92873a37532afecac87d9ae2e0571c04f7cfe13ace6f38209dd1acd1c90600090a45050505050565b60018181548110611e8f57600080fd5b9060005260206000209060069182820401919006600502915054906101000a900460d81b81565b600654600114611ed85760405162461bcd60e51b81526004016105f6906151cc565b6002600655611ee681613b9a565b6001600160601b03811660009081526008602052604090208054600160381b90046001600160a01b03163314611f31576040516319b1d90760e31b81523360048201526024016105f6565b611f3a8261219f565b60405163b04046df60e01b81526001600160601b03841660048201526001600160a01b03919091169063b04046df90602401600060405180830381600087803b158015611f8657600080fd5b505af1158015611f9a573d6000803e3d6000fd5b50505050600781015415612054576007808201546001600160601b03841660009081526008602052604080822090930181905560018401548454935163636c380360e01b8152929373__$edb40677ae687b89a8312a1af66086cd07$__9363636c380393612022936001600160a01b0390811693600160381b90041691879190600401615209565b60006040518083038186803b15801561203a57600080fd5b505af415801561204e573d6000803e3d6000fd5b50505050505b805460405160c89190911b6001600160c81b031916906001600160601b038416907f2c784826e62ed5cac07a5ebe66734ece0cdc7ee0559b21b59d1434a64e07ec8290600090a350506001600655565b60086020526000908152604090208054600182015460028301546003840154600485015460058601805460c887811b986001600160a01b03600160381b909904891698978816979687169695861695851694600160a01b900490911b92909161210c90615472565b80601f016020809104026020016040519081016040528092919081815260200182805461213890615472565b80156121855780601f1061215a57610100808354040283529160200191612185565b820191906000526020600020905b81548152906001019060200180831161216857829003601f168201915b505050506006830154600790930154919260ff169190508a565b60006121aa82613b9a565b6001600160601b0382166000908152600860205260409020546121cf9060c81b613b45565b92915050565b6006546001146121f75760405162461bcd60e51b81526004016105f6906151cc565b600260065561220581613b9a565b6001600160601b0381166000908152600860209081526040808320600990925282208154919290916122399060c81b613cf1565b82549091506001600160a01b03163314612268576040516319b1d90760e31b81523360048201526024016105f6565b8154600160a01b900460ff16156122925760405163baf3f0f760e01b815260040160405180910390fd5b600061229d8561219f565b604051630385592160e01b81526001600160601b03871660048201529091506001600160a01b03821690630385592190602401602060405180830381865afa1580156122ed573d6000803e3d6000fd5b505050506040513d601f19601f820116820180604052508101906123119190615455565b15156001036123335760405163baf3f0f760e01b815260040160405180910390fd5b6001600160d81b031982166000908152600c6020908152604080832033845260010190915281205465ffffffffffff169003612382576040516358d620b360e01b815260040160405180910390fd5b825460ff60a01b1916600160a01b1783556007840154156124c65760405163ace54da560e01b81526001600160601b038616600482015260009061241e90849033906001600160a01b0386169063ace54da590602401602060405180830381865afa1580156123f5573d6000803e3d6000fd5b505050506040513d601f19601f8201168201806040525081019061241991906151f0565b61412b565b90508085600701600082825461243491906155f9565b90915550506001850154855460405163bc0dbc9960e01b815273__$edb40677ae687b89a8312a1af66086cd07$__9263bc0dbc9992612494926001600160a01b0392831692600160381b909204909116903090879060009060040161560c565b60006040518083038186803b1580156124ac57600080fd5b505af41580156124c0573d6000803e3d6000fd5b50505050505b60405133906001600160601b038716907f0cbe7341c5c56a21e107668323c3c414bcd506f3615ea1115f86dd4df173691490600090a350506001600655505050565b600060065460011461252c5760405162461bcd60e51b81526004016105f6906151cc565b6002600655604082015161253f90613b9a565b604080830180516001600160601b031660009081526008602052919091206004810154915160c08501519192612583926001600160a01b0390911691903390613d05565b6125a257604051632aaf132360e11b81523360048201526024016105f6565b80546000906125e4906125b79060c81b613cf1565b6020860151845460028601546060890151600160381b9092046001600160a01b039081169291169061417d565b84606001516125f391906156a7565b90506060612604856040015161219f565b6001600160a01b03166376103c8f8660400151848860a001516040518463ffffffff1660e01b815260040161263b93929190615870565b6000604051808303816000875af115801561265a573d6000803e3d6000fd5b505050506040513d6000823e601f3d908101601f191682016040526126829190810190615898565b608087015191955091508410156126ac5760405163758342a760e01b815260040160405180910390fd5b60408581015160608701516002860154600387015460e08a01519451635c2fc75360e01b815261270e956001600160a01b03938416939092169173__$edb40677ae687b89a8312a1af66086cd07$__91635c2fc75391611aba91600401614c80565b82546002840154600385015461273d926001600160a01b03600160381b9091048116928692908216911661425b565b6040858101516001600160601b0316600090815260096020529081208054909190600160a01b900460ff16156127935784546127909061277f9060c81b613cf1565b83546001600160a01b03168861412b565b90505b60408701516128da90856127a7848a6155f9565b60408051610140810182528a546001600160c81b031960c882811b821684526001600160a01b03600160381b9093048316602085015260018e015483169484019490945260028d01548216606084015260038d01548216608084015260048d015491821660a0840152600160a01b90910490921b90911660c082015260058a0180548b9160e084019161283990615472565b80601f016020809104026020016040519081016040528092919081815260200182805461286590615472565b80156128b25780601f10612887576101008083540402835291602001916128b2565b820191906000526020600020905b81548152906001019060200180831161289557829003601f168201915b5050509183525050600682015460ff16151560208201526007909101546040909101526142e5565b60078501541561291557858560070154101561290957604051633a196e0960e21b815260040160405180910390fd5b60078501805487900390555b604080880151885182516101408101845288546001600160c81b031960c882811b821684526001600160a01b03600160381b9093048316602085015260018c015483169684019690965260028b01548216606084015260038b01548216608084015260048b015491821660a0840152600160a01b90910490941b90931660c0840152600588018054612a57948b9290918b9160e08401916129b590615472565b80601f01602080910402602001604051908101604052809291908181526020018280546129e190615472565b8015612a2e5780601f10612a0357610100808354040283529160200191612a2e565b820191906000526020600020905b815481529060010190602001808311612a1157829003601f168201915b5050509183525050600682015460ff1615156020820152600790910154604090910152876144d0565b8015612b3a57600785015415612a98578085600701541015612a8c57604051633a196e0960e21b815260040160405180910390fd5b60078501805482900390555b604080880151835482516101408101845288546001600160c81b031960c882811b82168452600160381b9092046001600160a01b03908116602085015260018c015481169684019690965260028b01548616606084015260038b01548616608084015260048b015480871660a0850152600160a01b900490911b1660c0820152600589018054612b3a95909316928692918b9160e0840191906129b590615472565b336001600160a01b031687604001516001600160601b03167f5c53cd94df0c7e2bcd10a80f475d04aef0e489425aff9687e49f92454b40401489602001518a606001518a604051612ba9939291906001600160a01b039390931683526020830191909152604082015260600190565b60405180910390a35050600160065550919392505050565b6000546001600160a01b03163314612beb5760405162461bcd60e51b81526004016105f69061516f565b620186a065ffffffffffff82161115612c17576040516358d620b360e01b815260040160405180910390fd5b6000826002811115612c2b57612c2b615195565b03612c65576001600160d81b031983166000908152600c60205260409020805465ffffffffffff191665ffffffffffff8316179055505050565b6001826002811115612c7957612c79615195565b03612cbf576001600160d81b031983166000908152600c6020526040902080546bffffffffffff0000000000001916600160301b65ffffffffffff841602179055505050565b6002826002811115612cd357612cd3615195565b03612d12576001600160d81b031983166000908152600c60205260409020805465ffffffffffff60601b1916600160601b65ffffffffffff8416021790555b505050565b6000546001600160a01b03163314612d415760405162461bcd60e51b81526004016105f69061516f565b6001600160d81b0319811660009081526004602052604090205460ff16612d805780600060405163def1560160e01b81526004016105f692919061583a565b6001600160d81b0319811660009081526004602052604090208054610100900460ff1615612dcd5760405163271614df60e21b81526001600160d81b0319831660048201526024016105f6565b805461ff0019166101001781556040516001600160d81b03198316907fa967d5160f4efeca6ce587658357cfe54cbe547c6945ddf21a06ac712216942a90600090a25050565b600654600114612e355760405162461bcd60e51b81526004016105f6906151cc565b6002600655336000818152600d602090815260408083206001600160a01b0386168452909152808220805490839055905163636c380360e01b81528493919273__$edb40677ae687b89a8312a1af66086cd07$__9263636c380392612ea292879291879190600401615209565b60006040518083038186803b158015612eba57600080fd5b505af4158015612ece573d6000803e3d6000fd5b505060016006555050505050565b6000546001600160a01b03163314612f065760405162461bcd60e51b81526004016105f69061516f565b600080546001600160a01b0319166001600160a01b0383169081178255604051909133917f8be0079c531659141344cd1fd0a4f28419497f9722a3daafe3b4186f6b6457e09190a350565b600654600114612f735760405162461bcd60e51b81526004016105f6906151cc565b6002600655612f8181613b9a565b6000612f8c8261219f565b60405163ace54da560e01b81526001600160601b03841660048201529091506000906001600160a01b0383169063ace54da590602401602060405180830381865afa158015612fdf573d6000803e3d6000fd5b505050506040513d601f19601f8201168201806040525081019061300391906151f0565b604051637dce9e5b60e11b81526001600160601b038516600482015290915060009081906001600160a01b0385169063fb9d3cb6906024016000604051808303816000875af115801561305a573d6000803e3d6000fd5b505050506040513d6000823e601f3d908101601f1916820160405261308291908101906158de565b6001600160601b0387166000908152600860205260408120835193955091935090918190869081835b828110156132565760008982815181106130c7576130c7615a43565b60200260200101516080015190506001846130e291906156a7565b821480156130ef57508281115b1561321f57828a838151811061310757613107615a43565b60209081029190910101516080015260008161312b85670de0b6b3a7640000615640565b613135919061566d565b61314790670de0b6b3a76400006156a7565b90506000670de0b6b3a7640000828d868151811061316757613167615a43565b60200260200101516060015161317d9190615640565b613187919061566d565b90508098508b848151811061319e5761319e615a43565b60200260200101516000015197508b84815181106131be576131be615a43565b6020026020010151606001518111156131ea57604051633a196e0960e21b815260040160405180910390fd5b808c85815181106131fd576131fd615a43565b6020026020010151606001818151039150818152505060009450505050613256565b8281111561324057604051633a196e0960e21b815260040160405180910390fd5b909103908061324e81615857565b9150506130ab565b50801561326a5761326781846156a7565b92505b505083546000906132a3906132819060c81b613cf1565b865460028801548a916001600160a01b03600160381b909104811691166147b3565b6001600160601b038d166000908152600960205260408120805492955093509150600160a01b900460ff16156132f95786546132f6906132e59060c81b613cf1565b83546001600160a01b03168661412b565b90505b6134668c8461330884886155f9565b8a604051806101400160405290816000820160009054906101000a900460c81b6001600160c81b0319166001600160c81b03191681526020016000820160079054906101000a90046001600160a01b03166001600160a01b03166001600160a01b031681526020016001820160009054906101000a90046001600160a01b03166001600160a01b03166001600160a01b031681526020016002820160009054906101000a90046001600160a01b03166001600160a01b03166001600160a01b031681526020016003820160009054906101000a90046001600160a01b03166001600160a01b03166001600160a01b031681526020016004820160009054906101000a90046001600160a01b03166001600160a01b03166001600160a01b031681526020016004820160149054906101000a900460c81b6001600160c81b0319166001600160c81b031916815260200160058201805461283990615472565b80156136c4576007870154156134a757808760070154101561349b57604051633a196e0960e21b815260040160405180910390fd5b60078701805482900390555b6136c48c8360000160009054906101000a90046001600160a01b0316838a604051806101400160405290816000820160009054906101000a900460c81b6001600160c81b0319166001600160c81b03191681526020016000820160079054906101000a90046001600160a01b03166001600160a01b03166001600160a01b031681526020016001820160009054906101000a90046001600160a01b03166001600160a01b03166001600160a01b031681526020016002820160009054906101000a90046001600160a01b03166001600160a01b03166001600160a01b031681526020016003820160009054906101000a90046001600160a01b03166001600160a01b03166001600160a01b031681526020016004820160009054906101000a90046001600160a01b03166001600160a01b03166001600160a01b031681526020016004820160149054906101000a900460c81b6001600160c81b0319166001600160c81b031916815260200160058201805461362290615472565b80601f016020809104026020016040519081016040528092919081815260200182805461364e90615472565b801561369b5780601f106136705761010080835404028352916020019161369b565b820191906000526020600020905b81548152906001019060200180831161367e57829003601f168201915b5050509183525050600682015460ff16151560208201526007909101546040909101528c6144d0565b505060078501548751899060005b818110156139895760008b82815181106136ee576136ee615a43565b602002602001015160800151905061391f8f8d848151811061371257613712615a43565b602002602001015160200151838d604051806101400160405290816000820160009054906101000a900460c81b6001600160c81b0319166001600160c81b03191681526020016000820160079054906101000a90046001600160a01b03166001600160a01b03166001600160a01b031681526020016001820160009054906101000a90046001600160a01b03166001600160a01b03166001600160a01b031681526020016002820160009054906101000a90046001600160a01b03166001600160a01b03166001600160a01b031681526020016003820160009054906101000a90046001600160a01b03166001600160a01b03166001600160a01b031681526020016004820160009054906101000a90046001600160a01b03166001600160a01b03166001600160a01b031681526020016004820160149054906101000a900460c81b6001600160c81b0319166001600160c81b031916815260200160058201805461387d90615472565b80601f01602080910402602001604051908101604052809291908181526020018280546138a990615472565b80156138f65780601f106138cb576101008083540402835291602001916138f6565b820191906000526020600020905b8154815290600101906020018083116138d957829003601f168201915b5050509183525050600682015460ff16151560208201526007909101546040909101528f6144d0565b8084101561394057604051633a196e0960e21b815260040160405180910390fd5b60078a0154938190039315613976578085101561397057604051633a196e0960e21b815260040160405180910390fd5b80850394505b508061398181615857565b9150506136d2565b508215613a24576000600789018190556001890154895460405163636c380360e01b815273__$edb40677ae687b89a8312a1af66086cd07$__9363636c3803936139ef936001600160a01b0391821693600160381b909104909116918991600401615209565b60006040518083038186803b158015613a0757600080fd5b505af4158015613a1b573d6000803e3d6000fd5b50505050613a36565b600788015415613a3657600060078901555b5050855460028701546003880154613a6793506001600160a01b03600160381b90930483169285928116911661425b565b600084118015613a7f57506001600160a01b03831615155b15613b0057600285015460405163636c380360e01b815273__$edb40677ae687b89a8312a1af66086cd07$__9163636c380391613acf916001600160a01b03169087908990600090600401615209565b60006040518083038186803b158015613ae757600080fd5b505af4158015613afb573d6000803e3d6000fd5b505050505b6040516001600160601b038b16907f5d4a6ac2287eaf5f22deb24e842c4668fd11d8f478a18cf2a37faa0bcebd31c690600090a2505060016006555050505050505050565b6001600160c81b031981166000908152600360205260408120546001600160a01b0316806121cf57600080613b7985614048565b91509150818160405163def1560160e01b81526004016105f692919061583a565b6007546001600160601b0390811690821610613bd457604051630d55bc2360e41b81526001600160601b03821660048201526024016105f6565b6001600160601b038116600090815260086020526040902054600160381b90046001600160a01b0316613c2557604051630d55bc2360e41b81526001600160601b03821660048201526024016105f6565b50565b6001600160d81b03198116600090815260046020908152604080832081518083019092525460ff8082168084526101009092041615159282019290925290613c885782600060405163def1560160e01b81526004016105f692919061583a565b806020015115613cb75760405163ae05d58960e01b81526001600160d81b0319841660048201526024016105f6565b6000613cc784836000015161493b565b6001600160c81b0319166000908152600360205260409020546001600160a01b0316949350505050565b600080613cfd83614048565b509392505050565b60006001600160a01b038516613d1d57506001613d91565b6040516324aad2b360e21b81526001600160a01b038616906392ab4acc90613d4d90879087908790600401615a59565b602060405180830381865afa158015613d6a573d6000803e3d6000fd5b505050506040513d601f19601f82011682018060405250810190613d8e9190615455565b90505b949350505050565b6001600160a01b03821615613e12576040516315750d0560e31b81526001600160601b0386166004820152602481018590526001600160a01b0383169063aba8682890604401600060405180830381600087803b158015613df957600080fd5b505af1158015613e0d573d6000803e3d6000fd5b505050505b604051628f1c9d60e61b815273__$edb40677ae687b89a8312a1af66086cd07$__906323c7274090613e759086907f000000000000000000000000000000000000000000000000000000000000000090339030908b908990600190600401615a8c565b60006040518083038186803b158015613e8d57600080fd5b505af4158015613ea1573d6000803e3d6000fd5b505050505050505050565b806001600160a01b03163b600003613c2557604051631bd1ba9d60e21b81526001600160a01b03821660048201526024016105f6565b8060005b6007811015614014576000828260078110613f0357613f03615a43565b1a60f81b90506002821015613f5f57600360fc1b6001600160f81b031982161080613f3b5750603960f81b6001600160f81b03198216115b15613f5a5783604051628b684360e31b81526004016105f6919061515a565b61400b565b6005821015613faf57604160f81b6001600160f81b031982161080613f3b5750602d60f91b6001600160f81b031982161115613f5a5783604051628b684360e31b81526004016105f6919061515a565b6001600160f81b0319811615801590613fec5750604160f81b6001600160f81b031982161080613fec5750602d60f91b6001600160f81b03198216115b1561400b5783604051628b684360e31b81526004016105f6919061515a565b50600101613ee6565b50600061402083614048565b9150508060ff16600003612d125782604051628b684360e31b81526004016105f6919061515a565b60008082600360fc1b6001600160f81b031982841a60f81b1610806140805750603960f81b8160001a60f81b6001600160f81b031916115b8061409e5750600360fc1b8160011a60f81b6001600160f81b031916105b806140bc5750603960f81b8160011a60f81b6001600160f81b031916115b156140db5783604051628b684360e31b81526004016105f6919061515a565b60006140ea603083831a615b0c565b6140f590600a615b25565b90506141066030600184901a615b0c565b6141109082615821565b60109290921b6001600160d81b031916959194509092505050565b6001600160d81b031983166000908152600c602090815260408083206001600160a01b0386168452600101909152812054620186a0906141739065ffffffffffff1684615640565b613d91919061566d565b600080806141b5886001600160a01b038916158015906141af5750876001600160a01b0316896001600160a01b031614155b8661165f565b909250905081156141fd576001600160a01b038088166000908152600d60209081526040808320938916835292905290812080548492906141f79084906155f9565b90915550505b801561424357600b546001600160a01b039081166000908152600d602090815260408083209389168352929052908120805483929061423d9084906155f9565b90915550505b61424d81836155f9565b925050505b95945050505050565b73__$edb40677ae687b89a8312a1af66086cd07$__63636c3803836001600160a01b0384161561428b578361428d565b865b8660006040518563ffffffff1660e01b81526004016142af9493929190615209565b60006040518083038186803b1580156142c757600080fd5b505af41580156142db573d6000803e3d6000fd5b5050505050505050565b6000816101200151116144ca57604081015160808201516001600160a01b031615614485576040516370a0823160e01b81523060048201526000906001600160a01b038316906370a0823190602401602060405180830381865afa158015614351573d6000803e3d6000fd5b505050506040513d601f19601f8201168201806040525081019061437591906151f0565b6080840151604051637c41fdaf60e11b81526001600160601b038916600482015260248101889052604481018790529192506001600160a01b03169063f883fb5e90606401600060405180830381600087803b1580156143d457600080fd5b505af11580156143e8573d6000803e3d6000fd5b5050505083816143f891906155f9565b6040516370a0823160e01b81523060048201526001600160a01b038416906370a0823190602401602060405180830381865afa15801561443c573d6000803e3d6000fd5b505050506040513d601f19601f8201168201806040525081019061446091906151f0565b101561447f57604051639c9d882360e01b815260040160405180910390fd5b506144c8565b602082015160405163bc0dbc9960e01b815273__$edb40677ae687b89a8312a1af66086cd07$__9163bc0dbc9991613e759185913090899060019060040161560c565b505b50505050565b60c082015160408301516001600160c81b0319821661455c5760405163636c380360e01b815273__$edb40677ae687b89a8312a1af66086cd07$__9063636c3803906145279084908a908a90600190600401615209565b60006040518083038186803b15801561453f57600080fd5b505af4158015614553573d6000803e3d6000fd5b50505050614727565b600061456783613b45565b60e086015186516001600160c81b03199081166000908152600a602090815260408083208985168452909152902054929350909160c81b9081161561462b5760006145b182613b45565b6040516333f1a81560e11b81529091506001600160a01b038216906367e3502a906145e2908a908790600401615b41565b600060405180830381865afa1580156145ff573d6000803e3d6000fd5b505050506040513d6000823e601f3d908101601f191682016040526146279190810190615b66565b9250505b60405163bd35547360e01b81526001600160a01b038086166004830152841660248201526044810189905273__$edb40677ae687b89a8312a1af66086cd07$__9063bd3554739060640160006040518083038186803b15801561468d57600080fd5b505af41580156146a1573d6000803e3d6000fd5b505050610100880151604051631c81b11f60e31b81526001600160a01b038616925063e40d88f8916146dd918d91899188918f91600401615b9a565b6060604051808303816000875af11580156146fc573d6000803e3d6000fd5b505050506040513d601f19601f820116820180604052508101906147209190615bdf565b5050505050505b60808401516001600160a01b0316156147aa576080840151604051634d420d8560e01b81526001600160601b0389166004820152602481018790526001600160a01b0390911690634d420d8590604401600060405180830381600087803b15801561479157600080fd5b505af11580156147a5573d6000803e3d6000fd5b505050505b50505050505050565b600080600080865190506000805b828110156148dc5760008982815181106147dd576147dd615a43565b602002602001015160400151905060008a83815181106147ff576147ff615a43565b602002602001015160600151905060008061484f8e60006001600160a01b0316866001600160a01b03161415801561484957508d6001600160a01b0316866001600160a01b031614155b8561165f565b90925090508115614897576001600160a01b038085166000908152600d60209081526040808320938f16835292905290812080548492906148919084906155f9565b90915550505b6148a181876155f9565b95506148ad81836155f9565b6148b7908a6155f9565b98506148c3838b6155f9565b99505050505080806148d490615857565b9150506147c1565b50801561492357600b546001600160a01b039081166000908152600d60209081526040808320938a168352929052908120805483929061491d9084906155f9565b90915550505b61492d84866156a7565b925050509450945094915050565b600080614949600a84615c18565b614954906030615821565b60f81b90506000614966600a85615c3a565b614971906030615821565b6040516001600160f81b0319808516602083015260f89290921b91821660218201526001600160d81b03198716602282015290915060270160405160208183030381529060405261425290615c5c565b6001600160a01b0381168114613c2557600080fd5b80356149e1816149c1565b919050565b6000602082840312156149f857600080fd5b8135614a03816149c1565b9392505050565b6001600160c81b031981168114613c2557600080fd5b600080600060608486031215614a3557600080fd5b8335614a4081614a0a565b92506020840135614a5081614a0a565b91506040840135614a6081614a0a565b809150509250925092565b6001600160601b0381168114613c2557600080fd5b80356149e181614a6b565b60008060408385031215614a9e57600080fd5b8235614aa981614a6b565b91506020830135614ab981614a6b565b809150509250929050565b80356001600160d81b0319811681146149e157600080fd5b600060208284031215614aee57600080fd5b614a0382614ac4565b60008060408385031215614b0a57600080fd5b82356001600160401b0380821115614b2157600080fd5b908401906101408287031215614b3657600080fd5b90925060208401359080821115614b4c57600080fd5b50830160a08186031215614ab957600080fd5b8015158114613c2557600080fd5b600080600060608486031215614b8257600080fd5b614b8b84614ac4565b92506020840135614b9b81614b5f565b929592945050506040919091013590565b600080600060408486031215614bc157600080fd5b8335614bcc81614a0a565b925060208401356001600160401b0380821115614be857600080fd5b818601915086601f830112614bfc57600080fd5b813581811115614c0b57600080fd5b876020828501011115614c1d57600080fd5b6020830194508093505050509250925092565b60005b83811015614c4b578181015183820152602001614c33565b50506000910152565b60008151808452614c6c816020860160208601614c30565b601f01601f19169290920160200192915050565b602081526000614a036020830184614c54565b634e487b7160e01b600052604160045260246000fd5b60405160e081016001600160401b0381118282101715614ccb57614ccb614c93565b60405290565b60405161010081016001600160401b0381118282101715614ccb57614ccb614c93565b60405160c081016001600160401b0381118282101715614ccb57614ccb614c93565b604051601f8201601f191681016001600160401b0381118282101715614d3e57614d3e614c93565b604052919050565b60006001600160401b03821115614d5f57614d5f614c93565b50601f01601f191660200190565b600082601f830112614d7e57600080fd5b8135614d91614d8c82614d46565b614d16565b818152846020838601011115614da657600080fd5b816020850160208301376000918101602001919091529392505050565b600060208284031215614dd557600080fd5b81356001600160401b0380821115614dec57600080fd5b9083019060e08286031215614e0057600080fd5b614e08614ca9565b614e1183614a80565b8152614e1f602084016149d6565b6020820152614e30604084016149d6565b604082015260608301356060820152608083013582811115614e5157600080fd5b614e5d87828601614d6d565b60808301525060a083013582811115614e7557600080fd5b614e8187828601614d6d565b60a08301525060c083013582811115614e9957600080fd5b614ea587828601614d6d565b60c08301525095945050505050565b65ffffffffffff81168114613c2557600080fd5b60008060408385031215614edb57600080fd5b614ee483614ac4565b91506020830135614ab981614eb4565b600060208284031215614f0657600080fd5b5035919050565b600060208284031215614f1f57600080fd5b8135614a0381614a6b565b6001600160c81b03198b811682526001600160a01b038b811660208401528a8116604084015289811660608401528881166080840152871660a0830152851660c082015261014060e08201819052600090614f8783820187614c54565b9415156101008401525050610120015298975050505050505050565b600060208284031215614fb557600080fd5b8135614a0381614a0a565b600060208284031215614fd257600080fd5b81356001600160401b0380821115614fe957600080fd5b908301906101008286031215614ffe57600080fd5b615006614cd1565b61500f836149d6565b815261501d602084016149d6565b602082015261502e60408401614a80565b6040820152606083013560608201526080830135608082015260a08301358281111561505957600080fd5b61506587828601614d6d565b60a08301525060c08301358281111561507d57600080fd5b61508987828601614d6d565b60c08301525060e0830135828111156150a157600080fd5b6150ad87828601614d6d565b60e08301525095945050505050565b6000806000606084860312156150d157600080fd5b6150da84614ac4565b92506020840135600381106150ee57600080fd5b91506040840135614a6081614eb4565b6000806040838503121561511157600080fd5b823561511c816149c1565b91506020830135614ab9816149c1565b6000806040838503121561513f57600080fd5b823561514a81614a0a565b91506020830135614ab981614a0a565b6001600160c81b031991909116815260200190565b6020808252600c908201526b15539055551213d49256915160a21b604082015260600190565b634e487b7160e01b600052602160045260246000fd5b6000602082840312156151bd57600080fd5b815160048110614a0357600080fd5b6020808252600a90820152695245454e5452414e435960b01b604082015260600190565b60006020828403121561520257600080fd5b5051919050565b6001600160a01b0394851681529290931660208301526040820152901515606082015260800190565b60006020828403121561524457600080fd5b8151614a0381614a0a565b60006020828403121561526157600080fd5b815160ff81168114614a0357600080fd5b634e487b7160e01b600052601160045260246000fd5b60006001600160601b038083168181036152a4576152a4615272565b6001019392505050565b81835281816020850137506000828201602090810191909152601f909101601f19169091010190565b6001600160601b038516815260806020820152600084356152f781614eb4565b65ffffffffffff908116608084015260208601359061531582614eb4565b1660a0830152604085013561532981614b5f565b151560c0830152606085013560e0830152608085013536869003601e1901811261535257600080fd5b85016020810190356001600160401b0381111561536e57600080fd5b80360382131561537d57600080fd5b60a0610100850152615394610120850182846152ae565b925050506153a7604083018560ff169052565b60ff83166060830152614252565b600080604083850312156153c857600080fd5b82516153d381614b5f565b6020939093015192949293505050565b6000808335601e198436030181126153fa57600080fd5b8301803591506001600160401b0382111561541457600080fd5b60200191503681900382131561542957600080fd5b9250929050565b6001600160a01b038416815260406020820181905260009061425290830184866152ae565b60006020828403121561546757600080fd5b8151614a0381614b5f565b600181811c9082168061548657607f821691505b6020821081036154a657634e487b7160e01b600052602260045260246000fd5b50919050565b601f821115612d1257600081815260208120601f850160051c810160208610156154d35750805b601f850160051c820191505b818110156154f2578281556001016154df565b505050505050565b6001600160401b0383111561551157615511614c93565b6155258361551f8354615472565b836154ac565b6000601f84116001811461555957600085156155415750838201355b600019600387901b1c1916600186901b1783556144c8565b600083815260209020601f19861690835b8281101561558a578685013582556020948501946001909201910161556a565b50868210156155a75760001960f88860031b161c19848701351681555b505060018560011b0183555050505050565b6001600160601b03841681526040602082015260006142526040830184866152ae565b6000602082840312156155ee57600080fd5b8135614a0381614b5f565b808201808211156121cf576121cf615272565b6001600160a01b03958616815293851660208501529190931660408301526060820192909252901515608082015260a00190565b80820281158282048414176121cf576121cf615272565b634e487b7160e01b600052601260045260246000fd5b60008261567c5761567c615657565b500490565b65ffffffffffff8181168382160190808211156156a0576156a0615272565b5092915050565b818103818111156121cf576121cf615272565b8183823760009101908152919050565b6001600160601b03871681526001600160a01b0386811660208301528581166040830152841660608201526080810183905260c060a0820181905260009061571490830184614c54565b98975050505050505050565b60006020828403121561573257600080fd5b8151614a0381614a6b565b600082601f83011261574e57600080fd5b815161575c614d8c82614d46565b81815284602083860101111561577157600080fd5b613d91826020830160208701614c30565b60006020828403121561579457600080fd5b81516001600160401b03808211156157ab57600080fd5b90830190606082860312156157bf57600080fd5b6040516060810181811083821117156157da576157da614c93565b60405282516157e881614eb4565b81526020838101519082015260408301518281111561580657600080fd5b6158128782860161573d565b60408301525095945050505050565b60ff81811683821601908111156121cf576121cf615272565b6001600160d81b031992909216825260ff16602082015260400190565b60006001820161586957615869615272565b5060010190565b6001600160601b03841681528260208201526060604082015260006142526060830184614c54565b600080604083850312156158ab57600080fd5b8251915060208301516001600160401b038111156158c857600080fd5b6158d48582860161573d565b9150509250929050565b600080604083850312156158f157600080fd5b82516001600160401b038082111561590857600080fd5b818501915085601f83011261591c57600080fd5b815160208282111561593057615930614c93565b8160051b61593f828201614d16565b928352848101820192828101908a85111561595957600080fd5b83870192505b84831015615a1c578251868111156159775760008081fd5b870160c0818d03601f190181131561598f5760008081fd5b615997614cf4565b868301516159a4816149c1565b815260408301516159b4816149c1565b818801526060838101516159c7816149c1565b806040840152506080808501518284015260a09150818501518184015250828401519250898311156159f95760008081fd5b615a078f898587010161573d565b9082015284525050918301919083019061595f565b9289015192975091945050505080821115615a3657600080fd5b506158d48582860161573d565b634e487b7160e01b600052603260045260246000fd5b6001600160601b03841681526001600160a01b038316602082015260606040820181905260009061425290830184614c54565b600060018060a01b03808a1683528089166020840152808816604084015280871660608401525084608083015260e060a083015265ffffffffffff84511660e0830152602084015161010083015260408401516060610120840152615af5610140840182614c54565b91505082151560c083015298975050505050505050565b60ff82811682821603908111156121cf576121cf615272565b60ff81811683821602908116908181146156a0576156a0615272565b604081526000615b546040830185614c54565b82810360208401526142528185614c54565b600060208284031215615b7857600080fd5b81516001600160401b03811115615b8e57600080fd5b613d918482850161573d565b6001600160a01b0386811682528516602082015260a060408201819052600090615bc690830186614c54565b6060830194909452509015156080909101529392505050565b600080600060608486031215615bf457600080fd5b835192506020840151615c06816149c1565b80925050604084015190509250925092565b600060ff831680615c2b57615c2b615657565b8060ff84160491505092915050565b600060ff831680615c4d57615c4d615657565b8060ff84160691505092915050565b805160208201516001600160c81b03198082169291906007831015615c8b5780818460070360031b1b83161693505b50505091905056fea2646970667358221220d674889f7245af5130ea40671675ed3580e96c0dde463333f4ac7ee7d0986cc464736f6c63430008130033",
        "linkReferences": {
            "src/lib/Transfer.sol": {
                "Transfer": [
                    {
                        "start": 2638,
                        "length": 20
                    },
                    {
                        "start": 5736,
                        "length": 20
                    },
                    {
                        "start": 7081,
                        "length": 20
                    },
                    {
                        "start": 8442,
                        "length": 20
                    },
                    {
                        "start": 9573,
                        "length": 20
                    },
                    {
                        "start": 10238,
                        "length": 20
                    },
                    {
                        "start": 12172,
                        "length": 20
                    },
                    {
                        "start": 15045,
                        "length": 20
                    },
                    {
                        "start": 15278,
                        "length": 20
                    },
                    {
                        "start": 16182,
                        "length": 20
                    },
                    {
                        "start": 17267,
                        "length": 20
                    },
                    {
                        "start": 17839,
                        "length": 20
                    },
                    {
                        "start": 17934,
                        "length": 20
                    },
                    {
                        "start": 18286,
                        "length": 20
                    }
                ]
            }
        }
    },
    "methodIdentifiers": {
        "auction((bytes5,address,address,address,address,address,bytes,bytes,bytes5,bytes),(uint48,uint48,bool,uint256,bytes))": "3eee0963",
        "bid((uint96,address,address,uint256,bytes,bytes,bytes))": "528c410d",
        "calculateQuoteFees(bytes5,bool,uint256)": "4bcbd88b",
        "cancel(uint96)": "8eae8235",
        "cancelBid(uint96,uint96)": "2e7cf756",
        "claimRewards(address)": "ef5cfb8c",
        "condensers(bytes7,bytes7)": "f4b26181",
        "curate(uint96)": "a782e524",
        "execOnModule(bytes7,bytes)": "50ab0489",
        "fees(bytes5)": "31d72d6b",
        "getModuleForId(uint96)": "a50076f7",
        "getModuleForVeecode(bytes7)": "9e55cba3",
        "getModuleStatus(bytes5)": "5bb27aab",
        "installModule(address)": "7eb1e761",
        "isExecOnModule()": "5c774ed7",
        "lotCounter()": "c4ce88fd",
        "lotCuration(uint96)": "a249a509",
        "lotRouting(uint96)": "9e2e003a",
        "modules(uint256)": "81b2248a",
        "modulesCount()": "f315aafe",
        "owner()": "8da5cb5b",
        "purchase((address,address,uint96,uint256,uint256,bytes,bytes,bytes))": "c1cf8c7f",
        "rewards(address,address)": "e70b9e27",
        "setCondenser(bytes7,bytes7,bytes7)": "20b15fe4",
        "setCuratorFee(bytes5,uint48)": "7249c0d5",
        "setFee(bytes5,uint8,uint48)": "c74c149b",
        "setProtocol(address)": "0a9d793d",
        "settle(uint96)": "fb9d3cb6",
        "sunsetModule(bytes5)": "c75519ba",
        "transferOwnership(address)": "f2fde38b"
    },
    "id": 30
}