{
  "abi": [
    {
      "type": "constructor",
      "inputs": [
        {
          "name": "owner_",
          "type": "address",
          "internalType": "address"
        },
        {
          "name": "protocol_",
          "type": "address",
          "internalType": "address"
        },
        {
          "name": "permit2_",
          "type": "address",
          "internalType": "address"
        }
      ],
      "stateMutability": "nonpayable"
    },
    {
      "type": "function",
      "name": "abort",
      "inputs": [
        {
          "name": "lotId_",
          "type": "uint96",
          "internalType": "uint96"
        }
      ],
      "outputs": [],
      "stateMutability": "nonpayable"
    },
    {
      "type": "function",
      "name": "auction",
      "inputs": [
        {
          "name": "routing_",
          "type": "tuple",
          "internalType": "struct IAuctionHouse.RoutingParams",
          "components": [
            {
              "name": "auctionType",
              "type": "bytes5",
              "internalType": "Keycode"
            },
            {
              "name": "baseToken",
              "type": "address",
              "internalType": "address"
            },
            {
              "name": "quoteToken",
              "type": "address",
              "internalType": "address"
            },
            {
              "name": "curator",
              "type": "address",
              "internalType": "address"
            },
            {
              "name": "callbacks",
              "type": "address",
              "internalType": "contract ICallback"
            },
            {
              "name": "callbackData",
              "type": "bytes",
              "internalType": "bytes"
            },
            {
              "name": "derivativeType",
              "type": "bytes5",
              "internalType": "Keycode"
            },
            {
              "name": "derivativeParams",
              "type": "bytes",
              "internalType": "bytes"
            },
            {
              "name": "wrapDerivative",
              "type": "bool",
              "internalType": "bool"
            }
          ]
        },
        {
          "name": "params_",
          "type": "tuple",
          "internalType": "struct IAuction.AuctionParams",
          "components": [
            {
              "name": "start",
              "type": "uint48",
              "internalType": "uint48"
            },
            {
              "name": "duration",
              "type": "uint48",
              "internalType": "uint48"
            },
            {
              "name": "capacityInQuote",
              "type": "bool",
              "internalType": "bool"
            },
            {
              "name": "capacity",
              "type": "uint256",
              "internalType": "uint256"
            },
            {
              "name": "implParams",
              "type": "bytes",
              "internalType": "bytes"
            }
          ]
        },
        {
          "name": "infoHash_",
          "type": "string",
          "internalType": "string"
        }
      ],
      "outputs": [
        {
          "name": "lotId",
          "type": "uint96",
          "internalType": "uint96"
        }
      ],
      "stateMutability": "nonpayable"
    },
    {
      "type": "function",
      "name": "bid",
      "inputs": [
        {
          "name": "params_",
          "type": "tuple",
          "internalType": "struct IBatchAuctionHouse.BidParams",
          "components": [
            {
              "name": "lotId",
              "type": "uint96",
              "internalType": "uint96"
            },
            {
              "name": "bidder",
              "type": "address",
              "internalType": "address"
            },
            {
              "name": "referrer",
              "type": "address",
              "internalType": "address"
            },
            {
              "name": "amount",
              "type": "uint256",
              "internalType": "uint256"
            },
            {
              "name": "auctionData",
              "type": "bytes",
              "internalType": "bytes"
            },
            {
              "name": "permit2Data",
              "type": "bytes",
              "internalType": "bytes"
            }
          ]
        },
        {
          "name": "callbackData_",
          "type": "bytes",
          "internalType": "bytes"
        }
      ],
      "outputs": [
        {
          "name": "bidId",
          "type": "uint64",
          "internalType": "uint64"
        }
      ],
      "stateMutability": "nonpayable"
    },
    {
      "type": "function",
      "name": "calculateQuoteFees",
      "inputs": [
        {
          "name": "protocolFee_",
          "type": "uint48",
          "internalType": "uint48"
        },
        {
          "name": "referrerFee_",
          "type": "uint48",
          "internalType": "uint48"
        },
        {
          "name": "hasReferrer_",
          "type": "bool",
          "internalType": "bool"
        },
        {
          "name": "amount_",
          "type": "uint256",
          "internalType": "uint256"
        }
      ],
      "outputs": [
        {
          "name": "toReferrer",
          "type": "uint256",
          "internalType": "uint256"
        },
        {
          "name": "toProtocol",
          "type": "uint256",
          "internalType": "uint256"
        }
      ],
      "stateMutability": "pure"
    },
    {
      "type": "function",
      "name": "cancel",
      "inputs": [
        {
          "name": "lotId_",
          "type": "uint96",
          "internalType": "uint96"
        },
        {
          "name": "callbackData_",
          "type": "bytes",
          "internalType": "bytes"
        }
      ],
      "outputs": [],
      "stateMutability": "nonpayable"
    },
    {
      "type": "function",
      "name": "claimBids",
      "inputs": [
        {
          "name": "lotId_",
          "type": "uint96",
          "internalType": "uint96"
        },
        {
          "name": "bidIds_",
          "type": "uint64[]",
          "internalType": "uint64[]"
        }
      ],
      "outputs": [],
      "stateMutability": "nonpayable"
    },
    {
      "type": "function",
      "name": "claimRewards",
      "inputs": [
        {
          "name": "token_",
          "type": "address",
          "internalType": "address"
        }
      ],
      "outputs": [],
      "stateMutability": "nonpayable"
    },
    {
      "type": "function",
      "name": "condensers",
      "inputs": [
        {
          "name": "auctionRef",
          "type": "bytes7",
          "internalType": "Veecode"
        },
        {
          "name": "derivativeRef",
          "type": "bytes7",
          "internalType": "Veecode"
        }
      ],
      "outputs": [
        {
          "name": "condenserRef",
          "type": "bytes7",
          "internalType": "Veecode"
        }
      ],
      "stateMutability": "view"
    },
    {
      "type": "function",
      "name": "curate",
      "inputs": [
        {
          "name": "lotId_",
          "type": "uint96",
          "internalType": "uint96"
        },
        {
          "name": "callbackData_",
          "type": "bytes",
          "internalType": "bytes"
        }
      ],
      "outputs": [],
      "stateMutability": "nonpayable"
    },
    {
      "type": "function",
      "name": "execOnModule",
      "inputs": [
        {
          "name": "veecode_",
          "type": "bytes7",
          "internalType": "Veecode"
        },
        {
          "name": "callData_",
          "type": "bytes",
          "internalType": "bytes"
        }
      ],
      "outputs": [
        {
          "name": "",
          "type": "bytes",
          "internalType": "bytes"
        }
      ],
      "stateMutability": "nonpayable"
    },
    {
      "type": "function",
      "name": "fees",
      "inputs": [
        {
          "name": "",
          "type": "bytes5",
          "internalType": "Keycode"
        }
      ],
      "outputs": [
        {
          "name": "protocol",
          "type": "uint48",
          "internalType": "uint48"
        },
        {
          "name": "referrer",
          "type": "uint48",
          "internalType": "uint48"
        },
        {
          "name": "maxCuratorFee",
          "type": "uint48",
          "internalType": "uint48"
        }
      ],
      "stateMutability": "view"
    },
    {
      "type": "function",
      "name": "getAuctionModuleForId",
      "inputs": [
        {
          "name": "lotId_",
          "type": "uint96",
          "internalType": "uint96"
        }
      ],
      "outputs": [
        {
          "name": "",
          "type": "address",
          "internalType": "contract IAuction"
        }
      ],
      "stateMutability": "view"
    },
    {
      "type": "function",
      "name": "getBatchModuleForId",
      "inputs": [
        {
          "name": "lotId_",
          "type": "uint96",
          "internalType": "uint96"
        }
      ],
      "outputs": [
        {
          "name": "",
          "type": "address",
          "internalType": "contract BatchAuctionModule"
        }
      ],
      "stateMutability": "view"
    },
    {
      "type": "function",
      "name": "getCuratorFee",
      "inputs": [
        {
          "name": "auctionType_",
          "type": "bytes5",
          "internalType": "Keycode"
        },
        {
          "name": "curator_",
          "type": "address",
          "internalType": "address"
        }
      ],
      "outputs": [
        {
          "name": "curatorFee",
          "type": "uint48",
          "internalType": "uint48"
        }
      ],
      "stateMutability": "view"
    },
    {
      "type": "function",
      "name": "getDerivativeModuleForId",
      "inputs": [
        {
          "name": "lotId_",
          "type": "uint96",
          "internalType": "uint96"
        }
      ],
      "outputs": [
        {
          "name": "",
          "type": "address",
          "internalType": "contract IDerivative"
        }
      ],
      "stateMutability": "view"
    },
    {
      "type": "function",
      "name": "getFees",
      "inputs": [
        {
          "name": "auctionType_",
          "type": "bytes5",
          "internalType": "Keycode"
        }
      ],
      "outputs": [
        {
          "name": "protocol",
          "type": "uint48",
          "internalType": "uint48"
        },
        {
          "name": "referrer",
          "type": "uint48",
          "internalType": "uint48"
        },
        {
          "name": "maxCuratorFee",
          "type": "uint48",
          "internalType": "uint48"
        }
      ],
      "stateMutability": "view"
    },
    {
      "type": "function",
      "name": "getModuleForVeecode",
      "inputs": [
        {
          "name": "",
          "type": "bytes7",
          "internalType": "Veecode"
        }
      ],
      "outputs": [
        {
          "name": "",
          "type": "address",
          "internalType": "contract Module"
        }
      ],
      "stateMutability": "view"
    },
    {
      "type": "function",
      "name": "getModuleStatus",
      "inputs": [
        {
          "name": "",
          "type": "bytes5",
          "internalType": "Keycode"
        }
      ],
      "outputs": [
        {
          "name": "latestVersion",
          "type": "uint8",
          "internalType": "uint8"
        },
        {
          "name": "sunset",
          "type": "bool",
          "internalType": "bool"
        }
      ],
      "stateMutability": "view"
    },
    {
      "type": "function",
      "name": "getProtocol",
      "inputs": [],
      "outputs": [
        {
          "name": "",
          "type": "address",
          "internalType": "address"
        }
      ],
      "stateMutability": "view"
    },
    {
      "type": "function",
      "name": "getRewards",
      "inputs": [
        {
          "name": "recipient_",
          "type": "address",
          "internalType": "address"
        },
        {
          "name": "token_",
          "type": "address",
          "internalType": "address"
        }
      ],
      "outputs": [
        {
          "name": "reward",
          "type": "uint256",
          "internalType": "uint256"
        }
      ],
      "stateMutability": "view"
    },
    {
      "type": "function",
      "name": "installModule",
      "inputs": [
        {
          "name": "newModule_",
          "type": "address",
          "internalType": "contract Module"
        }
      ],
      "outputs": [],
      "stateMutability": "nonpayable"
    },
    {
      "type": "function",
      "name": "isExecOnModule",
      "inputs": [],
      "outputs": [
        {
          "name": "",
          "type": "bool",
          "internalType": "bool"
        }
      ],
      "stateMutability": "view"
    },
    {
      "type": "function",
      "name": "lotCounter",
      "inputs": [],
      "outputs": [
        {
          "name": "",
          "type": "uint96",
          "internalType": "uint96"
        }
      ],
      "stateMutability": "view"
    },
    {
      "type": "function",
      "name": "lotFees",
      "inputs": [
        {
          "name": "lotId",
          "type": "uint96",
          "internalType": "uint96"
        }
      ],
      "outputs": [
        {
          "name": "curator",
          "type": "address",
          "internalType": "address"
        },
        {
          "name": "curated",
          "type": "bool",
          "internalType": "bool"
        },
        {
          "name": "curatorFee",
          "type": "uint48",
          "internalType": "uint48"
        },
        {
          "name": "protocolFee",
          "type": "uint48",
          "internalType": "uint48"
        },
        {
          "name": "referrerFee",
          "type": "uint48",
          "internalType": "uint48"
        }
      ],
      "stateMutability": "view"
    },
    {
      "type": "function",
      "name": "lotRouting",
      "inputs": [
        {
          "name": "lotId",
          "type": "uint96",
          "internalType": "uint96"
        }
      ],
      "outputs": [
        {
          "name": "seller",
          "type": "address",
          "internalType": "address"
        },
        {
          "name": "baseToken",
          "type": "address",
          "internalType": "address"
        },
        {
          "name": "quoteToken",
          "type": "address",
          "internalType": "address"
        },
        {
          "name": "auctionReference",
          "type": "bytes7",
          "internalType": "Veecode"
        },
        {
          "name": "funding",
          "type": "uint256",
          "internalType": "uint256"
        },
        {
          "name": "callbacks",
          "type": "address",
          "internalType": "contract ICallback"
        },
        {
          "name": "derivativeReference",
          "type": "bytes7",
          "internalType": "Veecode"
        },
        {
          "name": "wrapDerivative",
          "type": "bool",
          "internalType": "bool"
        },
        {
          "name": "derivativeParams",
          "type": "bytes",
          "internalType": "bytes"
        }
      ],
      "stateMutability": "view"
    },
    {
      "type": "function",
      "name": "modules",
      "inputs": [
        {
          "name": "",
          "type": "uint256",
          "internalType": "uint256"
        }
      ],
      "outputs": [
        {
          "name": "",
          "type": "bytes5",
          "internalType": "Keycode"
        }
      ],
      "stateMutability": "view"
    },
    {
      "type": "function",
      "name": "modulesCount",
      "inputs": [],
      "outputs": [
        {
          "name": "",
          "type": "uint256",
          "internalType": "uint256"
        }
      ],
      "stateMutability": "view"
    },
    {
      "type": "function",
      "name": "owner",
      "inputs": [],
      "outputs": [
        {
          "name": "",
          "type": "address",
          "internalType": "address"
        }
      ],
      "stateMutability": "view"
    },
    {
      "type": "function",
      "name": "refundBid",
      "inputs": [
        {
          "name": "lotId_",
          "type": "uint96",
          "internalType": "uint96"
        },
        {
          "name": "bidId_",
          "type": "uint64",
          "internalType": "uint64"
        },
        {
          "name": "index_",
          "type": "uint256",
          "internalType": "uint256"
        }
      ],
      "outputs": [],
      "stateMutability": "nonpayable"
    },
    {
      "type": "function",
      "name": "rewards",
      "inputs": [
        {
          "name": "",
          "type": "address",
          "internalType": "address"
        },
        {
          "name": "",
          "type": "address",
          "internalType": "contract ERC20"
        }
      ],
      "outputs": [
        {
          "name": "",
          "type": "uint256",
          "internalType": "uint256"
        }
      ],
      "stateMutability": "view"
    },
    {
      "type": "function",
      "name": "setCondenser",
      "inputs": [
        {
          "name": "auctionRef_",
          "type": "bytes7",
          "internalType": "Veecode"
        },
        {
          "name": "derivativeRef_",
          "type": "bytes7",
          "internalType": "Veecode"
        },
        {
          "name": "condenserRef_",
          "type": "bytes7",
          "internalType": "Veecode"
        }
      ],
      "outputs": [],
      "stateMutability": "nonpayable"
    },
    {
      "type": "function",
      "name": "setCuratorFee",
      "inputs": [
        {
          "name": "auctionType_",
          "type": "bytes5",
          "internalType": "Keycode"
        },
        {
          "name": "fee_",
          "type": "uint48",
          "internalType": "uint48"
        }
      ],
      "outputs": [],
      "stateMutability": "nonpayable"
    },
    {
      "type": "function",
      "name": "setFee",
      "inputs": [
        {
          "name": "auctionType_",
          "type": "bytes5",
          "internalType": "Keycode"
        },
        {
          "name": "type_",
          "type": "uint8",
          "internalType": "enum IFeeManager.FeeType"
        },
        {
          "name": "fee_",
          "type": "uint48",
          "internalType": "uint48"
        }
      ],
      "outputs": [],
      "stateMutability": "nonpayable"
    },
    {
      "type": "function",
      "name": "setProtocol",
      "inputs": [
        {
          "name": "protocol_",
          "type": "address",
          "internalType": "address"
        }
      ],
      "outputs": [],
      "stateMutability": "nonpayable"
    },
    {
      "type": "function",
      "name": "settle",
      "inputs": [
        {
          "name": "lotId_",
          "type": "uint96",
          "internalType": "uint96"
        },
        {
          "name": "num_",
          "type": "uint256",
          "internalType": "uint256"
        },
        {
          "name": "callbackData_",
          "type": "bytes",
          "internalType": "bytes"
        }
      ],
      "outputs": [
        {
          "name": "totalIn",
          "type": "uint256",
          "internalType": "uint256"
        },
        {
          "name": "totalOut",
          "type": "uint256",
          "internalType": "uint256"
        },
        {
          "name": "finished",
          "type": "bool",
          "internalType": "bool"
        },
        {
          "name": "auctionOutput",
          "type": "bytes",
          "internalType": "bytes"
        }
      ],
      "stateMutability": "nonpayable"
    },
    {
      "type": "function",
      "name": "sunsetModule",
      "inputs": [
        {
          "name": "keycode_",
          "type": "bytes5",
          "internalType": "Keycode"
        }
      ],
      "outputs": [],
      "stateMutability": "nonpayable"
    },
    {
      "type": "function",
      "name": "transferOwnership",
      "inputs": [
        {
          "name": "newOwner",
          "type": "address",
          "internalType": "address"
        }
      ],
      "outputs": [],
      "stateMutability": "nonpayable"
    },
    {
      "type": "event",
      "name": "Abort",
      "inputs": [
        {
          "name": "lotId",
          "type": "uint96",
          "indexed": true,
          "internalType": "uint96"
        }
      ],
      "anonymous": false
    },
    {
      "type": "event",
      "name": "AuctionCancelled",
      "inputs": [
        {
          "name": "lotId",
          "type": "uint96",
          "indexed": true,
          "internalType": "uint96"
        },
        {
          "name": "auctionRef",
          "type": "bytes7",
          "indexed": true,
          "internalType": "Veecode"
        }
      ],
      "anonymous": false
    },
    {
      "type": "event",
      "name": "AuctionCreated",
      "inputs": [
        {
          "name": "lotId",
          "type": "uint96",
          "indexed": true,
          "internalType": "uint96"
        },
        {
          "name": "auctionRef",
          "type": "bytes7",
          "indexed": true,
          "internalType": "Veecode"
        },
        {
          "name": "infoHash",
          "type": "string",
          "indexed": false,
          "internalType": "string"
        }
      ],
      "anonymous": false
    },
    {
      "type": "event",
      "name": "Bid",
      "inputs": [
        {
          "name": "lotId",
          "type": "uint96",
          "indexed": true,
          "internalType": "uint96"
        },
        {
          "name": "bidId",
          "type": "uint96",
          "indexed": true,
          "internalType": "uint96"
        },
        {
          "name": "bidder",
          "type": "address",
          "indexed": true,
          "internalType": "address"
        },
        {
          "name": "amount",
          "type": "uint256",
          "indexed": false,
          "internalType": "uint256"
        }
      ],
      "anonymous": false
    },
    {
      "type": "event",
      "name": "ClaimBid",
      "inputs": [
        {
          "name": "lotId",
          "type": "uint96",
          "indexed": true,
          "internalType": "uint96"
        },
        {
          "name": "bidId",
          "type": "uint96",
          "indexed": true,
          "internalType": "uint96"
        },
        {
          "name": "bidder",
          "type": "address",
          "indexed": true,
          "internalType": "address"
        }
      ],
      "anonymous": false
    },
    {
      "type": "event",
      "name": "Curated",
      "inputs": [
        {
          "name": "lotId",
          "type": "uint96",
          "indexed": true,
          "internalType": "uint96"
        },
        {
          "name": "curator",
          "type": "address",
          "indexed": true,
          "internalType": "address"
        }
      ],
      "anonymous": false
    },
    {
      "type": "event",
      "name": "ModuleInstalled",
      "inputs": [
        {
          "name": "keycode",
          "type": "bytes5",
          "indexed": true,
          "internalType": "Keycode"
        },
        {
          "name": "version",
          "type": "uint8",
          "indexed": true,
          "internalType": "uint8"
        },
        {
          "name": "location",
          "type": "address",
          "indexed": true,
          "internalType": "address"
        }
      ],
      "anonymous": false
    },
    {
      "type": "event",
      "name": "ModuleSunset",
      "inputs": [
        {
          "name": "keycode",
          "type": "bytes5",
          "indexed": true,
          "internalType": "Keycode"
        }
      ],
      "anonymous": false
    },
    {
      "type": "event",
      "name": "OwnershipTransferred",
      "inputs": [
        {
          "name": "user",
          "type": "address",
          "indexed": true,
          "internalType": "address"
        },
        {
          "name": "newOwner",
          "type": "address",
          "indexed": true,
          "internalType": "address"
        }
      ],
      "anonymous": false
    },
    {
      "type": "event",
      "name": "RefundBid",
      "inputs": [
        {
          "name": "lotId",
          "type": "uint96",
          "indexed": true,
          "internalType": "uint96"
        },
        {
          "name": "bidId",
          "type": "uint96",
          "indexed": true,
          "internalType": "uint96"
        },
        {
          "name": "bidder",
          "type": "address",
          "indexed": true,
          "internalType": "address"
        }
      ],
      "anonymous": false
    },
    {
      "type": "event",
      "name": "Settle",
      "inputs": [
        {
          "name": "lotId",
          "type": "uint96",
          "indexed": true,
          "internalType": "uint96"
        }
      ],
      "anonymous": false
    },
    {
      "type": "error",
      "name": "AmountLessThanMinimum",
      "inputs": []
    },
    {
      "type": "error",
      "name": "FailedCallback",
      "inputs": []
    },
    {
      "type": "error",
      "name": "InsufficientFunding",
      "inputs": []
    },
    {
      "type": "error",
      "name": "InvalidCallback",
      "inputs": []
    },
    {
      "type": "error",
      "name": "InvalidCallbackResponse",
      "inputs": []
    },
    {
      "type": "error",
      "name": "InvalidFee",
      "inputs": []
    },
    {
      "type": "error",
      "name": "InvalidLotId",
      "inputs": [
        {
          "name": "id_",
          "type": "uint96",
          "internalType": "uint96"
        }
      ]
    },
    {
      "type": "error",
      "name": "InvalidModuleInstall",
      "inputs": [
        {
          "name": "keycode_",
          "type": "bytes5",
          "internalType": "Keycode"
        },
        {
          "name": "version_",
          "type": "uint8",
          "internalType": "uint8"
        }
      ]
    },
    {
      "type": "error",
      "name": "InvalidParams",
      "inputs": []
    },
    {
      "type": "error",
      "name": "InvalidParams",
      "inputs": []
    },
    {
      "type": "error",
      "name": "InvalidState",
      "inputs": []
    },
    {
      "type": "error",
      "name": "InvalidVeecode",
      "inputs": [
        {
          "name": "veecode_",
          "type": "bytes7",
          "internalType": "Veecode"
        }
      ]
    },
    {
      "type": "error",
      "name": "ModuleAlreadySunset",
      "inputs": [
        {
          "name": "keycode_",
          "type": "bytes5",
          "internalType": "Keycode"
        }
      ]
    },
    {
      "type": "error",
      "name": "ModuleExecutionReverted",
      "inputs": [
        {
          "name": "error_",
          "type": "bytes",
          "internalType": "bytes"
        }
      ]
    },
    {
      "type": "error",
      "name": "ModuleIsSunset",
      "inputs": [
        {
          "name": "keycode_",
          "type": "bytes5",
          "internalType": "Keycode"
        }
      ]
    },
    {
      "type": "error",
      "name": "ModuleNotInstalled",
      "inputs": [
        {
          "name": "keycode_",
          "type": "bytes5",
          "internalType": "Keycode"
        },
        {
          "name": "version_",
          "type": "uint8",
          "internalType": "uint8"
        }
      ]
    },
    {
      "type": "error",
      "name": "NotPermitted",
      "inputs": [
        {
          "name": "caller_",
          "type": "address",
          "internalType": "address"
        }
      ]
    },
    {
      "type": "error",
      "name": "TargetNotAContract",
      "inputs": [
        {
          "name": "target_",
          "type": "address",
          "internalType": "address"
        }
      ]
    },
    {
      "type": "error",
      "name": "UnsupportedToken",
      "inputs": [
        {
          "name": "token_",
          "type": "address",
          "internalType": "address"
        }
      ]
    }
  ],
  "bytecode": {
    "object": "0x60a060405260016006553480156200001657600080fd5b5060405162005aea38038062005aea8339810160408190526200003991620000d8565b600080546001600160a01b0319166001600160a01b03851690811782556040518592859285928492869283929091907f8be0079c531659141344cd1fd0a4f28419497f9722a3daafe3b4186f6b6457e0908290a35050600780546001600160a01b0319166001600160a01b039283161790551660805250620001229350505050565b80516001600160a01b0381168114620000d357600080fd5b919050565b600080600060608486031215620000ee57600080fd5b620000f984620000bb565b92506200010960208501620000bb565b91506200011960408501620000bb565b90509250925092565b6080516159ac6200013e6000396000613a5c01526159ac6000f3fe608060405234801561001057600080fd5b50600436106102275760003560e01c8063779bcb9b11610130578063cf042fb0116100b8578063ef5cfb8c1161007c578063ef5cfb8c14610739578063f2fde38b1461074c578063f315aafe1461075f578063f4b2618114610768578063fc48ba55146107a357600080fd5b8063cf042fb0146105ec578063d16352af146105ff578063e70b9e2714610610578063e814b76a1461063b578063ea072e701461069f57600080fd5b80639e2e003a116100ff5780639e2e003a146105625780639e55cba31461058a578063c4ce88fd146105b3578063c74c149b146105c6578063c75519ba146105d957600080fd5b8063779bcb9b146104c95780637eb1e7611461051057806381b2248a146105235780638da5cb5b1461054f57600080fd5b80633bb7098a116101b35780635a3eb399116101825780635a3eb399146103fe5780635bb27aab146104295780635c774ed71461046e5780636e9c996d1461048b5780637249c0d5146104b657600080fd5b80633bb7098a146103a5578063505f901a146103b857806350ab0489146103cb578063510bd273146103eb57600080fd5b80631ed75f1f116101fa5780631ed75f1f146102f357806320b15fe41461030657806331d72d6b14610319578063367b02fb146103575780633ab3f98e1461037a57600080fd5b80630a35511b1461022c5780630a9d793d146102415780630ab9a1ee146102545780630bad843b146102cb575b600080fd5b61023f61023a36600461456c565b6107b6565b005b61023f61024f366004614611565b610b35565b61029d610262366004614646565b6001600160d81b03191660009081526008602052604090205465ffffffffffff80821692600160301b8304821692600160601b900490911690565b6040805165ffffffffffff948516815292841660208401529216918101919091526060015b60405180910390f35b6102de6102d9366004614683565b610b81565b604080519283526020830191909152016102c2565b61023f6103013660046146d4565b610bed565b61023f610314366004614705565b610e9f565b61029d610327366004614646565b60086020526000908152604090205465ffffffffffff80821691600160301b8104821691600160601b9091041683565b61036a610365366004614798565b6110ca565b6040516102c29493929190614841565b61038d6103883660046146d4565b6114f3565b6040516001600160a01b0390911681526020016102c2565b61038d6103b33660046146d4565b611504565b61023f6103c6366004614872565b611518565b6103de6103d93660046148c4565b611773565b6040516102c291906148e4565b61023f6103f936600461490c565b61184e565b61041161040c36600461494b565b611994565b6040516001600160601b0390911681526020016102c2565b610455610437366004614646565b60046020526000908152604090205460ff8082169161010090041682565b6040805160ff90931683529015156020830152016102c2565b60055461047b9060ff1681565b60405190151581526020016102c2565b61049e610499366004614ae7565b612389565b6040516001600160401b0390911681526020016102c2565b61023f6104c4366004614bd1565b612566565b6105026104d7366004614c08565b6001600160a01b03918216600090815260096020908152604080832093909416825291909152205490565b6040519081526020016102c2565b61023f61051e366004614611565b6125f9565b610536610531366004614c36565b612876565b6040516001600160d81b031990911681526020016102c2565b60005461038d906001600160a01b031681565b6105756105703660046146d4565b6128ad565b6040516102c299989796959493929190614c4f565b61038d610598366004614cc5565b6003602052600090815260409020546001600160a01b031681565b600a54610411906001600160601b031681565b61023f6105d4366004614ce2565b61299f565b61023f6105e7366004614646565b612af5565b61023f6105fa366004614872565b612bf1565b6007546001600160a01b031661038d565b61050261061e366004614c08565b600960209081526000928352604080842090915290825290205481565b610688610649366004614d24565b6001600160d81b0319821660009081526008602090815260408083206001600160a01b038516845260010190915290205465ffffffffffff1692915050565b60405165ffffffffffff90911681526020016102c2565b6106fa6106ad3660046146d4565b600c60205260009081526040902080546001909101546001600160a01b0382169160ff600160a01b8204169165ffffffffffff600160a81b90920482169181811691600160301b90041685565b604080516001600160a01b039096168652931515602086015265ffffffffffff928316938501939093528116606084015216608082015260a0016102c2565b61023f610747366004614611565b612d5e565b61023f61075a366004614611565b612dc9565b61050260025481565b610796610776366004614d40565b600d60209081526000928352604080842090915290825290205460c81b81565b6040516102c29190614d6e565b61038d6107b13660046146d4565b612e3e565b6006546001146107e15760405162461bcd60e51b81526004016107d890614d83565b60405180910390fd5b60026006556107ef83612e52565b6000806107fb856114f3565b6001600160a01b0316630a35511b8686866040518463ffffffff1660e01b815260040161082a93929190614da7565b6000604051808303816000875af1158015610849573d6000803e3d6000fd5b505050506040513d6000823e601f3d908101601f191682016040526108719190810190614e4d565b6001600160601b0387166000908152600b602090815260408083206002810154600c909352908320600101548551959750939550936001600160a01b039091169265ffffffffffff80821693600160301b9092041691905b81811015610b235760008882815181106108e5576108e5614f6d565b60200260200101519050600081606001511115610a8057610938858583602001518a60000160009054906101000a90046001600160a01b03168a866080015187604001516109339190614f99565b612e8f565b5060608181015160038901805482900390819055835160408051610120810182528c546001600160a01b03908116825260018e01548116602083015260028e015480821693830193909352600160a01b9283900460c890811b6001600160c81b031990811698840198909852608083019590955260048e015490811660a083015291820490931b90941660c0830152600160d81b90930460ff16151560e082015260058a018054610a80949392918c91610100840191906109f890614fac565b80601f0160208091040260200160405190810160405280929190818152602001828054610a2490614fac565b8015610a715780601f10610a4657610100808354040283529160200191610a71565b820191906000526020600020905b815481529060010190602001808311610a5457829003601f168201915b5050505050815250508b612f6d565b608081015115610a9f57610a9f86826000015183608001516000613100565b80516001600160a01b03168b8b84818110610abc57610abc614f6d565b9050602002016020810190610ad19190614fe6565b6001600160401b03168d6001600160601b03167f16c8bb5b68aee6acf37bdd28737b3728e2d041e98a4554f3522f6a7947448c0c60405160405180910390a45080610b1b81615003565b9150506108c9565b50506001600655505050505050505050565b6000546001600160a01b03163314610b5f5760405162461bcd60e51b81526004016107d89061501c565b600780546001600160a01b0319166001600160a01b0392909216919091179055565b6000808315610bd357610ba08365ffffffffffff8716620186a0613246565b915081610bc284610bb1888a615042565b65ffffffffffff16620186a0613246565b610bcc9190614f99565b9050610be4565b610be183610bb18789615042565b90505b94509492505050565b600654600114610c0f5760405162461bcd60e51b81526004016107d890614d83565b6002600655610c1d81612e52565b610c26816114f3565b604051631ed75f1f60e01b81526001600160601b03831660048201526001600160a01b039190911690631ed75f1f90602401600060405180830381600087803b158015610c7257600080fd5b505af1158015610c86573d6000803e3d6000fd5b505050506001600160601b0381166000908152600b6020526040812060038101549091819003610cc9576040516357e000b160e01b815260040160405180910390fd5b6000600383018190556001600160601b0384168152600b60205260409020600181015460048201549154610d19926001600160a01b0392831692610d11929181169116613264565b836000613100565b6001600160601b0383166000908152600b60205260409020600401546001600160a01b031615610e61576001600160601b0383166000908152600b60205260408120600401546352b2c64360e11b9085908490600160981b161515604051602001610d8f90602080825260009082015260400190565b60408051601f1981840301815290829052610daf94939291602401615068565b60408051601f19818403018152918152602080830180516001600160e01b03166001600160e01b0319909516949094179093526001600160601b0387166000908152600b909352918290206004015491519092506001600160a01b0390911690610e1a908390615098565b6000604051808303816000865af19150503d8060008114610e57576040519150601f19603f3d011682016040523d82523d6000602084013e610e5c565b606091505b505050505b6040516001600160601b038416907f16a4d2776546f16d2ecb9de112ea9b037ce1580dacdcf8013658630c66a921d990600090a25050600160065550565b6000546001600160a01b03163314610ec95760405162461bcd60e51b81526004016107d89061501c565b6000610ed48461327e565b6001600160a01b031663bb24fe8a6040518163ffffffff1660e01b8152600401602060405180830381865afa158015610f11573d6000803e3d6000fd5b505050506040513d601f19601f82011682018060405250810190610f3591906150ca565b6003811115610f4657610f466150b4565b141580610fce57506001610f598361327e565b6001600160a01b031663bb24fe8a6040518163ffffffff1660e01b8152600401602060405180830381865afa158015610f96573d6000803e3d6000fd5b505050506040513d601f19601f82011682018060405250810190610fba91906150ca565b6003811115610fcb57610fcb6150b4565b14155b8061106857506001600160c81b031981161580159061106857506002610ff38261327e565b6001600160a01b031663bb24fe8a6040518163ffffffff1660e01b8152600401602060405180830381865afa158015611030573d6000803e3d6000fd5b505050506040513d601f19601f8201168201806040525081019061105491906150ca565b6003811115611065576110656150b4565b14155b1561108657604051635435b28960e11b815260040160405180910390fd5b6001600160c81b03199283166000908152600d6020908152604080832094909516825292909252919020805466ffffffffffffff191660c89290921c919091179055565b600080600060606006546001146110f35760405162461bcd60e51b81526004016107d890614d83565b600260065561110188612e52565b60008061110d8a6114f3565b60405163cd280bdb60e01b81526001600160601b038c166004820152602481018b90529091506001600160a01b0382169063cd280bdb906044016000604051808303816000875af1158015611166573d6000803e3d6000fd5b505050506040513d6000823e601f3d908101601f1916820160405261118e91908101906150eb565b93995091975090955090935091508315156000036111ad5750506114e0565b506001600160601b0389166000908152600b60209081526040808320600c909252822060018101549192909181906111f99065ffffffffffff80821691600160301b900416838c610b81565b855460028701546004880154928d03955061122894506001600160a01b039182169350859290821691166132d3565b8154600090819061125390600160a01b810460ff1690600160a81b900465ffffffffffff168b6132f7565b90508015611405576004850154600160a01b900460c81b6001600160c81b031916156113b5578354604080516101208101825287546001600160a01b039081168252600189015481166020830152600289015480821693830193909352600160a01b9283900460c890811b6001600160c81b0319908116606085015260038b0154608085015260048b015480841660a086015294850490911b1660c0830152600160d81b90920460ff16151560e08201526005880180546113b09493909316928592918a916101008401919061132890614fac565b80601f016020809104026020016040519081016040528092919081815260200182805461135490614fac565b80156113a15780601f10611376576101008083540402835291602001916113a1565b820191906000526020600020905b81548152906001019060200180831161138457829003601f168201915b5050505050815250508a612f6d565b6113f9565b83546001600160a01b03908116600090815260096020908152604080832060018a0154909416835292905290812080548392906113f3908490615158565b90915550505b60038501805482900390555b835460009061142e90600160a01b810460ff1690600160a81b900465ffffffffffff16896132f7565b9050818161143c8c8a614f99565b6114469190615158565b6114509190614f99565b600387018054829003905560018701546004880154885492955061148a94506001600160a01b039182169350610d11929082169116613264565b60048401546114a6906001600160a01b03168e84848f8f613328565b6040516001600160601b038e16907f5d4a6ac2287eaf5f22deb24e842c4668fd11d8f478a18cf2a37faa0bcebd31c690600090a250505050505b6001600681905550945094509450949050565b60006114fe8261339a565b92915050565b600061150f82612e52565b6114fe8261339a565b60065460011461153a5760405162461bcd60e51b81526004016107d890614d83565b600260065561154883612e52565b6001600160601b0383166000908152600c6020526040902080546001600160a01b0316331461158c576040516319b1d90760e31b81523360048201526024016107d8565b60006115978561339a565b8254909150600160a01b900460ff16806116235750604051630385592160e01b81526001600160601b03861660048201526001600160a01b03821690630385592190602401602060405180830381865afa1580156115f9573d6000803e3d6000fd5b505050506040513d601f19601f8201168201806040525081019061161d919061516b565b15156001145b156116415760405163baf3f0f760e01b815260040160405180910390fd5b6001600160601b0385166000818152600b6020526040808220855460ff60a01b1916600160a01b908117808855925163ace54da560e01b8152600481019590955290936116fa9291820460ff169165ffffffffffff600160a81b90910416906001600160a01b0387169063ace54da590602401602060405180830381865afa1580156116d1573d6000803e3d6000fd5b505050506040513d601f19601f820116820180604052508101906116f59190615188565b6132f7565b9050600061170a888389896133c9565b90508061172e57600483015461172e906001600160a01b0316898460008b8b613583565b60405133906001600160601b038a16907f0cbe7341c5c56a21e107668323c3c414bcd506f3615ea1115f86dd4df173691490600090a350506001600655505050505050565b6000546060906001600160a01b031633146117a05760405162461bcd60e51b81526004016107d89061501c565b6005805460ff191660011790556000806117b98661327e565b6001600160a01b031685856040516117d29291906151a1565b6000604051808303816000865af19150503d806000811461180f576040519150601f19603f3d011682016040523d82523d6000602084013e611814565b606091505b5091509150816118395780604051635d94b9cd60e01b81526004016107d891906148e4565b6005805460ff191690559150505b9392505050565b6006546001146118705760405162461bcd60e51b81526004016107d890614d83565b600260065561187e83612e52565b6001600160601b0383166000908152600b6020526040902060020154611949906001600160a01b0316336118b1866114f3565b604051631f648d2f60e21b81526001600160601b03881660048201526001600160401b0387166024820152604481018690523360648201526001600160a01b039190911690637d9234bc906084016020604051808303816000875af115801561191e573d6000803e3d6000fd5b505050506040513d601f19601f820116820180604052508101906119429190615188565b6000613100565b60405133906001600160401b038416906001600160601b038616907fc5e25a727c1d2fa8b8cf2bd4f7a3ba0b6740aaee33d84a3132d47301844f361890600090a45050600160065550565b60006006546001146119b85760405162461bcd60e51b81526004016107d890614d83565b600260065560006119cf6040870160208801614611565b6001600160a01b031614806119fc575060006119f16060870160408801614611565b6001600160a01b0316145b15611a1a57604051635435b28960e11b815260040160405180910390fd5b600a80546001600160601b0316906000611a33836151b1565b82546101009290920a6001600160601b0381810219909316918316021790915581166000908152600b60209081526040918290208054336001600160a01b0319909116178155929350611a8a918801908801614611565b6001820180546001600160a01b0319166001600160a01b0392909216919091179055611abc6060870160408801614611565b6002820180546001600160a01b0319166001600160a01b03929092169190911790556000611af5611af06020890189614646565b6135b3565b905060008260010160009054906101000a90046001600160a01b03166001600160a01b031663313ce5676040518163ffffffff1660e01b8152600401602060405180830381865afa158015611b4e573d6000803e3d6000fd5b505050506040513d601f19601f82011682018060405250810190611b7291906151d7565b905060008360020160009054906101000a90046001600160a01b03166001600160a01b031663313ce5676040518163ffffffff1660e01b8152600401602060405180830381865afa158015611bcb573d6000803e3d6000fd5b505050506040513d601f19601f82011682018060405250810190611bef91906151d7565b90506000836001600160a01b031663bb24fe8a6040518163ffffffff1660e01b8152600401602060405180830381865afa158015611c31573d6000803e3d6000fd5b505050506040513d601f19601f82011682018060405250810190611c5591906150ca565b6003811115611c6657611c666150b4565b141580611c76575060068260ff16105b80611c84575060128260ff16115b80611c92575060068160ff16105b80611ca0575060128160ff16115b15611cbe57604051635435b28960e11b815260040160405180910390fd5b60405163bae96bdd60e01b81526001600160a01b0384169063bae96bdd90611cf09088908c9086908890600401615223565b600060405180830381600087803b158015611d0a57600080fd5b505af1158015611d1e573d6000803e3d6000fd5b50505050826001600160a01b031663d61735ca6040518163ffffffff1660e01b8152600401602060405180830381865afa158015611d60573d6000803e3d6000fd5b505050506040513d601f19601f82011682018060405250810190611d849190615305565b60028501805460c89290921c600160a01b0266ffffffffffffff60a01b199092169190911790555050506001600160601b0382166000908152600c60205260409020611dd66080880160608901614611565b81546001600160a81b0319166001600160a01b03919091161781556000600881611e0360208b018b614646565b6001600160d81b0319168152602081019190915260400160009081208054909250600160601b900465ffffffffffff16906001830181611e4960808d0160608e01614611565b6001600160a01b0316815260208101919091526040016000205465ffffffffffff908116915082168111611e7d5780611e7f565b815b845465ffffffffffff60a81b1916600160a81b65ffffffffffff9283160217855583546001909501805495821665ffffffffffff1987168117825594546bffffffffffffffffffffffff19909616909417600160301b95869004909116909402939093179091555060009050611f01611efe60e0890160c08a01614646565b90565b6001600160d81b03191614612121576000611f25611af060e0890160c08a01614646565b90506001816001600160a01b031663bb24fe8a6040518163ffffffff1660e01b8152600401602060405180830381865afa158015611f67573d6000803e3d6000fd5b505050506040513d601f19601f82011682018060405250810190611f8b91906150ca565b6003811115611f9c57611f9c6150b4565b14158061202a575060018201546001600160a01b038083169163caf927859116611fc960e08b018b615322565b6040518463ffffffff1660e01b8152600401611fe793929190615368565b602060405180830381865afa158015612004573d6000803e3d6000fd5b505050506040513d601f19601f82011682018060405250810190612028919061516b565b155b1561204857604051635435b28960e11b815260040160405180910390fd5b806001600160a01b031663d61735ca6040518163ffffffff1660e01b8152600401602060405180830381865afa158015612086573d6000803e3d6000fd5b505050506040513d601f19601f820116820180604052508101906120aa9190615305565b60048301805460c89290921c600160a01b0266ffffffffffffff60a01b199092169190911790556120de60e0880188615322565b60058401916120ee9190836153d3565b5061210161012088016101008901615492565b600483018054911515600160d81b0260ff60d81b19909216919091179055505b60028101546001600160c81b0319600160a01b9182900460c890811b82166000908152600d60209081526040808320600488015496909604841b85168352949052929092205490911b9081161561226d57600261217d8261327e565b6001600160a01b031663bb24fe8a6040518163ffffffff1660e01b8152600401602060405180830381865afa1580156121ba573d6000803e3d6000fd5b505050506040513d601f19601f820116820180604052508101906121de91906150ca565b60038111156121ef576121ef6150b4565b1461220d57604051635435b28960e11b815260040160405180910390fd5b60006122188261367c565b6001600160d81b03198116600090815260046020526040902054909150610100900460ff16151560010361226b5760405163ae05d58960e01b81526001600160d81b0319821660048201526024016107d8565b505b5061228661228160a0880160808901614611565b613690565b6122a357604051635435b28960e11b815260040160405180910390fd5b60006122b560a0880160808901614611565b6001600160a01b0316146122f6576122d360a0870160808801614611565b6004820180546001600160a01b0319166001600160a01b03929092169190911790555b60006123038388886136fd565b90508061231b5761231b87848860600135600061397e565b8160020160149054906101000a900460c81b6001600160c81b031916836001600160601b03167f7cbd7aa1f47e4f995e92547da29ca023e5fad4db6922fcaa352efa004066491f87876040516123729291906154af565b60405180910390a350506001600655949350505050565b60006006546001146123ad5760405162461bcd60e51b81526004016107d890614d83565b600260065583516123bd90612e52565b60208401516000906001600160a01b0316156123dd5784602001516123df565b335b90506123ee85600001516114f3565b6001600160a01b03166387698a31866000015183886040015189606001518a608001516040518663ffffffff1660e01b81526004016124319594939291906154c3565b6020604051808303816000875af1158015612450573d6000803e3d6000fd5b505050506040513d601f19601f820116820180604052508101906124749190615510565b606086015186516001600160601b03166000908152600b602052604090206002015460a08801519294506124bc926001600160a01b03909116906124b7906139cd565b613a56565b84516001600160601b03166000908152600b6020526040902060040154855160608701516124fa926001600160a01b03169190859085908989613a86565b806001600160a01b0316826001600160401b031686600001516001600160601b03167fa2e7ed6065b3a19c5ea6dce1c2f7a8933195d54aa91cee19103be6655cc3bcf8886060015160405161255191815260200190565b60405180910390a45060016006559392505050565b6001600160d81b0319821660009081526008602052604090205465ffffffffffff600160601b909104811690821611156125b3576040516358d620b360e01b815260040160405180910390fd5b6001600160d81b03199190911660009081526008602090815260408083203384526001019091529020805465ffffffffffff191665ffffffffffff909216919091179055565b6000546001600160a01b031633146126235760405162461bcd60e51b81526004016107d89061501c565b61262c81613b03565b6000816001600160a01b031663d61735ca6040518163ffffffff1660e01b8152600401602060405180830381865afa15801561266c573d6000803e3d6000fd5b505050506040513d601f19601f820116820180604052508101906126909190615305565b905061269b81613b39565b6000806126a783613c9f565b6001600160d81b0319821660009081526004602052604090208054929450909250906126d79060ff16600161552d565b60ff168260ff1614612700578282604051635820a91160e01b81526004016107d8929190615546565b805460ff191660ff838116919091178083556101009004161561272757805461ff00191681555b6001600160c81b03198416600090815260036020526040902080546001600160a01b0319166001600160a01b03871617905560ff8216600019016127d75760018054808201825560009182527fb10e2d527612073b26eecdfd717e6a320cf44b4afac2b0732d9fcbe2b7fa0cf6600680830491909101805464ffffffffff929093066005026101000a9182021990921660d887901c9190910217905560028054916127d183615003565b91905055505b846001600160a01b031663ea6439146040518163ffffffff1660e01b8152600401600060405180830381600087803b15801561281257600080fd5b505af1158015612826573d6000803e3d6000fd5b50506040516001600160a01b038816925060ff851691506001600160d81b03198616907f9d59a7f92873a37532afecac87d9ae2e0571c04f7cfe13ace6f38209dd1acd1c90600090a45050505050565b6001818154811061288657600080fd5b9060005260206000209060069182820401919006600502915054906101000a900460d81b81565b600b602052600090815260409020805460018201546002830154600384015460048501546005860180546001600160a01b03968716979587169680861696600160a01b9687900460c890811b9792861695928304901b93600160d81b90920460ff169290919061291c90614fac565b80601f016020809104026020016040519081016040528092919081815260200182805461294890614fac565b80156129955780601f1061296a57610100808354040283529160200191612995565b820191906000526020600020905b81548152906001019060200180831161297857829003601f168201915b5050505050905089565b6000546001600160a01b031633146129c95760405162461bcd60e51b81526004016107d89061501c565b620186a065ffffffffffff821611156129f5576040516358d620b360e01b815260040160405180910390fd5b6000826002811115612a0957612a096150b4565b03612a43576001600160d81b031983166000908152600860205260409020805465ffffffffffff191665ffffffffffff8316179055505050565b6001826002811115612a5757612a576150b4565b03612a9d576001600160d81b03198316600090815260086020526040902080546bffffffffffff0000000000001916600160301b65ffffffffffff841602179055505050565b6002826002811115612ab157612ab16150b4565b03612af0576001600160d81b031983166000908152600860205260409020805465ffffffffffff60601b1916600160601b65ffffffffffff8416021790555b505050565b6000546001600160a01b03163314612b1f5760405162461bcd60e51b81526004016107d89061501c565b6001600160d81b0319811660009081526004602052604090205460ff16612b5e5780600060405163def1560160e01b81526004016107d8929190615546565b6001600160d81b0319811660009081526004602052604090208054610100900460ff1615612bab5760405163271614df60e21b81526001600160d81b0319831660048201526024016107d8565b805461ff0019166101001781556040516001600160d81b03198316907fa967d5160f4efeca6ce587658357cfe54cbe547c6945ddf21a06ac712216942a90600090a25050565b600654600114612c135760405162461bcd60e51b81526004016107d890614d83565b6002600655612c2183612e52565b6001600160601b0383166000908152600b6020526040902080546001600160a01b03163314612c65576040516319b1d90760e31b81523360048201526024016107d8565b612c6e8461339a565b60405163b04046df60e01b81526001600160601b03861660048201526001600160a01b03919091169063b04046df90602401600060405180830381600087803b158015612cba57600080fd5b505af1158015612cce573d6000803e3d6000fd5b505050506000612cdf858585613d82565b905080612d03576004820154612d03906001600160a01b0316866000808888613df1565b6002820154604051600160a01b90910460c81b6001600160c81b031916906001600160601b038716907f2c784826e62ed5cac07a5ebe66734ece0cdc7ee0559b21b59d1434a64e07ec8290600090a350506001600655505050565b600654600114612d805760405162461bcd60e51b81526004016107d890614d83565b60026006553360008181526009602090815260408083206001600160a01b0386168452909152812080549082905583929091612dbf9184918490613100565b5050600160065550565b6000546001600160a01b03163314612df35760405162461bcd60e51b81526004016107d89061501c565b600080546001600160a01b0319166001600160a01b0383169081178255604051909133917f8be0079c531659141344cd1fd0a4f28419497f9722a3daafe3b4186f6b6457e09190a350565b6000612e4982612e52565b6114fe82613e21565b600a546001600160601b0390811690821610612e8c57604051630d55bc2360e41b81526001600160601b03821660048201526024016107d8565b50565b60008080612ec889896001600160a01b038a1615801590612ec25750886001600160a01b03168a6001600160a01b031614155b87610b81565b90925090508115612f10576001600160a01b03808816600090815260096020908152604080832093891683529290529081208054849290612f0a908490615158565b90915550505b8015612f56576007546001600160a01b03908116600090815260096020908152604080832093891683529290529081208054839290612f50908490615158565b90915550505b612f608183615158565b9998505050505050505050565b60c082015160208301516001600160c81b03198216612f9857612f938187876001613100565b6130f8565b6000612fa38361327e565b61010086015160608701516001600160c81b03199081166000908152600d602090815260408083208985168452909152902054929350909160c81b9081161561306b576000612ff18261327e565b6040516333f1a81560e11b81529091506001600160a01b038216906367e3502a90613022908a908790600401615563565b600060405180830381865afa15801561303f573d6000803e3d6000fd5b505050506040513d6000823e601f3d908101601f191682016040526130679190810190615588565b9250505b61307684848a613e50565b60e0870151604051631c81b11f60e31b81526001600160a01b0385169163e40d88f8916130ae918d91899188918f91906004016155bc565b6060604051808303816000875af11580156130cd573d6000803e3d6000fd5b505050506040513d601f19601f820116820180604052508101906130f19190615601565b5050505050505b505050505050565b6000811515600103613179576040516370a0823160e01b81526001600160a01b0385811660048301528616906370a0823190602401602060405180830381865afa158015613152573d6000803e3d6000fd5b505050506040513d601f19601f820116820180604052508101906131769190615188565b90505b8215613193576131936001600160a01b0386168585613e64565b600182151514801561321657506131aa8382615158565b6040516370a0823160e01b81526001600160a01b0386811660048301528716906370a0823190602401602060405180830381865afa1580156131f0573d6000803e3d6000fd5b505050506040513d601f19601f820116820180604052508101906132149190615188565b105b1561323f57604051635f8b555b60e11b81526001600160a01b03861660048201526024016107d8565b5050505050565b600082600019048411830215820261325d57600080fd5b5091020490565b6000600160981b83166132775781611847565b5090919050565b6001600160c81b031981166000908152600360205260408120546001600160a01b0316806114fe576000806132b285613c9f565b91509150818160405163def1560160e01b81526004016107d8929190615546565b6000600160991b82166132e657846132e8565b815b905061323f8382866000613100565b6000831515810361330a57506000611847565b6133208265ffffffffffff8516620186a0613246565b949350505050565b6001609a1b8616156130f8576130f863a5b13f6960e01b868686868660405160240161335895949392919061563a565b60408051601f198184030181529190526020810180516001600160e01b03166001600160e01b0319909316929092179091526001600160a01b03881690613ee5565b6001600160601b0381166000908152600b60205260408120600201546114fe90600160a01b900460c81b61327e565b6001600160601b0384166000908152600b6020526040812060038101805486919084906133f7908490615158565b9091555050600181015460048201546001600160a01b0390911690600160981b161561353f576040516370a0823160e01b81523060048201526000906001600160a01b038316906370a0823190602401602060405180830381865afa158015613464573d6000803e3d6000fd5b505050506040513d601f19601f820116820180604052508101906134889190615188565b60048401549091506134a8906001600160a01b0316898960018a8a613583565b6134b28782615158565b6040516370a0823160e01b81523060048201526001600160a01b038416906370a0823190602401602060405180830381865afa1580156134f6573d6000803e3d6000fd5b505050506040513d601f19601f8201168201806040525081019061351a9190615188565b10156135395760405163f7a632f560e01b815260040160405180910390fd5b50613576565b81546135599082906001600160a01b031630896000613fa3565b6004820154613576906001600160a01b0316888860008989613583565b5060019695505050505050565b6001609d1b8616156130f8576130f86309b9601c60e01b8686868686604051602401613358959493929190615669565b6001600160d81b03198116600090815260046020908152604080832081518083019092525460ff80821680845261010090920416151592820192909252906136135782600060405163def1560160e01b81526004016107d8929190615546565b8060200151156136425760405163ae05d58960e01b81526001600160d81b0319841660048201526024016107d8565b60006136528483600001516140e3565b6001600160c81b0319166000908152600360205260409020546001600160a01b0316949350505050565b60008061368883613c9f565b509392505050565b6000600160981b8216151580156136b957506001609f1b821615806136b957506001609d1b8216155b80156136c957506001609c1b8216155b156136d657506000919050565b6001600160a01b03821615806114fe575050600160991b6001600160a01b03909116101590565b600080613710611af06020860186614646565b90506001816001600160a01b031663994595e16040518163ffffffff1660e01b8152600401602060405180830381865afa158015613752573d6000803e3d6000fd5b505050506040513d601f19601f82011682018060405250810190613776919061569a565b6001811115613787576137876150b4565b146137a557604051635435b28960e11b815260040160405180910390fd5b6137b56060840160408501615492565b156137d357604051635435b28960e11b815260040160405180910390fd5b6001600160601b0385166000908152600b60209081526040808320606087013560039091015561380891908701908701614611565b9050613831600160981b61382260a0880160808901614611565b166001600160a01b0316151590565b1561394f576040516370a0823160e01b81523060048201526000906001600160a01b038316906370a0823190602401602060405180830381865afa15801561387d573d6000803e3d6000fd5b505050506040513d601f19601f820116820180604052508101906138a19190615188565b90506138b486888760600135600161397e565b6138c2606086013582615158565b6040516370a0823160e01b81523060048201526001600160a01b038416906370a0823190602401602060405180830381865afa158015613906573d6000803e3d6000fd5b505050506040513d601f19601f8201168201806040525081019061392a9190615188565b10156139495760405163f7a632f560e01b815260040160405180910390fd5b50613972565b61396181333087606001356001613fa3565b61397285878660600135600061397e565b50600195945050505050565b6139c761399160a0860160808701614611565b84336139a36040890160208a01614611565b6139b360608a0160408b01614611565b87876139c260a08d018d615322565b614172565b50505050565b604080516060808201835260008083526020830152918101919091528151600003613a1f5750506040805160608101825260008082526020808301829052835190810184529081529181019190915290565b610100825114613a4257604051635435b28960e11b815260040160405180910390fd5b818060200190518101906114fe91906156bb565b612af0827f00000000000000000000000000000000000000000000000000000000000000003330878660016141f5565b6001609b1b871615613afa57613afa63b898895e60e01b878787878787604051602401613ab89695949392919061575a565b60408051601f198184030181529190526020810180516001600160e01b03166001600160e01b0319909316929092179091526001600160a01b03891690613ee5565b50505050505050565b806001600160a01b03163b600003612e8c57604051631bd1ba9d60e21b81526001600160a01b03821660048201526024016107d8565b8060005b6007811015613c6b576000828260078110613b5a57613b5a614f6d565b1a60f81b90506002821015613bb657600360fc1b6001600160f81b031982161080613b925750603960f81b6001600160f81b03198216115b15613bb15783604051628b684360e31b81526004016107d89190614d6e565b613c62565b6005821015613c0657604160f81b6001600160f81b031982161080613b925750602d60f91b6001600160f81b031982161115613bb15783604051628b684360e31b81526004016107d89190614d6e565b6001600160f81b0319811615801590613c435750604160f81b6001600160f81b031982161080613c435750602d60f91b6001600160f81b03198216115b15613c625783604051628b684360e31b81526004016107d89190614d6e565b50600101613b3d565b506000613c7783613c9f565b9150508060ff16600003612af05782604051628b684360e31b81526004016107d89190614d6e565b60008082600360fc1b6001600160f81b031982841a60f81b161080613cd75750603960f81b8160001a60f81b6001600160f81b031916115b80613cf55750600360fc1b8160011a60f81b6001600160f81b031916105b80613d135750603960f81b8160011a60f81b6001600160f81b031916115b15613d325783604051628b684360e31b81526004016107d89190614d6e565b6000613d41603083831a6157ac565b613d4c90600a6157c5565b9050613d5d6030600184901a6157ac565b613d67908261552d565b60109290921b6001600160d81b031916959194509092505050565b6001600160601b0383166000908152600b6020526040812060038101805490839055600182015460048301548354613dce926001600160a01b0390811692610d11929082169116613264565b6004820154613972906001600160a01b0381169088908490600160981b16151589895b6001609e1b8616156130f8576130f863a5658c8660e01b8686868686604051602401613358959493929190615669565b6001600160601b0381166000908152600b60205260408120600401546114fe90600160a01b900460c81b61327e565b612af06001600160a01b0384168383614238565b600060405163a9059cbb60e01b81526001600160a01b0384166004820152826024820152602060006044836000895af13d15601f3d11600160005114161716915050806139c75760405162461bcd60e51b815260206004820152600f60248201526e1514905394d1915497d19052531151608a1b60448201526064016107d8565b600060208201519050600080846001600160a01b031684604051613f099190615098565b6000604051808303816000865af19150503d8060008114613f46576040519150601f19603f3d011682016040523d82523d6000602084013e613f4b565b606091505b509150915081613f5e57613f5e816142b8565b600081806020019051810190613f7491906157e1565b90506001600160e01b0319808216908516146130f85760405163d1c96d5f60e01b815260040160405180910390fd5b600081151560010361401c576040516370a0823160e01b81526001600160a01b0385811660048301528716906370a0823190602401602060405180830381865afa158015613ff5573d6000803e3d6000fd5b505050506040513d601f19601f820116820180604052508101906140199190615188565b90505b8215614037576140376001600160a01b0387168686866142e0565b60018215151480156140ba575061404e8382615158565b6040516370a0823160e01b81526001600160a01b0386811660048301528816906370a0823190602401602060405180830381865afa158015614094573d6000803e3d6000fd5b505050506040513d601f19601f820116820180604052508101906140b89190615188565b105b156130f857604051635f8b555b60e11b81526001600160a01b03871660048201526024016107d8565b6000806140f1600a84615821565b6140fc90603061552d565b60f81b9050600061410e600a85615843565b61411990603061552d565b6040516001600160f81b0319808516602083015260f89290921b91821660218201526001600160d81b03198716602282015290915060270160405160208183030381529060405261416990615865565b95945050505050565b6001609f1b8916156141ea576141ea6366e7416760e01b89898989898989896040516024016141a898979695949392919061589c565b60408051601f198184030181529190526020810180516001600160e01b03166001600160e01b0319909316929092179091526001600160a01b038b1690613ee5565b505050505050505050565b6001600160a01b0386161580159061421257506000826040015151115b1561422b5761422687878787878787614375565b613afa565b613afa8786868685613fa3565b600060405163095ea7b360e01b81526001600160a01b0384166004820152826024820152602060006044836000895af13d15601f3d11600160005114161716915050806139c75760405162461bcd60e51b815260206004820152600e60248201526d1054141493d59157d1905253115160921b60448201526064016107d8565b8051156142c757805181602001fd5b60405163472850e360e11b815260040160405180910390fd5b60006040516323b872dd60e01b81526001600160a01b03851660048201526001600160a01b03841660248201528260448201526020600060648360008a5af13d15601f3d116001600051141617169150508061323f5760405162461bcd60e51b81526020600482015260146024820152731514905394d1915497d19493d357d1905253115160621b60448201526064016107d8565b60008115156001036143ee576040516370a0823160e01b81526001600160a01b0386811660048301528916906370a0823190602401602060405180830381865afa1580156143c7573d6000803e3d6000fd5b505050506040513d601f19601f820116820180604052508101906143eb9190615188565b90505b6040805160a0810182526001600160a01b038a81166060830190815260808301889052825260208681015181840152865165ffffffffffff168385015283518085018552898316815290810188905286840151935163187945bd60e11b8152918b16936330f28b7a93614468939092918c916004016158fd565b600060405180830381600087803b15801561448257600080fd5b505af1158015614496573d6000803e3d6000fd5b50505050811515600114801561451d57506144b18482615158565b6040516370a0823160e01b81526001600160a01b0387811660048301528a16906370a0823190602401602060405180830381865afa1580156144f7573d6000803e3d6000fd5b505050506040513d601f19601f8201168201806040525081019061451b9190615188565b105b1561454657604051635f8b555b60e11b81526001600160a01b03891660048201526024016107d8565b5050505050505050565b80356001600160601b038116811461456757600080fd5b919050565b60008060006040848603121561458157600080fd5b61458a84614550565b925060208401356001600160401b03808211156145a657600080fd5b818601915086601f8301126145ba57600080fd5b8135818111156145c957600080fd5b8760208260051b85010111156145de57600080fd5b6020830194508093505050509250925092565b6001600160a01b0381168114612e8c57600080fd5b8035614567816145f1565b60006020828403121561462357600080fd5b8135611847816145f1565b80356001600160d81b03198116811461456757600080fd5b60006020828403121561465857600080fd5b6118478261462e565b65ffffffffffff81168114612e8c57600080fd5b8015158114612e8c57600080fd5b6000806000806080858703121561469957600080fd5b84356146a481614661565b935060208501356146b481614661565b925060408501356146c481614675565b9396929550929360600135925050565b6000602082840312156146e657600080fd5b61184782614550565b6001600160c81b031981168114612e8c57600080fd5b60008060006060848603121561471a57600080fd5b8335614725816146ef565b92506020840135614735816146ef565b91506040840135614745816146ef565b809150509250925092565b60008083601f84011261476257600080fd5b5081356001600160401b0381111561477957600080fd5b60208301915083602082850101111561479157600080fd5b9250929050565b600080600080606085870312156147ae57600080fd5b6147b785614550565b93506020850135925060408501356001600160401b038111156147d957600080fd5b6147e587828801614750565b95989497509550505050565b60005b8381101561480c5781810151838201526020016147f4565b50506000910152565b6000815180845261482d8160208601602086016147f1565b601f01601f19169290920160200192915050565b84815283602082015282151560408201526080606082015260006148686080830184614815565b9695505050505050565b60008060006040848603121561488757600080fd5b61489084614550565b925060208401356001600160401b038111156148ab57600080fd5b6148b786828701614750565b9497909650939450505050565b6000806000604084860312156148d957600080fd5b8335614890816146ef565b6020815260006118476020830184614815565b6001600160401b0381168114612e8c57600080fd5b60008060006060848603121561492157600080fd5b61492a84614550565b9250602084013561493a816148f7565b929592945050506040919091013590565b6000806000806060858703121561496157600080fd5b84356001600160401b038082111561497857600080fd5b90860190610120828903121561498d57600080fd5b909450602086013590808211156149a357600080fd5b9086019060a082890312156149b757600080fd5b909350604086013590808211156149cd57600080fd5b506147e587828801614750565b634e487b7160e01b600052604160045260246000fd5b60405160c081016001600160401b0381118282101715614a1257614a126149da565b60405290565b60405160a081016001600160401b0381118282101715614a1257614a126149da565b604051601f8201601f191681016001600160401b0381118282101715614a6257614a626149da565b604052919050565b60006001600160401b03821115614a8357614a836149da565b50601f01601f191660200190565b600082601f830112614aa257600080fd5b8135614ab5614ab082614a6a565b614a3a565b818152846020838601011115614aca57600080fd5b816020850160208301376000918101602001919091529392505050565b600080600060408486031215614afc57600080fd5b83356001600160401b0380821115614b1357600080fd5b9085019060c08288031215614b2757600080fd5b614b2f6149f0565b614b3883614550565b8152614b4660208401614606565b6020820152614b5760408401614606565b604082015260608301356060820152608083013582811115614b7857600080fd5b614b8489828601614a91565b60808301525060a083013582811115614b9c57600080fd5b614ba889828601614a91565b60a08301525094506020860135915080821115614bc457600080fd5b506148b786828701614750565b60008060408385031215614be457600080fd5b614bed8361462e565b91506020830135614bfd81614661565b809150509250929050565b60008060408385031215614c1b57600080fd5b8235614c26816145f1565b91506020830135614bfd816145f1565b600060208284031215614c4857600080fd5b5035919050565b6001600160a01b038a81168252898116602083015288811660408301526001600160c81b031988811660608401526080830188905290861660a0830152841660c082015282151560e08201526101206101008201819052600090614cb583820185614815565b9c9b505050505050505050505050565b600060208284031215614cd757600080fd5b8135611847816146ef565b600080600060608486031215614cf757600080fd5b614d008461462e565b9250602084013560038110614d1457600080fd5b9150604084013561474581614661565b60008060408385031215614d3757600080fd5b614c268361462e565b60008060408385031215614d5357600080fd5b8235614d5e816146ef565b91506020830135614bfd816146ef565b6001600160c81b031991909116815260200190565b6020808252600a90820152695245454e5452414e435960b01b604082015260600190565b6001600160601b038416815260406020808301829052908201839052600090849060608401835b86811015614dfc578335614de1816148f7565b6001600160401b031682529282019290820190600101614dce565b50979650505050505050565b600082601f830112614e1957600080fd5b8151614e27614ab082614a6a565b818152846020838601011115614e3c57600080fd5b6133208260208301602087016147f1565b6000806040808486031215614e6157600080fd5b83516001600160401b0380821115614e7857600080fd5b818601915086601f830112614e8c57600080fd5b8151602082821115614ea057614ea06149da565b614eae818360051b01614a3a565b82815260a0928302850182019282820191908b851115614ecd57600080fd5b958301955b84871015614f3b5780878d031215614eea5760008081fd5b614ef2614a18565b8751614efd816145f1565b815287850151614f0c816145f1565b818601528789015189820152606080890151908201526080808901519082015283529586019591830191614ed2565b5091890151919750909450505080831115614f5557600080fd5b5050614f6385828601614e08565b9150509250929050565b634e487b7160e01b600052603260045260246000fd5b634e487b7160e01b600052601160045260246000fd5b818103818111156114fe576114fe614f83565b600181811c90821680614fc057607f821691505b602082108103614fe057634e487b7160e01b600052602260045260246000fd5b50919050565b600060208284031215614ff857600080fd5b8135611847816148f7565b60006001820161501557615015614f83565b5060010190565b6020808252600c908201526b15539055551213d49256915160a21b604082015260600190565b65ffffffffffff81811683821601908082111561506157615061614f83565b5092915050565b6001600160601b038516815283602082015282151560408201526080606082015260006148686080830184614815565b600082516150aa8184602087016147f1565b9190910192915050565b634e487b7160e01b600052602160045260246000fd5b6000602082840312156150dc57600080fd5b81516004811061184757600080fd5b600080600080600060a0868803121561510357600080fd5b855194506020860151935060408601519250606086015161512381614675565b60808701519092506001600160401b0381111561513f57600080fd5b61514b88828901614e08565b9150509295509295909350565b808201808211156114fe576114fe614f83565b60006020828403121561517d57600080fd5b815161184781614675565b60006020828403121561519a57600080fd5b5051919050565b8183823760009101908152919050565b60006001600160601b038083168181036151cd576151cd614f83565b6001019392505050565b6000602082840312156151e957600080fd5b815160ff8116811461184757600080fd5b81835281816020850137506000828201602090810191909152601f909101601f19169091010190565b6001600160601b0385168152608060208201526000843561524381614661565b65ffffffffffff908116608084015260208601359061526182614661565b1660a0830152604085013561527581614675565b151560c0830152606085013560e0830152608085013536869003601e1901811261529e57600080fd5b85016020810190356001600160401b038111156152ba57600080fd5b8036038213156152c957600080fd5b60a06101008501526152e0610120850182846151fa565b925050506152f3604083018560ff169052565b60ff8316606083015295945050505050565b60006020828403121561531757600080fd5b8151611847816146ef565b6000808335601e1984360301811261533957600080fd5b8301803591506001600160401b0382111561535357600080fd5b60200191503681900382131561479157600080fd5b6001600160a01b038416815260406020820181905260009061416990830184866151fa565b601f821115612af057600081815260208120601f850160051c810160208610156153b45750805b601f850160051c820191505b818110156130f8578281556001016153c0565b6001600160401b038311156153ea576153ea6149da565b6153fe836153f88354614fac565b8361538d565b6000601f841160018114615432576000851561541a5750838201355b600019600387901b1c1916600186901b17835561323f565b600083815260209020601f19861690835b828110156154635786850135825560209485019460019092019101615443565b50868210156154805760001960f88860031b161c19848701351681555b505060018560011b0183555050505050565b6000602082840312156154a457600080fd5b813561184781614675565b6020815260006133206020830184866151fa565b6001600160601b03861681526001600160a01b038581166020830152841660408201526060810183905260a06080820181905260009061550590830184614815565b979650505050505050565b60006020828403121561552257600080fd5b8151611847816148f7565b60ff81811683821601908111156114fe576114fe614f83565b6001600160d81b031992909216825260ff16602082015260400190565b6040815260006155766040830185614815565b82810360208401526141698185614815565b60006020828403121561559a57600080fd5b81516001600160401b038111156155b057600080fd5b61332084828501614e08565b6001600160a01b0386811682528516602082015260a0604082018190526000906155e890830186614815565b6060830194909452509015156080909101529392505050565b60008060006060848603121561561657600080fd5b835192506020840151615628816145f1565b80925050604084015190509250925092565b6001600160601b03861681528460208201528360408201526080606082015260006155056080830184866151fa565b6001600160601b038616815284602082015283151560408201526080606082015260006155056080830184866151fa565b6000602082840312156156ac57600080fd5b81516002811061184757600080fd5b6000602082840312156156cd57600080fd5b81516001600160401b03808211156156e457600080fd5b90830190606082860312156156f857600080fd5b604051606081018181108382111715615713576157136149da565b604052825161572181614661565b81526020838101519082015260408301518281111561573f57600080fd5b61574b87828601614e08565b60408301525095945050505050565b6001600160601b03871681526001600160401b038616602082015260018060a01b038516604082015283606082015260a0608082015260006157a060a0830184866151fa565b98975050505050505050565b60ff82811682821603908111156114fe576114fe614f83565b60ff818116838216029081169081811461506157615061614f83565b6000602082840312156157f357600080fd5b81516001600160e01b03198116811461184757600080fd5b634e487b7160e01b600052601260045260246000fd5b600060ff8316806158345761583461580b565b8060ff84160491505092915050565b600060ff8316806158565761585661580b565b8060ff84160691505092915050565b805160208201516001600160c81b031980821692919060078310156158945780818460070360031b1b83161693505b505050919050565b6001600160601b03891681526001600160a01b0388811660208301528781166040830152861660608201526080810185905283151560a082015260e060c082018190526000906158ef90830184866151fa565b9a9950505050505050505050565b600061010061592083885180516001600160a01b03168252602090810151910152565b6020870151604084015260408701516060840152615954608084018780516001600160a01b03168252602090810151910152565b6001600160a01b03851660c084015260e083018190526155058184018561481556fea2646970667358221220a77f6f485e24af5cf9f2d311325f89bec1843a1c1677ac77b710f258f6f11cdd64736f6c63430008130033",
    "linkReferences": {}
  },
  "methodIdentifiers": {
    "abort(uint96)": "1ed75f1f",
    "auction((bytes5,address,address,address,address,bytes,bytes5,bytes,bool),(uint48,uint48,bool,uint256,bytes),string)": "5a3eb399",
    "bid((uint96,address,address,uint256,bytes,bytes),bytes)": "6e9c996d",
    "calculateQuoteFees(uint48,uint48,bool,uint256)": "0bad843b",
    "cancel(uint96,bytes)": "cf042fb0",
    "claimBids(uint96,uint64[])": "0a35511b",
    "claimRewards(address)": "ef5cfb8c",
    "condensers(bytes7,bytes7)": "f4b26181",
    "curate(uint96,bytes)": "505f901a",
    "execOnModule(bytes7,bytes)": "50ab0489",
    "fees(bytes5)": "31d72d6b",
    "getAuctionModuleForId(uint96)": "3bb7098a",
    "getBatchModuleForId(uint96)": "3ab3f98e",
    "getCuratorFee(bytes5,address)": "e814b76a",
    "getDerivativeModuleForId(uint96)": "fc48ba55",
    "getFees(bytes5)": "0ab9a1ee",
    "getModuleForVeecode(bytes7)": "9e55cba3",
    "getModuleStatus(bytes5)": "5bb27aab",
    "getProtocol()": "d16352af",
    "getRewards(address,address)": "779bcb9b",
    "installModule(address)": "7eb1e761",
    "isExecOnModule()": "5c774ed7",
    "lotCounter()": "c4ce88fd",
    "lotFees(uint96)": "ea072e70",
    "lotRouting(uint96)": "9e2e003a",
    "modules(uint256)": "81b2248a",
    "modulesCount()": "f315aafe",
    "owner()": "8da5cb5b",
    "refundBid(uint96,uint64,uint256)": "510bd273",
    "rewards(address,address)": "e70b9e27",
    "setCondenser(bytes7,bytes7,bytes7)": "20b15fe4",
    "setCuratorFee(bytes5,uint48)": "7249c0d5",
    "setFee(bytes5,uint8,uint48)": "c74c149b",
    "setProtocol(address)": "0a9d793d",
    "settle(uint96,uint256,bytes)": "367b02fb",
    "sunsetModule(bytes5)": "c75519ba",
    "transferOwnership(address)": "f2fde38b"
  },
  "id": 110
}