{
  "abi": [
    {
      "inputs": [
        {
          "internalType": "address",
          "name": "auctionHouse_",
          "type": "address"
        }
      ],
      "stateMutability": "nonpayable",
      "type": "constructor"
    },
    {
      "inputs": [],
      "name": "Auction_AmountLessThanMinimum",
      "type": "error"
    },
    {
      "inputs": [],
      "name": "Auction_InsufficientCapacity",
      "type": "error"
    },
    {
      "inputs": [
        {
          "internalType": "uint96",
          "name": "lotId",
          "type": "uint96"
        },
        {
          "internalType": "uint96",
          "name": "bidId",
          "type": "uint96"
        }
      ],
      "name": "Auction_InvalidBidId",
      "type": "error"
    },
    {
      "inputs": [
        {
          "internalType": "uint48",
          "name": "duration_",
          "type": "uint48"
        },
        {
          "internalType": "uint48",
          "name": "minimum_",
          "type": "uint48"
        }
      ],
      "name": "Auction_InvalidDuration",
      "type": "error"
    },
    {
      "inputs": [],
      "name": "Auction_InvalidKey",
      "type": "error"
    },
    {
      "inputs": [
        {
          "internalType": "uint96",
          "name": "lotId",
          "type": "uint96"
        }
      ],
      "name": "Auction_InvalidLotId",
      "type": "error"
    },
    {
      "inputs": [],
      "name": "Auction_InvalidParams",
      "type": "error"
    },
    {
      "inputs": [
        {
          "internalType": "uint48",
          "name": "start_",
          "type": "uint48"
        },
        {
          "internalType": "uint48",
          "name": "minimum_",
          "type": "uint48"
        }
      ],
      "name": "Auction_InvalidStart",
      "type": "error"
    },
    {
      "inputs": [
        {
          "internalType": "uint96",
          "name": "lotId",
          "type": "uint96"
        }
      ],
      "name": "Auction_MarketActive",
      "type": "error"
    },
    {
      "inputs": [
        {
          "internalType": "uint96",
          "name": "lotId",
          "type": "uint96"
        }
      ],
      "name": "Auction_MarketNotActive",
      "type": "error"
    },
    {
      "inputs": [],
      "name": "Auction_NotAuthorized",
      "type": "error"
    },
    {
      "inputs": [],
      "name": "Auction_NotBidder",
      "type": "error"
    },
    {
      "inputs": [],
      "name": "Auction_NotEnoughCapacity",
      "type": "error"
    },
    {
      "inputs": [],
      "name": "Auction_NotImplemented",
      "type": "error"
    },
    {
      "inputs": [],
      "name": "Auction_OnlyMarketOwner",
      "type": "error"
    },
    {
      "inputs": [
        {
          "internalType": "uint96",
          "name": "lotId",
          "type": "uint96"
        }
      ],
      "name": "Auction_WrongState",
      "type": "error"
    },
    {
      "inputs": [
        {
          "internalType": "uint96",
          "name": "lotId",
          "type": "uint96"
        },
        {
          "internalType": "uint64",
          "name": "bidId",
          "type": "uint64"
        }
      ],
      "name": "Bid_WrongState",
      "type": "error"
    },
    {
      "inputs": [
        {
          "internalType": "address",
          "name": "parent_",
          "type": "address"
        }
      ],
      "name": "Module_InvalidParent",
      "type": "error"
    },
    {
      "inputs": [],
      "name": "Module_OnlyInternal",
      "type": "error"
    },
    {
      "inputs": [
        {
          "internalType": "address",
          "name": "caller_",
          "type": "address"
        }
      ],
      "name": "Module_OnlyParent",
      "type": "error"
    },
    {
      "inputs": [
        {
          "internalType": "address",
          "name": "caller",
          "type": "address"
        }
      ],
      "name": "NotPermitted",
      "type": "error"
    },
    {
      "anonymous": false,
      "inputs": [
        {
          "indexed": true,
          "internalType": "uint96",
          "name": "lotId",
          "type": "uint96"
        },
        {
          "indexed": true,
          "internalType": "uint64",
          "name": "bidId",
          "type": "uint64"
        },
        {
          "indexed": false,
          "internalType": "uint96",
          "name": "amountIn",
          "type": "uint96"
        },
        {
          "indexed": false,
          "internalType": "uint96",
          "name": "amountOut",
          "type": "uint96"
        }
      ],
      "name": "BidDecrypted",
      "type": "event"
    },
    {
      "inputs": [],
      "name": "INIT",
      "outputs": [],
      "stateMutability": "nonpayable",
      "type": "function"
    },
    {
      "inputs": [],
      "name": "PARENT",
      "outputs": [
        {
          "internalType": "address",
          "name": "",
          "type": "address"
        }
      ],
      "stateMutability": "view",
      "type": "function"
    },
    {
      "inputs": [],
      "name": "TYPE",
      "outputs": [
        {
          "internalType": "enum Module.Type",
          "name": "",
          "type": "uint8"
        }
      ],
      "stateMutability": "pure",
      "type": "function"
    },
    {
      "inputs": [],
      "name": "VEECODE",
      "outputs": [
        {
          "internalType": "Veecode",
          "name": "",
          "type": "bytes7"
        }
      ],
      "stateMutability": "pure",
      "type": "function"
    },
    {
      "inputs": [
        {
          "internalType": "uint96",
          "name": "lotId_",
          "type": "uint96"
        },
        {
          "components": [
            {
              "internalType": "uint48",
              "name": "start",
              "type": "uint48"
            },
            {
              "internalType": "uint48",
              "name": "duration",
              "type": "uint48"
            },
            {
              "internalType": "bool",
              "name": "capacityInQuote",
              "type": "bool"
            },
            {
              "internalType": "uint96",
              "name": "capacity",
              "type": "uint96"
            },
            {
              "internalType": "bytes",
              "name": "implParams",
              "type": "bytes"
            }
          ],
          "internalType": "struct Auction.AuctionParams",
          "name": "params_",
          "type": "tuple"
        },
        {
          "internalType": "uint8",
          "name": "quoteTokenDecimals_",
          "type": "uint8"
        },
        {
          "internalType": "uint8",
          "name": "baseTokenDecimals_",
          "type": "uint8"
        }
      ],
      "name": "auction",
      "outputs": [
        {
          "internalType": "uint96",
          "name": "capacity",
          "type": "uint96"
        }
      ],
      "stateMutability": "nonpayable",
      "type": "function"
    },
    {
      "inputs": [
        {
          "internalType": "uint96",
          "name": "lotId",
          "type": "uint96"
        }
      ],
      "name": "auctionData",
      "outputs": [
        {
          "internalType": "uint64",
          "name": "nextBidId",
          "type": "uint64"
        },
        {
          "internalType": "uint96",
          "name": "marginalPrice",
          "type": "uint96"
        },
        {
          "internalType": "uint96",
          "name": "minPrice",
          "type": "uint96"
        },
        {
          "internalType": "uint64",
          "name": "nextDecryptIndex",
          "type": "uint64"
        },
        {
          "internalType": "uint96",
          "name": "minFilled",
          "type": "uint96"
        },
        {
          "internalType": "uint96",
          "name": "minBidSize",
          "type": "uint96"
        },
        {
          "internalType": "enum Auction.Status",
          "name": "status",
          "type": "uint8"
        },
        {
          "internalType": "uint64",
          "name": "marginalBidId",
          "type": "uint64"
        },
        {
          "components": [
            {
              "internalType": "uint256",
              "name": "x",
              "type": "uint256"
            },
            {
              "internalType": "uint256",
              "name": "y",
              "type": "uint256"
            }
          ],
          "internalType": "struct Point",
          "name": "publicKey",
          "type": "tuple"
        },
        {
          "internalType": "uint256",
          "name": "privateKey",
          "type": "uint256"
        }
      ],
      "stateMutability": "view",
      "type": "function"
    },
    {
      "inputs": [],
      "name": "auctionType",
      "outputs": [
        {
          "internalType": "enum Auction.AuctionType",
          "name": "",
          "type": "uint8"
        }
      ],
      "stateMutability": "pure",
      "type": "function"
    },
    {
      "inputs": [
        {
          "internalType": "uint96",
          "name": "lotId_",
          "type": "uint96"
        },
        {
          "internalType": "address",
          "name": "bidder_",
          "type": "address"
        },
        {
          "internalType": "address",
          "name": "referrer_",
          "type": "address"
        },
        {
          "internalType": "uint96",
          "name": "amount_",
          "type": "uint96"
        },
        {
          "internalType": "bytes",
          "name": "auctionData_",
          "type": "bytes"
        }
      ],
      "name": "bid",
      "outputs": [
        {
          "internalType": "uint64",
          "name": "bidId",
          "type": "uint64"
        }
      ],
      "stateMutability": "nonpayable",
      "type": "function"
    },
    {
      "inputs": [
        {
          "internalType": "uint96",
          "name": "lotId",
          "type": "uint96"
        },
        {
          "internalType": "uint64",
          "name": "bidId",
          "type": "uint64"
        }
      ],
      "name": "bids",
      "outputs": [
        {
          "internalType": "address",
          "name": "bidder",
          "type": "address"
        },
        {
          "internalType": "uint96",
          "name": "amount",
          "type": "uint96"
        },
        {
          "internalType": "uint96",
          "name": "minAmountOut",
          "type": "uint96"
        },
        {
          "internalType": "address",
          "name": "referrer",
          "type": "address"
        },
        {
          "internalType": "enum EncryptedMarginalPriceAuctionModule.BidStatus",
          "name": "status",
          "type": "uint8"
        }
      ],
      "stateMutability": "view",
      "type": "function"
    },
    {
      "inputs": [
        {
          "internalType": "uint96",
          "name": "lotId_",
          "type": "uint96"
        }
      ],
      "name": "cancelAuction",
      "outputs": [],
      "stateMutability": "nonpayable",
      "type": "function"
    },
    {
      "inputs": [
        {
          "internalType": "uint96",
          "name": "lotId_",
          "type": "uint96"
        }
      ],
      "name": "capacityInQuote",
      "outputs": [
        {
          "internalType": "bool",
          "name": "",
          "type": "bool"
        }
      ],
      "stateMutability": "view",
      "type": "function"
    },
    {
      "inputs": [
        {
          "internalType": "uint96",
          "name": "lotId_",
          "type": "uint96"
        },
        {
          "internalType": "uint64[]",
          "name": "bidIds_",
          "type": "uint64[]"
        }
      ],
      "name": "claimBids",
      "outputs": [
        {
          "components": [
            {
              "internalType": "address",
              "name": "bidder",
              "type": "address"
            },
            {
              "internalType": "address",
              "name": "referrer",
              "type": "address"
            },
            {
              "internalType": "uint96",
              "name": "paid",
              "type": "uint96"
            },
            {
              "internalType": "uint96",
              "name": "payout",
              "type": "uint96"
            }
          ],
          "internalType": "struct Auction.BidClaim[]",
          "name": "bidClaims",
          "type": "tuple[]"
        },
        {
          "internalType": "bytes",
          "name": "auctionOutput",
          "type": "bytes"
        }
      ],
      "stateMutability": "nonpayable",
      "type": "function"
    },
    {
      "inputs": [
        {
          "internalType": "uint96",
          "name": "lotId_",
          "type": "uint96"
        }
      ],
      "name": "claimProceeds",
      "outputs": [
        {
          "internalType": "uint96",
          "name": "purchased",
          "type": "uint96"
        },
        {
          "internalType": "uint96",
          "name": "sold",
          "type": "uint96"
        },
        {
          "internalType": "uint96",
          "name": "payoutSent",
          "type": "uint96"
        }
      ],
      "stateMutability": "nonpayable",
      "type": "function"
    },
    {
      "inputs": [
        {
          "internalType": "uint96",
          "name": "lotId_",
          "type": "uint96"
        },
        {
          "internalType": "uint64",
          "name": "num_",
          "type": "uint64"
        }
      ],
      "name": "decryptAndSortBids",
      "outputs": [],
      "stateMutability": "nonpayable",
      "type": "function"
    },
    {
      "inputs": [
        {
          "internalType": "uint96",
          "name": "lotId",
          "type": "uint96"
        }
      ],
      "name": "decryptedBids",
      "outputs": [
        {
          "internalType": "uint64",
          "name": "numBids",
          "type": "uint64"
        }
      ],
      "stateMutability": "view",
      "type": "function"
    },
    {
      "inputs": [
        {
          "internalType": "uint96",
          "name": "lotId",
          "type": "uint96"
        },
        {
          "internalType": "uint64",
          "name": "bidId",
          "type": "uint64"
        }
      ],
      "name": "encryptedBids",
      "outputs": [
        {
          "internalType": "uint256",
          "name": "encryptedAmountOut",
          "type": "uint256"
        },
        {
          "components": [
            {
              "internalType": "uint256",
              "name": "x",
              "type": "uint256"
            },
            {
              "internalType": "uint256",
              "name": "y",
              "type": "uint256"
            }
          ],
          "internalType": "struct Point",
          "name": "bidPubKey",
          "type": "tuple"
        }
      ],
      "stateMutability": "view",
      "type": "function"
    },
    {
      "inputs": [
        {
          "internalType": "uint96",
          "name": "lotId_",
          "type": "uint96"
        }
      ],
      "name": "getAuctionData",
      "outputs": [
        {
          "components": [
            {
              "internalType": "uint64",
              "name": "nextBidId",
              "type": "uint64"
            },
            {
              "internalType": "uint96",
              "name": "marginalPrice",
              "type": "uint96"
            },
            {
              "internalType": "uint96",
              "name": "minPrice",
              "type": "uint96"
            },
            {
              "internalType": "uint64",
              "name": "nextDecryptIndex",
              "type": "uint64"
            },
            {
              "internalType": "uint96",
              "name": "minFilled",
              "type": "uint96"
            },
            {
              "internalType": "uint96",
              "name": "minBidSize",
              "type": "uint96"
            },
            {
              "internalType": "enum Auction.Status",
              "name": "status",
              "type": "uint8"
            },
            {
              "internalType": "uint64",
              "name": "marginalBidId",
              "type": "uint64"
            },
            {
              "components": [
                {
                  "internalType": "uint256",
                  "name": "x",
                  "type": "uint256"
                },
                {
                  "internalType": "uint256",
                  "name": "y",
                  "type": "uint256"
                }
              ],
              "internalType": "struct Point",
              "name": "publicKey",
              "type": "tuple"
            },
            {
              "internalType": "uint256",
              "name": "privateKey",
              "type": "uint256"
            },
            {
              "internalType": "uint64[]",
              "name": "bidIds",
              "type": "uint64[]"
            }
          ],
          "internalType": "struct EncryptedMarginalPriceAuctionModule.AuctionData",
          "name": "auctionData_",
          "type": "tuple"
        }
      ],
      "stateMutability": "view",
      "type": "function"
    },
    {
      "inputs": [
        {
          "internalType": "uint96",
          "name": "lotId_",
          "type": "uint96"
        },
        {
          "internalType": "uint64",
          "name": "bidId_",
          "type": "uint64"
        }
      ],
      "name": "getBid",
      "outputs": [
        {
          "components": [
            {
              "internalType": "address",
              "name": "bidder",
              "type": "address"
            },
            {
              "internalType": "uint96",
              "name": "amount",
              "type": "uint96"
            },
            {
              "internalType": "uint96",
              "name": "minAmountOut",
              "type": "uint96"
            },
            {
              "internalType": "address",
              "name": "referrer",
              "type": "address"
            },
            {
              "internalType": "enum EncryptedMarginalPriceAuctionModule.BidStatus",
              "name": "status",
              "type": "uint8"
            }
          ],
          "internalType": "struct EncryptedMarginalPriceAuctionModule.Bid",
          "name": "bid",
          "type": "tuple"
        },
        {
          "components": [
            {
              "internalType": "uint256",
              "name": "encryptedAmountOut",
              "type": "uint256"
            },
            {
              "components": [
                {
                  "internalType": "uint256",
                  "name": "x",
                  "type": "uint256"
                },
                {
                  "internalType": "uint256",
                  "name": "y",
                  "type": "uint256"
                }
              ],
              "internalType": "struct Point",
              "name": "bidPubKey",
              "type": "tuple"
            }
          ],
          "internalType": "struct EncryptedMarginalPriceAuctionModule.EncryptedBid",
          "name": "encryptedBid",
          "type": "tuple"
        }
      ],
      "stateMutability": "view",
      "type": "function"
    },
    {
      "inputs": [
        {
          "internalType": "uint96",
          "name": "lotId_",
          "type": "uint96"
        }
      ],
      "name": "getLot",
      "outputs": [
        {
          "components": [
            {
              "internalType": "uint48",
              "name": "start",
              "type": "uint48"
            },
            {
              "internalType": "uint48",
              "name": "conclusion",
              "type": "uint48"
            },
            {
              "internalType": "uint8",
              "name": "quoteTokenDecimals",
              "type": "uint8"
            },
            {
              "internalType": "uint8",
              "name": "baseTokenDecimals",
              "type": "uint8"
            },
            {
              "internalType": "bool",
              "name": "capacityInQuote",
              "type": "bool"
            },
            {
              "internalType": "uint96",
              "name": "capacity",
              "type": "uint96"
            },
            {
              "internalType": "uint96",
              "name": "sold",
              "type": "uint96"
            },
            {
              "internalType": "uint96",
              "name": "purchased",
              "type": "uint96"
            },
            {
              "internalType": "uint96",
              "name": "partialPayout",
              "type": "uint96"
            }
          ],
          "internalType": "struct Auction.Lot",
          "name": "",
          "type": "tuple"
        }
      ],
      "stateMutability": "view",
      "type": "function"
    },
    {
      "inputs": [
        {
          "internalType": "uint96",
          "name": "lotId_",
          "type": "uint96"
        }
      ],
      "name": "hasEnded",
      "outputs": [
        {
          "internalType": "bool",
          "name": "",
          "type": "bool"
        }
      ],
      "stateMutability": "view",
      "type": "function"
    },
    {
      "inputs": [
        {
          "internalType": "uint96",
          "name": "lotId_",
          "type": "uint96"
        }
      ],
      "name": "isLive",
      "outputs": [
        {
          "internalType": "bool",
          "name": "",
          "type": "bool"
        }
      ],
      "stateMutability": "view",
      "type": "function"
    },
    {
      "inputs": [
        {
          "internalType": "uint96",
          "name": "id",
          "type": "uint96"
        }
      ],
      "name": "lotData",
      "outputs": [
        {
          "internalType": "uint48",
          "name": "start",
          "type": "uint48"
        },
        {
          "internalType": "uint48",
          "name": "conclusion",
          "type": "uint48"
        },
        {
          "internalType": "uint8",
          "name": "quoteTokenDecimals",
          "type": "uint8"
        },
        {
          "internalType": "uint8",
          "name": "baseTokenDecimals",
          "type": "uint8"
        },
        {
          "internalType": "bool",
          "name": "capacityInQuote",
          "type": "bool"
        },
        {
          "internalType": "uint96",
          "name": "capacity",
          "type": "uint96"
        },
        {
          "internalType": "uint96",
          "name": "sold",
          "type": "uint96"
        },
        {
          "internalType": "uint96",
          "name": "purchased",
          "type": "uint96"
        },
        {
          "internalType": "uint96",
          "name": "partialPayout",
          "type": "uint96"
        }
      ],
      "stateMutability": "view",
      "type": "function"
    },
    {
      "inputs": [
        {
          "internalType": "uint96",
          "name": "lotId_",
          "type": "uint96"
        }
      ],
      "name": "maxAmountAccepted",
      "outputs": [
        {
          "internalType": "uint96",
          "name": "",
          "type": "uint96"
        }
      ],
      "stateMutability": "view",
      "type": "function"
    },
    {
      "inputs": [
        {
          "internalType": "uint96",
          "name": "lotId_",
          "type": "uint96"
        }
      ],
      "name": "maxPayout",
      "outputs": [
        {
          "internalType": "uint96",
          "name": "",
          "type": "uint96"
        }
      ],
      "stateMutability": "view",
      "type": "function"
    },
    {
      "inputs": [],
      "name": "minAuctionDuration",
      "outputs": [
        {
          "internalType": "uint48",
          "name": "",
          "type": "uint48"
        }
      ],
      "stateMutability": "view",
      "type": "function"
    },
    {
      "inputs": [
        {
          "internalType": "uint96",
          "name": "lotId_",
          "type": "uint96"
        },
        {
          "internalType": "uint96",
          "name": "amount_",
          "type": "uint96"
        }
      ],
      "name": "payoutFor",
      "outputs": [
        {
          "internalType": "uint96",
          "name": "",
          "type": "uint96"
        }
      ],
      "stateMutability": "view",
      "type": "function"
    },
    {
      "inputs": [
        {
          "internalType": "uint96",
          "name": "lotId_",
          "type": "uint96"
        },
        {
          "internalType": "uint96",
          "name": "payout_",
          "type": "uint96"
        }
      ],
      "name": "priceFor",
      "outputs": [
        {
          "internalType": "uint96",
          "name": "",
          "type": "uint96"
        }
      ],
      "stateMutability": "view",
      "type": "function"
    },
    {
      "inputs": [
        {
          "internalType": "uint96",
          "name": "lotId_",
          "type": "uint96"
        },
        {
          "internalType": "uint96",
          "name": "amount_",
          "type": "uint96"
        },
        {
          "internalType": "bytes",
          "name": "auctionData_",
          "type": "bytes"
        }
      ],
      "name": "purchase",
      "outputs": [
        {
          "internalType": "uint96",
          "name": "payout",
          "type": "uint96"
        },
        {
          "internalType": "bytes",
          "name": "auctionOutput",
          "type": "bytes"
        }
      ],
      "stateMutability": "nonpayable",
      "type": "function"
    },
    {
      "inputs": [
        {
          "internalType": "uint96",
          "name": "lotId_",
          "type": "uint96"
        },
        {
          "internalType": "uint64",
          "name": "bidId_",
          "type": "uint64"
        },
        {
          "internalType": "address",
          "name": "caller_",
          "type": "address"
        }
      ],
      "name": "refundBid",
      "outputs": [
        {
          "internalType": "uint96",
          "name": "refund",
          "type": "uint96"
        }
      ],
      "stateMutability": "nonpayable",
      "type": "function"
    },
    {
      "inputs": [
        {
          "internalType": "uint96",
          "name": "lotId_",
          "type": "uint96"
        }
      ],
      "name": "remainingCapacity",
      "outputs": [
        {
          "internalType": "uint96",
          "name": "",
          "type": "uint96"
        }
      ],
      "stateMutability": "view",
      "type": "function"
    },
    {
      "inputs": [
        {
          "internalType": "uint96",
          "name": "lotId_",
          "type": "uint96"
        }
      ],
      "name": "settle",
      "outputs": [
        {
          "components": [
            {
              "internalType": "uint96",
              "name": "totalIn",
              "type": "uint96"
            },
            {
              "internalType": "uint96",
              "name": "totalOut",
              "type": "uint96"
            },
            {
              "internalType": "address",
              "name": "pfBidder",
              "type": "address"
            },
            {
              "internalType": "address",
              "name": "pfReferrer",
              "type": "address"
            },
            {
              "internalType": "uint96",
              "name": "pfRefund",
              "type": "uint96"
            },
            {
              "internalType": "uint96",
              "name": "pfPayout",
              "type": "uint96"
            },
            {
              "internalType": "bytes",
              "name": "auctionOutput",
              "type": "bytes"
            }
          ],
          "internalType": "struct Auction.Settlement",
          "name": "settlement",
          "type": "tuple"
        },
        {
          "internalType": "bytes",
          "name": "auctionOutput",
          "type": "bytes"
        }
      ],
      "stateMutability": "nonpayable",
      "type": "function"
    },
    {
      "inputs": [
        {
          "internalType": "uint96",
          "name": "lotId_",
          "type": "uint96"
        },
        {
          "internalType": "uint256",
          "name": "privateKey_",
          "type": "uint256"
        },
        {
          "internalType": "uint64",
          "name": "num_",
          "type": "uint64"
        }
      ],
      "name": "submitPrivateKey",
      "outputs": [],
      "stateMutability": "nonpayable",
      "type": "function"
    }
  ],
  "bytecode": {
    "object": "0x60a06040523480156200001157600080fd5b5060405162004f8a38038062004f8a833981016040819052620000349162000095565b80806001600160a01b0381166200006d57604051631462ddc360e21b81526001600160a01b038216600482015260240160405180910390fd5b6001600160a01b031660805250506000805465ffffffffffff191662015180179055620000c7565b600060208284031215620000a857600080fd5b81516001600160a01b0381168114620000c057600080fd5b9392505050565b608051614e306200015a600039600081816102bc0152818161080c01528181610853015281816109270152818161096901528181610a5501528181610a9701528181610cdd01528181610d1f01528181610ea601528181610ee8015281816113a4015281816113e60152818161160d0152818161164f01528181611afa01528181611b790152611bc40152614e306000f3fe608060405234801561001057600080fd5b50600436106101f05760003560e01c8063994595e11161010f578063cd7d2714116100a2578063e2cfa6ea11610071578063e2cfa6ea146106c8578063ea64391414610778578063eee974b91461062c578063fb9d3cb61461078057600080fd5b8063cd7d271414610671578063d3ad2fed146102f6578063d61735ca14610684578063de1d31121461069c57600080fd5b8063b04046df116100de578063b04046df14610619578063ba4c8b7d1461062c578063bb24fe8a14610642578063cadb33831461065157600080fd5b8063994595e114610595578063a8bf44e4146105a4578063a8ee70be146105c5578063ace54da5146105e657600080fd5b80634e1f4258116101875780635806afc3116101565780635806afc314610470578063732efc031461055a578063803c90fd1461056d57806385670c1b1461058057600080fd5b80634e1f4258146103bd57806353708796146103dd57806354134876146103f057806354c87c011461041957600080fd5b80631a85c634116101c35780631a85c634146102f657806323464a601461032257806324546b2d1461034d57806339792cdc1461038a57600080fd5b806303855921146101f55780630a35511b1461021d5780630fb276fc1461023e578063122b83f9146102b7575b600080fd5b610208610203366004613f2d565b6107a1565b60405190151581526020015b60405180910390f35b61023061022b366004613f4a565b6107fe565b604051610214929190614017565b6102a661024c3660046140ba565b60036020908152600092835260408084209091529082529020805460018201546002909201546001600160a01b03808316936001600160601b03600160a01b909404841693811692600160601b9091049091169060ff1685565b60405161021495949392919061411d565b6102de7f000000000000000000000000000000000000000000000000000000000000000081565b6040516001600160a01b039091168152602001610214565b61030a610304366004613f2d565b50600090565b6040516001600160601b039091168152602001610214565b6103356103303660046141b6565b61091a565b6040516001600160401b039091168152602001610214565b61036061035b366004613f2d565b610a46565b604080516001600160601b0394851681529284166020840152921691810191909152606001610214565b610208610398366004613f2d565b6001600160601b0316600090815260016020526040902054600160701b900460ff1690565b6103d06103cb366004613f2d565b610c1e565b604051610214919061423f565b61030a6103eb366004614309565b610cd0565b6000546104029065ffffffffffff1681565b60405165ffffffffffff9091168152602001610214565b6104626104273660046140ba565b600460209081526000928352604080842082529183529181902080548251808401909352600182015483526002909101549282019290925282565b604051610214929190614350565b6104f461047e366004613f2d565b600160208190526000918252604090912080549181015460029091015465ffffffffffff80841693600160301b81049091169260ff600160601b808404821694600160681b8504831694600160701b8104909316936001600160601b03600160781b909404841693818116939091048116911689565b6040805165ffffffffffff9a8b1681529990981660208a015260ff9687169789019790975294909316606087015290151560808601526001600160601b0390811660a086015290811660c085015290811660e08401521661010082015261012001610214565b610208610568366004613f2d565b610e0c565b61030a61057b366004614433565b610e99565b61059361058e3660046140ba565b6111d1565b005b6001604051610214919061456f565b6105b76105b23660046140ba565b611279565b604051610214929190614589565b6105d86105d3366004614605565b611395565b604051610214929190614669565b61030a6105f4366004613f2d565b6001600160601b03908116600090815260016020526040902054600160781b90041690565b610593610627366004613f2d565b611602565b61030a61063a36600461468b565b600092915050565b600060405161021491906146c9565b61066461065f366004613f2d565b611760565b6040516102149190614723565b61059361067f366004614828565b611954565b604051663031454d50414d60c81b8152602001610214565b6103356106aa366004613f2d565b6005602052600090815260409020600101546001600160401b031681565b6107626106d6366004613f2d565b60026020818152600092835260409283902080546001820154938201548551808701909652600383015486526004830154938601939093526005909101546001600160401b03808316956001600160601b03600160401b808604821697600160a01b9687900483169781861697928204841696929091049092169360ff8316936101009093041691908a565b6040516102149a9998979695949392919061486a565b610593611aef565b61079361078e366004613f2d565b611b3c565b6040516102149291906148eb565b6001600160601b03811660009081526001602052604081205465ffffffffffff428116600160301b9092041610806107f857506001600160601b03808316600090815260016020526040902054600160781b900416155b92915050565b606080336001600160a01b037f00000000000000000000000000000000000000000000000000000000000000001614610851576040516366e069e160e01b81523360048201526024015b60405180910390fd5b7f00000000000000000000000000000000000000000000000000000000000000006001600160a01b0316635c774ed76040518163ffffffff1660e01b8152600401602060405180830381865afa1580156108af573d6000803e3d6000fd5b505050506040513d601f19601f820116820180604052508101906108d3919061499e565b156108f15760405163115250c560e21b815260040160405180910390fd5b6108fa85611d10565b61090385611d5e565b61090e858585611dba565b91509150935093915050565b6000336001600160a01b037f00000000000000000000000000000000000000000000000000000000000000001614610967576040516366e069e160e01b8152336004820152602401610848565b7f00000000000000000000000000000000000000000000000000000000000000006001600160a01b0316635c774ed76040518163ffffffff1660e01b8152600401602060405180830381865afa1580156109c5573d6000803e3d6000fd5b505050506040513d601f19601f820116820180604052508101906109e9919061499e565b15610a075760405163115250c560e21b815260040160405180910390fd5b610a1087611d10565b610a1987611f01565b610a2287611f50565b610a2b87611ff4565b610a39878787878787612051565b90505b9695505050505050565b60008080336001600160a01b037f00000000000000000000000000000000000000000000000000000000000000001614610a95576040516366e069e160e01b8152336004820152602401610848565b7f00000000000000000000000000000000000000000000000000000000000000006001600160a01b0316635c774ed76040518163ffffffff1660e01b8152600401602060405180830381865afa158015610af3573d6000803e3d6000fd5b505050506040513d601f19601f82011682018060405250810190610b17919061499e565b15610b355760405163115250c560e21b815260040160405180910390fd5b610b3e84611d10565b610b47846122eb565b610b5084611d5e565b5050506001600160601b03908116600090815260026020818152604080842083018054600360ff19909116179055600180835293819020815161012081018352815465ffffffffffff8082168352600160301b8204169482019490945260ff600160601b808604821694830194909452600160681b850481166060830152600160701b85041615156080820152600160781b909304861660a08401529384015480861660c08401819052919004851660e0830181905293909201549093166101009093018390529092909190565b610c26613e6e565b506001600160601b03908116600090815260016020818152604092839020835161012081018552815465ffffffffffff8082168352600160301b8204169382019390935260ff600160601b808504821696830196909652600160681b840481166060830152600160701b84041615156080820152600160781b909204851660a08301529182015480851660c083015292909204831660e08301526002015490911661010082015290565b6000336001600160a01b037f00000000000000000000000000000000000000000000000000000000000000001614610d1d576040516366e069e160e01b8152336004820152602401610848565b7f00000000000000000000000000000000000000000000000000000000000000006001600160a01b0316635c774ed76040518163ffffffff1660e01b8152600401602060405180830381865afa158015610d7b573d6000803e3d6000fd5b505050506040513d601f19601f82011682018060405250810190610d9f919061499e565b15610dbd5760405163115250c560e21b815260040160405180910390fd5b610dc684611d10565b610dcf84611f01565b610dd984846122f2565b610de48484846123be565b610dee8484612426565b610df784611f50565b610e028484846124a3565b90505b9392505050565b6001600160601b038082166000908152600160205260408120549091600160781b9091041615801590610e6857506001600160601b03821660009081526001602052604090205465ffffffffffff428116600160301b90920416115b80156107f85750506001600160601b031660009081526001602052604090205465ffffffffffff4281169116111590565b6000336001600160a01b037f00000000000000000000000000000000000000000000000000000000000000001614610ee6576040516366e069e160e01b8152336004820152602401610848565b7f00000000000000000000000000000000000000000000000000000000000000006001600160a01b0316635c774ed76040518163ffffffff1660e01b8152600401602060405180830381865afa158015610f44573d6000803e3d6000fd5b505050506040513d601f19601f82011682018060405250810190610f68919061499e565b15610f865760405163115250c560e21b815260040160405180910390fd5b835165ffffffffffff1615801590610fa95750835165ffffffffffff4281169116105b15610fdd578351604051639421aa8960e01b815265ffffffffffff9182166004820152429091166024820152604401610848565b600054602085015165ffffffffffff9182169116101561102a5760208401516000546040516302c1012760e21b815265ffffffffffff928316600482015291166024820152604401610848565b611032613e6e565b845165ffffffffffff161561104857845161104a565b425b65ffffffffffff168082526020860151611063916149d1565b65ffffffffffff16602082015260ff808516604080840191909152908416606080840191909152908601511515608080840191909152908601516001600160601b031660a08301528501516110bb9087908390612668565b6001600160601b039586166000908152600160208181526040928390208451815492860151948601516060870151608088015160a089015165ffffffffffff9485166001600160601b031997881617600160301b95909916949094029790971761ffff60601b1916600160601b60ff938416810260ff60681b191691909117600160681b9390921692909202176cffffffffffffffffffffffffff60701b1916600160701b96151596909602600160781b600160d81b03191695909517600160781b828d160217825560c0860151938201805460e0880151958d166001600160c01b031990911617948c169095029390931790935561010090930151600290920180549093169190971617905550929392505050565b6111da82611d10565b6111e382611f01565b6111ec82612933565b6001600160601b03821660009081526002602081905260408220015460ff16600381111561121c5761121c6140f3565b14158061124257506001600160601b038216600090815260026020526040902060050154155b1561126b57604051636985f4c960e11b81526001600160601b0383166004820152602401610848565b61127582826129ee565b5050565b611281613eba565b611289613ee9565b61129284611d10565b61129c84846122f2565b6001600160601b0380851660008181526003602090815260408083206001600160401b03891680855290835281842094845260048352818420908452825291829020825160a08101845284546001600160a01b038082168352600160a01b909104871693820193909352600185015495861693810193909352600160601b9094041660608201526002808301549293928491608084019160ff1690811115611346576113466140f3565b6002811115611357576113576140f3565b9052506040805180820182528354815281518083019092526001840154825260029093015460208281019190915283015293509150505b9250929050565b60006060336001600160a01b037f000000000000000000000000000000000000000000000000000000000000000016146113e4576040516366e069e160e01b8152336004820152602401610848565b7f00000000000000000000000000000000000000000000000000000000000000006001600160a01b0316635c774ed76040518163ffffffff1660e01b8152600401602060405180830381865afa158015611442573d6000803e3d6000fd5b505050506040513d601f19601f82011682018060405250810190611466919061499e565b156114845760405163115250c560e21b815260040160405180910390fd5b61148d86611d10565b61149686612d86565b6114a286868686612db7565b6001600160601b0388166000908152600160205260409020805492945090925090600160701b900460ff166114ee5780546001600160601b03600160781b909104811690841611611507565b80546001600160601b03600160781b9091048116908716115b15611525576040516384add39d60e01b815260040160405180910390fd5b8054600160701b900460ff1661153b578261153d565b855b81546001600160601b03600160781b8083048216939093038116909202600160781b600160d81b03199091161782556001820180548892600c9161158a918591600160601b9004166149f7565b92506101000a8154816001600160601b0302191690836001600160601b03160217905550828160010160008282829054906101000a90046001600160601b03166115d491906149f7565b92506101000a8154816001600160601b0302191690836001600160601b031602179055505094509492505050565b336001600160a01b037f0000000000000000000000000000000000000000000000000000000000000000161461164d576040516366e069e160e01b8152336004820152602401610848565b7f00000000000000000000000000000000000000000000000000000000000000006001600160a01b0316635c774ed76040518163ffffffff1660e01b8152600401602060405180830381865afa1580156116ab573d6000803e3d6000fd5b505050506040513d601f19601f820116820180604052508101906116cf919061499e565b156116ed5760405163115250c560e21b815260040160405180910390fd5b6116f681611d10565b6116ff81611f50565b61170881612dd4565b6001600160601b0316600090815260016020526040902080547affffffffffffffffffffffff000000ffffffffffff0000000000001916600160301b4265ffffffffffff1602600160781b600160d81b031916179055565b6117cd604080516101608101825260008082526020808301829052828401829052606083018290526080830182905260a0830182905260c0830182905260e08301829052835180850190945281845283015290610100820190815260200160008152602001606081525090565b6117d682611d10565b6001600160601b0380831660009081526002602081815260409283902083516101608101855281546001600160401b038082168352600160401b808304891695840195909552600160a01b9182900488169683019690965260018301549586166060830152928504861660808201529190930490931660a084015281015460c083019060ff16600381111561186d5761186d6140f3565b600381111561187e5761187e6140f3565b8152600282015461010090046001600160401b0316602080830191909152604080518082018252600385015481526004850154818401528184015260058401546060840152600684018054825181850281018501909352808352608090940193919290919083018282801561194457602002820191906000526020600020906000905b82829054906101000a90046001600160401b03166001600160401b0316815260200190600801906020826007010492830192600103820291508084116119015790505b5050505050815250509050919050565b61195d83611d10565b61196683612933565b61196f83611f01565b6001600160601b038316600090815260026020526040902060050154156119b457604051636985f4c960e11b81526001600160601b0384166004820152602401610848565b604080518082018252600181526002602082019081529151632bf48e2b60e21b815290516004820152905160248201526044810183905260009073__$edfbc930edab1df5637e2c8827573bd861$__9063afd238ac906064016040805180830381865af4158015611a29573d6000803e3d6000fd5b505050506040513d601f19601f82011682018060405250810190611a4d9190614a47565b6001600160601b038516600090815260026020908152604091829020825180840190935260038101548084526004909101549183019190915282519293509091141580611aa257508060200151826020015114155b15611ac057604051632fd26a8f60e21b815260040160405180910390fd5b6001600160601b0385166000908152600260205260409020600501849055611ae885846129ee565b5050505050565b336001600160a01b037f00000000000000000000000000000000000000000000000000000000000000001614611b3a576040516366e069e160e01b8152336004820152602401610848565b565b6040805160e08101825260008082526020820181905291810182905260608082018390526080820183905260a082019290925260c08101829052907f00000000000000000000000000000000000000000000000000000000000000006001600160a01b03163314611bc2576040516366e069e160e01b8152336004820152602401610848565b7f00000000000000000000000000000000000000000000000000000000000000006001600160a01b0316635c774ed76040518163ffffffff1660e01b8152600401602060405180830381865afa158015611c20573d6000803e3d6000fd5b505050506040513d601f19601f82011682018060405250810190611c44919061499e565b15611c625760405163115250c560e21b815260040160405180910390fd5b611c6b83611d10565b611c7483611f01565b611c7d83612933565b611c8683611ff4565b611c8f83612e05565b6001600160601b0394851660009081526001602081815260409092208054600160781b600160d81b0319168155845191810180549386015189166001600160601b0319938a16600160601b0284166001600160c01b0319909516949094179390931790925560a0840151600290920180549290971691161790945593915050565b6001600160601b03811660009081526001602052604081205465ffffffffffff169003611d5b57604051638c54233f60e01b81526001600160601b0382166004820152602401610848565b50565b60026001600160601b0382166000908152600260208190526040909120015460ff166003811115611d9157611d916140f3565b14611d5b57604051636985f4c960e11b81526001600160601b0382166004820152602401610848565b60608082806001600160401b03811115611dd657611dd661436e565b604051908082528060200260200182016040528015611e2857816020015b604080516080810182526000808252602080830182905292820181905260608201528252600019909201910181611df45790505b50925060005b81811015611ef757611e6687878784818110611e4c57611e4c614a63565b9050602002016020810190611e619190614a79565b6122f2565b611e9687878784818110611e7c57611e7c614a63565b9050602002016020810190611e919190614a79565b612426565b611ec687878784818110611eac57611eac614a63565b9050602002016020810190611ec19190614a79565b613438565b50848281518110611ed957611ed9614a63565b60200260200101819052508080611eef90614a96565b915050611e2e565b5050935093915050565b6001600160601b03811660009081526001602052604090205465ffffffffffff42811691161115611d5b57604051633ccc2fdb60e01b81526001600160601b0382166004820152602401610848565b6001600160601b03811660009081526001602052604090205465ffffffffffff428116600160301b909204161015611fa657604051633ccc2fdb60e01b81526001600160601b0382166004820152602401610848565b6001600160601b03808216600090815260016020526040812054600160781b90049091169003611d5b57604051633ccc2fdb60e01b81526001600160601b0382166004820152602401610848565b60025b6001600160601b0382166000908152600260208190526040909120015460ff166003811115612028576120286140f3565b03611d5b57604051636985f4c960e11b81526001600160601b0382166004820152602401610848565b6000808061206184860186614aaf565b6001600160601b038b81166000908152600260209081526040808320600180820154915493529083205495975093955090936120c393600160a01b908190048416939204909116906120be90600160681b900460ff16600a614be2565b613606565b905080876001600160601b031610156120ef57604051636aa9da6d60e01b815260040160405180910390fd5b604051637a5e545960e11b815273__$edfbc930edab1df5637e2c8827573bd861$__9063f4bca8b290612126908590600401614bf1565b602060405180830381865af4158015612143573d6000803e3d6000fd5b505050506040513d601f19601f82011682018060405250810190612167919061499e565b61218457604051632fd26a8f60e21b815260040160405180910390fd5b6001600160601b038a16600090815260026020526040812080546001600160401b0316916121b183614c08565b82546101009290920a6001600160401b038181021990931691831602179091556001600160601b038c8116600090815260036020908152604080832094861683529390529182206001600160a01b038d8116600160a01b8d85160217825560018281018054909416600160601b928f1692909202919091179092556002810180549498509093909160ff19909116908302179055505060408051808201825293845260208085019384526001600160601b038c16600081815260048084528482206001600160401b03808b1680855291865286842099518a55975180516001808c01919091559086015160029a8b015593835297845293812060060180549283018155815291909120918104909101805460086003909316929092026101000a948502949093021916929092179055509695505050505050565b6003611ff7565b6001600160601b0382166000908152600260205260409020546001600160401b0390811690821610612351576040516322a16ebf60e01b81526001600160601b03831660048201526001600160401b0382166024820152604401610848565b6001600160601b03821660009081526003602090815260408083206001600160401b03851684529091529020546001600160a01b0316611275576040516322a16ebf60e01b81526001600160601b03831660048201526001600160401b0382166024820152604401610848565b6001600160601b03831660009081526003602090815260408083206001600160401b03861684529091529020546001600160a01b03828116911614612421576040516319b1d90760e31b81526001600160a01b0382166004820152602401610848565b505050565b6001600160601b03821660009081526003602090815260408083206001600160401b0385168452909152902060029081015460ff168181111561246b5761246b6140f3565b0361127557604051631359755560e11b81526001600160601b03831660048201526001600160401b0382166024820152604401610848565b6001600160601b03831660008181526003602090815260408083206001600160401b038716845282528083206002908101805460ff1916821790559383529290529081206006018054825b8181101561262657856001600160401b031683828154811061251257612512614a63565b6000918252602090912060048204015460039091166008026101000a90046001600160401b031603612614578261254a600184614c2e565b8154811061255a5761255a614a63565b90600052602060002090600491828204019190066008029054906101000a90046001600160401b031683828154811061259557612595614a63565b90600052602060002090600491828204019190066008026101000a8154816001600160401b0302191690836001600160401b03160217905550828054806125de576125de614c41565b60008281526020902060046000199092019182040180546001600160401b03600860038516026101000a02191690559055612626565b8061261e81614a96565b9150506124ee565b5050506001600160601b0380851660009081526003602090815260408083206001600160401b0388168452909152902054600160a01b90041690509392505050565b60008180602001905181019061267e9190614c6a565b80519091506001600160601b03166000036126ac57604051633350f82560e11b815260040160405180910390fd5b620186a065ffffffffffff16816020015162ffffff1611156126e157604051633350f82560e11b815260040160405180910390fd5b600a62ffffff16816040015162ffffff1610806127115750620186a065ffffffffffff16816040015162ffffff16115b1561272f57604051633350f82560e11b815260040160405180910390fd5b6060810151604051637a5e545960e11b815273__$edfbc930edab1df5637e2c8827573bd861$__9163f4bca8b29161276a9190600401614bf1565b602060405180830381865af4158015612787573d6000803e3d6000fd5b505050506040513d601f19601f820116820180604052508101906127ab919061499e565b6127c857604051633350f82560e11b815260040160405180910390fd5b6001600160601b03808516600090815260026020908152604090912083518154908416600160a01b026001600160a01b0390911617815560a086015191840151909261281e92169062ffffff16620186a0613624565b600182018054600160401b600160a01b031916600160401b6001600160601b039384160217905560a0850151604084015161286692919091169062ffffff16620186a0613624565b600182810180546001600160a01b0316600160a01b6001600160601b0394851602179055606084015180516003850155602090810151600480860191909155845467ffffffffffffffff191690921784559187166000908152600590925260409182902091516313fb631360e01b81529081019190915273__$9bc36fe53479cd9237cdb88f2250cc7161$__906313fb63139060240160006040518083038186803b15801561291457600080fd5b505af4158015612928573d6000803e3d6000fd5b505050505050505050565b6001600160601b03811660009081526002602081905260408220015460ff166003811115612963576129636140f3565b14801561299257506001600160601b0381166000908152600160205260409020544265ffffffffffff90911611155b80156129c557506001600160601b03811660009081526001602052604090205442600160301b90910465ffffffffffff16115b15611d5b57604051636985f4c960e11b81526001600160601b0382166004820152602401610848565b6001600160601b038083166000908152600260205260409020600181015460068201805492936001600160401b03831693600160a01b9093041691612a34908490614c2e565b856001600160401b03161115612a54578054612a51908490614ce9565b94505b60005b856001600160401b0316816001600160401b03161015612cd957600082612a7e8387614d09565b6001600160401b031681548110612a9757612a97614a63565b90600052602060002090600491828204019190066008029054906101000a90046001600160401b03169050600080612ad48a848a6005015461364a565b90506001600160601b038111612ae8578091505b506001600160601b0389811660009081526003602090815260408083206001600160401b0387168452909152902060028101805460ff1916600117905590821615801590612b485750856001600160601b0316826001600160601b031610155b15612c685780546001600160601b038b81166000908152600160205260409020549091612b9e91600160a01b909104831690612b8f90600160681b900460ff16600a614be2565b856001600160601b0316613624565b1015612c68576001600160601b038a81166000908152600560205260409081902083549151634ed4877d60e01b815260048101919091526001600160401b0386166024820152600160a01b90910482166044820152908316606482015273__$9bc36fe53479cd9237cdb88f2250cc7161$__90634ed4877d9060840160006040518083038186803b158015612c3257600080fd5b505af4158015612c46573d6000803e3d6000fd5b505050506001810180546001600160601b0319166001600160601b0384161790555b8054604080516001600160601b03600160a01b9093048316815284831660208201526001600160401b038616928d16917fbfea11d19705e7c3584fa7d3fb7ef96ca3c3ed4a1995383745345aaf5d4df58b910160405180910390a35050508080612cd190614c08565b915050612a57565b506001600160601b03861660009081526002602052604081206001018054879290612d0e9084906001600160401b0316614d09565b82546101009290920a6001600160401b0381810219909316918316021790915582546001600160601b038916600090815260026020526040902060010154909116039050612d7e576001600160601b038616600090815260026020819052604090912001805460ff191660011790555b505050505050565b612d8f81610e0c565b611d5b57604051633ccc2fdb60e01b81526001600160601b0382166004820152602401610848565b6000606060405163260cd52960e11b815260040160405180910390fd5b612ddd81612933565b6001600160601b0316600090815260026020819052604090912001805460ff19166003179055565b6040805160e08101825260008082526020820181905291810182905260608082018390526080820183905260a082019290925260c0810191909152606060016001600160601b0384166000908152600260208190526040909120015460ff166003811115612e7557612e756140f3565b14612e9e57604051636985f4c960e11b81526001600160601b0384166004820152602401610848565b6000612ea9846137b5565b6001600160601b03858116600090815260016020526040812054929350600160781b830490911691612ee690600160681b900460ff16600a614be2565b6001600160601b03808816600090815260026020818152604080842081516101608101835281546001600160401b038082168352600160401b8083048a1696840196909652600160a01b9182900489169483019490945260018301549384166060830152938304871660808201529290910490941660a082015290830154939450909290919060c083019060ff166003811115612f8557612f856140f3565b6003811115612f9657612f966140f3565b8152600282015461010090046001600160401b0316602080830191909152604080518082018252600385015481526004850154818401528184015260058401546060840152600684018054825181850281018501909352808352608090940193919290919083018282801561305c57602002820191906000526020600020906000905b82829054906101000a90046001600160401b03166001600160401b0316815260200190600801906020826007010492830192600103820291508084116130195790505b505050919092525050506001600160601b0388166000908152600560205260408082209051635a9db8df60e01b8152600481018290529293509173__$9bc36fe53479cd9237cdb88f2250cc7161$__90635a9db8df90602401602060405180830381865af41580156130d2573d6000803e3d6000fd5b505050506040513d601f19601f820116820180604052508101906130f69190614d29565b905080156131e457600061310b600183614c2e565b90505b600083600001828154811061312557613125614a63565b6000918252602080832060048304015460039092166008026101000a9091046001600160401b031680835260028701909152604090912080546001600160c01b0319169055845490915084908061317e5761317e614c41565b60008281526020812060046000199093019283040180546001600160401b03600860038616026101000a021916905591558290036131bc57506131cf565b50806131c781614d42565b91505061310e565b5060018201805467ffffffffffffffff191690555b50506001600160601b038781166000908152600260208190526040909120808201805460ff1916909217909155600101546080860151600160401b9091049091161180159061324d575080604001516001600160601b031684600001516001600160601b031610155b156133ef5783516001600160601b03808916600090815260026020818152604092839020805494909516600160401b02600160401b600160a01b0319909416939093178455918701519290910180546001600160401b039384166101000268ffffffffffffffff001990911617905585015116156133b5576001600160601b038088166000908152600360209081526040808320888201516001600160401b0316845290915280822080546001600160a01b03808216938c01939093526001820154600160601b900490921660608b01528751909361333892600160a01b9004811691879116613606565b9050600085876080015161334c9190614c2e565b90506133588183614c2e565b6001600160601b0390811660a08b0152835461337e91600160a01b909104168284613606565b6001600160601b031660808a0181905260608801805161339f908390614c2e565b90525050506002908101805460ff191690911790555b60608401516001600160601b03168652608084015183106133da5783608001516133dc565b825b6001600160601b0316602087015261342f565b6001600160601b03871660009081526002602052604090208054600160401b600160a01b03191673ffffffffffffffffffffffff00000000000000001790555b50505050915091565b604080516080810182526000808252602080830182815283850183905260608085018490526001600160601b038816808552600384528685206001600160401b038916865284528685206002808201805460ff1916909117905580546001600160a01b039081168852600180830154600160601b90049091169094529085529190925293822054929390929091906134db90600160681b900460ff16600a614be2565b60018301549091506000906001600160601b03161561351f578254600184015461351a916001600160601b03600160a01b909104811691859116613624565b613522565b60005b6001600160601b03808916600090815260026020526040902054919250600160401b90910481169082168110806135a35750806001600160601b0316826001600160601b03161480156135a357506001600160601b038816600090815260026020819052604090912001546001600160401b03610100909104811690881611155b156135e35783546001600160601b03600160a01b9091048116604088018190526135d09185908416613606565b6001600160601b031660608701526135fb565b8354600160a01b90046001600160601b031660408701525b505050509250929050565b600082600019048411830215820261361d57600080fd5b5091020490565b600082600019048411830215820261363b57600080fd5b50910281810615159190040190565b6001600160601b03831660008181526004602090815260408083206001600160401b03871680855290835281842082518084018452815481528351808501855260018301548152600290920154828601528085019182529585526003845282852091855290835281842085519151815484516001600160a01b031960a08d811b8216838a01526001600160601b0319606085901b16602c80850191909152600160a01b909404901b168187015285518082039092018252604c81019586905281519190960120633a89a52360e01b9094529495949093869373__$edfbc930edab1df5637e2c8827573bd861$__93633a89a5239361375193919290918b9190605001614d59565b602060405180830381865af415801561376e573d6000803e3d6000fd5b505050506040513d601f19601f820116820180604052508101906137929190614d29565b608081901c016fffffffffffffffffffffffffffffffff16979650505050505050565b6040805160a0810182526000808252602082018190529181018290526060810182905260808101919091526001600160601b03828116600090815260016020526040812054600160781b81049092169161381a90600160681b900460ff16600a614be2565b6001600160601b03808616600090815260026020818152604080842081516101608101835281546001600160401b038082168352600160401b8083048a1696840196909652600160a01b9182900489169483019490945260018301549384166060830152938304871660808201529290910490941660a082015290830154939450909290919060c083019060ff1660038111156138b9576138b96140f3565b60038111156138ca576138ca6140f3565b8152600282015461010090046001600160401b0316602080830191909152604080518082018252600385015481526004850154818401528184015260058401546060840152600684018054825181850281018501909352808352608090940193919290919083018282801561399057602002820191906000526020600020906000905b82829054906101000a90046001600160401b03166001600160401b03168152602001906008019060208260070104928301926001038202915080841161394d5790505b505050919092525050506001600160601b0386166000908152600560205260408082209051635a9db8df60e01b815260048101829052929350918190819073__$9bc36fe53479cd9237cdb88f2250cc7161$__90635a9db8df90602401602060405180830381865af4158015613a0a573d6000803e3d6000fd5b505050506040513d601f19601f82011682018060405250810190613a2e9190614d29565b905060005b81811015613d19576000806000613a4a888b613d26565b92509250925088604001516001600160601b0316816001600160601b03161015613b2f5760408901516001600160601b03161580613aa357508a613aa08d606001518c8c604001516001600160601b0316613606565b10155b15613ac757613ab78c606001518b8d613624565b6001600160601b03168c52613ad8565b60408901516001600160601b03168c525b8b600001516001600160601b0316876001600160601b031603613b05576001600160401b03861660208d01525b613b218c606001518b8e600001516001600160601b0316613606565b60808d015250613d19915050565b613b478c606001518b836001600160601b0316613606565b60808d018190528b11613bb057613b638c606001518b8d613624565b6001600160601b03908116808e5290881603613b8d576001600160401b03861660208d0152613b05565b600060208d0152613b218c606001518b8e600001516001600160601b0316613606565b809650829550816001600160601b03168c606001818151613bd19190614d89565b90525060608c0151613bed908b6001600160601b038416613606565b60808d018190528b11613c39576001600160601b0381168c526001600160401b03831660208d015260808c01518b1015613c31576001600160401b03831660408d01525b505050613d19565b613c44600186614c2e565b8403613d035760408901516001600160601b03161580613c7f57508a613c7c8d606001518c8c604001516001600160601b0316613606565b10155b15613ca357613c938c606001518b8d613624565b6001600160601b03168c52613cb4565b60408901516001600160601b03168c525b8b600001516001600160601b0316816001600160601b031603613ce1576001600160401b03831660208d01525b613cfd8c606001518b8e600001516001600160601b0316613606565b60808d01525b5050508080613d1190614a96565b915050613a33565b5050505050505050919050565b604051630eb851ab60e31b8152600481018390526000908190819073__$9bc36fe53479cd9237cdb88f2250cc7161$__906375c28d5890602401602060405180830381865af4158015613d7d573d6000803e3d6000fd5b505050506040513d601f19601f82011682018060405250810190613da19190614d9c565b60405163fcf4e00b60e01b81526004810187905290935060009073__$9bc36fe53479cd9237cdb88f2250cc7161$__9063fcf4e00b906024016040805180830381865af4158015613df6573d6000803e3d6000fd5b505050506040513d601f19601f82011682018060405250810190613e1a9190614db9565b90508060000151925080602001516001600160601b0316600003613e42575060009050613e67565b613e63836001600160601b03168683602001516001600160601b0316613624565b9150505b9250925092565b6040805161012081018252600080825260208201819052918101829052606081018290526080810182905260a0810182905260c0810182905260e0810182905261010081019190915290565b6040805160a081018252600080825260208201819052918101829052606081018290529060808201905b905290565b604051806040016040528060008152602001613ee4604051806040016040528060008152602001600081525090565b6001600160601b0381168114611d5b57600080fd5b600060208284031215613f3f57600080fd5b8135610e0581613f18565b600080600060408486031215613f5f57600080fd5b8335613f6a81613f18565b925060208401356001600160401b0380821115613f8657600080fd5b818601915086601f830112613f9a57600080fd5b813581811115613fa957600080fd5b8760208260051b8501011115613fbe57600080fd5b6020830194508093505050509250925092565b6000815180845260005b81811015613ff757602081850181015186830182015201613fdb565b506000602082860101526020601f19601f83011685010191505092915050565b6040808252835182820181905260009190606090818501906020808901865b8381101561408657815180516001600160a01b039081168752848201511684870152878101516001600160601b039081168988015290870151168686015260809094019390820190600101614036565b5050868303908701525061409a8187613fd1565b979650505050505050565b6001600160401b0381168114611d5b57600080fd5b600080604083850312156140cd57600080fd5b82356140d881613f18565b915060208301356140e8816140a5565b809150509250929050565b634e487b7160e01b600052602160045260246000fd5b60038110614119576141196140f3565b9052565b6001600160a01b0386811682526001600160601b038681166020840152851660408301528316606082015260a08101610a3c6080830184614109565b80356001600160a01b038116811461417057600080fd5b919050565b60008083601f84011261418757600080fd5b5081356001600160401b0381111561419e57600080fd5b60208301915083602082850101111561138e57600080fd5b60008060008060008060a087890312156141cf57600080fd5b86356141da81613f18565b95506141e860208801614159565b94506141f660408801614159565b9350606087013561420681613f18565b925060808701356001600160401b0381111561422157600080fd5b61422d89828a01614175565b979a9699509497509295939492505050565b60006101208201905065ffffffffffff808451168352806020850151166020840152506040830151614276604084018260ff169052565b50606083015161428b606084018260ff169052565b50608083015161429f608084018215159052565b5060a08301516142ba60a08401826001600160601b03169052565b5060c08301516142d560c08401826001600160601b03169052565b5060e08301516142f060e08401826001600160601b03169052565b50610100928301516001600160601b0316919092015290565b60008060006060848603121561431e57600080fd5b833561432981613f18565b92506020840135614339816140a5565b915061434760408501614159565b90509250925092565b82815260608101610e05602083018480518252602090810151910152565b634e487b7160e01b600052604160045260246000fd5b60405160a081016001600160401b03811182821017156143a6576143a661436e565b60405290565b604080519081016001600160401b03811182821017156143a6576143a661436e565b604051601f8201601f191681016001600160401b03811182821017156143f6576143f661436e565b604052919050565b803565ffffffffffff8116811461417057600080fd5b8015158114611d5b57600080fd5b803560ff8116811461417057600080fd5b6000806000806080858703121561444957600080fd5b843561445481613f18565b93506020858101356001600160401b038082111561447157600080fd5b9087019060a0828a03121561448557600080fd5b61448d614384565b614496836143fe565b81526144a38484016143fe565b8482015260408301356144b581614414565b604082015260608301356144c881613f18565b60608201526080830135828111156144df57600080fd5b80840193505089601f8401126144f457600080fd5b8235828111156145065761450661436e565b614518601f8201601f191686016143ce565b92508083528a8582860101111561452e57600080fd5b8085850186850137600090830190940193909352608083015250925061455660408601614422565b915061456460608601614422565b905092959194509250565b6020810160028310614583576145836140f3565b91905290565b60006101008201905060018060a01b0380855116835260208501516001600160601b03808216602086015280604088015116604086015250508060608601511660608401525060808401516145e16080840182614109565b50825160a0830152602092830151805160c08401529092015160e090910152919050565b6000806000806060858703121561461b57600080fd5b843561462681613f18565b9350602085013561463681613f18565b925060408501356001600160401b0381111561465157600080fd5b61465d87828801614175565b95989497509550505050565b6001600160601b0383168152604060208201526000610e026040830184613fd1565b6000806040838503121561469e57600080fd5b82356146a981613f18565b915060208301356140e881613f18565b60048110611d5b57611d5b6140f3565b60208101614583836146b9565b614119816146b9565b600081518084526020808501945080840160005b838110156147185781516001600160401b0316875295820195908201906001016146f3565b509495945050505050565b6020815261473d6020820183516001600160401b03169052565b6000602083015161475960408401826001600160601b03169052565b5060408301516001600160601b03811660608401525060608301516001600160401b03811660808401525060808301516001600160601b03811660a08401525060a08301516001600160601b03811660c08401525060c08301516147c060e08401826146d6565b5060e08301516101006147dd818501836001600160401b03169052565b84015190506101206147fb8482018380518252602090810151910152565b84015161016084015250610140830151610180808401526148206101a08401826146df565b949350505050565b60008060006060848603121561483d57600080fd5b833561484881613f18565b925060208401359150604084013561485f816140a5565b809150509250925092565b6001600160401b038b811682526001600160601b038b811660208401528a8116604084015289821660608401528881166080840152871660a08301526101608201906148b5876146b9565b60c08301969096529490931660e08401528151610100840152602090910151610120830152610140909101529695505050505050565b6040815260006001600160601b038085511660408401528060208601511660608401525060018060a01b036040850151166080830152606084015161493b60a08401826001600160a01b03169052565b5060808401516001600160601b03811660c08401525060a08401516001600160601b03811660e08401525060c084015160e0610100840152614981610120840182613fd1565b905082810360208401526149958185613fd1565b95945050505050565b6000602082840312156149b057600080fd5b8151610e0581614414565b634e487b7160e01b600052601160045260246000fd5b65ffffffffffff8181168382160190808211156149f0576149f06149bb565b5092915050565b6001600160601b038181168382160190808211156149f0576149f06149bb565b600060408284031215614a2957600080fd5b614a316143ac565b9050815181526020820151602082015292915050565b600060408284031215614a5957600080fd5b610e058383614a17565b634e487b7160e01b600052603260045260246000fd5b600060208284031215614a8b57600080fd5b8135610e05816140a5565b600060018201614aa857614aa86149bb565b5060010190565b6000808284036060811215614ac357600080fd5b833592506040601f1982011215614ad957600080fd5b50614ae26143ac565b6020840135815260408401356020820152809150509250929050565b600181815b80851115614b39578160001904821115614b1f57614b1f6149bb565b80851615614b2c57918102915b93841c9390800290614b03565b509250929050565b600082614b50575060016107f8565b81614b5d575060006107f8565b8160018114614b735760028114614b7d57614b99565b60019150506107f8565b60ff841115614b8e57614b8e6149bb565b50506001821b6107f8565b5060208310610133831016604e8410600b8410161715614bbc575081810a6107f8565b614bc68383614afe565b8060001904821115614bda57614bda6149bb565b029392505050565b6000610e0560ff841683614b41565b8151815260208083015190820152604081016107f8565b60006001600160401b03808316818103614c2457614c246149bb565b6001019392505050565b818103818111156107f8576107f86149bb565b634e487b7160e01b600052603160045260246000fd5b805162ffffff8116811461417057600080fd5b600060a08284031215614c7c57600080fd5b604051608081018181106001600160401b0382111715614c9e57614c9e61436e565b6040528251614cac81613f18565b8152614cba60208401614c57565b6020820152614ccb60408401614c57565b6040820152614cdd8460608501614a17565b60608201529392505050565b6001600160401b038281168282160390808211156149f0576149f06149bb565b6001600160401b038181168382160190808211156149f0576149f06149bb565b600060208284031215614d3b57600080fd5b5051919050565b600081614d5157614d516149bb565b506000190190565b84815260a08101614d77602083018680518252602090810151910152565b60608201939093526080015292915050565b808201808211156107f8576107f86149bb565b600060208284031215614dae57600080fd5b8151610e05816140a5565b600060408284031215614dcb57600080fd5b614dd36143ac565b8251614dde81613f18565b81526020830151614dee81613f18565b6020820152939250505056fea26469706673582212200efc15df1a33592ce4c791b68368d9d0941b1debcd85e6674a6007c1d735d25d64736f6c63430008130033",
    "linkReferences": {
      "src/lib/ECIES.sol": {
        "ECIES": [
          {
            "start": 6986,
            "length": 20
          },
          {
            "start": 8792,
            "length": 20
          },
          {
            "start": 10397,
            "length": 20
          },
          {
            "start": 14462,
            "length": 20
          }
        ]
      },
      "src/lib/MaxPriorityQueue.sol": {
        "MaxPriorityQueue": [
          {
            "start": 10809,
            "length": 20
          },
          {
            "start": 11607,
            "length": 20
          },
          {
            "start": 12786,
            "length": 20
          },
          {
            "start": 15146,
            "length": 20
          },
          {
            "start": 16029,
            "length": 20
          },
          {
            "start": 16151,
            "length": 20
          }
        ]
      }
    }
  },
  "methodIdentifiers": {
    "INIT()": "ea643914",
    "PARENT()": "122b83f9",
    "TYPE()": "bb24fe8a",
    "VEECODE()": "d61735ca",
    "auction(uint96,(uint48,uint48,bool,uint96,bytes),uint8,uint8)": "803c90fd",
    "auctionData(uint96)": "e2cfa6ea",
    "auctionType()": "994595e1",
    "bid(uint96,address,address,uint96,bytes)": "23464a60",
    "bids(uint96,uint64)": "0fb276fc",
    "cancelAuction(uint96)": "b04046df",
    "capacityInQuote(uint96)": "39792cdc",
    "claimBids(uint96,uint64[])": "0a35511b",
    "claimProceeds(uint96)": "24546b2d",
    "decryptAndSortBids(uint96,uint64)": "85670c1b",
    "decryptedBids(uint96)": "de1d3112",
    "encryptedBids(uint96,uint64)": "54c87c01",
    "getAuctionData(uint96)": "cadb3383",
    "getBid(uint96,uint64)": "a8bf44e4",
    "getLot(uint96)": "4e1f4258",
    "hasEnded(uint96)": "03855921",
    "isLive(uint96)": "732efc03",
    "lotData(uint96)": "5806afc3",
    "maxAmountAccepted(uint96)": "1a85c634",
    "maxPayout(uint96)": "d3ad2fed",
    "minAuctionDuration()": "54134876",
    "payoutFor(uint96,uint96)": "eee974b9",
    "priceFor(uint96,uint96)": "ba4c8b7d",
    "purchase(uint96,uint96,bytes)": "a8ee70be",
    "refundBid(uint96,uint64,address)": "53708796",
    "remainingCapacity(uint96)": "ace54da5",
    "settle(uint96)": "fb9d3cb6",
    "submitPrivateKey(uint96,uint256,uint64)": "cd7d2714"
  },
  "id": 63
}