{
  "abi": [
    {
      "type": "constructor",
      "inputs": [
        {
          "name": "auctionHouse_",
          "type": "address",
          "internalType": "address"
        }
      ],
      "stateMutability": "nonpayable"
    },
    {
      "type": "function",
      "name": "INIT",
      "inputs": [],
      "outputs": [],
      "stateMutability": "nonpayable"
    },
    {
      "type": "function",
      "name": "PARENT",
      "inputs": [],
      "outputs": [
        {
          "name": "",
          "type": "address",
          "internalType": "address"
        }
      ],
      "stateMutability": "view"
    },
    {
      "type": "function",
      "name": "TYPE",
      "inputs": [],
      "outputs": [
        {
          "name": "",
          "type": "uint8",
          "internalType": "enum Module.Type"
        }
      ],
      "stateMutability": "pure"
    },
    {
      "type": "function",
      "name": "VEECODE",
      "inputs": [],
      "outputs": [
        {
          "name": "",
          "type": "bytes7",
          "internalType": "Veecode"
        }
      ],
      "stateMutability": "pure"
    },
    {
      "type": "function",
      "name": "auction",
      "inputs": [
        {
          "name": "lotId_",
          "type": "uint96",
          "internalType": "uint96"
        },
        {
          "name": "params_",
          "type": "tuple",
          "internalType": "struct Auction.AuctionParams",
          "components": [
            {
              "name": "start",
              "type": "uint48",
              "internalType": "uint48"
            },
            {
              "name": "duration",
              "type": "uint48",
              "internalType": "uint48"
            },
            {
              "name": "capacityInQuote",
              "type": "bool",
              "internalType": "bool"
            },
            {
              "name": "capacity",
              "type": "uint256",
              "internalType": "uint256"
            },
            {
              "name": "implParams",
              "type": "bytes",
              "internalType": "bytes"
            }
          ]
        },
        {
          "name": "quoteTokenDecimals_",
          "type": "uint8",
          "internalType": "uint8"
        },
        {
          "name": "baseTokenDecimals_",
          "type": "uint8",
          "internalType": "uint8"
        }
      ],
      "outputs": [
        {
          "name": "prefundingRequired",
          "type": "bool",
          "internalType": "bool"
        },
        {
          "name": "capacity",
          "type": "uint256",
          "internalType": "uint256"
        }
      ],
      "stateMutability": "nonpayable"
    },
    {
      "type": "function",
      "name": "auctionData",
      "inputs": [
        {
          "name": "lotId",
          "type": "uint96",
          "internalType": "uint96"
        }
      ],
      "outputs": [
        {
          "name": "status",
          "type": "uint8",
          "internalType": "enum LocalSealedBidBatchAuction.AuctionStatus"
        },
        {
          "name": "nextDecryptIndex",
          "type": "uint96",
          "internalType": "uint96"
        },
        {
          "name": "nextBidId",
          "type": "uint96",
          "internalType": "uint96"
        },
        {
          "name": "minimumPrice",
          "type": "uint256",
          "internalType": "uint256"
        },
        {
          "name": "minFilled",
          "type": "uint256",
          "internalType": "uint256"
        },
        {
          "name": "minBidSize",
          "type": "uint256",
          "internalType": "uint256"
        },
        {
          "name": "publicKeyModulus",
          "type": "bytes",
          "internalType": "bytes"
        }
      ],
      "stateMutability": "view"
    },
    {
      "type": "function",
      "name": "bid",
      "inputs": [
        {
          "name": "lotId_",
          "type": "uint96",
          "internalType": "uint96"
        },
        {
          "name": "bidder_",
          "type": "address",
          "internalType": "address"
        },
        {
          "name": "recipient_",
          "type": "address",
          "internalType": "address"
        },
        {
          "name": "referrer_",
          "type": "address",
          "internalType": "address"
        },
        {
          "name": "amount_",
          "type": "uint256",
          "internalType": "uint256"
        },
        {
          "name": "auctionData_",
          "type": "bytes",
          "internalType": "bytes"
        }
      ],
      "outputs": [
        {
          "name": "bidId",
          "type": "uint96",
          "internalType": "uint96"
        }
      ],
      "stateMutability": "nonpayable"
    },
    {
      "type": "function",
      "name": "cancelAuction",
      "inputs": [
        {
          "name": "lotId_",
          "type": "uint96",
          "internalType": "uint96"
        }
      ],
      "outputs": [],
      "stateMutability": "nonpayable"
    },
    {
      "type": "function",
      "name": "capacityInQuote",
      "inputs": [
        {
          "name": "lotId_",
          "type": "uint96",
          "internalType": "uint96"
        }
      ],
      "outputs": [
        {
          "name": "",
          "type": "bool",
          "internalType": "bool"
        }
      ],
      "stateMutability": "view"
    },
    {
      "type": "function",
      "name": "decryptAndSortBids",
      "inputs": [
        {
          "name": "lotId_",
          "type": "uint96",
          "internalType": "uint96"
        },
        {
          "name": "decrypts_",
          "type": "tuple[]",
          "internalType": "struct LocalSealedBidBatchAuction.Decrypt[]",
          "components": [
            {
              "name": "amountOut",
              "type": "uint256",
              "internalType": "uint256"
            },
            {
              "name": "seed",
              "type": "bytes32",
              "internalType": "bytes32"
            }
          ]
        }
      ],
      "outputs": [],
      "stateMutability": "nonpayable"
    },
    {
      "type": "function",
      "name": "getBidData",
      "inputs": [
        {
          "name": "lotId_",
          "type": "uint96",
          "internalType": "uint96"
        },
        {
          "name": "bidId_",
          "type": "uint96",
          "internalType": "uint96"
        }
      ],
      "outputs": [
        {
          "name": "",
          "type": "tuple",
          "internalType": "struct LocalSealedBidBatchAuction.EncryptedBid",
          "components": [
            {
              "name": "status",
              "type": "uint8",
              "internalType": "enum LocalSealedBidBatchAuction.BidStatus"
            },
            {
              "name": "bidder",
              "type": "address",
              "internalType": "address"
            },
            {
              "name": "recipient",
              "type": "address",
              "internalType": "address"
            },
            {
              "name": "referrer",
              "type": "address",
              "internalType": "address"
            },
            {
              "name": "amount",
              "type": "uint256",
              "internalType": "uint256"
            },
            {
              "name": "encryptedAmountOut",
              "type": "bytes",
              "internalType": "bytes"
            }
          ]
        }
      ],
      "stateMutability": "view"
    },
    {
      "type": "function",
      "name": "getDecryptData",
      "inputs": [
        {
          "name": "lotId_",
          "type": "uint96",
          "internalType": "uint96"
        }
      ],
      "outputs": [
        {
          "name": "status_",
          "type": "uint8",
          "internalType": "enum LocalSealedBidBatchAuction.AuctionStatus"
        },
        {
          "name": "activeBids_",
          "type": "uint96",
          "internalType": "uint96"
        },
        {
          "name": "nextDecryptIndex_",
          "type": "uint96",
          "internalType": "uint96"
        },
        {
          "name": "publicKeyModulus_",
          "type": "bytes",
          "internalType": "bytes"
        }
      ],
      "stateMutability": "view"
    },
    {
      "type": "function",
      "name": "getLot",
      "inputs": [
        {
          "name": "lotId_",
          "type": "uint96",
          "internalType": "uint96"
        }
      ],
      "outputs": [
        {
          "name": "",
          "type": "tuple",
          "internalType": "struct Auction.Lot",
          "components": [
            {
              "name": "start",
              "type": "uint48",
              "internalType": "uint48"
            },
            {
              "name": "conclusion",
              "type": "uint48",
              "internalType": "uint48"
            },
            {
              "name": "quoteTokenDecimals",
              "type": "uint8",
              "internalType": "uint8"
            },
            {
              "name": "baseTokenDecimals",
              "type": "uint8",
              "internalType": "uint8"
            },
            {
              "name": "capacityInQuote",
              "type": "bool",
              "internalType": "bool"
            },
            {
              "name": "capacity",
              "type": "uint256",
              "internalType": "uint256"
            },
            {
              "name": "sold",
              "type": "uint256",
              "internalType": "uint256"
            },
            {
              "name": "purchased",
              "type": "uint256",
              "internalType": "uint256"
            }
          ]
        }
      ],
      "stateMutability": "view"
    },
    {
      "type": "function",
      "name": "getLotData",
      "inputs": [
        {
          "name": "lotId_",
          "type": "uint96",
          "internalType": "uint96"
        }
      ],
      "outputs": [
        {
          "name": "",
          "type": "tuple",
          "internalType": "struct LocalSealedBidBatchAuction.AuctionData",
          "components": [
            {
              "name": "status",
              "type": "uint8",
              "internalType": "enum LocalSealedBidBatchAuction.AuctionStatus"
            },
            {
              "name": "nextDecryptIndex",
              "type": "uint96",
              "internalType": "uint96"
            },
            {
              "name": "nextBidId",
              "type": "uint96",
              "internalType": "uint96"
            },
            {
              "name": "minimumPrice",
              "type": "uint256",
              "internalType": "uint256"
            },
            {
              "name": "minFilled",
              "type": "uint256",
              "internalType": "uint256"
            },
            {
              "name": "minBidSize",
              "type": "uint256",
              "internalType": "uint256"
            },
            {
              "name": "publicKeyModulus",
              "type": "bytes",
              "internalType": "bytes"
            },
            {
              "name": "bidIds",
              "type": "uint96[]",
              "internalType": "uint96[]"
            }
          ]
        }
      ],
      "stateMutability": "view"
    },
    {
      "type": "function",
      "name": "getNextBidsToDecrypt",
      "inputs": [
        {
          "name": "lotId_",
          "type": "uint96",
          "internalType": "uint96"
        },
        {
          "name": "number_",
          "type": "uint256",
          "internalType": "uint256"
        }
      ],
      "outputs": [
        {
          "name": "",
          "type": "tuple[]",
          "internalType": "struct LocalSealedBidBatchAuction.EncryptedBid[]",
          "components": [
            {
              "name": "status",
              "type": "uint8",
              "internalType": "enum LocalSealedBidBatchAuction.BidStatus"
            },
            {
              "name": "bidder",
              "type": "address",
              "internalType": "address"
            },
            {
              "name": "recipient",
              "type": "address",
              "internalType": "address"
            },
            {
              "name": "referrer",
              "type": "address",
              "internalType": "address"
            },
            {
              "name": "amount",
              "type": "uint256",
              "internalType": "uint256"
            },
            {
              "name": "encryptedAmountOut",
              "type": "bytes",
              "internalType": "bytes"
            }
          ]
        }
      ],
      "stateMutability": "view"
    },
    {
      "type": "function",
      "name": "getSortedBidCount",
      "inputs": [
        {
          "name": "lotId_",
          "type": "uint96",
          "internalType": "uint96"
        }
      ],
      "outputs": [
        {
          "name": "",
          "type": "uint256",
          "internalType": "uint256"
        }
      ],
      "stateMutability": "view"
    },
    {
      "type": "function",
      "name": "getSortedBidData",
      "inputs": [
        {
          "name": "lotId_",
          "type": "uint96",
          "internalType": "uint96"
        },
        {
          "name": "index_",
          "type": "uint96",
          "internalType": "uint96"
        }
      ],
      "outputs": [
        {
          "name": "",
          "type": "tuple",
          "internalType": "struct Bid",
          "components": [
            {
              "name": "bidId",
              "type": "uint96",
              "internalType": "uint96"
            },
            {
              "name": "amountIn",
              "type": "uint256",
              "internalType": "uint256"
            },
            {
              "name": "minAmountOut",
              "type": "uint256",
              "internalType": "uint256"
            }
          ]
        }
      ],
      "stateMutability": "view"
    },
    {
      "type": "function",
      "name": "hasEnded",
      "inputs": [
        {
          "name": "lotId_",
          "type": "uint96",
          "internalType": "uint96"
        }
      ],
      "outputs": [
        {
          "name": "",
          "type": "bool",
          "internalType": "bool"
        }
      ],
      "stateMutability": "view"
    },
    {
      "type": "function",
      "name": "isLive",
      "inputs": [
        {
          "name": "lotId_",
          "type": "uint96",
          "internalType": "uint96"
        }
      ],
      "outputs": [
        {
          "name": "",
          "type": "bool",
          "internalType": "bool"
        }
      ],
      "stateMutability": "view"
    },
    {
      "type": "function",
      "name": "lotData",
      "inputs": [
        {
          "name": "id",
          "type": "uint96",
          "internalType": "uint96"
        }
      ],
      "outputs": [
        {
          "name": "start",
          "type": "uint48",
          "internalType": "uint48"
        },
        {
          "name": "conclusion",
          "type": "uint48",
          "internalType": "uint48"
        },
        {
          "name": "quoteTokenDecimals",
          "type": "uint8",
          "internalType": "uint8"
        },
        {
          "name": "baseTokenDecimals",
          "type": "uint8",
          "internalType": "uint8"
        },
        {
          "name": "capacityInQuote",
          "type": "bool",
          "internalType": "bool"
        },
        {
          "name": "capacity",
          "type": "uint256",
          "internalType": "uint256"
        },
        {
          "name": "sold",
          "type": "uint256",
          "internalType": "uint256"
        },
        {
          "name": "purchased",
          "type": "uint256",
          "internalType": "uint256"
        }
      ],
      "stateMutability": "view"
    },
    {
      "type": "function",
      "name": "lotEncryptedBids",
      "inputs": [
        {
          "name": "lotId",
          "type": "uint96",
          "internalType": "uint96"
        },
        {
          "name": "bidId",
          "type": "uint96",
          "internalType": "uint96"
        }
      ],
      "outputs": [
        {
          "name": "status",
          "type": "uint8",
          "internalType": "enum LocalSealedBidBatchAuction.BidStatus"
        },
        {
          "name": "bidder",
          "type": "address",
          "internalType": "address"
        },
        {
          "name": "recipient",
          "type": "address",
          "internalType": "address"
        },
        {
          "name": "referrer",
          "type": "address",
          "internalType": "address"
        },
        {
          "name": "amount",
          "type": "uint256",
          "internalType": "uint256"
        },
        {
          "name": "encryptedAmountOut",
          "type": "bytes",
          "internalType": "bytes"
        }
      ],
      "stateMutability": "view"
    },
    {
      "type": "function",
      "name": "lotSortedBids",
      "inputs": [
        {
          "name": "lotId",
          "type": "uint96",
          "internalType": "uint96"
        }
      ],
      "outputs": [
        {
          "name": "flag",
          "type": "bool",
          "internalType": "bool"
        }
      ],
      "stateMutability": "view"
    },
    {
      "type": "function",
      "name": "maxAmountAccepted",
      "inputs": [
        {
          "name": "lotId_",
          "type": "uint96",
          "internalType": "uint96"
        }
      ],
      "outputs": [
        {
          "name": "",
          "type": "uint256",
          "internalType": "uint256"
        }
      ],
      "stateMutability": "view"
    },
    {
      "type": "function",
      "name": "maxPayout",
      "inputs": [
        {
          "name": "lotId_",
          "type": "uint96",
          "internalType": "uint96"
        }
      ],
      "outputs": [
        {
          "name": "",
          "type": "uint256",
          "internalType": "uint256"
        }
      ],
      "stateMutability": "view"
    },
    {
      "type": "function",
      "name": "minAuctionDuration",
      "inputs": [],
      "outputs": [
        {
          "name": "",
          "type": "uint48",
          "internalType": "uint48"
        }
      ],
      "stateMutability": "view"
    },
    {
      "type": "function",
      "name": "payoutFor",
      "inputs": [
        {
          "name": "lotId_",
          "type": "uint96",
          "internalType": "uint96"
        },
        {
          "name": "amount_",
          "type": "uint256",
          "internalType": "uint256"
        }
      ],
      "outputs": [
        {
          "name": "",
          "type": "uint256",
          "internalType": "uint256"
        }
      ],
      "stateMutability": "view"
    },
    {
      "type": "function",
      "name": "priceFor",
      "inputs": [
        {
          "name": "lotId_",
          "type": "uint96",
          "internalType": "uint96"
        },
        {
          "name": "payout_",
          "type": "uint256",
          "internalType": "uint256"
        }
      ],
      "outputs": [
        {
          "name": "",
          "type": "uint256",
          "internalType": "uint256"
        }
      ],
      "stateMutability": "view"
    },
    {
      "type": "function",
      "name": "purchase",
      "inputs": [
        {
          "name": "lotId_",
          "type": "uint96",
          "internalType": "uint96"
        },
        {
          "name": "amount_",
          "type": "uint256",
          "internalType": "uint256"
        },
        {
          "name": "auctionData_",
          "type": "bytes",
          "internalType": "bytes"
        }
      ],
      "outputs": [
        {
          "name": "payout",
          "type": "uint256",
          "internalType": "uint256"
        },
        {
          "name": "auctionOutput",
          "type": "bytes",
          "internalType": "bytes"
        }
      ],
      "stateMutability": "nonpayable"
    },
    {
      "type": "function",
      "name": "refundBid",
      "inputs": [
        {
          "name": "lotId_",
          "type": "uint96",
          "internalType": "uint96"
        },
        {
          "name": "bidId_",
          "type": "uint96",
          "internalType": "uint96"
        },
        {
          "name": "bidder_",
          "type": "address",
          "internalType": "address"
        }
      ],
      "outputs": [
        {
          "name": "bidAmount",
          "type": "uint256",
          "internalType": "uint256"
        }
      ],
      "stateMutability": "nonpayable"
    },
    {
      "type": "function",
      "name": "remainingCapacity",
      "inputs": [
        {
          "name": "lotId_",
          "type": "uint96",
          "internalType": "uint96"
        }
      ],
      "outputs": [
        {
          "name": "",
          "type": "uint256",
          "internalType": "uint256"
        }
      ],
      "stateMutability": "view"
    },
    {
      "type": "function",
      "name": "settle",
      "inputs": [
        {
          "name": "lotId_",
          "type": "uint96",
          "internalType": "uint96"
        }
      ],
      "outputs": [
        {
          "name": "winningBids_",
          "type": "tuple[]",
          "internalType": "struct Auction.Bid[]",
          "components": [
            {
              "name": "bidder",
              "type": "address",
              "internalType": "address"
            },
            {
              "name": "recipient",
              "type": "address",
              "internalType": "address"
            },
            {
              "name": "referrer",
              "type": "address",
              "internalType": "address"
            },
            {
              "name": "amount",
              "type": "uint256",
              "internalType": "uint256"
            },
            {
              "name": "minAmountOut",
              "type": "uint256",
              "internalType": "uint256"
            },
            {
              "name": "auctionParam",
              "type": "bytes",
              "internalType": "bytes"
            }
          ]
        },
        {
          "name": "auctionOutput_",
          "type": "bytes",
          "internalType": "bytes"
        }
      ],
      "stateMutability": "nonpayable"
    },
    {
      "type": "event",
      "name": "BidDecrypted",
      "inputs": [
        {
          "name": "lotId",
          "type": "uint96",
          "indexed": true,
          "internalType": "uint96"
        },
        {
          "name": "bidId",
          "type": "uint96",
          "indexed": true,
          "internalType": "uint96"
        },
        {
          "name": "amountIn",
          "type": "uint256",
          "indexed": false,
          "internalType": "uint256"
        },
        {
          "name": "amountOut",
          "type": "uint256",
          "indexed": false,
          "internalType": "uint256"
        }
      ],
      "anonymous": false
    },
    {
      "type": "error",
      "name": "Auction_AlreadyCancelled",
      "inputs": []
    },
    {
      "type": "error",
      "name": "Auction_AmountLessThanMinimum",
      "inputs": []
    },
    {
      "type": "error",
      "name": "Auction_BidDoesNotExist",
      "inputs": []
    },
    {
      "type": "error",
      "name": "Auction_InvalidBidId",
      "inputs": [
        {
          "name": "lotId",
          "type": "uint96",
          "internalType": "uint96"
        },
        {
          "name": "bidId",
          "type": "uint96",
          "internalType": "uint96"
        }
      ]
    },
    {
      "type": "error",
      "name": "Auction_InvalidDecrypt",
      "inputs": []
    },
    {
      "type": "error",
      "name": "Auction_InvalidDuration",
      "inputs": [
        {
          "name": "duration_",
          "type": "uint48",
          "internalType": "uint48"
        },
        {
          "name": "minimum_",
          "type": "uint48",
          "internalType": "uint48"
        }
      ]
    },
    {
      "type": "error",
      "name": "Auction_InvalidLotId",
      "inputs": [
        {
          "name": "lotId",
          "type": "uint96",
          "internalType": "uint96"
        }
      ]
    },
    {
      "type": "error",
      "name": "Auction_InvalidParams",
      "inputs": []
    },
    {
      "type": "error",
      "name": "Auction_InvalidStart",
      "inputs": [
        {
          "name": "start_",
          "type": "uint48",
          "internalType": "uint48"
        },
        {
          "name": "minimum_",
          "type": "uint48",
          "internalType": "uint48"
        }
      ]
    },
    {
      "type": "error",
      "name": "Auction_MarketActive",
      "inputs": [
        {
          "name": "lotId",
          "type": "uint96",
          "internalType": "uint96"
        }
      ]
    },
    {
      "type": "error",
      "name": "Auction_MarketNotActive",
      "inputs": [
        {
          "name": "lotId",
          "type": "uint96",
          "internalType": "uint96"
        }
      ]
    },
    {
      "type": "error",
      "name": "Auction_NotAuthorized",
      "inputs": []
    },
    {
      "type": "error",
      "name": "Auction_NotBidder",
      "inputs": []
    },
    {
      "type": "error",
      "name": "Auction_NotConcluded",
      "inputs": []
    },
    {
      "type": "error",
      "name": "Auction_NotEnoughCapacity",
      "inputs": []
    },
    {
      "type": "error",
      "name": "Auction_NotImplemented",
      "inputs": []
    },
    {
      "type": "error",
      "name": "Auction_NotLive",
      "inputs": []
    },
    {
      "type": "error",
      "name": "Auction_OnlyMarketOwner",
      "inputs": []
    },
    {
      "type": "error",
      "name": "Auction_WrongState",
      "inputs": []
    },
    {
      "type": "error",
      "name": "Bid_WrongState",
      "inputs": []
    },
    {
      "type": "error",
      "name": "Module_InvalidParent",
      "inputs": [
        {
          "name": "parent_",
          "type": "address",
          "internalType": "address"
        }
      ]
    },
    {
      "type": "error",
      "name": "Module_OnlyInternal",
      "inputs": []
    },
    {
      "type": "error",
      "name": "Module_OnlyParent",
      "inputs": [
        {
          "name": "caller_",
          "type": "address",
          "internalType": "address"
        }
      ]
    }
  ],
  "bytecode": {
    "object": "0x60a06040523480156200001157600080fd5b50604051620049b4380380620049b4833981016040819052620000349162000095565b80806001600160a01b0381166200006d57604051631462ddc360e21b81526001600160a01b038216600482015260240160405180910390fd5b6001600160a01b031660805250506000805465ffffffffffff191662015180179055620000c7565b600060208284031215620000a857600080fd5b81516001600160a01b0381168114620000c057600080fd5b9392505050565b6080516148766200013e6000396000818161023701528181610add01528181610b2401528181610ceb01528181610d2d01528181610e9d01528181610edf01528181611267015281816112a9015281816113b0015281816113f201528181611e0301528181611ede0152611f2001526148766000f3fe608060405234801561001057600080fd5b50600436106101e55760003560e01c80639369d8301161010f578063d61735ca116100a2578063e2cfa6ea11610071578063e2cfa6ea14610649578063ea6439141461066f578063f6dac88614610677578063fb9d3cb61461068a57600080fd5b8063d61735ca146105c0578063d756ff97146105d8578063dcfab7a6146105f8578063e0eb89511461060b57600080fd5b8063bae96bdd116100de578063bae96bdd14610587578063bb24fe8a146105b1578063bd8dd0fd14610321578063d3ad2fed1461027157600080fd5b80639369d830146105025780639dffb4d014610525578063ace54da514610545578063b04046df1461057257600080fd5b806339792cdc1161018757806356ab110b1161015657806356ab110b146103e85780635806afc314610413578063732efc03146104ce57806376103c8f146104e157600080fd5b806339792cdc146102ee5780634dc1a12f146103215780634e1f42581461033757806354134876146103bf57600080fd5b80631a85c634116101c35780631a85c6341461027157806320cff4e0146102935780632c7634ab146102b85780632efdcfc6146102db57600080fd5b806303855921146101ea5780630f613f1514610212578063122b83f914610232575b600080fd5b6101fd6101f8366004613806565b6106ab565b60405190151581526020015b60405180910390f35b610225610220366004613806565b610703565b60405161020991906138e1565b6102597f000000000000000000000000000000000000000000000000000000000000000081565b6040516001600160a01b039091168152602001610209565b61028561027f366004613806565b50600090565b604051908152602001610209565b6102a66102a1366004613983565b61091a565b604051610209969594939291906139cc565b6102cb6102c6366004613806565b6109f3565b6040516102099493929190613a16565b6102856102e9366004613a6b565b610ad0565b6101fd6102fc366004613806565b6001600160601b0316600090815260016020526040902054600160701b900460ff1690565b61028561032f366004613ab2565b600092915050565b61034a610345366004613806565b610c41565b604051610209919060006101008201905065ffffffffffff8084511683528060208501511660208401525060ff604084015116604083015260ff606084015116606083015260808301511515608083015260a083015160a083015260c083015160c083015260e083015160e083015292915050565b6000546103d19065ffffffffffff1681565b60405165ffffffffffff9091168152602001610209565b6103fb6103f6366004613b26565b610cde565b6040516001600160601b039091168152602001610209565b610481610421366004613806565b6001602081905260009182526040909120805491810154600282015460039092015465ffffffffffff80851694600160301b81049091169360ff600160601b8304811694600160681b8404821694600160701b9094049091169290919088565b6040805165ffffffffffff998a16815298909716602089015260ff958616968801969096529390921660608601521515608085015260a084015260c083015260e082015261010001610209565b6101fd6104dc366004613806565b610e0a565b6104f46104ef366004613bb7565b610e8e565b604051610209929190613c12565b6101fd610510366004613806565b60046020526000908152604090205460ff1681565b610538610533366004613ab2565b610fa8565b6040516102099190613c8d565b610285610553366004613806565b6001600160601b03166000908152600160208190526040909120015490565b610585610580366004613806565b61125c565b005b61059a610595366004613dfd565b6113a2565b604080519215158352602083019190915201610209565b60006040516102099190613f21565b6040516630314c5342424160c81b8152602001610209565b6105eb6105e6366004613983565b61168d565b6040516102099190613f34565b610585610606366004613f47565b6117c9565b61061e610619366004613983565b611c1e565b6040805182516001600160601b03168152602080840151908201529181015190820152606001610209565b61065c610657366004613806565b611d20565b6040516102099796959493929190614027565b610585611df8565b610285610685366004613806565b611e45565b61069d610698366004613806565b611ed0565b60405161020992919061407f565b6001600160601b03811660009081526001602052604081205465ffffffffffff428116600160301b9092041610806106fd57506001600160601b03821660009081526001602081905260409091200154155b92915050565b61075e604080516101008101909152806000815260200160006001600160601b0316815260200160006001600160601b0316815260200160008152602001600081526020016000815260200160608152602001606081525090565b6001600160601b0382166000908152600260208190526040918290208251610100810190935280549091839160ff169081111561079d5761079d613823565b60028111156107ae576107ae613823565b815281546001600160601b03610100820481166020840152600160681b9091041660408201526001820154606082015260028201546080820152600382015460a082015260048201805460c09092019161080790614131565b80601f016020809104026020016040519081016040528092919081815260200182805461083390614131565b80156108805780601f1061085557610100808354040283529160200191610880565b820191906000526020600020905b81548152906001019060200180831161086357829003601f168201915b505050505081526020016005820180548060200260200160405190810160405280929190818152602001828054801561090a57602002820191906000526020600020906000905b82829054906101000a90046001600160601b03166001600160601b0316815260200190600c0190602082600b010492830192600103820291508084116108c75790505b5050505050815250509050919050565b600360208181526000938452604080852090915291835291208054600182015460028301549383015460048401805460ff8516966001600160a01b03610100909604861696948616951693919061097090614131565b80601f016020809104026020016040519081016040528092919081815260200182805461099c90614131565b80156109e95780601f106109be576101008083540402835291602001916109e9565b820191906000526020600020905b8154815290600101906020018083116109cc57829003601f168201915b5050505050905086565b6001600160601b03808216600090815260026020526040812080546005820154600483018054949586958695606095909460ff8216949093610100909204909116918190610a4090614131565b80601f0160208091040260200160405190810160405280929190818152602001828054610a6c90614131565b8015610ab95780601f10610a8e57610100808354040283529160200191610ab9565b820191906000526020600020905b815481529060010190602001808311610a9c57829003601f168201915b505050505090509450945094509450509193509193565b6000336001600160a01b037f00000000000000000000000000000000000000000000000000000000000000001614610b22576040516366e069e160e01b81523360048201526024015b60405180910390fd5b7f00000000000000000000000000000000000000000000000000000000000000006001600160a01b0316635c774ed76040518163ffffffff1660e01b8152600401602060405180830381865afa158015610b80573d6000803e3d6000fd5b505050506040513d601f19601f82011682018060405250810190610ba4919061416b565b15610bc25760405163115250c560e21b815260040160405180910390fd5b610bcb84611feb565b610bd484612039565b610bde8484612088565b610be98484846120e3565b610bf3848461213e565b6001600160601b03841660009081526001602052604090205465ffffffffffff428116600160301b909204161015610c2e57610c2e84612197565b610c398484846121e4565b949350505050565b610c4961370a565b506001600160601b0316600090815260016020818152604092839020835161010081018552815465ffffffffffff8082168352600160301b8204169382019390935260ff600160601b8404811695820195909552600160681b830485166060820152600160701b909204909316151560808201529082015460a0820152600282015460c082015260039091015460e082015290565b6000336001600160a01b037f00000000000000000000000000000000000000000000000000000000000000001614610d2b576040516366e069e160e01b8152336004820152602401610b19565b7f00000000000000000000000000000000000000000000000000000000000000006001600160a01b0316635c774ed76040518163ffffffff1660e01b8152600401602060405180830381865afa158015610d89573d6000803e3d6000fd5b505050506040513d601f19601f82011682018060405250810190610dad919061416b565b15610dcb5760405163115250c560e21b815260040160405180910390fd5b610dd488611feb565b610ddd88612039565b610de688612415565b610def886124b1565b610dfe88888888888888612501565b98975050505050505050565b6001600160601b03811660009081526001602081905260408220015415801590610e5d57506001600160601b03821660009081526001602052604090205465ffffffffffff428116600160301b90920416115b80156106fd5750506001600160601b031660009081526001602052604090205465ffffffffffff4281169116111590565b60006060336001600160a01b037f00000000000000000000000000000000000000000000000000000000000000001614610edd576040516366e069e160e01b8152336004820152602401610b19565b7f00000000000000000000000000000000000000000000000000000000000000006001600160a01b0316635c774ed76040518163ffffffff1660e01b8152600401602060405180830381865afa158015610f3b573d6000803e3d6000fd5b505050506040513d601f19601f82011682018060405250810190610f5f919061416b565b15610f7d5760405163115250c560e21b815260040160405180910390fd5b610f8686611feb565b610f8f86612705565b610f9b868686866127af565b9150915094509492505050565b6060610fb383611feb565b610fbc836127cc565b610fc5836127fe565b610fce836124b1565b6001600160601b038084166000908152600260205260409020805460059091018054610100909204909216919061100690839061419e565b8411156110265760405163646bb80960e01b815260040160405180910390fd5b805460009061103f906001600160601b0385169061419e565b90508085101561104c5750835b6000816001600160401b0381111561106657611066613cef565b60405190808252806020026020018201604052801561109f57816020015b61108c61374e565b8152602001906001900390816110845790505b50905060005b82811015611251576001600160601b0380891660009081526003602052604081209186906110d69085908a166141b1565b815481106110e6576110e66141c4565b600091825260208083206002830401546001909216600c026101000a9091046001600160601b031683528201929092526040908101909120815160c081019092528054829060ff16600381111561113f5761113f613823565b600381111561115057611150613823565b815281546001600160a01b036101009091048116602083015260018301548116604083015260028301541660608201526003820154608082015260048201805460a09092019161119f90614131565b80601f01602080910402602001604051908101604052809291908181526020018280546111cb90614131565b80156112185780601f106111ed57610100808354040283529160200191611218565b820191906000526020600020905b8154815290600101906020018083116111fb57829003601f168201915b505050505081525050828281518110611233576112336141c4565b60200260200101819052508080611249906141da565b9150506110a5565b509695505050505050565b336001600160a01b037f000000000000000000000000000000000000000000000000000000000000000016146112a7576040516366e069e160e01b8152336004820152602401610b19565b7f00000000000000000000000000000000000000000000000000000000000000006001600160a01b0316635c774ed76040518163ffffffff1660e01b8152600401602060405180830381865afa158015611305573d6000803e3d6000fd5b505050506040513d601f19601f82011682018060405250810190611329919061416b565b156113475760405163115250c560e21b815260040160405180910390fd5b61135081611feb565b61135981612415565b61136281612805565b6001600160601b03166000908152600160208190526040822080546bffffffffffff0000000000001916600160301b4265ffffffffffff16021781550155565b600080336001600160a01b037f000000000000000000000000000000000000000000000000000000000000000016146113f0576040516366e069e160e01b8152336004820152602401610b19565b7f00000000000000000000000000000000000000000000000000000000000000006001600160a01b0316635c774ed76040518163ffffffff1660e01b8152600401602060405180830381865afa15801561144e573d6000803e3d6000fd5b505050506040513d601f19601f82011682018060405250810190611472919061416b565b156114905760405163115250c560e21b815260040160405180910390fd5b845165ffffffffffff16158015906114b35750845165ffffffffffff4281169116105b156114e7578451604051639421aa8960e01b815265ffffffffffff9182166004820152429091166024820152604401610b19565b600054602086015165ffffffffffff918216911610156115345760208501516000546040516302c1012760e21b815265ffffffffffff928316600482015291166024820152604401610b19565b61153c61370a565b855165ffffffffffff1615611552578551611554565b425b65ffffffffffff16808252602087015161156d916141f3565b65ffffffffffff16602082015260ff8086166040808401919091529085166060808401919091529087015115156080808401919091529087015160a08301528601516115bc908890839061283e565b6001600160601b03979097166000908152600160208181526040928390208451815492860151948601516060870151608088015165ffffffffffff9384166bffffffffffffffffffffffff1990961695909517600160301b93909716929092029590951761ffff60601b1916600160601b60ff9687160260ff60681b191617600160681b95909116949094029390931760ff60701b1916600160701b9115159190910217825560a083015190820181905560c0830151600283015560e0909201516003909101559596945050505050565b61169561374e565b6001600160601b038084166000908152600360208181526040808420948716845293905290829020825160c0810190935280549091839160ff16908111156116df576116df613823565b60038111156116f0576116f0613823565b815281546001600160a01b036101009091048116602083015260018301548116604083015260028301541660608201526003820154608082015260048201805460a09092019161173f90614131565b80601f016020809104026020016040519081016040528092919081815260200182805461176b90614131565b80156117b85780601f1061178d576101008083540402835291602001916117b8565b820191906000526020600020905b81548152906001019060200180831161179b57829003601f168201915b505050505081525050905092915050565b6117d282611feb565b6001600160601b038216600090815260026020819052604082205460ff169081111561180057611800613823565b14158061183357506001600160601b038216600090815260016020526040902054600160301b900465ffffffffffff1642105b156118515760405163e75ec27760e01b815260040160405180910390fd5b6001600160601b0380831660009081526002602052604090208054835160059092018054610100909204909316929061188b90849061419e565b826001600160601b031611156118b45760405163646bb80960e01b815260040160405180910390fd5b6001600160601b038516600090815260026020526040812060030154905b836001600160601b0316816001600160601b03161015611b7d57600061191a8888846001600160601b03168151811061190d5761190d6141c4565b6020026020010151612998565b90506000846119298489614219565b6001600160601b031681548110611942576119426141c4565b600091825260208083206002830401546001600160601b038d811685526003835260408086206001909516600c026101000a9092041680855292909152918290209151909250611996906004830190614239565b60405180910390208380519060200120146119c45760405163646bb80960e01b815260040160405180910390fd5b6000815460ff1660038111156119dc576119dc613823565b146119e957505050611b6b565b8489856001600160601b031681518110611a0557611a056141c4565b60200260200101516000015110611aee57600460008b6001600160601b03166001600160601b0316815260200190815260200160002073__$77034020f3ec449d7563df6928dee62441$__63cc41934790918484600301548d896001600160601b031681518110611a7857611a786141c4565b6020908102919091010151516040516001600160e01b031960e087901b16815260048101949094526001600160601b0390921660248401526044830152606482015260840160006040518083038186803b158015611ad557600080fd5b505af4158015611ae9573d6000803e3d6000fd5b505050505b805460ff19166001178155600381015489516001600160601b03808516928d8216927f4db578d92c48bdcc8294c0103dac8ba2678d679b73a7200bd4d4210f56391796928e91908a16908110611b4657611b466141c4565b6020908102919091018101515160408051938452918301520160405180910390a35050505b80611b75816142af565b9150506118d2565b506001600160601b03808716600090815260026020526040902080548592600191611baf918591610100900416614219565b82546001600160601b0391821661010093840a9081029083021990911617909255845489831660009081526002602052604090205491909104909116039050611c16576001600160601b0386166000908152600260205260409020805460ff191660011790555b505050505050565b611c4b604051806060016040528060006001600160601b0316815260200160008152602001600081525090565b6001600160601b0383166000908152600460208190526040918290209151636fae84f760e11b815273__$77034020f3ec449d7563df6928dee62441$__9263df5d09ee92611cad928791019182526001600160601b0316602082015260400190565b602060405180830381865af4158015611cca573d6000803e3d6000fd5b505050506040513d601f19601f82011682018060405250810190611cee91906142d5565b6040805160608101825282546001600160601b0316815260018301546020820152600290920154908201529392505050565b60026020819052600091825260409091208054600182015492820154600383015460048401805460ff8516966001600160601b036101008704811697600160681b9097041695909493929091611d7590614131565b80601f0160208091040260200160405190810160405280929190818152602001828054611da190614131565b8015611dee5780601f10611dc357610100808354040283529160200191611dee565b820191906000526020600020905b815481529060010190602001808311611dd157829003601f168201915b5050505050905087565b336001600160a01b037f00000000000000000000000000000000000000000000000000000000000000001614611e43576040516366e069e160e01b8152336004820152602401610b19565b565b6001600160601b03811660009081526004602081905260408083209051635a9db8df60e01b81529182015273__$77034020f3ec449d7563df6928dee62441$__90635a9db8df90602401602060405180830381865af4158015611eac573d6000803e3d6000fd5b505050506040513d601f19601f820116820180604052508101906106fd91906142d5565b606080336001600160a01b037f00000000000000000000000000000000000000000000000000000000000000001614611f1e576040516366e069e160e01b8152336004820152602401610b19565b7f00000000000000000000000000000000000000000000000000000000000000006001600160a01b0316635c774ed76040518163ffffffff1660e01b8152600401602060405180830381865afa158015611f7c573d6000803e3d6000fd5b505050506040513d601f19601f82011682018060405250810190611fa0919061416b565b15611fbe5760405163115250c560e21b815260040160405180910390fd5b611fc783611feb565b611fd0836127cc565b611fd9836124b1565b611fe283612ac8565b91509150915091565b6001600160601b03811660009081526001602052604081205465ffffffffffff16900361203657604051638c54233f60e01b81526001600160601b0382166004820152602401610b19565b50565b6001600160601b03811660009081526001602052604090205465ffffffffffff4281169116111561203657604051633ccc2fdb60e01b81526001600160601b0382166004820152602401610b19565b6001600160601b03808316600090815260026020526040902054600160681b90048116908216106120df576040516322a16ebf60e01b81526001600160601b03808416600483015282166024820152604401610b19565b5050565b6001600160601b038084166000908152600360209081526040808320938616835292905220546001600160a01b03828116610100909204161461213957604051633a27034560e01b815260040160405180910390fd5b505050565b6001600160601b03828116600090815260036020818152604080842094861684529390529190205460ff168181111561217957612179613823565b036120df5760405163a53f524f60e01b815260040160405180910390fd5b6001600160601b03811660009081526002602081905260409091205460ff16818111156121c6576121c6613823565b146120365760405163e75ec27760e01b815260040160405180910390fd5b6001600160601b03808416600090815260036020908152604080832093861683529290529081205460ff16600181600381111561222357612223613823565b141580156122435750600081600381111561224057612240613823565b14155b156122615760405163c78795c960e01b815260040160405180910390fd5b6001600160601b038581166000818152600360208181526040808420958a168452948152848320805460ff19169092179091559181526002909152908120600501805490915b818110156123df57866001600160601b03168382815481106122cb576122cb6141c4565b600091825260209091206002820401546001909116600c026101000a90046001600160601b0316036123cd578261230360018461419e565b81548110612313576123136141c4565b9060005260206000209060029182820401919006600c029054906101000a90046001600160601b031683828154811061234e5761234e6141c4565b9060005260206000209060029182820401919006600c026101000a8154816001600160601b0302191690836001600160601b0316021790555082805480612397576123976142ee565b60008281526020902060026000199092019182040180546001600160601b03600c60018516026101000a021916905590556123df565b806123d7816141da565b9150506122a7565b5050506001600160601b038086166000908152600360208181526040808420948916845293905291902001549150509392505050565b6001600160601b03811660009081526001602052604090205465ffffffffffff428116600160301b90920416101561246b57604051633ccc2fdb60e01b81526001600160601b0382166004820152602401610b19565b6001600160601b038116600090815260016020819052604082200154900361203657604051633ccc2fdb60e01b81526001600160601b0382166004820152602401610b19565b60025b6001600160601b03821660009081526002602081905260409091205460ff16908111156124e3576124e3613823565b036120365760405163e75ec27760e01b815260040160405180910390fd5b600061250b61374e565b6001600160a01b038089166020808401919091528882166040808501919091529188166060840152608083018790528151601f86018290048202810182019092528482528590859081908401838280828437600092018290525060a086019490945250839291506125799050565b9081600381111561258c5761258c613823565b9052506001600160601b03808a1660009081526002602052604090208054600160681b900490911690600d6125c0836142af565b82546101009290920a6001600160601b038181021990931691831602179091558a81166000908152600360208181526040808420948616845293905291902083518154939550849391929091839160ff1990911690600190849081111561262957612629613823565b0217905550602082015181546001600160a01b0391821661010002610100600160a81b031990911617825560408301516001830180549183166001600160a01b031992831617905560608401516002840180549190931691161790556080820151600382015560a082015160048201906126a3908261434a565b5050506001600160601b03808a1660009081526002602081815260408320600501805460018181018355918552919093209181049091018054868516600c93909416929092026101000a92830292909302191617905550979650505050505050565b6001600160601b038116600090815260026020819052604082205460ff169081111561273357612733613823565b14158061275f57506001600160601b03811660009081526001602052604090205465ffffffffffff1642105b8061279157506001600160601b038116600090815260016020526040902054600160301b900465ffffffffffff164210155b156120365760405163590a661160e01b815260040160405180910390fd5b6000606060405163260cd52960e11b815260040160405180910390fd5b6127d581610e0a565b156120365760405163542262e160e11b81526001600160601b0382166004820152602401610b19565b60016124b4565b61280e816127cc565b61281781612415565b6001600160601b03166000908152600260208190526040909120805460ff19169091179055565b60008082806020019051810190612855919061441c565b8051909150620186a062ffffff909116111561288457604051633350f82560e11b815260040160405180910390fd5b6103e862ffffff16816020015162ffffff1610806128b55750620186a065ffffffffffff16816020015162ffffff16115b156128d357604051633350f82560e11b815260040160405180910390fd5b8060600151516080146128f957604051633350f82560e11b815260040160405180910390fd5b6001600160601b03851660009081526002602052604090819020908201516001820155815160a0860151620186a0916129399162ffffff909116906144ef565b612943919061451c565b6002820155602082015160a0860151620186a0916129689162ffffff909116906144ef565b612972919061451c565b60038201556060820151600482019061298b908261434a565b5060019695505050505050565b6060612ac182600001516040516020016129b491815260200190565b6040516020818303038152906040526129d5856001600160601b0316612dd4565b6040516020016129e59190614530565b60408051601f19818403018152908290526201000160e81b60208301529060230160408051601f198184030181529181526001600160601b03881660009081526002602052206004018054612a3990614131565b80601f0160208091040260200160405190810160405280929190818152602001828054612a6590614131565b8015612ab25780601f10612a8757610100808354040283529160200191612ab2565b820191906000526020600020905b815481529060010190602001808311612a9557829003601f168201915b50505050508660200151612eff565b9392505050565b60608060016001600160601b03841660009081526002602081905260409091205460ff1690811115612afc57612afc613823565b14612b1a5760405163e75ec27760e01b815260040160405180910390fd5b600080612b2685613130565b9150915081600003612b79575050506001600160601b03919091166000908152600260208181526040808420805460ff191690931790925560018082528284200183905581519081019091529081529091565b6001600160601b03851660009081526004602090815260408083206001909252822054909190612bb490600160681b900460ff16600a614630565b9050826001600160401b03811115612bce57612bce613cef565b604051908082528060200260200182016040528015612c0757816020015b612bf46137a0565b815260200190600190039081612bec5790505b50955060008060005b85811015612d7a5760405163f6722be160e01b81526004810186905260009073__$77034020f3ec449d7563df6928dee62441$__9063f6722be190602401606060405180830381865af4158015612c6b573d6000803e3d6000fd5b505050506040513d601f19601f82011682018060405250810190612c8f919061463f565b9050600088868360200151612ca491906144ef565b612cae919061451c565b6001600160601b03808e1660009081526003602090815260408083208751909416835292905220909150612ce06137a0565b81546001600160a01b0361010090910481168252600183015481166020830152600283015416604082015260038201546060820181905260808201849052612d2890886141b1565b9650612d3483876141b1565b825460ff191660021783558d5190965081908e9087908110612d5857612d586141c4565b6020026020010181905250505050508080612d72906141da565b915050612c10565b506001600160601b03989098166000908152600260208181526040808420805460ff191684179055600180835281852090810185905560038101959095559390910199909955815198890190915287525093959350505050565b606081600003612dfb5750506040805180820190915260018152600360fc1b602082015290565b8160005b8115612e255780612e0f816141da565b9150612e1e9050600a8361451c565b9150612dff565b6000816001600160401b03811115612e3f57612e3f613cef565b6040519080825280601f01601f191660200182016040528015612e69576020820181803683370190505b509050815b8515612ef657612e7f60018261419e565b90506000612e8e600a8861451c565b612e9990600a6144ef565b612ea3908861419e565b612eae9060306146a0565b905060008160f81b905080848481518110612ecb57612ecb6141c4565b60200101906001600160f81b031916908160001a905350612eed600a8961451c565b97505050612e6e565b50949350505050565b6060612f1360086001600160401b036146b9565b6001600160401b031685511115612f5d5760405162461bcd60e51b815260206004820152600e60248201526d6c6162656c20746f6f206c6f6e6760901b6044820152606401610b19565b85518351612f6c60428261419e565b821115612fae5760405162461bcd60e51b815260206004820152601060248201526f6d65737361676520746f6f206c6f6e6760801b6044820152606401610b19565b6000600288604051612fc09190614530565b602060405180830381855afa158015612fdd573d6000803e3d6000fd5b5050506040513d601f19601f8201168201806040525081019061300091906142d5565b905060008361301060428561419e565b61301a919061419e565b6001600160401b0381111561303157613031613cef565b6040519080825280601f01601f19166020018201604052801561305b576020820181803683370190505b50905060008282600160f81b8d60405160200161307b94939291906146df565b60408051601f19818403018152828252602083018a905292506000916130bc910160408051601f198184030181529190526130b760218861419e565b6133cb565b905060006130ca838361353d565b90506000806130da8360206133cb565b6130e390614729565b604051908c189250600091506131019082908490869060200161474d565b604051602081830303815290604052905061311d818e8e613636565b9f9e505050505050505050505050505050565b6001600160601b03811660009081526001602081905260408220908101549054829190829061316a90600160681b900460ff16600a614630565b6001600160601b0386166000908152600260209081526040808320600101546004928390528184209151635a9db8df60e01b8152928301829052939450919073__$77034020f3ec449d7563df6928dee62441$__90635a9db8df90602401602060405180830381865af41580156131e5573d6000803e3d6000fd5b505050506040513d601f19601f8201168201806040525081019061320991906142d5565b905060008080805b8481101561335057604051636fae84f760e11b8152600481018790526001600160601b038216602482015260009073__$77034020f3ec449d7563df6928dee62441$__9063df5d09ee90604401602060405180830381865af415801561327b573d6000803e3d6000fd5b505050506040513d601f19601f8201168201806040525081019061329f91906142d5565b9050600081600201548a83600101546132b891906144ef565b6132c2919061451c565b9050888110156132d957849c50829b505050613350565b8094508160010154866132ec91906141b1565b9550806132f98b886144ef565b613303919061451c565b93508a8410613323579b508b61331a8360016141b1565b9b505050613350565b61332e60018861419e565b830361333b57809c50869b505b50508080613348906141da565b915050613211565b506001600160601b038b1660009081526002602081905260409091200154811015613388575060009a8b9a5098505050505050505050565b6001600160601b038b166000908152600260205260409020600101548a10156133be575060009a8b9a5098505050505050505050565b5050505050505050915091565b60606420000000008211156134125760405162461bcd60e51b815260206004820152600d60248201526c6d61736b20746f6f206c6f6e6760981b6044820152606401610b19565b6000826001600160401b0381111561342c5761342c613cef565b6040519080825280601f01601f191660200182016040528015613456576020820181803683370190505b5090506000613466602085614780565b15613472576001613475565b60005b60ff1661348360208661451c565b61348d91906141b1565b905060005b8163ffffffff168163ffffffff161015613533576000600287836040516020016134bd929190614794565b60408051601f19818403018152908290526134d791614530565b602060405180830381855afa1580156134f4573d6000803e3d6000fd5b5050506040513d601f19601f8201168201806040525081019061351791906142d5565b602083810286010152508061352b816147c6565b915050613492565b5090949350505050565b815181516060919080821461358d5760405162461bcd60e51b8152602060048201526016602482015275786f723a20646966666572656e74206c656e6774687360501b6044820152606401610b19565b600061359a602084614780565b156135a65760016135a9565b60005b60ff166135b760208561451c565b6135c191906141b1565b90506000836001600160401b038111156135dd576135dd613cef565b6040519080825280601f01601f191660200182016040528015613607576020820181803683370190505b50905060005b82811015611251576020818102898101820151898201830151189084019091015260010161360d565b606060008060056001600160a01b0316865186518651898989604051602001613664969594939291906147df565b60408051601f198184030181529082905261367e91614530565b600060405180830381855afa9150503d80600081146136b9576040519150601f19603f3d011682016040523d82523d6000602084013e6136be565b606091505b5091509150816137015760405162461bcd60e51b815260206004820152600e60248201526d36b7b232bc38103330b4b632b21760911b6044820152606401610b19565b95945050505050565b6040805161010081018252600080825260208201819052918101829052606081018290526080810182905260a0810182905260c0810182905260e081019190915290565b6040805160c08101909152806000815260200160006001600160a01b0316815260200160006001600160a01b0316815260200160006001600160a01b0316815260200160008152602001606081525090565b6040518060c0016040528060006001600160a01b0316815260200160006001600160a01b0316815260200160006001600160a01b031681526020016000815260200160008152602001606081525090565b6001600160601b038116811461203657600080fd5b60006020828403121561381857600080fd5b8135612ac1816137f1565b634e487b7160e01b600052602160045260246000fd5b6003811061384957613849613823565b9052565b60005b83811015613868578181015183820152602001613850565b50506000910152565b6000815180845261388981602086016020860161384d565b601f01601f19169290920160200192915050565b600081518084526020808501945080840160005b838110156138d65781516001600160601b0316875295820195908201906001016138b1565b509495945050505050565b602081526138f3602082018351613839565b6001600160601b0360208301511660408201526000604083015161392260608401826001600160601b03169052565b5060608301516080830152608083015160a083015260a083015160c083015260c08301516101008060e085015261395d610120850183613871565b915060e0850151601f198584030182860152613979838261389d565b9695505050505050565b6000806040838503121561399657600080fd5b82356139a1816137f1565b915060208301356139b1816137f1565b809150509250929050565b6004811061203657612036613823565b6139d5876139bc565b8681526001600160a01b0386811660208301528581166040830152841660608201526080810183905260c060a08201819052600090610dfe90830184613871565b613a208186613839565b60006001600160601b038086166020840152808516604084015250608060608301526139796080830184613871565b80356001600160a01b0381168114613a6657600080fd5b919050565b600080600060608486031215613a8057600080fd5b8335613a8b816137f1565b92506020840135613a9b816137f1565b9150613aa960408501613a4f565b90509250925092565b60008060408385031215613ac557600080fd5b8235613ad0816137f1565b946020939093013593505050565b60008083601f840112613af057600080fd5b5081356001600160401b03811115613b0757600080fd5b602083019150836020828501011115613b1f57600080fd5b9250929050565b600080600080600080600060c0888a031215613b4157600080fd5b8735613b4c816137f1565b9650613b5a60208901613a4f565b9550613b6860408901613a4f565b9450613b7660608901613a4f565b93506080880135925060a08801356001600160401b03811115613b9857600080fd5b613ba48a828b01613ade565b989b979a50959850939692959293505050565b60008060008060608587031215613bcd57600080fd5b8435613bd8816137f1565b93506020850135925060408501356001600160401b03811115613bfa57600080fd5b613c0687828801613ade565b95989497509550505050565b828152604060208201526000610c396040830184613871565b60008151613c38816139bc565b80845250602082015160018060a01b03808216602086015280604085015116604086015280606085015116606086015250506080820151608084015260a082015160c060a0850152610c3960c0850182613871565b6000602080830181845280855180835260408601915060408160051b870101925083870160005b82811015613ce257603f19888603018452613cd0858351613c2b565b94509285019290850190600101613cb4565b5092979650505050505050565b634e487b7160e01b600052604160045260246000fd5b60405160a081016001600160401b0381118282101715613d2757613d27613cef565b60405290565b604080519081016001600160401b0381118282101715613d2757613d27613cef565b604051608081016001600160401b0381118282101715613d2757613d27613cef565b604051601f8201601f191681016001600160401b0381118282101715613d9957613d99613cef565b604052919050565b803565ffffffffffff81168114613a6657600080fd5b801515811461203657600080fd5b60006001600160401b03821115613dde57613dde613cef565b50601f01601f191660200190565b803560ff81168114613a6657600080fd5b60008060008060808587031215613e1357600080fd5b8435613e1e816137f1565b93506020858101356001600160401b0380821115613e3b57600080fd5b9087019060a0828a031215613e4f57600080fd5b613e57613d05565b613e6083613da1565b8152613e6d848401613da1565b848201526040830135613e7f81613db7565b604082015260608381013590820152608083013582811115613ea057600080fd5b80840193505089601f840112613eb557600080fd5b82359150613eca613ec583613dc5565b613d71565b8281528a85848601011115613ede57600080fd5b828585018683013760008584830101528060808301525080965050505050613f0860408601613dec565b9150613f1660608601613dec565b905092959194509250565b60208101613f2e836139bc565b91905290565b602081526000612ac16020830184613c2b565b6000806040808486031215613f5b57600080fd5b8335613f66816137f1565b92506020848101356001600160401b0380821115613f8357600080fd5b818701915087601f830112613f9757600080fd5b813581811115613fa957613fa9613cef565b613fb7848260051b01613d71565b818152848101925060069190911b830184019089821115613fd757600080fd5b928401925b818410156140175785848b031215613ff45760008081fd5b613ffc613d2d565b84358152858501358682015283529285019291840191613fdc565b8096505050505050509250929050565b6140318189613839565b60006001600160601b0380891660208401528088166040840152508560608301528460808301528360a083015260e060c083015261407260e0830184613871565b9998505050505050505050565b60006040808301818452808651808352606092508286019150828160051b8701016020808a0160005b8481101561411e57898403605f19018652815180516001600160a01b0390811686528482015181168587015289820151168986015287810151888601526080808201519086015260a09081015160c09186018290529061410a81870183613871565b9785019795505050908201906001016140a8565b5050878203908801526140728189613871565b600181811c9082168061414557607f821691505b60208210810361416557634e487b7160e01b600052602260045260246000fd5b50919050565b60006020828403121561417d57600080fd5b8151612ac181613db7565b634e487b7160e01b600052601160045260246000fd5b818103818111156106fd576106fd614188565b808201808211156106fd576106fd614188565b634e487b7160e01b600052603260045260246000fd5b6000600182016141ec576141ec614188565b5060010190565b65ffffffffffff81811683821601908082111561421257614212614188565b5092915050565b6001600160601b0381811683821601908082111561421257614212614188565b600080835461424781614131565b6001828116801561425f5760018114614274576142a3565b60ff19841687528215158302870194506142a3565b8760005260208060002060005b8581101561429a5781548a820152908401908201614281565b50505082870194505b50929695505050505050565b60006001600160601b038083168181036142cb576142cb614188565b6001019392505050565b6000602082840312156142e757600080fd5b5051919050565b634e487b7160e01b600052603160045260246000fd5b601f82111561213957600081815260208120601f850160051c8101602086101561432b5750805b601f850160051c820191505b81811015611c1657828155600101614337565b81516001600160401b0381111561436357614363613cef565b614377816143718454614131565b84614304565b602080601f8311600181146143ac57600084156143945750858301515b600019600386901b1c1916600185901b178555611c16565b600085815260208120601f198616915b828110156143db578886015182559484019460019091019084016143bc565b50858210156143f95787850151600019600388901b60f8161c191681555b5050505050600190811b01905550565b805162ffffff81168114613a6657600080fd5b6000602080838503121561442f57600080fd5b82516001600160401b038082111561444657600080fd5b908401906080828703121561445a57600080fd5b614462613d4f565b61446b83614409565b8152614478848401614409565b848201526040830151604082015260608301518281111561449857600080fd5b80840193505086601f8401126144ad57600080fd5b825191506144bd613ec583613dc5565b82815287858486010111156144d157600080fd5b6144e08386830187870161384d565b60608201529695505050505050565b80820281158282048414176106fd576106fd614188565b634e487b7160e01b600052601260045260246000fd5b60008261452b5761452b614506565b500490565b6000825161454281846020870161384d565b9190910192915050565b600181815b8085111561458757816000190482111561456d5761456d614188565b8085161561457a57918102915b93841c9390800290614551565b509250929050565b60008261459e575060016106fd565b816145ab575060006106fd565b81600181146145c157600281146145cb576145e7565b60019150506106fd565b60ff8411156145dc576145dc614188565b50506001821b6106fd565b5060208310610133831016604e8410600b841016171561460a575081810a6106fd565b614614838361454c565b806000190482111561462857614628614188565b029392505050565b6000612ac160ff84168361458f565b60006060828403121561465157600080fd5b604051606081018181106001600160401b038211171561467357614673613cef565b6040528251614681816137f1565b8152602083810151908201526040928301519281019290925250919050565b60ff81811683821601908111156106fd576106fd614188565b60006001600160401b03808416806146d3576146d3614506565b92169190910492915050565b848152600084516146f781602085016020890161384d565b808301905060ff60f81b85166020820152835161471b81602184016020880161384d565b016021019695505050505050565b805160208083015191908110156141655760001960209190910360031b1b16919050565b60ff60f81b841681528260018201526000825161477181602185016020870161384d565b91909101602101949350505050565b60008261478f5761478f614506565b500690565b600083516147a681846020880161384d565b60e09390931b6001600160e01b0319169190920190815260040192915050565b600063ffffffff8083168181036142cb576142cb614188565b8681528560208201528460408201526000845161480381606085016020890161384d565b84519083019061481a81606084016020890161384d565b845191019061483081606084016020880161384d565b016060019897505050505050505056fea26469706673582212209366b39d9c6985314ff7c26f87a836359acba6696e705e44031ccee911ffda7164736f6c63430008130033",
    "linkReferences": {
      "src/modules/auctions/LSBBA/MaxPriorityQueue.sol": {
        "MaxPriorityQueue": [
          {
            "start": 7035,
            "length": 20
          },
          {
            "start": 7603,
            "length": 20
          },
          {
            "start": 8112,
            "length": 20
          },
          {
            "start": 11631,
            "length": 20
          },
          {
            "start": 13033,
            "length": 20
          },
          {
            "start": 13183,
            "length": 20
          }
        ]
      }
    }
  },
  "methodIdentifiers": {
    "INIT()": "ea643914",
    "PARENT()": "122b83f9",
    "TYPE()": "bb24fe8a",
    "VEECODE()": "d61735ca",
    "auction(uint96,(uint48,uint48,bool,uint256,bytes),uint8,uint8)": "bae96bdd",
    "auctionData(uint96)": "e2cfa6ea",
    "bid(uint96,address,address,address,uint256,bytes)": "56ab110b",
    "cancelAuction(uint96)": "b04046df",
    "capacityInQuote(uint96)": "39792cdc",
    "decryptAndSortBids(uint96,(uint256,bytes32)[])": "dcfab7a6",
    "getBidData(uint96,uint96)": "d756ff97",
    "getDecryptData(uint96)": "2c7634ab",
    "getLot(uint96)": "4e1f4258",
    "getLotData(uint96)": "0f613f15",
    "getNextBidsToDecrypt(uint96,uint256)": "9dffb4d0",
    "getSortedBidCount(uint96)": "f6dac886",
    "getSortedBidData(uint96,uint96)": "e0eb8951",
    "hasEnded(uint96)": "03855921",
    "isLive(uint96)": "732efc03",
    "lotData(uint96)": "5806afc3",
    "lotEncryptedBids(uint96,uint96)": "20cff4e0",
    "lotSortedBids(uint96)": "9369d830",
    "maxAmountAccepted(uint96)": "1a85c634",
    "maxPayout(uint96)": "d3ad2fed",
    "minAuctionDuration()": "54134876",
    "payoutFor(uint96,uint256)": "bd8dd0fd",
    "priceFor(uint96,uint256)": "4dc1a12f",
    "purchase(uint96,uint256,bytes)": "76103c8f",
    "refundBid(uint96,uint96,address)": "2efdcfc6",
    "remainingCapacity(uint96)": "ace54da5",
    "settle(uint96)": "fb9d3cb6"
  },
  "id": 53
}